:020000040800F2
:10000000609000204D010008B92C0008BB2C0008AE
:10001000BF2C0008C32C0008C72C000800000000FB
:10002000000000000000000000000000CB2C0008D1
:10003000CD2C000800000000CF2C0008D12C0008B7
:1000400067010008670100086701000867010008F0
:100050006701000867010008153000086701000803
:1000600067010008670100086701000867010008D0
:1000700067010008670100086701000867010008C0
:1000800067010008670100086701000867010008B0
:1000900067010008670100086701000867010008A0
:1000A0006701000867010008670100086701000890
:1000B00067010008092D00086701000867010008B2
:1000C0006701000867010008670100086701000870
:1000D00067010008892D0008972D0008AF2E000841
:1000E00067010008D92C00086701000867010008B3
:1000F0006701000867010008670100086701000840
:10010000670100086701000867010008670100082F
:1001100067010008670100086B2D000867010008EF
:10012000670100086701000867010008670100080F
:10013000DFF80CD005F0DAFF00480047DB270008A5
:100140006090002080F308887047000006488047D0
:1001500006480047FEE7FEE7FEE7FEE7FEE7FEE7AC
:10016000FEE7FEE7FEE7FEE74F0200083101000868
:100170000CB50020019000906C48006840F480307D
:100180006A49086000BF6948006800F400300090C8
:100190000198401C0190009818B90198B0F5A06F23
:1001A000F1D16248006800F4003010B101200090E5
:1001B00001E0002000900098012843D15C480068CD
:1001C00040F010005A4908600846006820F003001B
:1001D00008600846006840F0020008605348406824
:1001E000524948600846406848600846406840F404
:1001F000806048600846406820F47C1048600846EB
:10020000406840F4E81048600846006840F080709C
:10021000086000BF4548006800F000700028F9D071
:100220004248406820F00300404948600846406862
:1002300040F00200486000BF3C48406800F00C00FD
:100240000828F9D10CBD10B5FFF792FF10BD10B50D
:100250003648006840F001003449086008464068AC
:10026000344908403149486008460068324908402E
:100270002E4908600846006820F48020086008467F
:10028000406820F4FE0048604FF41F008860FFF7CC
:10029000DAFF4FF000602949086010BD10B5002159
:1002A00000200022214B5B6803F00C0121B10429DE
:1002B00006D0082928D107E0214B224C236027E0F3
:1002C0001F4B204C236023E0184B5B6803F4701035
:1002D000164B5B6803F48032022303EB904022B993
:1002E000194B4343174C23600DE0104B5B6803F43C
:1002F000003323B1144B4343124C236003E0104BF3
:100300004343104C236003E00D4B0E4C236000BFB1
:1003100000BF064B5B68C3F303130C4CE15C094B55
:100320001B68CB40074C236010BD0000001002404A
:10033000002002400000FFF8FFFFF6FE08ED00E09D
:1003400000127A000000002000093D000400002097
:1003500031490143314A1160704770B500210023D3
:100360000F22C47804B32D4C246804F4E064C4F56F
:10037000E064210AC1F10403CA40447804FA03F19D
:100380008478144021430901254C0678A15504784E
:1003900004F01F050124AC4005786D11AD0005F196
:1003A000E025C5F8004109E0047804F01F050124A8
:1003B000AC401C4D0678761145F8264070BD1A4AAF
:1003C0000A400243154B1B1F1A60704739B1134A8C
:1003D000121D12680243114B1B1D1A6006E00F4AE2
:1003E000121D126882430D4B1B1D1A6070470428B2
:1003F00008D14FF0E021096941F004014FF0E022FB
:10040000116107E04FF0E021096921F004014FF08C
:10041000E0221161704700000000FA050CED00E0D9
:1004200000E400E080E100E080FFFF1F10B5012044
:1004300000F0A0FF002000F09DFF10BD2A490860D9
:1004400070472949091F08607047274984310860AF
:10045000704701460020254A10884FF67F42104021
:100460000843224A10807047014600201F4A108826
:100470004FF68072104008431C4A1080704708B540
:1004800000220092194A2C3A0092009A02440092EB
:10049000009A116008BD08B501460020009013487D
:1004A0002C3800900098084400900098008808BDFF
:1004B0000D489C300068C0B270470C480830008876
:1004C00040F0010009490831088070470648A03013
:1004D0000068C0B2704705480830008840F002004C
:1004E000024908310880704704860D422C6C004098
:1004F000002044490860091D0860091D0860091DA5
:10050000086041483F4914310860704700213D4967
:100510008279002A3AD00A46126803689A430B4649
:100520001A600A1D126803689A430B1D1A6002794B
:1005300011440A6803681A430A60324A0832126892
:1005400003689A432F4B08331A601A1D1268036818
:100550009A432C4B0C331A604279102A0ED11A1F81
:10056000126803681A43274B08331A601A1D126871
:1005700003681A43234B0C331A600DE0214942797A
:1005800011440A6803681A430A6005E002791144BD
:100590000A6803689A430A6070470021016001718C
:1005A0000C21417100218171704716491031096891
:1005B0000143144A10321160704701460020114A6D
:1005C000143212680A400AB1012000E0002070478E
:1005D0000C49143108607047014600200022094B85
:1005E0001B6803EA0102074B14331B680B4013B16D
:1005F0000AB1012000E00020704702491431086070
:100600007047000000040140FFFF0F00014600207A
:10061000FE4A106800F03800084310607047FB493C
:10062000096821F00801F94A11601146096801437F
:1006300011607047F549096821F01001F34A116013
:1006400011460968014311607047F148EF4948605D
:10065000F04848607047EE48EC494860ED48486013
:100660007047EA48006940F08000E8490861704737
:10067000E648006940F08000E449086170470420C2
:10068000E249C96801F0010109B101200EE0DF492A
:10069000C96801F0040109B1022007E0DB49C9681B
:1006A00001F0100109B1032000E00420704700B5FB
:1006B00002460423FFF7E3FF034603E0FFF7DFFFF3
:1006C0000346521E012B01D1002AF7D102B905239E
:1006D000184600BD30B5044604254FF43020FFF71E
:1006E000E6FF0546042D17D1C848006940F0020016
:1006F000C649086108464461006940F0400008614D
:100700004FF43020FFF7D3FF0546C048006941F69B
:10071000FD710840BD490861284630BD10B504246C
:100720004FF43020FFF7C3FF0446042C16D1B7481E
:10073000006940F00400B54908610846006940F0CE
:10074000400008614FF43020FFF7B1FF0446AF4886
:10075000006941F6FB710840AC490861204610BDB4
:1007600000B502460423FFF78AFF034603E0FFF7C4
:1007700086FF0346521E012B01D1002AF7D102B990
:100780000523184600BD10B504244FF43020FFF7B0
:10079000E7FF0446042C16D19C48006940F0040091
:1007A0009A4908610846006940F0400008614FF42A
:1007B0003020FFF7D5FF04469448006941F6FB71ED
:1007C000084092490861204610BD00208F49C96940
:1007D00001F0020109B1012000E00020704730B5AE
:1007E000A5250424FFF7F1FF00B100254FF43020C8
:1007F000FFF75DFF0446042C3AD1854883498860A1
:10080000844888600846006940F020000861084676
:10081000006940F0400008614FF43020FFF747FFC7
:100820000446042C1BD17948006941F6DF71084069
:10083000764908610846006940F010000861764872
:100840000580E002FFF733FF0446052C10D06F4807
:10085000006941F6EF7108406C49086108E0052C19
:1008600006D06A48006941F6EF710840674908619F
:10087000204630BD78B506460C4604250020009081
:10088000E802FFF714FF0546042D24D15F480069F4
:1008900040F001005D4908613480E802FFF707FF7E
:1008A0000546042D10D1B01C0090200C0099088042
:1008B000E802FFF7FCFE05465448006941F6FE7168
:1008C00008405249086106E05048006941F6FE714F
:1008D00008404E490861284678BD70B504460D466B
:1008E0000426F002FFF7E3FE0646042E11D1474826
:1008F000006940F00100454908612580F002FFF7DA
:10090000D6FE06464148006941F6FE7108403F495F
:100910000861304670BD70B505460E460424E002FD
:10092000FFF7C5FE0446042C17D1394837498860C3
:10093000384888600846006940F0100008612E8041
:10094000E002FFF7B4FE0446052C06D02F480069EC
:1009500041F6EF7108402D490861204670BD2DE930
:10096000F04304464FF6FF763746B046B1460425BD
:10097000E443E6B2C4F30727C4F307484FEA146917
:10098000E802FFF794FE0546042D49D120481F498F
:100990008860204888600846006940F010000861BF
:1009A000FF2E06D01C4808300680E802FFF77FFEC5
:1009B0000546042D08D1FF2F06D017480A300780BE
:1009C000E802FFF774FE0546042D0AD1B8F1FF0FC7
:1009D00007D011480C30A0F80080E802FFF767FE4E
:1009E0000546042D0AD1B9F1FF0F07D00A480E3091
:1009F000A0F80090E802FFF75AFE0546052D0FD03B
:100A00000248006941F6EF71084007E0002002400B
:100A100023016745AB89EFCD00F8FF1F66490861E8
:100A20002846BDE8F08330B5054604244FF4302055
:100A3000FFF73DFE0446042C41D160485E498860C2
:100A40005F4888600846006940F020000861084659
:100A5000006940F0400008614FF43020FFF727FEA6
:100A60000446042C22D15448006941F6DF71084045
:100A7000514908610846006940F0100008611DB145
:100A800000205049088002E0A5204E4908804FF41C
:100A90003020FFF70CFE0446052C10D046480069B4
:100AA00041F6EF7108404449086108E0052C06D082
:100AB0004148006941F6DF7108403F49086120461E
:100AC00030BDF0B505460E46174604243B483A496A
:100AD00088603B488860E002FFF7E9FD0446042C8B
:100AE00019D13548006940F010003349086147F0DA
:100AF000F800304328433349891C0880E002FFF79F
:100B0000D6FD0446052C06D02B48006941F6EF714E
:100B10000840294908612046F0BD2748C06980087F
:100B200070472548006A704700202349096801F092
:100B3000200109B1012000E00020704729B11E4AC0
:100B4000126902431C4B1A6104E01B4A126982437A
:100B5000194B1A61704701460020012908D1164A35
:100B6000D26902F001020AB1012008E0002006E08B
:100B7000114AD2680A400AB1012000E00020704703
:100B80000D49C860704704200B49C96801F0010194
:100B900009B101200EE00849C96801F0040109B15A
:100BA000022007E00449C96801F0100109B10320DF
:100BB00000E0042070470000002002402301674548
:100BC000AB89EFCD00F8FF1F10B50446CC48844236
:100BD00008D10121042000F0B3FB0021042000F023
:100BE000AFFB46E0C748844208D10121082000F04D
:100BF000A7FB0021082000F0A3FB3AE0C248844292
:100C000008D10121102000F09BFB0021102000F0F2
:100C100097FB2EE0BD48844208D10121202000F03E
:100C20008FFB0021202000F08BFB22E0B84884429B
:100C300008D10121402000F083FB0021402000F07A
:100C40007FFB16E0B348844208D10121802000F0E8
:100C500077FB0021802000F073FB0AE0AE4884425D
:100C600007D10121801500F06BFB0021A01500F0D9
:100C700067FB10BD10B50121084600F061FB0021A3
:100C8000012000F05DFB10BD2DE9F041024600257A
:100C90000026002000230024002791F803C00CF058
:100CA0000F0591F803C00CF0100CBCF1000F03D03D
:100CB00091F802C04CEA050591F800C0BCF1000FA4
:100CC00031D0146800202BE04FF0010C0CFA00F337
:100CD000B1F800C00CEA03069E4220D183004FF019
:100CE0000F0C0CFA03F7BC4305FA03FC4CEA0404AE
:100CF00091F803C0BCF1280F06D14FF0010C0CFA9B
:100D000000FCC2F814C00AE091F803C0BCF1480F1F
:100D100005D14FF0010C0CFA00FCC2F810C0401CC9
:100D20000828D1D31460B1F800C0BCF1FF0F34DD46
:100D3000546800202EE000F1080C4FF0010808FA7A
:100D40000CF3B1F800C00CEA03069E4221D18300E7
:100D50004FF00F0C0CFA03F7BC4305FA03FC4CEA06
:100D6000040491F803C0BCF1280F05D100F1080C70
:100D700008FA0CF8C2F8148091F803C0BCF1480FCF
:100D800007D100F1080C4FF0010808FA0CF8C2F87E
:100D90001080401C0828CED35460BDE8F0814FF687
:100DA000FF710180022181700421C17070470246E9
:100DB000002093680B400BB1012000E00020704739
:100DC0000146886880B2704702460020D3680B4015
:100DD0000BB1012000E0002070470146C86880B2D6
:100DE000704701617047416170470AB1016100E0DD
:100DF00041617047C16070474FF480320A4382619D
:100E00008161826182698269704702460020434B9A
:100E100018684FF68073184040EA021008433F4BB1
:100E2000186070473E49C8617047F0B50A46002314
:100E300000240021002500F00046B6F1004F02D149
:100E4000364EF16901E0354E7168C0F3034583B257
:100E500000F44016B6F5401F08D121F070612F4E06
:100E6000766826F070662D4F7E6012E000F48016E2
:100E7000B6F5801F06D1032606FA05F4A14341F01A
:100E8000706106E0460D360103FA06F6B14341F003
:100E9000706122B1460D360103FA06F6314300F0C7
:100EA0000046B6F1004F02D11C4EF16101E01B4E2D
:100EB0007160F0BD30B500228B071C0F0F2303FAC1
:100EC00004F2164B08338C1053F824309343134C20
:100ED00008348D1044F8253023468C1053F8243004
:100EE0008C07240F00FA04F423430C4C08348D10B3
:100EF00044F8253030BD0A49DC31086070470000F5
:100F000000080140000C01400010014000140140A5
:100F100000180140001C0140002001400000014079
:100F2000000020420E49086070470D494860704734
:100F30000B49886070474AF6AA2009490860704743
:100F40004CF6CC4006490860704701460020044A30
:100F5000D2680A400AB1012000E00020704700007A
:100F60000030004010B50121080700F0F6F900211B
:100F70004FF0805000F0F1F910BD2A490862704727
:100F800028490861704701460020274A106820F070
:100F9000E0000843106070472249A03108607047A4
:100FA00010B502460020204B186820F003001043C3
:100FB00018601E4B1B6843F004031C4C236001297E
:100FC00001D130BF00E020BF184B1B6823F00403A1
:100FD000164C236010BD1448006840F0040012490C
:100FE00008600846006840F0020008600F4800688A
:100FF00040F004000D49086000BF00BF30BF7047DB
:1010000001460020084A52680A400AB1012000E067
:10101000002070470449096841EA8001024A1160D2
:101020007047000000000E420070004010ED00E02C
:10103000DF48006840F00100DD490860084640686C
:10104000DC490840DA49486008460068DA49084047
:10105000D74908600846006820F4802008600846E8
:10106000406820F4FE0048604FF41F00886070471D
:10107000CF49096821F48031CD4A116011460968D1
:1010800021F480211160B0F5803F03D0B0F5802FAE
:101090000ED106E0C649096841F48031C44A1160A6
:1010A00007E0C349096841F4A021C14A116000E08A
:1010B00000BF00BF704710B501460022002300208A
:1010C0004A11012A02D1BA4C236806E0022A02D151
:1010D000B74C236A01E0B64C636A01F01F02012499
:1010E00094401C400CB1012000E0002010BD38B538
:1010F000002000900024002500BF3120FFF7DBFF17
:1011000005460098401C00900098B0F5A06F01D0F3
:10111000002DF2D03120FFF7CEFF08B1012400E00E
:101120000024204638BD01460020A14A106820F066
:10113000F80040EAC10010607047A049086070479D
:10114000024600209A4B586820F47C1042EA0103C2
:101150001843974B58607047984908667047014696
:101160000020934A506820F0030008435060704705
:101170008F48406800F00C007047014600208C4A00
:10118000506820F0F000084350607047014600208E
:10119000874A506820F4E060084350607047014679
:1011A0000020834A506820F4605040EAC10050603B
:1011B000704729B17E4A527A02437D4B5A7204E04D
:1011C0007B4A527A82437A4B5A7270477B49D831B4
:1011D0000860704701460020754A506820F440407E
:1011E0000843506070470021714A20321170704AE4
:1011F00082F82010012802D004280AD104E001213D
:101200006B4A2032117005E00521694A20321170C5
:1012100000E000BF00BF704769490860704764493B
:10122000096A0143624A116270476549443908609E
:10123000704730B500210022002400235C4D6D680A
:1012400005F00C0121B1042905D0082923D105E0BE
:101250005C4D056022E05B4D05601FE0544D6D68FC
:1012600005F47012524D6D6805F48034022505EBCB
:1012700092421CB9544D554305600BE04C4D6D68CE
:1012800005F400351DB1504D5543056002E04D4D4C
:101290005543056002E04B4D056000BF00BF444D63
:1012A0006D6805F0F0010909484D6B5C0568DD408B
:1012B00045603F4D6D6805F4E061090A434D6B5C84
:1012C0004568DD4085603A4D6D6805F46051C90A96
:1012D0003E4D6B5C4568DD40C560354D6D6805F47D
:1012E0004041890B3A4D6B5CC568B5FBF3F5056170
:1012F00030BD29B12E4A526902432D4B5A6104E098
:101300002B4A526982432A4B5A61704729B1284AB5
:1013100092690243264B9A6104E0254A926982430E
:10132000234B9A61704729B1214AD2690243204B6D
:10133000DA6104E01E4AD26982431D4BDA617047CC
:1013400029B11B4AD2680243194BDA6004E0184AFB
:10135000D2688243164BDA60704729B1144A126989
:101360000243134B1A6104E0114A12698243104B85
:101370001A61704712494039086070470F49C864C4
:1013800070470B49C87170470948406A40F0807047
:1013900007494862704701460020054A92680A40A2
:1013A0000AB1012000E000207047014988727047AF
:1013B000001002400000FFF8FFFFF6FE000042426E
:1013C0008004424200127A0000093D00140000200F
:1013D0002400002029B1504A128802434E4B1A8043
:1013E00004E04D4A128882434B4B1A8070474A48AA
:1013F000001D008840F010004749091D0880704713
:101400004548001D00884FF6EF7108404249091D0C
:1014100008807047002140481C300188001F008868
:1014200041EA0040704700B50246FFF7E0FF100CAC
:10143000394918310880091D0A80FFF7E1FF00BD16
:1014400000B50246FFF7D3FFC2F30340324908312B
:101450000880091D0A80FFF7D3FF00BD00B50246D2
:10146000FFF7C5FF100C2C4920310880091D0A80A8
:10147000FFF7C6FF00BD0020274910310988090782
:10148000080B2549143109880843704700BF2248DA
:10149000001D008800F020000028F8D070471E488A
:1014A000001D00884FF6F77108401B49091D088090
:1014B00000BF1948001D008800F008000028F8D07F
:1014C000704701460020144A121D12880A400AB1D2
:1014D000012000E0002070470F49091D0988814361
:1014E0000D4A121D11807047014600200A4A121D44
:1014F00012880A40D0B2084A12880A4012B108B1D4
:10150000012000E0002070470349091D098881433C
:10151000014A121D118070470028004010B5044692
:10152000FE48844208D10121C014FFF709FF0021C1
:10153000E014FFF705FFC4E0B4F1804F08D10121AA
:101540000846FFF70AFF00210120FFF706FFB8E079
:10155000F348844208D101210220FFF7FEFE00215A
:101560000220FFF7FAFEACE0EE48844208D10121E8
:101570000420FFF7F2FE00210420FFF7EEFEA0E0BA
:10158000E948844208D101210820FFF7E6FE002146
:101590000820FFF7E2FE94E0E448844208D10121EC
:1015A0001020FFF7DAFE00211020FFF7D6FE88E0BA
:1015B000DF48844208D101212020FFF7CEFE002120
:1015C0002020FFF7CAFE7CE0DA48844208D10121DE
:1015D0004014FFF7B5FE00216014FFF7B1FE70E084
:1015E000D548844209D10121C804FFF7A9FE002192
:1015F0004FF40020FFF7A4FE63E0D048844209D1F5
:1016000001210805FFF79CFE00214FF48010FFF731
:1016100097FE56E0CA48844209D101214805FFF7E8
:101620008FFE00214FF40010FFF78AFE49E0C54805
:10163000844208D101214020FFF78FFE0021402085
:10164000FFF78BFE3DE0C048844208D10121802095
:10165000FFF783FE00218020FFF77FFE31E0BB48CB
:10166000844208D101218015FFF777FE0021A015E3
:10167000FFF773FE25E0B648844209D10121080432
:10168000FFF75EFE00214FF48030FFF759FE18E0AF
:10169000B048844209D101214804FFF751FE0021DE
:1016A0004FF40030FFF74CFE0BE0AB48844208D10A
:1016B00001218804FFF744FE00214FF48020FFF74A
:1016C0003FFE10BD00220288944B98420ED0994BE9
:1016D00098420BD0B0F1804F08D0914B984205D082
:1016E000904B984202D0904B984204D14FF68F73A2
:1016F0001A404B881A438D4B984207D08C4B984226
:1017000004D04FF6FF431A40CB881A4302808B88DF
:1017100083850B880385814B98420BD0854B98427B
:1017200008D08B4B984205D08A4B984202D08A4B06
:10173000984201D10B7A038601238382704770B5EA
:10174000002400220023058C4FF6FE7635400584E8
:10175000028C8388048B4FF68F752C40B51E2C406D
:101760000D882C43751E2A400D892A434D882A4333
:101770006A4DA8420BD06F4DA84208D0744DA842C4
:1017800005D0744DA84202D0734DA84213D14FF634
:10179000F7752A404D892A434FF6FB752A408D88FC
:1017A0002A434FF6FF652B404FF6FF552B408D899E
:1017B0002B43CD892B4383800483CD888586028487
:1017C00070BD70B5002400220023058C4FF6EF7623
:1017D00035400584028C8388048B48F6FF752C40C5
:1017E0004FF6FF452C400D884FF6FF7606EA05259B
:1017F0002C434FF6DF752A400D8906EA05152A436A
:101800004D8806EA05152A43444DA84202D0494DA9
:10181000A8421DD14FF67F752A404D894FF6FF76BD
:1018200006EA05152A434FF6BF752A408D8806EA59
:1018300005152A434FF6FF352B404FF2FF752B401D
:101840008D8906EA85052B43CD8906EA85052B435C
:1018500083800483CD880587028470BD70B5002421
:1018600000220023058C4FF6FF6635400584028C6C
:101870008388848B4FF68F752C404FF6FC752C4077
:101880000D882C434FF6FF552A400D894FF6FF7601
:1018900006EA05252A434D8806EA05252A431F4DF9
:1018A000A84202D0234DA8421DD14FF2FF752A4015
:1018B0004D894FF6FF7606EA05252A434FF6FF3598
:1018C0002A408D8806EA05252A434EF6FF752B40EF
:1018D0004DF6FF752B408D8906EA05152B43CD8902
:1018E00006EA05152B4383808483CD88858702848F
:1018F00070BD70B5002200230024058C4EF6FF76E3
:1019000035400584038C8488828B48F6FF752A4015
:101910004FF6FF452A400D8820E00000002C0140D2
:101920000004004000080040000C0040001000408F
:101930000014004000340140004C014000500140C0
:101940000054014000180040001C004000200040EE
:101950000040014000440140004801404FF6FF763E
:1019600006EA05252A434DF6FF752B400D8906EA48
:1019700005352B434D8806EA05352B43FA4DA84221
:1019800002D0FA4DA84208D14BF6FF752C408D8944
:101990004FF6FF7606EA85152C4384808283CD8836
:1019A000A0F84050038470BD828B4FF2FF331A4081
:1019B0008283828B4FF6FF7303EA01231A438283EB
:1019C0007047F0B50C461546002200210026078C12
:1019D0004EF6FF7C07EA0C070784828B018C4FF6DA
:1019E000FF7707EA043640F6FF473A404FF6FF77A5
:1019F00007EA05273A434FF6FF7707EA03373A43EA
:101A0000D94FB8420ED0D94FB8420BD0B0F1804F69
:101A100008D0D74FB84205D0D64FB84202D0D64FE3
:101A2000B84206D14DF6FF77394046F48057394326
:101A300005E047F6FF57394044F480573943828325
:101A40000184F0BD828B4FF6F3731A408283828B40
:101A50000A4382837047F0B50C46154600220021E8
:101A60000026078C4FF6FF6C07EA0C070784828B71
:101A7000018C4FF6FF7707EA04264FF60C773A40C1
:101A80004FF6FF7707EA03172F433A43B64FB842A2
:101A90000ED0B64FB8420BD0B0F1804F08D0B44F43
:101AA000B84205D0B34FB84202D0B34FB84206D1C6
:101AB0004FF6FF57394046F48077394305E04FF23F
:101AC000FF57394044F48077394382830184F0BD65
:101AD000028B4FF2FF331A400283028B4FF6FF73E3
:101AE00003EA01231A4302837047F0B50C461546FA
:101AF000002200210026078C4FF6EF7C07EA0C0736
:101B00000784028B018C4FF6FF7707EA041640F634
:101B1000FF473A404FF6FF7707EA03373A434FF65D
:101B2000FF7707EA05273A438F4FB8420ED08F4F11
:101B3000B8420BD0B0F1804F08D08D4FB84205D0DD
:101B40008C4FB84202D08C4FB84206D14FF6DF77A7
:101B5000394046F01007394305E04FF65F773940CA
:101B600044F01007394302830184F0BD028B4FF625
:101B7000F3731A400283028B0A4302837047F0B565
:101B80000C46154600220021068C4FF6FE773E409B
:101B90000684028B018C4FF60C7632407E1C06EADE
:101BA00003162E433243704EB0420ED06F4EB042F9
:101BB0000BD0B0F1804F08D06D4EB04205D06D4EC5
:101BC000B04202D06C4EB04206D14FF6FD763140A5
:101BD00044F00106314305E04FF6F576314044F01C
:101BE0000106314302830184F0BD70B505460C4601
:101BF0005D4885420ED05D4885420BD0B5F1804FDF
:101C000008D05B48854205D05A48854202D05A48E0
:101C1000854200D100E000BF208850B92389A28806
:101C200061882846FFF7ABFFE1882846FFF79EFF53
:101C300025E0208804280AD12389A28861882846C3
:101C4000FFF753FFE1882846FFF742FF17E020889F
:101C500008280AD12389A28861882846FFF7FBFE5D
:101C6000E1882846FFF7EEFE09E02389A288618813
:101C70002846FFF7A6FEE1882846FFF795FE70BDCF
:101C80002DE9F04105460C4600260127608808B979
:101C9000022600E00026A088012801D1022700E0EA
:101CA00001272088A0B92389A28861882846FFF7E8
:101CB00066FFE1882846FFF759FF23893A463146F7
:101CC0002846FFF712FFE1882846FFF701FF13E0DF
:101CD0002389A28861882846FFF707FFE188284604
:101CE000FFF7F6FE23893A4631462846FFF747FFBD
:101CF000E1882846FFF73AFFBDE8F0810A884B8863
:101D00001A438B881A43CB881A430B891A434B8991
:101D10001A438B891A43A0F8442070474FF6FF718D
:101D2000818000210180C1804180017270470021C3
:101D3000018041808180C180018141818181C18197
:101D40007047002101804180012181800021C180F4
:101D5000018170470021018041808180C180018123
:101D60004181818170470000002C01400034014016
:101D70000004004000080040000C004021B102882F
:101D800042F00102028004E002884FF6FE731A401E
:101D90000280704731B1B0F8442042F40042A0F80C
:101DA000442005E0B0F84420C2F30E02A0F844201D
:101DB00070471AB183890B43838102E083898B4387
:101DC000838170478182704741EA0203A0F848305E
:101DD00070471AB183890B43838102E083898B4367
:101DE0008381704701894FF6F87211400181704775
:101DF0000A46002101894FF68F7319401143018172
:101E0000704730B504460D4629462046FFF7F0FFDF
:101E1000208940F00700208130BD2DE9F0410446C3
:101E20000D4616461F46602D06D13B46012231461F
:101E30002046FFF75AFE05E03B4601223146204688
:101E4000FFF79DFE29462046FFF7D2FF208940F08C
:101E500007002081BDE8F08130B50C4600210189E2
:101E6000C9B24FF6FF7505EA0325154325432943FB
:101E7000018130BD2DE9F04105460E4617469846D2
:101E8000002443463A4631462846FFF7E5FF2C89B1
:101E90004FF6F870044044F007044FF68F7004408A
:101EA00044F070042C81BDE8F081F0B504460D4685
:101EB00016461F463B46324629462046FFF7CCFFD2
:101EC000208940F480402081F0BD018582827047E6
:101ED0000A46002101884FF68F7319401143018093
:101EE0007047F0B50C4615461E460021002200231F
:101EF0000189028B038C4FF6F877394021434FF666
:101F0000FC473A4040F201173A434FF6DD773B4039
:101F10004FF6FF7707EA06172F433B430181028301
:101F20000384F0BD0A460021018B4FF68F731940E0
:101F30001143018370470A460021018B48F6FF7365
:101F400019404FF6FF7303EA0223194301837047D8
:101F50000A460021818B4FF68F731940114381830C
:101F600070470A460021818B48F6FF7319404FF6EF
:101F7000FF7303EA022319438183704721B102886A
:101F800042F08002028004E002884FF67F731A401C
:101F90000280704721B1828842F00402828004E00E
:101FA00082884FF6FB731A408280704721B1828885
:101FB00042F00802828004E082884FF6F7731A40EC
:101FC0008280704721B1828842F00102828004E061
:101FD00082884FF6FE731A40828070470A460021BD
:101FE000018B4FF6F77319401143018370470A467E
:101FF0000021018B4FF2FF7319404FF6FF7303EA84
:1020000002231943018370470A460021818B4FF652
:10201000F77319401143818370470A460021818B71
:102020004FF2FF7319404FF6FF7303EA022319437F
:10203000818370470A460021018B4FF6FB731940DC
:102040001143018370470A460021018B4FF6FF338D
:1020500019404FF6FF7303EA0223194301837047C7
:102060000A460021818B4FF6FB731940114381838F
:1020700070470A460021818B4FF6FF3319404FF617
:10208000FF7303EA02231943818370470A46002144
:10209000018B4FF67F7319401143018370470A4645
:1020A0000021018BC1F30E014FF6FF7303EA0223F7
:1020B0001943018370470A460021818B4FF67F73D5
:1020C00019401143818370470A460021818BC1F377
:1020D0000E014FF6FF7303EA022319438183704711
:1020E0000A460021018C4FF6FD731940114301840B
:1020F00070470A460021018C4FF6F77319401143CF
:10210000018470470A460021018C4FF6DF731940A5
:102110004FF6FF7303EA02131943018470470A461E
:102120000021018C4FF67F7319404FF6FF7303EACD
:1021300002131943018470470A460021018C4FF6AF
:10214000FF5319404FF6FF7303EA0223194301843A
:1021500070470A460021018C4FF2FF7319404FF679
:10216000FF7303EA02231943018470470A460021E2
:10217000018C4DF6FF7319404FF6FF7303EA0233EB
:1021800019430184704730B5002301248C40A3B269
:10219000048C9C430484048C02FA01F5ADB22C43F8
:1021A000048430BD30B5002304248C40A3B2048CD9
:1021B0009C430484048C02FA01F5ADB22C430484E0
:1021C00030BD70B5034600200024184618300125A4
:1021D0008D40ACB21D8CA5431D8409B1082909D1DD
:1021E00000EB6100056825F0700505600568154382
:1021F00005600EE00D1FC5F34E052844056825F463
:10220000E045056005684FF6FF7606EA022635438D
:10221000056070BD21B1028842F00202028004E034
:1022200002884FF6FD731A400280704721B1028880
:1022300042F00402028004E002884FF6FB731A4069
:102240000280704721B1828842F08002828004E0DF
:1022500082884FF67F731A408280704702884FF65B
:10226000F7731A40028002880A430280704782880E
:102270004FF68F731A40828082880A4382807047AB
:1022800002894FF6F8731A40028102890A430281DB
:10229000704702894FF67F731A40028102890A4310
:1022A00002817047818470478185704781867047BD
:1022B0000187704781877047A0F8401070470288F7
:1022C0004FF6FF431A40028002880A43028070479B
:1022D0000146888E70470146088F70470146888FF7
:1022E00070470146B1F8400070470146888C70473E
:1022F0000146088D704702460020138A0B400BB13F
:10230000012000E000207047CA430282704730B5C8
:102310000246002000230024158A05EA010395895E
:1023200005EA010413B10CB1012000E0002030BD2A
:10233000CA4302827047000010B50446FB4884423D
:1023400009D101218803FEF7FBFF00214FF48040F3
:10235000FEF7F6FF32E0F648844209D10121480435
:10236000FEF7FBFF00214FF40030FEF7F6FF25E0FB
:10237000F048844209D101218804FEF7EEFF0021D4
:102380004FF48020FEF7E9FF18E0EB48844209D1C2
:102390000121C804FEF7E1FF00214FF40020FEF701
:1023A000DCFF0BE0E548844208D101210805FEF777
:1023B000D4FF00214FF48010FEF7CFFF10BD2DE9B0
:1023C000F04786B005460E460024A24600BFA1464F
:1023D0000027B08900B100BF2F462C8A4CF6FF7051
:1023E0000440F08804432C82AC894EF6F31004407C
:1023F000B08831890843718908430443AC81AC8AB1
:102400004FF6FF400440B0890443AC8201A8FEF7B8
:1024100010FFC648874202D1DDF810A001E0DDF8C8
:102420000CA0A88900F4004040B10AEBCA0000EB00
:102430000A1031684900B0FBF1F807E00AEBCA0066
:1024400000EB0A1031688900B0FBF1F86420B8FB9A
:10245000F0F004012009642101FB1089A88900F42F
:10246000004040B1322000EBC900B0FBF1F000F0B9
:102470000700044308E0322000EB09106421B0FBA0
:10248000F1F000F00F0004432C8106B0BDE8F087A6
:102490004FF41651016000218180C18001810C211F
:1024A000418100218181704710B502460020108AC9
:1024B0004FF2FF0318400B884C8823438C8823433A
:1024C000CC8823431843108210BD00210180418035
:1024D0008180C180704721B1828942F4005282819B
:1024E00004E082894DF6FF731A4082817047F0B58F
:1024F0000346002400260025002040F66A17B94252
:1025000000D100BF1846C1F3421401F01F06012795
:1025100007FA06F5012C01D10C3004E0022C01D1A0
:10252000103000E014301AB107682F43076002E052
:102530000768AF430760F0BD1AB1838A0B438382FB
:1025400002E0838A8B4383827047028A4FF6F073DE
:102550001A400282028A0A430282704782894FF23D
:10256000FF731A40828182890A438281704721B1B8
:10257000828942F00202828104E082894FF6FD7373
:102580001A4082817047028A4FF6DF731A40028236
:10259000028A0A430282704721B1028A42F48042D1
:1025A000028204E0028A4BF6FF731A4002827047EF
:1025B000C1F308028280704701468888C0F3080092
:1025C0007047818941F0010181817047028BD2B24D
:1025D0000283028B42EA012202837047028B02F4DB
:1025E0007F420283028B0A430283704721B1828AB1
:1025F00042F02002828204E0828A4FF6DF731A40A2
:102600008282704721B1828A42F01002828204E005
:10261000828A4FF6EF731A408282704721B1828A14
:1026200042F00802828204E0828A4FF6F7731A4071
:102630008282704721B1828942F40042828103E0A4
:102640008289C2F30E028281704721B1828A42F4EC
:102650000062828204E0828A4FF2FF731A40828213
:102660007047828A4FF6FB731A408282828A0A433D
:102670008282704721B1828A42F00202828204E0A3
:10268000828A4FF6FD731A4082827047024600200C
:10269000B1F5007F00D100BF13880B400BB10120C2
:1026A00000E00020704701F40072B2F5007F00D115
:1026B00000BFCA430280704770B502460024002361
:1026C0000025002040F66A16B14200D100BFC1F3D8
:1026D000421501F01F03012606FA03F3012D02D172
:1026E0009689334006E0022D02D1168A334001E07C
:1026F000968A33400C12012606FA04F416883440F8
:1027000013B10CB1012000E0002070BD10B5002213
:10271000002340F66A14A14200D100BF0A1201242E
:102720009440A3B2DC43048010BD00000038014097
:102730000044004000480040004C00400050004071
:1027400010B53848A0F17901C1F8F000401CC1F87B
:10275000F400401CC1F8F800401CC1F8FC00401C0B
:10276000C1F80001401CC1F80401401CC1F8080177
:10277000401CC1F80C01401CC1F8100108382A495E
:102780000860401C4860401C8860401CC8602748A6
:10279000A0F20111C1F80002401CC1F80402401C63
:1027A000C1F80802801CC1F81802401CC1F81002D0
:1027B0000846D0F80C020830C1F80C0201F584700C
:1027C000C1F8140201201A4908704870C87040F21C
:1027D0000C41184803F0EDF810BD4FF4E01000F084
:1027E00072F800F0AAF800F05FF902F081FC00F046
:1027F0000DF900F004FA02F032FF0FA003F0F2FC32
:10280000FFF79EFF0221012002F029FC1521022082
:1028100002F025FC05E002F095FB00F091FF01F0CD
:1028200098FAF8E7DD7E0020A48100208180002056
:1028300044000020587A00200D0A4D6173746572BF
:1028400020526562626F74210D0A0D0A00000000BB
:102850001CB50446002001900090FEF7E9FB4FF400
:102860008030FEF705FCFEF742FC0090009801283E
:1028700026D11020FDF7DEFE0220FDF7C7FE002066
:10288000FEF77BFC0020FEF78AFC4FF48060FEF729
:102890007DFC21464FF48030FEF752FC0120FEF70C
:1028A0005BFC00BF3920FEF706FC0028FAD00220AE
:1028B000FEF755FC00BFFEF75BFC0828FBD101E0EA
:1028C00000BFFEE71CBD38B5044600200090FEF7AF
:1028D000AFFB0120FEF731FCEF48006800F002007A
:1028E00000900098022825D11020FDF7A3FE0220B9
:1028F000FDF78CFE0020FEF740FC0020FEF74FFCA9
:102900004FF48060FEF742FC21460020FEF718FCE1
:102910000120FEF721FC00BF3920FEF7CCFB002888
:10292000FAD00220FEF71BFC00BFFEF721FC0828AE
:10293000FBD101E000BFFEE738BD10B5012110203A
:10294000FEF7E4FC01210820FEF7E0FC0121084627
:10295000FEF7DCFC01210420FEF7D8FC01218803EE
:10296000FEF7D4FC01214804FEF7DDFC01218804B8
:10297000FEF7D9FC10BD0EB54FF40070ADF808009D
:1029800003208DF80A0018208DF80B0002A9C34817
:10299000FEF77AF94FF48060ADF8080004208DF856
:1029A0000B0002A9BD48FEF76FF90420ADF8040042
:1029B00003208DF8060018208DF8070001A9B748FC
:1029C000FEF762F90820ADF8040004208DF8070036
:1029D00001A9B248FEF758F94FF48060ADF8000045
:1029E00003208DF8020018208DF803006946AC48DA
:1029F000FEF74AF94FF40060ADF8000004208DF8AE
:102A000003006946A648FEF73FF90EBD1FB54FF417
:102A1000C060FDF79DFC1D208DF80C0000208DF896
:102A20000D0002208DF80E0001208DF80F0003A884
:102A3000FDF793FC4FF4C060FDF78AFC25208DF86C
:102A4000080000208DF8090003208DF80A000120FD
:102A50008DF80B0002A8FDF780FC4FF4C060FDF775
:102A600077FC26208DF8040000208DF80500022058
:102A70008DF8060001208DF8070001A8FDF76DFC18
:102A80004FF4C060FDF764FC27208DF800000020A3
:102A90008DF8010001208DF802008DF803006846D2
:102AA000FDF75BFC1FBD704700B58DB0FFF763FFFE
:102AB0004FF4E13009900020ADF82800ADF82A006D
:102AC000ADF82C00ADF830000C20ADF82E0009A9AF
:102AD0007448FFF774FC012240F225517148FFF75A
:102AE00006FD01216F48FFF7F6FC4FF4E130059039
:102AF0000020ADF81800ADF81A00ADF81C00ADF8D4
:102B000020000C20ADF81E0005A96748FFF757FC10
:102B1000012240F225516448FFF7E9FC0121624897
:102B2000FFF7D9FC40216048FFF7BDFD4FF4E130CD
:102B300001900020ADF80800ADF80A00ADF80C00D7
:102B4000ADF810000C20ADF80E0001A95748FFF7B2
:102B500036FC012240F225515448FFF7C8FC012100
:102B60005248FFF7B8FC40215048FFF79CFD0DB0DC
:102B700000BD0EB54FF47A70ADF804000720ADF833
:102B800000000020ADF80600ADF802008DF8080046
:102B900069464748FEF796FD01214548FFF7B4FB1B
:102BA000012211464248FFF704F901214048FFF78E
:102BB000E5F80EBD10B50120FEF7DFF9FDF736FC94
:102BC0000120FEF729FB00BF6120FEF774FA002800
:102BD000FAD04FF40070FEF722FB0120FEF725FB30
:102BE000FEF75DFC49F64040FEF72AFCFEF74EFC7E
:102BF00001210220FEF7EEFBFEF748FC10BD0EB5EA
:102C000001210220FEF78FFB41F61F40ADF80000C6
:102C10000020ADF802006320ADF804000020ADF8FC
:102C2000060069462348FEF74DFD01221146214862
:102C3000FFF7BFF801211F48FFF7A0F80EBD70B5E0
:102C4000044601210807FEF76EFBFEF78BF945F2FB
:102C50005550FEF767F904EB8400C0F35B05E8B25A
:102C6000FEF763F904EB8400C0F35B06B0B2FEF735
:102C70005FF9FEF765F970BD70B504460D46E1B227
:102C80000848FFF795FC00BF40210648FFF7FEFC0F
:102C90000028F9D0204670BD001002400008014015
:102CA000000C014000380140004400400048004052
:102CB0000010004000040040704700BFFEE700BF66
:102CC000FEE700BFFEE700BFFEE7704770477047B2
:102CD00010B500F03EFA10BD10B50220FEF704FC5E
:102CE00088B14FF40030FDF788FC0120FEF788F929
:102CF00010B10120FEF78EF9FEF7C8FB0220FEF7A7
:102D000003FCFEF7C3FB10BD10B50121C648FFF759
:102D1000FEFA28B30121C448FFF70AFBC348006844
:102D20000A30C2490860084640680A3048600846D0
:102D300080680A3088600846C0680A30C86000248D
:102D40000AE0BA48103050F82400401CB74910314E
:102D500041F82400601CC4B2B54800788442F0DB1E
:102D60000121B148FFF7E4FA10BD10B50121B148C7
:102D7000FFF7CDFA18B10121AE48FFF7D9FA0121CA
:102D8000AC48FFF7D5FA10BD10B540F22551AA485E
:102D9000FFF792FC10BD10B540F22551A748FFF790
:102DA0008BFC00287AD0A548FFF706FCA44991F8CF
:102DB0001611A34A5054104690F8160120B9104637
:102DC0000078EE2800D010BD9D4890F81601401CF8
:102DD0009B4981F81601084690F81601401E085CD0
:102DE000FF280CD1084690F8180140B9084690F821
:102DF0001601944908600120914981F81801904812
:102E000090F81801012843D18D4890F816018D499A
:102E10000968401A03283BD189488A490968405CFF
:102E2000FC2828D1864987480068401C085CFF2898
:102E300021D184480068801C085CFF281BD182A037
:102E400003F0D0F97E4890F8161100F013FB7C488F
:102E500090F816110246783000F0D3F9784890F8CF
:102E60001601774981F81701012081F81401734890
:102E700000F011FA0CE078A003F0B4F900207049DA
:102E800081F814016D4800F006FA00206D490860D1
:102E90006B4890F81601782807DB00E005E073A086
:102EA00003F0A0F9654800F0F6F900BF8BE710B514
:102EB00040F225517148FFF7FFFB002876D0012032
:102EC0006F4981F821026D48FFF776FB6C4991F854
:102ED00022126B4A5054104690F8220220B9104634
:102EE0000078A52800D010BD654890F82202401C4B
:102EF000634981F82202084690F82202012816DD73
:102F0000084640785A2812D05EA003F06BF90023DF
:102F100062A20121184602F004FC02230022194695
:102F2000574800F0B7FA554800F0B5F9DBE75448C8
:102F300090F82202092856DB514890F82212007AB4
:102F4000093081424FD14E4890F822120246FF309C
:102F500000F04AF954A003F045F957480178007889
:102F6000401C554A1070032091FBF0F200FB121038
:102F700020B1012812D0022821D118E002F054FB20
:102F800000234EA21946012002F0CBFB3C4890F8EA
:102F9000221201231A4600F07DFA10E0384890F81A
:102FA00022120323012200F075FA08E030E03448D1
:102FB00090F822120523012200F06CFA00BF00BF36
:102FC0002F4890F82212FF3000F054FA2C4890F865
:102FD00022022B4981F82302284800F05CF90120E5
:102FE000274981F82002264890F8220278280BDB36
:102FF00035A003F0F7F8002337A20121184602F0AC
:1030000090FB1E4800F047F900201D4981F821027D
:1030100000BF68E710B50120FDF7DEFA012801D1F5
:10302000FDF7EBFA10BD000000040040587A0020C4
:1030300049000020001000400038014000440040DA
:10304000647E00202800002052656369766554463E
:10305000543A200D0A0000005265636976655446B3
:1030600054206572726F200D0A0000006461746163
:10307000206F7665726C656E670D0A00004800402F
:10308000807F00202D2D55617274335F495352208B
:103090006461746120657272200D0A00646174615C
:1030A00020657272202020004D6173746572205279
:1030B00065636976653A20002C00002052656369DB
:1030C00076653A202020000044617461206F7665A7
:1030D000724C656E74680A006F7665724C656E742A
:1030E000682020200000000030B53A4800683A4AC5
:1030F000B0FBF2F1B1F1807F01D301201DE021F09E
:103100007F40401E4FF0E022506150170F220028F0
:1031100007DA13071D0E314B00F00F04241F1D5555
:1031200003E013071C0E2E4B1C5400BF00204FF071
:10313000E022906107201061002008B100BFFEE787
:1031400030BD2849086000BF264909680029FBD125
:1031500070472448006820B122480068401E214979
:103160000860704710B5002106E0092200BF130077
:10317000A2F10102FBD1491C8142F6D310BD704778
:10318000014642F228324A434FF0E0235A610022BE
:103190009A6101221A6100BF4FF0E022106900F02D
:1031A00001021AB100F48032002AF5D000224FF05B
:1031B000E0231A619A61704710B5002106E00922E8
:1031C00000BF1300A2F10102FBD1491C8142F6D3DA
:1031D00010BD000000000020A086010018ED00E0F6
:1031E00000E400E03000002010B50346002003E0BA
:1031F000145C1C54441CE0B28842F9DB00245C548B
:1032000010BD10B50346002003E0145C1C54441CA0
:10321000E0B28842F9DB00245C5410BD2DE9F04196
:1032200007460C46154601204C49086000260DE073
:1032300014F8011B3846FFF7BBF900BF8021384660
:10324000FFF724FA0028F9D0701CC6B2AE42EFDBBB
:10325000002042490860BDE8F0812DE9F0410646B2
:103260000C46204602F0B0FB074600250FE0615DEA
:103270003BA002F0B7FF615D3046FFF799F900BF50
:1032800040213046FFF702FA0028F9D06D1CBD42FC
:10329000EDDBBDE8F08110B504463248844210D120
:1032A0000020314981F8150181F8160178212E4856
:1032B00002F07FFB00202C4981F818012BA002F0BE
:1032C00091FF304884420CD100202F4981F821021F
:1032D00081F82202FF212C4802F06BFB2BA002F0A8
:1032E00081FF10BD2DE9F04105460E4614461F46EC
:1032F0005A202C490870A520487028788870687872
:10330000C870A878087100204871084686710020AE
:10331000C8710846047222463946093002F030FB73
:1033200004F10900C1B21F4800F095F81D4A04F1EC
:10333000090150541CA002F055FF04F10A0119487C
:1033400000F098F86420FFF71BFF04F10A00C2B2F6
:1033500014490C48FFF762FFBDE8F081A00121424B
:103360002563000000440040647E002072657365A0
:10337000742075617274325446545061636B0D0A47
:103380000000000000480040807F002072657365E7
:10339000742075617274335F3438355061636B0D1E
:1033A0000A000000B48100206275696C64207533E6
:1033B0003A2000002DE9F04107460D4614464FF033
:1033C0000008002609E057F8262005EB08008CA12C
:1033D00002F018FF08F10808761CA642F3DB002073
:1033E00005F83400BDE8F08170B5044600250020E2
:1033F0008549086008208549086008460068FFF78D
:10340000B1FE00BF10E004F0010018B101207E49B8
:10341000086002E000207C4908607C480068FFF7F3
:10342000A1FE6410681CC5B2082DECDB01207649B2
:10343000086076480068FFF795FE70BD70B50546D8
:103440000E46002404E0285DFFF7CEFF601CC4B2E6
:10345000B442F8DB70BD10B502460B4600210020D7
:1034600000BF04E0545C0444E0B24C1CE1B2994259
:10347000F8DB10BD70B505460E46002404E0295D5A
:1034800063A002F0AFFE641CB442F8D362A002F065
:10349000A9FE70BD2DE9F041A0B006460D461746C5
:1034A00098463C2D00DD3C25002407E0325D01A953
:1034B00001EB440059A102F0A5FE641CAC42F5D317
:1034C000002001AA02F8150000234146384602F008
:1034D00028F920B0BDE8F08170B504460D461346CA
:1034E0000021002200BF0EE0605C6E5CB04202D1A1
:1034F000501CC2B205E00AB9012070BD501CC0B218
:10350000FBE7481CC1B29942EEDB9A4201D1002090
:10351000F3E7FF20F1E72DE9F84306460F46304672
:1035200002F052FA05464FF000080024284605EB49
:10353000D0714910A5EB410129B13AA002F052FE29
:10354000601EBDE8F883284605EBD0714FEA61089C
:1035500013E016F814008DF80000012000EB440081
:10356000305C8DF8010000208DF80200102200214F
:10357000684602F047FA3855641C4445E9DB40468A
:10358000DFE73EB505460020009001900290002440
:103590002A48006800902948001D006801902748CB
:1035A00008300068029026A09DE80E0002F01AFE86
:1035B000032229466846FFF7FDFE294626A002F0B1
:1035C00011FE1AE05DF82400000E274A02F82400DC
:1035D0005DF82400C0F30741A000401C11543DF8E1
:1035E0002400C0F30721A000801C11541DF82410F2
:1035F000A000C01C1154601CC4B2032CE2DB3EBD11
:1036000025303878000000008C81214234000020F1
:1036100025303258200000000A00000025303258C2
:1036200000000000496E76616C696420696E7075F7
:1036300074206C656E6774680A000000E8F7FF1F6D
:10364000436869704964203D25237820252378202C
:103650002523780A000000004368697049645374A8
:10366000723A2025730A00002C8200200146642053
:10367000405C10B991F8650008B101207047002046
:10368000FCE730B59BB0012556E005EBC50000EB2B
:103690004000FE4A02EB80016C22684602F070F99D
:1036A0006C1E11E004EBC40202EB4202F74B03EB89
:1036B0008201621C02EBC20202EB420203EB8200B7
:1036C0006C2202F05DF9641E002C28DB04EBC401BF
:1036D00001EB4101ED4A02EB8100FFF7C7FF024613
:1036E0006846FFF7C3FF8242DCDB04EBC40101EB59
:1036F0004101E64A02EB8100FFF7B8FF0246684647
:10370000FFF7B4FF82420AD104EBC40000EB400093
:10371000DE4901EB8000C06803998842C2D8611C71
:1037200001EBC10101EB4101D84A02EB81006C229F
:10373000694602F025F96D1CFF2DA6DB1BB030BDDC
:103740002DE9F0419EB0D24890F8200200287CD0AC
:103750000020CF4981F820020846D0F818020078EE
:103760000A2804D00B2871D00C2870D107E0C84873
:10377000D0F814020178C7A002F034FDE1E2C44899
:10378000D0F800020078CC49097801EBC10101EBC7
:103790004101BE4A02F82100BD48D0F80402007879
:1037A000C549097801EBC10101EB410102EB81013F
:1037B0004870B748D0F808020078C0490978084432
:1037C000BD49097801EBC10101EB410102EB810127
:1037D0008870B948007800EBC00000EB400011464B
:1037E00001EB8000B449097801EBC10101EB410113
:1037F00002EB81010861B048007800EBC00000EBEB
:103800004000114611F820000004AB49097801EB93
:10381000C10101EB410102EB8101497840EA01203D
:10382000A549097801EBC10101EB410102EB8101DE
:1038300089780843A049097801EBC10101EB4101F6
:1038400002EB8101C860924802E080E237E070E25A
:10385000D0F8000202789AA1684602F0D3FC8C48A6
:10386000D0F80402027896A10DF1020002F0CAFC21
:103870008748D0F80802007890490978421890A14A
:1038800001A802F0BFFC6A460821022000F00EFDEC
:103890008948007800EBC00000EB40007B4901EB59
:1038A00080006946C26888A002F09CFC83480078CA
:1038B000401C824908708BA000F0B5FD41E2002455
:1038C0008BA002F08FFC7249D1F800020321FFF7B0
:1038D000D1FD00BF10E06E4AD2F8001204EBC40222
:1038E00002EB4202694B03EB82000322FFF7F4FD77
:1038F00000B906E0601CC4B26F480078401C8442E6
:10390000E9DB00BF6C48007884420ADB7FA002F04C
:1039100069FCFF215E48FF3002F04BF81EB0BDE8A5
:10392000F0815B48D0F800020078AC287BD1584980
:10393000D1F8141209780904554AD2F814225278A1
:1039400041EA0221524AD2F81422927841EA020056
:1039500002F002F90746714A714B02F08BF80546F6
:1039600002F01EF904EBC40101EB4101474A02EBEE
:10397000810188654649D1F814120979444AD2F880
:103980001422D27841EA022002F0E6F80746634AA0
:10399000634B02F06FF8054602F002F904EBC40134
:1039A00001EB4101394A02EB8101C86504EBC40017
:1039B00000EB4000114601EB8000C16D04EBC40038
:1039C00000EB400002EB8000016604EBC40101EB58
:1039D000410102EB8101886D524902F007F917D3CA
:1039E00004EBC40101EB4101284A02EB8101886D1F
:1039F0004D4902F0F1F80BD304EBC40101EB410196
:103A0000224A02EB8101C86D484902F0EFF82FD23B
:103A1000012104EBC40000EB40001C4A02EB8000D3
:103A200080F8641000E0B7E041A002F0DBFB012069
:103A30004449087004EBC40101EB4101134A02EB55
:103A40008100404B01220A21FFF74CFC6420FFF764
:103A500097FB02203B49087004EBC40101EB4101D4
:103A60000A4A02EB8100374B01220A21FFF73AFC98
:103A70003549097801EBC10101EB4101034A02EB31
:103A80008101886D02F079F805465FE0C40E0020E0
:103A9000807F00204E6F646544617461207265749C
:103AA000205B253032785D20504F574552434F4EB2
:103AB00054524C200D0A0000490000203C00002018
:103AC00025303278000000004E6F646544617461F7
:103AD000207265742041646472202573202564205F
:103AE0000D0A0000CBD1CBF7CDEAB3C9000000002E
:103AF0004E6F646544617461205265742052455173
:103B000055455354454C454320000000756E6D618A
:103B10007463682061646472210D0A007B14AE47EF
:103B2000E17A843F000082430000344300004041BA
:103B3000414320706F776572204572726F2021219A
:103B4000200D0A00518200204A0000202A460B4620
:103B5000DAA002F047FBDC49097801EBC10101EB77
:103B60004101DA4A02EB8101C86D02F006F8054610
:103B70002A460B46D6A002F035FBD348007800EB6E
:103B8000C00000EB4000D14A02EB800090F86410C6
:103B9000D1A002F027FBC4E0D248D0F800020078A0
:103BA000DC28F8D1CF49D1F814124978CD4AD2F89F
:103BB0001422127841EA022001F0CEFF0746CA4AD9
:103BC000CA4B01F057FF054601F0EAFF04EBC401C0
:103BD00001EB4101BD4A02EB81018865C149D1F881
:103BE0001412C978BF4AD2F81422927841EA02200E
:103BF00001F0B2FF0746BC4ABC4B01F03BFF054653
:103C000001F0CEFF04EBC40101EB4101AF4A02EB2E
:103C10008101C865B349D1F814124979B14AD2F883
:103C20001422127941EA022001F096FF0746AE4ABB
:103C3000AE4B01F01FFF054601F0B2FF04EBC401DB
:103C400001EB4101A14A02EB81010866A548D0F8C9
:103C50001402817904EBC40000EB400002EB800009
:103C600080F864109F48D0F81402C17904EBC400B6
:103C700000EB400002EB800080F865109249097863
:103C800001EBC10101EB410102EB8101886D01F003
:103C900074FF05462A460B4688A002F0A3FA8A491B
:103CA000097801EBC10101EB4101884A02EB810176
:103CB000C86D01F062FF05462A460B4684A002F05B
:103CC00091FA8149097801EBC10101EB41017F4A79
:103CD00002EB8101086E01F050FF05462A460B46B3
:103CE00083A002F07FFA7848007800EBC00000EB78
:103CF0004000764A02EB800090F864107EA002F04B
:103D000071FA7148007800EBC00000EB40006F4A88
:103D100002EB800090F865107BA002F063FAFFF7D9
:103D2000B0FC01207C49087000217C4840F8241038
:103D300007E06C48D0F81802017879A002F052FA36
:103D400000BF00BFFF216748FF3001F032FE00BF17
:103D5000E4E510B5714810380068012810D96F48A3
:103D600010380068B0F5487F0AD200207449086016
:103D70000023AFF26C220621782001F0D2FC14E07F
:103D800066481038006840F23E3188420DD9002064
:103D90006249103908600120694908600123AFF2C7
:103DA00098220621782001F0BCFC5C48103840685D
:103DB000B0F5FA7F40D34448007800EBC00000EB38
:103DC0004000424901EB8000C21C3F4801785DA0E1
:103DD00002F008FA50480078E0B13B49097801EB5D
:103DE000C10101EB4101394A02EB810101F11400EB
:103DF00044A101F0F0FD68B13349097801EBC1013C
:103E000001EB4101314A02EB8100544B00220B21AE
:103E1000FFF768FA2C480078401C2B49087050487E
:103E20000078401E0978884202DA0020264908708E
:103E300000203A491039486038481038806840F20C
:103E40004C4188420AD347480078012806D11F48D0
:103E500000F0F1FA00203149103988602F481038FD
:103E6000C068C82805D301F09AFA00202B49103900
:103E7000C86010BD70B504460D4664B93A4A0321C6
:103E8000284600F04EF939A002F0ACF9032128468B
:103E9000FFF7F0FA11E0012C0FD13349481400F07C
:103EA000ABF837A002F09EF903212846FFF7E2FAAB
:103EB0002D4A0321284600F00DF970BD76546F7429
:103EC000616C2025662000004A000020C40E0020FE
:103ED00069312025662000006572726F3A202564E2
:103EE000200D0A00807F00207B14AE47E17A843FDA
:103EF00069322025662000004368316572726F3A8E
:103F000020256420000000004368326572726F3A19
:103F10002025640D0A00000048000020687A002077
:103F200075617274335F3438355061636B2E636D25
:103F30006420756E6B6F776E212025780D0A000066
:103F4000B0812142526571756573744E6F6465204E
:103F5000256420202573200D0A00000051820020D6
:103F6000490000204400002000D800087265616408
:103F700020626F61726420616464723A200D0A00ED
:103F8000777269746520626F617264206164647223
:103F90003A200D0A000000002DE9FF4105460E46BB
:103FA0000027FCF752FB0020009006EBC520029092
:103FB000012003903420FCF7E3FD0DE00298FCF7AC
:103FC00089FB0446042C06D07AA002F00BF93420B9
:103FD000FCF7D6FD00E004E03846791CCFB2052896
:103FE000ECDB00BF052F03DB214679A002F0FAF8D5
:103FF000FCF737FBBDE8FF812DE9F04104460F4691
:10400000B4F5006F01D24FF40064C4F30A0008B99C
:10401000E60A02E0012000EBD426002509E03A463A
:10402000294677A002F0DEF8E8B23946FFF7B4FF80
:104030006D1CB542F3D3BDE8F0812DE9F047814610
:104040000E4617460024A0467548874201D3BDE8B6
:10405000F087FCF7FAFA3420FCF792FD27E039F8F4
:10406000141007EB4400FCF738FC05461AE0342036
:10407000FCF786FD08F101001FFA80F8334622465E
:10408000414668A002F0AEF8B8F1050F09DD342012
:10409000FCF776FD29466DA002F0A4F8FCF7E1FAE2
:1040A00002E000BF042DE2D100BF601C84B2B44224
:1040B000D5DBFCF7D6FA00BFC9E710B503460020F0
:1040C00005E032F8104023F81040441CA0B28842AA
:1040D000F7DB10BD2DE9F041C0B006460C4617468F
:1040E00000254FF48071684601F063FC224631469A
:1040F000684601F045FC2546204604EBD071491086
:10410000A4EB410109B1681C85B2A84605EBD87043
:10411000C0F34F013A466846FFF78FFF40B0BDE855
:10412000F0812DE9F041C0B006460C461746002547
:10413000204604EBD0714910A4EB410179B9254622
:10414000A84605EBD870C0F34F013A466846FFF722
:10415000B4FF22466946304601F012FC0EE0601CB6
:1041600085B2A84605EBD87041103A466846FFF77D
:10417000A4FF22466946304601F002FC40B0BDE88B
:10418000F08110B5044620683D490840B0F1005F59
:104190000CD13CA002F026F860683F490860206816
:1041A000FBF7D0FF3C480068804702E03BA002F0EC
:1041B00019F810BD666C6173685F65726173655F45
:1041C00070616765204661696C64200A0000000028
:1041D000666C6173685F65726173655F7061676566
:1041E000204661696C64203E20323030202121213C
:1041F000206C6173746572726F3A2025640A000046
:10420000666C6173685F65726173655F7061676535
:104210002069202564206164642025780A0000005C
:1042200000000108464C4153485F50726F6772614D
:104230006D48616C66576F72642065692025642C37
:104240002025642F2564200A00000000464C4153BD
:10425000485F50726F6772616D48616C66576F722C
:1042600064204661696C64203E2032303020212178
:1042700021206C6173746572726F3A2025640A00A4
:104280000000FE2F537461636B2053756363657385
:1042900073210D0A00000000400000205374616388
:1042A0006B204661696C6564210D0A002DE9F041BF
:1042B00006460F4615460024EE20FE490870B12040
:1042C0004870102088700020C870084606710020D1
:1042D000487108468771284601F076FB441C224647
:1042E0002946F448C01D01F04BFB0021F14AA01DF6
:1042F0001154FF21E01D1154FC21401C1154FF21D9
:10430000401C1154401C1154401CC2B2E949EA48F7
:10431000FEF784FFBDE8F0817FB5E8A103C9CDE9D0
:104320000201E8A103C9CDE90001E8484078401E38
:1043300000EB40004006050E2946E5A001F052FFC3
:10434000002410E0281900EBC00000EB4000EA4B0D
:1043500003EB8000C21C02AB601C195C0220FFF75B
:10436000A5FF601CC4B2062CECDB002411E0281968
:1043700000EBC00000EB4000DF4B03EB800000F1DE
:104380001402601C1DF800100220FFF78FFF601C54
:10439000C4B2062CEBDB7FBD70B506460C46154655
:1043A000EE20C4490870B1204870032088700020B6
:1043B000C870084606710020487108468471C571AE
:1043C000FF200872FC204872FF208872C8720C22FD
:1043D000B948FEF723FF70BD70B5054600241FE005
:1043E000C648015DC6A20120FFF760FFC548015D18
:1043F000C3A20120FFF75AFFC348015DC0A20120FC
:10440000FFF754FFC148015D2A460120FFF7C4FFB2
:10441000BF48015D2A460120FFF7BEFF601CC4B201
:10442000062CDDDB70BD10B5044622462F2102208C
:10443000FFF73CFF10BD2DE9F04FC3B0A348C07893
:10444000401E00EB400040064FEA10694FF0060B9B
:104450004FF0000AAF48007830B9D3460020FFF78C
:10446000BBFF43B0BDE8F08FAA480078A0EB09007D
:1044700000F0FF0ABAF1060F00DAD346002413E178
:1044800009EB0401A44850F82100B0F5FA7F7DD271
:104490009E48015D01221046FFF77EFF9C48015DAA
:1044A00001221046FFF778FF09EB040000EBC00083
:1044B00000EB4000904911F82000DC284AD109EBBC
:1044C000040000EBC00000EB40000B4603EB800053
:1044D00000F114028B48015D0120FFF7E7FE09EBB4
:1044E000040101EBC10101EB4101834A02EB8101AF
:1044F000086E01F042FB05460E4609EB040101EB94
:10450000C10101EB41017C4A02EB8101C86D01F060
:1045100034FB0746884609EB040101EBC10101EBBE
:104520004101754A02EB8101886D01F026FB0246CC
:104530000B46CDE90078CDE90256CDE9040177A11B
:1045400006A801F05FFE6D48015D06AA0120FFF795
:10455000ADFE45E009EB040000EBC00000EB4000BD
:10456000654911F82000AC283AD109EB040000EBB2
:10457000C00000EB40000B4603EB800000F114028A
:104580006048015D0120FFF791FE00E04DE009EB7E
:10459000040101EBC10101EB4101574A02EB81012A
:1045A000C86D01F0EAFA05460E4609EB040101EB7D
:1045B000C10101EB4101504A02EB8101886D01F01C
:1045C000DCFA07463A460B465EA106A8CDE900563E
:1045D00001F018FE4948015D06AA0120FFF766FEBA
:1045E00009EB040000EBC00000EB4000424901EB86
:1045F000800090F8640050B909EB040000EBC000A3
:1046000000EB400001EB800090F8650030B13E48BF
:10461000015D51A20120FFF749FE43E03A48015DE8
:104620004FA20120FFF742FE3CE03748015D4EA259
:104630000120FFF73BFE09EB040000EBC00000EB9C
:1046400040002D4911F82000DC2810D109EB0400AE
:1046500000EBC00000EB40000B4603EB800000F1D4
:1046600014022848015D0120FFF720FE1AE009EB43
:10467000040000EBC00000EB40001F4911F82000CF
:10468000AC280FD109EB040000EBC00000EB4000A8
:104690000B4603EB800000F114021A48015D012073
:1046A000FFF704FE601CC4B25C45FFF6E9AE00BF34
:1046B000D7E60000B481002000440040000102035E
:1046C000040506000022232425262700440000209C
:1046D000544654446973706C61794E6F64654C69DB
:1046E000737432536574506167206F6666736574C6
:1046F0002025640D0A000000C40E00204B0000209D
:10470000200000005100002063000020570000201E
:104710005D00002049000020687A002044433A20D0
:10472000252E326620562C20204348313A20252E53
:10473000326620412C20204348323A20252E326612
:104740002041000041433A20252E326620562C207D
:10475000252E326620410000D2ECB3A321000000D8
:10476000D5FDB3A300000000D2D1C0EBCFDF210004
:1047700070B586B06F257926FE48C078401E00EBE4
:1047800040004006040EFC48D0F8FC0000780128E8
:1047900077D1F948D0F80401007801280DD1F7A0AD
:1047A00001F020FDFBA0FFF73EFEFFF7B5FD002066
:1047B000F94908700220EF490870EF48D0F8040169
:1047C000007802280CD1EC48D0F80C010078303881
:1047D000E849C8700846C178F0A001F003FDEEE09A
:1047E000E548D0F8040100780B2805D0E248D0F85D
:1047F000040100780C2809D10020FFF7EDFDED48F9
:10480000FFF719FE0120DB490870D8E0DA48D0F83C
:10481000040100786E2827DDD748D0F8040100781D
:10482000752821DAE4A001F0DDFCD348D0F81001AE
:104830000078012101EBC010E4490870CE49D1F89D
:10484000041109782144491B01EBC10101EB41012D
:10485000D84A02EB8100DD4B01220A21FEF742FD1E
:104860000120C4490870AAE0C348D0F804010078C8
:104870007828B4DDC048D0F8040100787F28AEDA8B
:1048800000E021E0D2A001F0ADFCBB48D0F810015F
:104890000078022101EBC010CC490870B649D1F86C
:1048A000041109782144891B01EBC10101EB41018D
:1048B000C04A02EB8100C54B01220A21FEF712FD1E
:1048C0000120AC4908707AE0AB48D0F8FC000078D1
:1048D00002286DD1A7490870A748D0F804010078D4
:1048E0001E2823D006DC102818D011281AD015282D
:1048F00055D106E0202834D0212839D035284ED192
:1049000049E09D48D0F80C0100783038994948704A
:1049100008464178B3A001F065FC48E0B6A0FFF777
:1049200082FD44E0B6A0FFF77EFD40E0B6A001F0B6
:1049300059FCAFF2342208210220FFF7B7FCB8A0DF
:10494000FFF771FDDC208DF80400FF208DF80500D5
:104950008DF806009D4B00220C2101A8FEF7C2FC39
:1049600025E0B1A001F03EFCB4A0FFF75CFD1EE025
:10497000B5A001F037FC87A0FFF755FD01207D4968
:1049800008700020B6490870012083490870002093
:10499000FFF722FD0BE0B3A001F024FC07E076480E
:1049A000D0F804010178B5A001F01CFC00BF06E0BE
:1049B0007148D0F8FC000178B7A001F013FC06B0F4
:1049C00070BD1CB504466B4884702246B7A168468A
:1049D00001F018FC6946B6A001F004FC6A461621F5
:1049E0000120FFF763FC6A4616210220FFF75EFCF8
:1049F0001CBD10B5B4A001F0F5FBB848007806283E
:104A000011DDB6480078062190FBF1F201FB12009F
:104A100060B1B248007890FBF1F0401CC4B220466F
:104A2000FFF7CFFF02E00120FFF7CBFF10BD0EB56F
:104A3000AA4802789DA1684601F0E4FB6A46362147
:104A40000220FFF733FC0EBDF0B589B00546002407
:104A50000026002D01DB062D07DDA1A001F0C2FB21
:104A6000A6A0FFF7E0FC09B0F0BD42484078401E28
:104A700000EB40004006060E98480078062190FBA7
:104A8000F1F201FB12072B46944800970278314659
:104A90009E4801F0A7FB374840783649897888421C
:104AA00037D19BA001F09EFB70198C490978884290
:104AB00003DB9BA0FFF7B7FCD5E7701900EBC00044
:104AC00000EB40003B4901EB8000C21C98A101A80B
:104AD00001F098FB01A8FFF7A6FC344614E0621928
:104AE000521C02EBC20202EB4202324B03EB820188
:104AF000621902EBC20202EB420203EB82006C225B
:104B000000F03EFF601CC4B2744800788442E6DBCB
:104B10002AE0701900EBC00000EB4000254901EBD2
:104B20008000C21C82A101A801F06CFB01A8FFF764
:104B30007AFC344614E06219521C02EBC20202EB0A
:104B400042021C4B03EB8201621902EBC20202EB30
:104B5000420203EB82006C2200F012FF601CC4B220
:104B60005E4800788442E6DB5C480078401E5B4982
:104B70000870E5E044000020647E00207365742026
:104B8000627574746F6E20756E446973706C6179B0
:104B90000D0A0000202000004800002067657420F6
:104BA000446973706C6179506167652066312025B6
:104BB000640D0A00C40E0020706F77657220636870
:104BC00031206368616E67650D0A00005182002024
:104BD000706F77657220636832206368616E676505
:104BE0000D0A000067657420536574506167652085
:104BF00066312025640D0A00C9CFD2BBD2B30000B4
:104C0000CFC2D2BBD2B30000736561726368206EFD
:104C10006F646520627574746F6E0D0A0000000089
:104C2000CBD1CBF72E2E0000726567697374657265
:104C3000206E6F6465200D0A00000000D7A2B2E16B
:104C4000BDDAB5E32E2E00006261636B20627574DD
:104C5000746F6E20446973706C61790D0A000000F6
:104C60004A00002064656C657465206E6F64652081
:104C7000627574746F6E0D0A000000004E6F7466EA
:104C8000756E20706167653220627574746F6E2076
:104C900025640D0A000000004E6F7466756E205387
:104CA000637265656E2025640D0A000025640000AE
:104CB0007570646174654C697374506167652066D2
:104CC000322025730D0A00007570646174654C69AB
:104CD0007374506167656632200D0A004900002038
:104CE00064656C6574654E6F6465496E666F2066B9
:104CF00061696C64203121200D0A0000C9BEB4ED49
:104D0000CBF7D2FDB4EDCEF3A3A10000786B000881
:104D100066726973742070616765200D0A00000077
:104D2000C7EBD5FDC8B7D1A1D4F1CCF5C4BF000005
:104D3000D2D1C9BEB3FDBDDAB5E3202573000000B2
:104D4000FFF7EAFAFFF773FEFFF753FE00BF8AE6AC
:104D500030B59FB0054600240DF11300E96800F05E
:104D600048FEE868C11D09A800F043FEAFF25411E7
:104D70000DF1130000F02FFE28B1AFF2601109A869
:104D800000F029FE30B9E7A0FFF74DFB4FF0FF30F0
:104D90001FB030BDE8480078FF280ADDFF22E7A1F8
:104DA00001A801F02FFA01A8FFF73DFB4FF0FF30FB
:104DB000EEE717E004EBC40000EB4000E44A02EB2E
:104DC0008000C11C0DF1130000F005FE40B9E1A008
:104DD00001F008FAEDA0FFF726FB4FF0FF30D7E710
:104DE000601CC4B2D44800788442E3DBD24909781D
:104DF00001EBC10101EB4101D54A02EB8101C81C65
:104E00000DF1130100F0F5FDCB49097801EBC1016B
:104E100001EB4101CE4A02EB810101F1140009A925
:104E200000F0E7FDC44A127802EBC20202EB420234
:104E3000C74B03EB8201C04A127802EBC20202EBBD
:104E4000420203EB8202D01CFEF765FBBA480078F1
:104E500000EBC00000EB4000BD4901EB8000B6490B
:104E6000097801EBC10101EB4101B94A02EB810173
:104E70000861B1480078401CAF49087008460178C5
:104E8000C6A001F0AFF900241FE004EBC40000EB62
:104E90004000AF4901EB800000F1140304EBC400B3
:104EA00000EB400001EB8000C21C2146C1A001F0D4
:104EB00099F904EBC40101EB4101A54A02EB810021
:104EC0000321FEF7D7FA601CC4B29B4800788442E5
:104ED000DBDBC3A0FFF7A7FAFFF78BFDFFF7A7FD0A
:104EE000954800789A4981F85400C1490814FFF7A1
:104EF00083F800241FE004EBC40000EB4000944959
:104F000001EB800000F1140304EBC40000EB40004F
:104F100001EB8000C21C2146B6A001F063F904EB4E
:104F2000C40101EB41018A4A02EB81000321FEF733
:104F3000A1FA601CC4B2804800788442DBDB7E4862
:104F4000007825E770B586B0B64890F814010028BF
:104F500073D00020B34981F814010846D0F8F0005E
:104F60000078B12802D0CD2869D108E0AD48D0F84A
:104F7000F4000078112801D1FFF7FAFB67E0022066
:104F8000A9490870A94840680078C12805D1A748F8
:104F9000FFF7DEFEFFF7C0F94EE0A4484068007856
:104FA000C22849D0A14840680078C3280DD19F4845
:104FB000C068007830389C494870084641789CA009
:104FC00001F010F9FFF7A8F936E09848406800783A
:104FD000C42811D19548C068007830389249C8700B
:104FE0000846C1789BA001F0FDF80020FFF7F4F916
:104FF00001208D4908701FE08C4840680078C52862
:105000001AD10024292500268848C06804788748DA
:10501000C06846788548C068811C684600F0E9FC95
:105020006B463246214694A001F0DCF8601BFFF786
:105030000BFDFFF771F900BF09E00EE0FFE77948CB
:10504000D0F8F00001789AA001F0CCF800BF00BFC2
:1050500078217448783000F0ACFC06B070BDF0B533
:10506000A1B006460F4600240025EE20984908709E
:10507000B1204870112088700020C8700846067161
:105080000020487108468771FF210246E01D115437
:10509000FC2104F108001154FF2104F1090011540E
:1050A00004F10A00115404F10B058AA001F09AF8EA
:1050B00029468748FEF7DEF92A46854901A800F00F
:1050C0005FFC8DF87D5086480078401CC0B2844952
:1050D00008708DF87C008348209001A800F03DF90D
:1050E00021B0F0BD10B502210120FFF7B8FF10BDBF
:1050F00010B5EE207649087007204870352088707A
:105100005A20C87053200871A5204871FF2088716B
:10511000FC20C871FF20087248720A227148FEF70D
:105120007DF810BDBDDAB5E3B5D8D6B7BBF2C3FB89
:10513000B3C6CEAABFD5210049000020BDDAB5E331
:10514000CAFDB3ACB9FD20256420B8F621000000EB
:10515000C40E0020555345525F434D442D2D3E3E15
:1051600020434D445F30784331206964206F7220C2
:105170006E616D6520616C7265616479207265672E
:1051800069737465726564210D0A0000BDDAB5E3C8
:10519000D2D1BEADB1BBD7A2B2E121004E6F6465E2
:1051A00020436F756E74202564204C6973743A2017
:1051B0000D0A0000496420696E6465782025642C1E
:1051C000204944205B25735D2C204E616D65205B7A
:1051D00025735D0D0A68657849443A200000000097
:1051E000BDDAB5E3D7A2B2E1B3C9B9A62100000088
:1051F00000D800082D2D2D20496420696E64657843
:105200002025642C204944205B25735D2C204E61B1
:105210006D65205B25735D0D0A68657849443A2009
:1052200000000000647E002044000020A4810020D3
:10523000555345525F434D44202DA1B7206E6F64F6
:1052400065506167654368616E6765202564200D60
:105250000A000000555345525F434D44202DA1B72D
:105260002064697370506167654368616E6765208B
:105270002564200D0A000000555345525F434D44FC
:10528000202DA1B720646973705061676544656C17
:105290006574652063686F6F73652025642C2066D4
:1052A000312025642C207073772025730D0A0000AF
:1052B00075617274325446545061636B2E636D6431
:1052C00020756E6B6F776E212025780D0A00000027
:1052D000B48100206275696C64203A2000000000EF
:1052E0006C0000200044004010B5002400BF0BE01B
:1052F000324B621C03EBC2111A4602EBC41080222F
:1053000000F03EFB601CC4B22D480088401EA04245
:10531000EEDC2B480088401E2949088010BD10B5DE
:10532000002427480088012816DD26A000F05AFF37
:1053300000BF09E0214800EBC41090F8781024A0C9
:1053400000F050FF601CC4B21D480088401EA042FF
:10535000F0DC20A000F046FF10BD10B50446184850
:105360000088142811DA1549154A128801EBC21079
:105370004FF42062214600F003FBFFF7D0FF1048F6
:105380000088401C0E49088008E00C4890F87820FE
:10539000142111A000F026FFFFF7A6FF10BD10B5E5
:1053A00007480088002807DD044991F87920C86F74
:1053B000FDF734FFFFF798FF10BD0000608200206A
:1053C0006A000020517565756E2069642000000038
:1053D000256420000D0A0000B7A2CBCDB6D3C1D002
:1053E000D2D1C2FA20256420CCF5B6AAC6FAD7EEEF
:1053F000D4E7B5C4CFFBCFA22069642025640A009E
:1054000008B501210820FBF781FF4FF44070ADF88B
:10541000000010208DF8030003208DF8020069467B
:10542000FC48FBF731FC4FF44071FA48FBF7D9FC1C
:1054300008BD10B50120F8490860FDF793FE012072
:10544000F649C1F8A001FDF78DFE0020F249086081
:105450000120FDF787FE0020F049C1F8A00110BD32
:1054600010B50020EC4908600120FDF77BFE00200C
:10547000EA49C1F8A0010120FDF774FE0120E649C8
:105480000860FDF76FFE0120E449C1F8A00110BDDE
:1054900070B5044600251DE004F0800018B101201D
:1054A000DD49086002E00020DB4908600120FDF7CB
:1054B00059FE0120D849091F0860FDF753FE00205E
:1054C000D649C1F8A0010120FDF74CFE6006040E8C
:1054D000681CC5B2082DDFDB0120CF49091F086019
:1054E000FDF740FE0020CD49C1F8A00170BD10B508
:1054F0000446FFF79EFF7820FFF7CAFF4020FFF722
:10550000C7FF2046FFF7C4FFFFF7AAFF10BD10B585
:105510000446FFF78EFF7820FFF7BAFF0020FFF761
:10552000B7FF2046FFF7B4FFFFF79AFF10BD70B535
:1055300004460D4605F1B001C8B2FFF7E8FF10219F
:1055400041EA1410FFF7E3FF04F00F00FFF7DFFF5D
:1055500070BD70B504460D4605F1B001C8B2FFF745
:10556000D6FF102141EA1410FFF7D1FF04F00F011C
:1055700041F00100FFF7CBFF70BD70B50646002477
:1055800015E004F1B001C8B2FFF7C1FF0020FFF73A
:10559000BEFF1020FFF7BBFF002504E03046FFF7F9
:1055A000A6FF681CC5B2802DF8DB601CC4B2082CB5
:1055B000E7DB70BD2DE9F05F06460F4690461C46BE
:1055C000DDF828A04FF0000BE11704EB5171C91072
:1055D000A4EBC10131B92046E11704EB5171C1F3CD
:1055E000C70506E02046E11704EB5171C910491CBC
:1055F000CDB23D4614E029463046FFF798FFB1464C
:105600000AE059460BF1010B1AF80100FFF76FFF92
:1056100009F1010000F0FF09C145F2DB681CC5B2C9
:10562000A542E8DBBDE8F09F10B50020FFF7A5FF1D
:1056300010BD10B58D20FFF76AFF1420FFF767FF3C
:10564000AF20FFF764FF10BD10B58D20FFF75FFF9F
:105650001020FFF75CFFAE20FFF759FF10BD10B51B
:10566000FFF7CEFE6420FDF78BFDAE20FFF74FFF66
:105670000020FFF74CFF1020FFF749FF4020FFF705
:1056800046FF8120FFF743FFFF20FFF740FFA020E8
:10569000FFF73DFFC020FFF73AFFA620FFF737FFD7
:1056A000A820FFF734FF3F20FFF731FFD320FFF79B
:1056B0002EFF0020FFF72BFFD520FFF728FF8020CB
:1056C000FFF725FFD920FFF722FFF120FFF71FFF8B
:1056D000DA20FFF71CFF1220FFF719FFDB20FFF78E
:1056E00016FF4020FFF713FF2020FFF710FF0220D6
:1056F000FFF70DFF8D20FFF70AFF1420FFF707FFCC
:10570000A420FFF704FFA620FFF701FFAF20FFF75B
:10571000FEFE0020FFF731FF00210846FFF707FFDC
:1057200010BD2DE9F05F0446894615469A464FF0B4
:10573000000B00260027BAF1000F01D1B04601E0AE
:105740004FF0FF0822E0E85D203800F0FF0B7E2CD0
:1057500004DD002409F1010000F0FF09494620465C
:10576000FFF7F7FE00260BE00BEB4B012C4A02EB98
:105770004101895D81EA0800FFF7B9FE701CC6B2DD
:10578000062EF1DBA01DC4B2781CC7B2E85D00286C
:10579000D9D1BDE8F09F2DE9F04705460E461746E2
:1057A00098464FF0000907EB47004FEA400AB8F16E
:1057B000000F01D1002400E0FF247E2D02DD002532
:1057C000701CC6B231462846FFF7B1FE4FF0000903
:1057D0000CE051460AF1010A124A515C81EA0400C8
:1057E000FFF785FE09F1010000F0FF09B9F1060F8E
:1057F000EFDBBDE8F0872DE9F05F0746884691466C
:105800009B4600250024A246BBF1000F0CD10026C8
:105810000BE00000000C0140A481214200802142E5
:10582000230100206D000020FF2638E019F80A004F
:105830002038C5B2782F04DD002708F1010000F000
:10584000FF0841463846FFF772FE002409E004EBEA
:105850000511474A515C81EA0600FFF748FE601CCB
:10586000C4B2082CF3DB08F10100C1B23846FFF7DF
:105870005EFE00240AE004EB051108313C4A515C4D
:1058800081EA0600FFF733FE601CC4B2082CF2DB8D
:1058900007F10800C7B20AF1010000F0FF0A19F889
:1058A0000A000028C2D1BDE8F09F2DE9F0478146EB
:1058B0000F461646984600244FEA48153946484692
:1058C000FFF735FE00BF05E0705DFFF710FE6D1CB1
:1058D000601CC4B2102CF7DB781CC1B24846FFF73D
:1058E00026FE002405E0705DFFF701FE6D1C601CC4
:1058F000C4B2102CF7DBBDE8F0872DE9F047054670
:10590000884616461F46002428074FEA106900BF44
:1059100009E009EB0411C8B223463A464146FFF7B5
:10592000C4FF601CC4B2701C8442F2DBBDE8F08787
:1059300008B5104805232522012100901846FFF7DD
:1059400039FE3220FDF71CFC0B48052325220121DE
:1059500000901846FFF72EFE3220FDF711FC074895
:1059600005232522012100901846FFF723FE08BDDC
:105970004B0300203B0D0020BB0D00203B0E002000
:1059800040EA01039B0703D009E008C9121F08C0C1
:10599000042AFAD203E011F8013B00F8013B521E41
:1059A000F9D27047D2B201E000F8012B491EFBD2B8
:1059B00070470022F6E710B513460A46044619461A
:1059C000FFF7F0FF204610BD421C10F8011B002914
:1059D000FBD1801A704710B5002200E0521C835C96
:1059E0008C5CA34201D1002BF8D1D8B2E1B2401AAD
:1059F00010BD034611F8012B00F8012B002AF9D144
:105A0000184670472DE9F04791460F4680460446F8
:105A1000002614F8015B2DB100F03AF90068405DF2
:105A2000C007F6D12B2D02D02D2D18D0641E4A466A
:105A30003946204600F030F927B13968A14201D13A
:105A4000C7F8008071054FF002040BD540420028D2
:105A500003DD00F0EBFB0460A007BDE8F08746F42F
:105A60008066E4E70028F8DA00F0E0FB04606FF0FD
:105A70000040F2E72DE9FE4F81EA030404F0004400
:105A800021F0004100944FF0000B23F0004350EA56
:105A900001045ED052EA03045BD0C3F30A54C1F39D
:105AA0000A552C44A4F2F3340194A0FB0254C1F330
:105AB000130141F48011C3F3130343F4801301FB7A
:105AC000024400FB034E840A970A44EA815447EAE1
:105AD0008357A4FB076802958D0A05FB07854FEAEB
