:020000040800F2
:10000000708400204D010008952C0008972C0008F2
:100010009B2C00089F2C0008A32C00080000000067
:10002000000000000000000000000000A72C0008F5
:10003000A92C000800000000AB2C0008AD2C000823
:1000400067010008670100086701000867010008F0
:100050006701000867010008DB2F0008670100083E
:1000600067010008670100086701000867010008D0
:1000700067010008670100086701000867010008C0
:1000800067010008670100086701000867010008B0
:1000900067010008670100086701000867010008A0
:1000A0006701000867010008670100086701000890
:1000B00067010008E52C00086701000867010008D7
:1000C0006701000867010008670100086701000870
:1000D00067010008492D0008572D00086F2E000801
:1000E00067010008B52C00086701000867010008D7
:1000F0006701000867010008670100086701000840
:10010000670100086701000867010008670100082F
:1001100067010008670100082B2D0008670100082F
:10012000670100086701000867010008670100080F
:10013000DFF80CD005F024FD0048004741270008F7
:100140007084002080F308887047000006488047CC
:1001500006480047FEE7FEE7FEE7FEE7FEE7FEE7AC
:10016000FEE7FEE7FEE7FEE74F0200083101000868
:100170000CB50020019000906C48006840F480307D
:100180006A49086000BF6948006800F400300090C8
:100190000198401C0190009818B90198B0F5A06F23
:1001A000F1D16248006800F4003010B101200090E5
:1001B00001E0002000900098012843D15C480068CD
:1001C00040F010005A4908600846006820F003001B
:1001D00008600846006840F0020008605348406824
:1001E000524948600846406848600846406840F404
:1001F000806048600846406820F47C1048600846EB
:10020000406840F4E81048600846006840F080709C
:10021000086000BF4548006800F000700028F9D071
:100220004248406820F00300404948600846406862
:1002300040F00200486000BF3C48406800F00C00FD
:100240000828F9D10CBD10B5FFF792FF10BD10B50D
:100250003648006840F001003449086008464068AC
:10026000344908403149486008460068324908402E
:100270002E4908600846006820F48020086008467F
:10028000406820F4FE0048604FF41F008860FFF7CC
:10029000DAFF4FF000602949086010BD10B5002159
:1002A00000200022214B5B6803F00C0121B10429DE
:1002B00006D0082928D107E0214B224C236027E0F3
:1002C0001F4B204C236023E0184B5B6803F4701035
:1002D000164B5B6803F48032022303EB904022B993
:1002E000194B4343174C23600DE0104B5B6803F43C
:1002F000003323B1144B4343124C236003E0104BF3
:100300004343104C236003E00D4B0E4C236000BFB1
:1003100000BF064B5B68C3F303130C4CE15C094B55
:100320001B68CB40074C236010BD0000001002404A
:10033000002002400000FFF8FFFFF6FE08ED00E09D
:1003400000127A000000002000093D000400002097
:1003500031490143314A1160704770B500210023D3
:100360000F22C47804B32D4C246804F4E064C4F56F
:10037000E064210AC1F10403CA40447804FA03F19D
:100380008478144021430901254C0678A15504784E
:1003900004F01F050124AC4005786D11AD0005F196
:1003A000E025C5F8004109E0047804F01F050124A8
:1003B000AC401C4D0678761145F8264070BD1A4AAF
:1003C0000A400243154B1B1F1A60704739B1134A8C
:1003D000121D12680243114B1B1D1A6006E00F4AE2
:1003E000121D126882430D4B1B1D1A6070470428B2
:1003F00008D14FF0E021096941F004014FF0E022FB
:10040000116107E04FF0E021096921F004014FF08C
:10041000E0221161704700000000FA050CED00E0D9
:1004200000E400E080E100E080FFFF1F10B5012044
:1004300000F0A0FF002000F09DFF10BD2A490860D9
:1004400070472949091F08607047274984310860AF
:10045000704701460020254A10884FF67F42104021
:100460000843224A10807047014600201F4A108826
:100470004FF68072104008431C4A1080704708B540
:1004800000220092194A2C3A0092009A02440092EB
:10049000009A116008BD08B501460020009013487D
:1004A0002C3800900098084400900098008808BDFF
:1004B0000D489C300068C0B270470C480830008876
:1004C00040F0010009490831088070470648A03013
:1004D0000068C0B2704705480830008840F002004C
:1004E000024908310880704704860D422C6C004098
:1004F000002044490860091D0860091D0860091DA5
:10050000086041483F4914310860704700213D4967
:100510008279002A3AD00A46126803689A430B4649
:100520001A600A1D126803689A430B1D1A6002794B
:1005300011440A6803681A430A60324A0832126892
:1005400003689A432F4B08331A601A1D1268036818
:100550009A432C4B0C331A604279102A0ED11A1F81
:10056000126803681A43274B08331A601A1D126871
:1005700003681A43234B0C331A600DE0214942797A
:1005800011440A6803681A430A6005E002791144BD
:100590000A6803689A430A6070470021016001718C
:1005A0000C21417100218171704716491031096891
:1005B0000143144A10321160704701460020114A6D
:1005C000143212680A400AB1012000E0002070478E
:1005D0000C49143108607047014600200022094B85
:1005E0001B6803EA0102074B14331B680B4013B16D
:1005F0000AB1012000E00020704702491431086070
:100600007047000000040140FFFF0F00014600207A
:10061000FE4A106800F03800084310607047FB493C
:10062000096821F00801F94A11601146096801437F
:1006300011607047F549096821F01001F34A116013
:1006400011460968014311607047F148EF4948605D
:10065000F04848607047EE48EC494860ED48486013
:100660007047EA48006940F08000E8490861704737
:10067000E648006940F08000E449086170470420C2
:10068000E249C96801F0010109B101200EE0DF492A
:10069000C96801F0040109B1022007E0DB49C9681B
:1006A00001F0100109B1032000E00420704700B5FB
:1006B00002460423FFF7E3FF034603E0FFF7DFFFF3
:1006C0000346521E012B01D1002AF7D102B905239E
:1006D000184600BD30B5044604254FF43020FFF71E
:1006E000E6FF0546042D17D1C848006940F0020016
:1006F000C649086108464461006940F0400008614D
:100700004FF43020FFF7D3FF0546C048006941F69B
:10071000FD710840BD490861284630BD10B504246C
:100720004FF43020FFF7C3FF0446042C16D1B7481E
:10073000006940F00400B54908610846006940F0CE
:10074000400008614FF43020FFF7B1FF0446AF4886
:10075000006941F6FB710840AC490861204610BDB4
:1007600000B502460423FFF78AFF034603E0FFF7C4
:1007700086FF0346521E012B01D1002AF7D102B990
:100780000523184600BD10B504244FF43020FFF7B0
:10079000E7FF0446042C16D19C48006940F0040091
:1007A0009A4908610846006940F0400008614FF42A
:1007B0003020FFF7D5FF04469448006941F6FB71ED
:1007C000084092490861204610BD00208F49C96940
:1007D00001F0020109B1012000E00020704730B5AE
:1007E000A5250424FFF7F1FF00B100254FF43020C8
:1007F000FFF75DFF0446042C3AD1854883498860A1
:10080000844888600846006940F020000861084676
:10081000006940F0400008614FF43020FFF747FFC7
:100820000446042C1BD17948006941F6DF71084069
:10083000764908610846006940F010000861764872
:100840000580E002FFF733FF0446052C10D06F4807
:10085000006941F6EF7108406C49086108E0052C19
:1008600006D06A48006941F6EF710840674908619F
:10087000204630BD78B506460C4604250020009081
:10088000E802FFF714FF0546042D24D15F480069F4
:1008900040F001005D4908613480E802FFF707FF7E
:1008A0000546042D10D1B01C0090200C0099088042
:1008B000E802FFF7FCFE05465448006941F6FE7168
:1008C00008405249086106E05048006941F6FE714F
:1008D00008404E490861284678BD70B504460D466B
:1008E0000426F002FFF7E3FE0646042E11D1474826
:1008F000006940F00100454908612580F002FFF7DA
:10090000D6FE06464148006941F6FE7108403F495F
:100910000861304670BD70B505460E460424E002FD
:10092000FFF7C5FE0446042C17D1394837498860C3
:10093000384888600846006940F0100008612E8041
:10094000E002FFF7B4FE0446052C06D02F480069EC
:1009500041F6EF7108402D490861204670BD2DE930
:10096000F04304464FF6FF763746B046B1460425BD
:10097000E443E6B2C4F30727C4F307484FEA146917
:10098000E802FFF794FE0546042D49D120481F498F
:100990008860204888600846006940F010000861BF
:1009A000FF2E06D01C4808300680E802FFF77FFEC5
:1009B0000546042D08D1FF2F06D017480A300780BE
:1009C000E802FFF774FE0546042D0AD1B8F1FF0FC7
:1009D00007D011480C30A0F80080E802FFF767FE4E
:1009E0000546042D0AD1B9F1FF0F07D00A480E3091
:1009F000A0F80090E802FFF75AFE0546052D0FD03B
:100A00000248006941F6EF71084007E0002002400B
:100A100023016745AB89EFCD00F8FF1F66490861E8
:100A20002846BDE8F08330B5054604244FF4302055
:100A3000FFF73DFE0446042C41D160485E498860C2
:100A40005F4888600846006940F020000861084659
:100A5000006940F0400008614FF43020FFF727FEA6
:100A60000446042C22D15448006941F6DF71084045
:100A7000514908610846006940F0100008611DB145
:100A800000205049088002E0A5204E4908804FF41C
:100A90003020FFF70CFE0446052C10D046480069B4
:100AA00041F6EF7108404449086108E0052C06D082
:100AB0004148006941F6DF7108403F49086120461E
:100AC00030BDF0B505460E46174604243B483A496A
:100AD00088603B488860E002FFF7E9FD0446042C8B
:100AE00019D13548006940F010003349086147F0DA
:100AF000F800304328433349891C0880E002FFF79F
:100B0000D6FD0446052C06D02B48006941F6EF714E
:100B10000840294908612046F0BD2748C06980087F
:100B200070472548006A704700202349096801F092
:100B3000200109B1012000E00020704729B11E4AC0
:100B4000126902431C4B1A6104E01B4A126982437A
:100B5000194B1A61704701460020012908D1164A35
:100B6000D26902F001020AB1012008E0002006E08B
:100B7000114AD2680A400AB1012000E00020704703
:100B80000D49C860704704200B49C96801F0010194
:100B900009B101200EE00849C96801F0040109B15A
:100BA000022007E00449C96801F0100109B10320DF
:100BB00000E0042070470000002002402301674548
:100BC000AB89EFCD00F8FF1F10B50446CC48844236
:100BD00008D10121042000F0B3FB0021042000F023
:100BE000AFFB46E0C748844208D10121082000F04D
:100BF000A7FB0021082000F0A3FB3AE0C248844292
:100C000008D10121102000F09BFB0021102000F0F2
:100C100097FB2EE0BD48844208D10121202000F03E
:100C20008FFB0021202000F08BFB22E0B84884429B
:100C300008D10121402000F083FB0021402000F07A
:100C40007FFB16E0B348844208D10121802000F0E8
:100C500077FB0021802000F073FB0AE0AE4884425D
:100C600007D10121801500F06BFB0021A01500F0D9
:100C700067FB10BD10B50121084600F061FB0021A3
:100C8000012000F05DFB10BD2DE9F041024600257A
:100C90000026002000230024002791F803C00CF058
:100CA0000F0591F803C00CF0100CBCF1000F03D03D
:100CB00091F802C04CEA050591F800C0BCF1000FA4
:100CC00031D0146800202BE04FF0010C0CFA00F337
:100CD000B1F800C00CEA03069E4220D183004FF019
:100CE0000F0C0CFA03F7BC4305FA03FC4CEA0404AE
:100CF00091F803C0BCF1280F06D14FF0010C0CFA9B
:100D000000FCC2F814C00AE091F803C0BCF1480F1F
:100D100005D14FF0010C0CFA00FCC2F810C0401CC9
:100D20000828D1D31460B1F800C0BCF1FF0F34DD46
:100D3000546800202EE000F1080C4FF0010808FA7A
:100D40000CF3B1F800C00CEA03069E4221D18300E7
:100D50004FF00F0C0CFA03F7BC4305FA03FC4CEA06
:100D6000040491F803C0BCF1280F05D100F1080C70
:100D700008FA0CF8C2F8148091F803C0BCF1480FCF
:100D800007D100F1080C4FF0010808FA0CF8C2F87E
:100D90001080401C0828CED35460BDE8F0814FF687
:100DA000FF710180022181700421C17070470246E9
:100DB000002093680B400BB1012000E00020704739
:100DC0000146886880B2704702460020D3680B4015
:100DD0000BB1012000E0002070470146C86880B2D6
:100DE000704701617047416170470AB1016100E0DD
:100DF00041617047C16070474FF480320A4382619D
:100E00008161826182698269704702460020434B9A
:100E100018684FF68073184040EA021008433F4BB1
:100E2000186070473E49C8617047F0B50A46002314
:100E300000240021002500F00046B6F1004F02D149
:100E4000364EF16901E0354E7168C0F3034583B257
:100E500000F44016B6F5401F08D121F070612F4E06
:100E6000766826F070662D4F7E6012E000F48016E2
:100E7000B6F5801F06D1032606FA05F4A14341F01A
:100E8000706106E0460D360103FA06F6B14341F003
:100E9000706122B1460D360103FA06F6314300F0C7
:100EA0000046B6F1004F02D11C4EF16101E01B4E2D
:100EB0007160F0BD30B500228B071C0F0F2303FAC1
:100EC00004F2164B08338C1053F824309343134C20
:100ED00008348D1044F8253023468C1053F8243004
:100EE0008C07240F00FA04F423430C4C08348D10B3
:100EF00044F8253030BD0A49DC31086070470000F5
:100F000000080140000C01400010014000140140A5
:100F100000180140001C0140002001400000014079
:100F2000000020420E49086070470D494860704734
:100F30000B49886070474AF6AA2009490860704743
:100F40004CF6CC4006490860704701460020044A30
:100F5000D2680A400AB1012000E00020704700007A
:100F60000030004010B50121080700F0F6F900211B
:100F70004FF0805000F0F1F910BD2A490862704727
:100F800028490861704701460020274A106820F070
:100F9000E0000843106070472249A03108607047A4
:100FA00010B502460020204B186820F003001043C3
:100FB00018601E4B1B6843F004031C4C236001297E
:100FC00001D130BF00E020BF184B1B6823F00403A1
:100FD000164C236010BD1448006840F0040012490C
:100FE00008600846006840F0020008600F4800688A
:100FF00040F004000D49086000BF00BF30BF7047DB
:1010000001460020084A52680A400AB1012000E067
:10101000002070470449096841EA8001024A1160D2
:101020007047000000000E420070004010ED00E02C
:10103000DF48006840F00100DD490860084640686C
:10104000DC490840DA49486008460068DA49084047
:10105000D74908600846006820F4802008600846E8
:10106000406820F4FE0048604FF41F00886070471D
:10107000CF49096821F48031CD4A116011460968D1
:1010800021F480211160B0F5803F03D0B0F5802FAE
:101090000ED106E0C649096841F48031C44A1160A6
:1010A00007E0C349096841F4A021C14A116000E08A
:1010B00000BF00BF704710B501460022002300208A
:1010C0004A11012A02D1BA4C236806E0022A02D151
:1010D000B74C236A01E0B64C636A01F01F02012499
:1010E00094401C400CB1012000E0002010BD38B538
:1010F000002000900024002500BF3120FFF7DBFF17
:1011000005460098401C00900098B0F5A06F01D0F3
:10111000002DF2D03120FFF7CEFF08B1012400E00E
:101120000024204638BD01460020A14A106820F066
:10113000F80040EAC10010607047A049086070479D
:10114000024600209A4B586820F47C1042EA0103C2
:101150001843974B58607047984908667047014696
:101160000020934A506820F0030008435060704705
:101170008F48406800F00C007047014600208C4A00
:10118000506820F0F000084350607047014600208E
:10119000874A506820F4E060084350607047014679
:1011A0000020834A506820F4605040EAC10050603B
:1011B000704729B17E4A527A02437D4B5A7204E04D
:1011C0007B4A527A82437A4B5A7270477B49D831B4
:1011D0000860704701460020754A506820F440407E
:1011E0000843506070470021714A20321170704AE4
:1011F00082F82010012802D004280AD104E001213D
:101200006B4A2032117005E00521694A20321170C5
:1012100000E000BF00BF704769490860704764493B
:10122000096A0143624A116270476549443908609E
:10123000704730B500210022002400235C4D6D680A
:1012400005F00C0121B1042905D0082923D105E0BE
:101250005C4D056022E05B4D05601FE0544D6D68FC
:1012600005F47012524D6D6805F48034022505EBCB
:1012700092421CB9544D554305600BE04C4D6D68CE
:1012800005F400351DB1504D5543056002E04D4D4C
:101290005543056002E04B4D056000BF00BF444D63
:1012A0006D6805F0F0010909484D6B5C0568DD408B
:1012B00045603F4D6D6805F4E061090A434D6B5C84
:1012C0004568DD4085603A4D6D6805F46051C90A96
:1012D0003E4D6B5C4568DD40C560354D6D6805F47D
:1012E0004041890B3A4D6B5CC568B5FBF3F5056170
:1012F00030BD29B12E4A526902432D4B5A6104E098
:101300002B4A526982432A4B5A61704729B1284AB5
:1013100092690243264B9A6104E0254A926982430E
:10132000234B9A61704729B1214AD2690243204B6D
:10133000DA6104E01E4AD26982431D4BDA617047CC
:1013400029B11B4AD2680243194BDA6004E0184AFB
:10135000D2688243164BDA60704729B1144A126989
:101360000243134B1A6104E0114A12698243104B85
:101370001A61704712494039086070470F49C864C4
:1013800070470B49C87170470948406A40F0807047
:1013900007494862704701460020054A92680A40A2
:1013A0000AB1012000E000207047014988727047AF
:1013B000001002400000FFF8FFFFF6FE000042426E
:1013C0008004424200127A0000093D00140000200F
:1013D0002400002029B1504A128802434E4B1A8043
:1013E00004E04D4A128882434B4B1A8070474A48AA
:1013F000001D008840F010004749091D0880704713
:101400004548001D00884FF6EF7108404249091D0C
:1014100008807047002140481C300188001F008868
:1014200041EA0040704700B50246FFF7E0FF100CAC
:10143000394918310880091D0A80FFF7E1FF00BD16
:1014400000B50246FFF7D3FFC2F30340324908312B
:101450000880091D0A80FFF7D3FF00BD00B50246D2
:10146000FFF7C5FF100C2C4920310880091D0A80A8
:10147000FFF7C6FF00BD0020274910310988090782
:10148000080B2549143109880843704700BF2248DA
:10149000001D008800F020000028F8D070471E488A
:1014A000001D00884FF6F77108401B49091D088090
:1014B00000BF1948001D008800F008000028F8D07F
:1014C000704701460020144A121D12880A400AB1D2
:1014D000012000E0002070470F49091D0988814361
:1014E0000D4A121D11807047014600200A4A121D44
:1014F00012880A40D0B2084A12880A4012B108B1D4
:10150000012000E0002070470349091D098881433C
:10151000014A121D118070470028004010B5044692
:10152000FE48844208D10121C014FFF709FF0021C1
:10153000E014FFF705FFC4E0B4F1804F08D10121AA
:101540000846FFF70AFF00210120FFF706FFB8E079
:10155000F348844208D101210220FFF7FEFE00215A
:101560000220FFF7FAFEACE0EE48844208D10121E8
:101570000420FFF7F2FE00210420FFF7EEFEA0E0BA
:10158000E948844208D101210820FFF7E6FE002146
:101590000820FFF7E2FE94E0E448844208D10121EC
:1015A0001020FFF7DAFE00211020FFF7D6FE88E0BA
:1015B000DF48844208D101212020FFF7CEFE002120
:1015C0002020FFF7CAFE7CE0DA48844208D10121DE
:1015D0004014FFF7B5FE00216014FFF7B1FE70E084
:1015E000D548844209D10121C804FFF7A9FE002192
:1015F0004FF40020FFF7A4FE63E0D048844209D1F5
:1016000001210805FFF79CFE00214FF48010FFF731
:1016100097FE56E0CA48844209D101214805FFF7E8
:101620008FFE00214FF40010FFF78AFE49E0C54805
:10163000844208D101214020FFF78FFE0021402085
:10164000FFF78BFE3DE0C048844208D10121802095
:10165000FFF783FE00218020FFF77FFE31E0BB48CB
:10166000844208D101218015FFF777FE0021A015E3
:10167000FFF773FE25E0B648844209D10121080432
:10168000FFF75EFE00214FF48030FFF759FE18E0AF
:10169000B048844209D101214804FFF751FE0021DE
:1016A0004FF40030FFF74CFE0BE0AB48844208D10A
:1016B00001218804FFF744FE00214FF48020FFF74A
:1016C0003FFE10BD00220288944B98420ED0994BE9
:1016D00098420BD0B0F1804F08D0914B984205D082
:1016E000904B984202D0904B984204D14FF68F73A2
:1016F0001A404B881A438D4B984207D08C4B984226
:1017000004D04FF6FF431A40CB881A4302808B88DF
:1017100083850B880385814B98420BD0854B98427B
:1017200008D08B4B984205D08A4B984202D08A4B06
:10173000984201D10B7A038601238382704770B5EA
:10174000002400220023058C4FF6FE7635400584E8
:10175000028C8388048B4FF68F752C40B51E2C406D
:101760000D882C43751E2A400D892A434D882A4333
:101770006A4DA8420BD06F4DA84208D0744DA842C4
:1017800005D0744DA84202D0734DA84213D14FF634
:10179000F7752A404D892A434FF6FB752A408D88FC
:1017A0002A434FF6FF652B404FF6FF552B408D899E
:1017B0002B43CD892B4383800483CD888586028487
:1017C00070BD70B5002400220023058C4FF6EF7623
:1017D00035400584028C8388048B48F6FF752C40C5
:1017E0004FF6FF452C400D884FF6FF7606EA05259B
:1017F0002C434FF6DF752A400D8906EA05152A436A
:101800004D8806EA05152A43444DA84202D0494DA9
:10181000A8421DD14FF67F752A404D894FF6FF76BD
:1018200006EA05152A434FF6BF752A408D8806EA59
:1018300005152A434FF6FF352B404FF2FF752B401D
:101840008D8906EA85052B43CD8906EA85052B435C
:1018500083800483CD880587028470BD70B5002421
:1018600000220023058C4FF6FF6635400584028C6C
:101870008388848B4FF68F752C404FF6FC752C4077
:101880000D882C434FF6FF552A400D894FF6FF7601
:1018900006EA05252A434D8806EA05252A431F4DF9
:1018A000A84202D0234DA8421DD14FF2FF752A4015
:1018B0004D894FF6FF7606EA05252A434FF6FF3598
:1018C0002A408D8806EA05252A434EF6FF752B40EF
:1018D0004DF6FF752B408D8906EA05152B43CD8902
:1018E00006EA05152B4383808483CD88858702848F
:1018F00070BD70B5002200230024058C4EF6FF76E3
:1019000035400584038C8488828B48F6FF752A4015
:101910004FF6FF452A400D8820E00000002C0140D2
:101920000004004000080040000C0040001000408F
:101930000014004000340140004C014000500140C0
:101940000054014000180040001C004000200040EE
:101950000040014000440140004801404FF6FF763E
:1019600006EA05252A434DF6FF752B400D8906EA48
:1019700005352B434D8806EA05352B43FA4DA84221
:1019800002D0FA4DA84208D14BF6FF752C408D8944
:101990004FF6FF7606EA85152C4384808283CD8836
:1019A000A0F84050038470BD828B4FF2FF331A4081
:1019B0008283828B4FF6FF7303EA01231A438283EB
:1019C0007047F0B50C461546002200210026078C12
:1019D0004EF6FF7C07EA0C070784828B018C4FF6DA
:1019E000FF7707EA043640F6FF473A404FF6FF77A5
:1019F00007EA05273A434FF6FF7707EA03373A43EA
:101A0000D94FB8420ED0D94FB8420BD0B0F1804F69
:101A100008D0D74FB84205D0D64FB84202D0D64FE3
:101A2000B84206D14DF6FF77394046F48057394326
:101A300005E047F6FF57394044F480573943828325
:101A40000184F0BD828B4FF6F3731A408283828B40
:101A50000A4382837047F0B50C46154600220021E8
:101A60000026078C4FF6FF6C07EA0C070784828B71
:101A7000018C4FF6FF7707EA04264FF60C773A40C1
:101A80004FF6FF7707EA03172F433A43B64FB842A2
:101A90000ED0B64FB8420BD0B0F1804F08D0B44F43
:101AA000B84205D0B34FB84202D0B34FB84206D1C6
:101AB0004FF6FF57394046F48077394305E04FF23F
:101AC000FF57394044F48077394382830184F0BD65
:101AD000028B4FF2FF331A400283028B4FF6FF73E3
:101AE00003EA01231A4302837047F0B50C461546FA
:101AF000002200210026078C4FF6EF7C07EA0C0736
:101B00000784028B018C4FF6FF7707EA041640F634
:101B1000FF473A404FF6FF7707EA03373A434FF65D
:101B2000FF7707EA05273A438F4FB8420ED08F4F11
:101B3000B8420BD0B0F1804F08D08D4FB84205D0DD
:101B40008C4FB84202D08C4FB84206D14FF6DF77A7
:101B5000394046F01007394305E04FF65F773940CA
:101B600044F01007394302830184F0BD028B4FF625
:101B7000F3731A400283028B0A4302837047F0B565
:101B80000C46154600220021068C4FF6FE773E409B
:101B90000684028B018C4FF60C7632407E1C06EADE
:101BA00003162E433243704EB0420ED06F4EB042F9
:101BB0000BD0B0F1804F08D06D4EB04205D06D4EC5
:101BC000B04202D06C4EB04206D14FF6FD763140A5
:101BD00044F00106314305E04FF6F576314044F01C
:101BE0000106314302830184F0BD70B505460C4601
:101BF0005D4885420ED05D4885420BD0B5F1804FDF
:101C000008D05B48854205D05A48854202D05A48E0
:101C1000854200D100E000BF208850B92389A28806
:101C200061882846FFF7ABFFE1882846FFF79EFF53
:101C300025E0208804280AD12389A28861882846C3
:101C4000FFF753FFE1882846FFF742FF17E020889F
:101C500008280AD12389A28861882846FFF7FBFE5D
:101C6000E1882846FFF7EEFE09E02389A288618813
:101C70002846FFF7A6FEE1882846FFF795FE70BDCF
:101C80002DE9F04105460C4600260127608808B979
:101C9000022600E00026A088012801D1022700E0EA
:101CA00001272088A0B92389A28861882846FFF7E8
:101CB00066FFE1882846FFF759FF23893A463146F7
:101CC0002846FFF712FFE1882846FFF701FF13E0DF
:101CD0002389A28861882846FFF707FFE188284604
:101CE000FFF7F6FE23893A4631462846FFF747FFBD
:101CF000E1882846FFF73AFFBDE8F0810A884B8863
:101D00001A438B881A43CB881A430B891A434B8991
:101D10001A438B891A43A0F8442070474FF6FF718D
:101D2000818000210180C1804180017270470021C3
:101D3000018041808180C180018141818181C18197
:101D40007047002101804180012181800021C180F4
:101D5000018170470021018041808180C180018123
:101D60004181818170470000002C01400034014016
:101D70000004004000080040000C004021B102882F
:101D800042F00102028004E002884FF6FE731A401E
:101D90000280704731B1B0F8442042F40042A0F80C
:101DA000442005E0B0F84420C2F30E02A0F844201D
:101DB00070471AB183890B43838102E083898B4387
:101DC000838170478182704741EA0203A0F848305E
:101DD00070471AB183890B43838102E083898B4367
:101DE0008381704701894FF6F87211400181704775
:101DF0000A46002101894FF68F7319401143018172
:101E0000704730B504460D4629462046FFF7F0FFDF
:101E1000208940F00700208130BD2DE9F0410446C3
:101E20000D4616461F46602D06D13B46012231461F
:101E30002046FFF75AFE05E03B4601223146204688
:101E4000FFF79DFE29462046FFF7D2FF208940F08C
:101E500007002081BDE8F08130B50C4600210189E2
:101E6000C9B24FF6FF7505EA0325154325432943FB
:101E7000018130BD2DE9F04105460E4617469846D2
:101E8000002443463A4631462846FFF7E5FF2C89B1
:101E90004FF6F870044044F007044FF68F7004408A
:101EA00044F070042C81BDE8F081F0B504460D4685
:101EB00016461F463B46324629462046FFF7CCFFD2
:101EC000208940F480402081F0BD018582827047E6
:101ED0000A46002101884FF68F7319401143018093
:101EE0007047F0B50C4615461E460021002200231F
:101EF0000189028B038C4FF6F877394021434FF666
:101F0000FC473A4040F201173A434FF6DD773B4039
:101F10004FF6FF7707EA06172F433B430181028301
:101F20000384F0BD0A460021018B4FF68F731940E0
:101F30001143018370470A460021018B48F6FF7365
:101F400019404FF6FF7303EA0223194301837047D8
:101F50000A460021818B4FF68F731940114381830C
:101F600070470A460021818B48F6FF7319404FF6EF
:101F7000FF7303EA022319438183704721B102886A
:101F800042F08002028004E002884FF67F731A401C
:101F90000280704721B1828842F00402828004E00E
:101FA00082884FF6FB731A408280704721B1828885
:101FB00042F00802828004E082884FF6F7731A40EC
:101FC0008280704721B1828842F00102828004E061
:101FD00082884FF6FE731A40828070470A460021BD
:101FE000018B4FF6F77319401143018370470A467E
:101FF0000021018B4FF2FF7319404FF6FF7303EA84
:1020000002231943018370470A460021818B4FF652
:10201000F77319401143818370470A460021818B71
:102020004FF2FF7319404FF6FF7303EA022319437F
:10203000818370470A460021018B4FF6FB731940DC
:102040001143018370470A460021018B4FF6FF338D
:1020500019404FF6FF7303EA0223194301837047C7
:102060000A460021818B4FF6FB731940114381838F
:1020700070470A460021818B4FF6FF3319404FF617
:10208000FF7303EA02231943818370470A46002144
:10209000018B4FF67F7319401143018370470A4645
:1020A0000021018BC1F30E014FF6FF7303EA0223F7
:1020B0001943018370470A460021818B4FF67F73D5
:1020C00019401143818370470A460021818BC1F377
:1020D0000E014FF6FF7303EA022319438183704711
:1020E0000A460021018C4FF6FD731940114301840B
:1020F00070470A460021018C4FF6F77319401143CF
:10210000018470470A460021018C4FF6DF731940A5
:102110004FF6FF7303EA02131943018470470A461E
:102120000021018C4FF67F7319404FF6FF7303EACD
:1021300002131943018470470A460021018C4FF6AF
:10214000FF5319404FF6FF7303EA0223194301843A
:1021500070470A460021018C4FF2FF7319404FF679
:10216000FF7303EA02231943018470470A460021E2
:10217000018C4DF6FF7319404FF6FF7303EA0233EB
:1021800019430184704730B5002301248C40A3B269
:10219000048C9C430484048C02FA01F5ADB22C43F8
:1021A000048430BD30B5002304248C40A3B2048CD9
:1021B0009C430484048C02FA01F5ADB22C430484E0
:1021C00030BD70B5034600200024184618300125A4
:1021D0008D40ACB21D8CA5431D8409B1082909D1DD
:1021E00000EB6100056825F0700505600568154382
:1021F00005600EE00D1FC5F34E052844056825F463
:10220000E045056005684FF6FF7606EA022635438D
:10221000056070BD21B1028842F00202028004E034
:1022200002884FF6FD731A400280704721B1028880
:1022300042F00402028004E002884FF6FB731A4069
:102240000280704721B1828842F08002828004E0DF
:1022500082884FF67F731A408280704702884FF65B
:10226000F7731A40028002880A430280704782880E
:102270004FF68F731A40828082880A4382807047AB
:1022800002894FF6F8731A40028102890A430281DB
:10229000704702894FF67F731A40028102890A4310
:1022A00002817047818470478185704781867047BD
:1022B0000187704781877047A0F8401070470288F7
:1022C0004FF6FF431A40028002880A43028070479B
:1022D0000146888E70470146088F70470146888FF7
:1022E00070470146B1F8400070470146888C70473E
:1022F0000146088D704702460020138A0B400BB13F
:10230000012000E000207047CA430282704730B5C8
:102310000246002000230024158A05EA010395895E
:1023200005EA010413B10CB1012000E0002030BD2A
:10233000CA4302827047000010B50446FB4884423D
:1023400009D101218803FEF7FBFF00214FF48040F3
:10235000FEF7F6FF32E0F648844209D10121480435
:10236000FEF7FBFF00214FF40030FEF7F6FF25E0FB
:10237000F048844209D101218804FEF7EEFF0021D4
:102380004FF48020FEF7E9FF18E0EB48844209D1C2
:102390000121C804FEF7E1FF00214FF40020FEF701
:1023A000DCFF0BE0E548844208D101210805FEF777
:1023B000D4FF00214FF48010FEF7CFFF10BD2DE9B0
:1023C000F04786B005460E460024A24600BFA1464F
:1023D0000027B08900B100BF2F462C8A4CF6FF7051
:1023E0000440F08804432C82AC894EF6F31004407C
:1023F000B08831890843718908430443AC81AC8AB1
:102400004FF6FF400440B0890443AC8201A8FEF7B8
:1024100010FFC648874202D1DDF810A001E0DDF8C8
:102420000CA0A88900F4004040B10AEBCA0000EB00
:102430000A1031684900B0FBF1F807E00AEBCA0066
:1024400000EB0A1031688900B0FBF1F86420B8FB9A
:10245000F0F004012009642101FB1089A88900F42F
:10246000004040B1322000EBC900B0FBF1F000F0B9
:102470000700044308E0322000EB09106421B0FBA0
:10248000F1F000F00F0004432C8106B0BDE8F087A6
:102490004FF41651016000218180C18001810C211F
:1024A000418100218181704710B502460020108AC9
:1024B0004FF2FF0318400B884C8823438C8823433A
:1024C000CC8823431843108210BD00210180418035
:1024D0008180C180704721B1828942F4005282819B
:1024E00004E082894DF6FF731A4082817047F0B58F
:1024F0000346002400260025002040F66A17B94252
:1025000000D100BF1846C1F3421401F01F06012795
:1025100007FA06F5012C01D10C3004E0022C01D1A0
:10252000103000E014301AB107682F43076002E052
:102530000768AF430760F0BD1AB1838A0B438382FB
:1025400002E0838A8B4383827047028A4FF6F073DE
:102550001A400282028A0A430282704782894FF23D
:10256000FF731A40828182890A438281704721B1B8
:10257000828942F00202828104E082894FF6FD7373
:102580001A4082817047028A4FF6DF731A40028236
:10259000028A0A430282704721B1028A42F48042D1
:1025A000028204E0028A4BF6FF731A4002827047EF
:1025B000C1F308028280704701468888C0F3080092
:1025C0007047818941F0010181817047028BD2B24D
:1025D0000283028B42EA012202837047028B02F4DB
:1025E0007F420283028B0A430283704721B1828AB1
:1025F00042F02002828204E0828A4FF6DF731A40A2
:102600008282704721B1828A42F01002828204E005
:10261000828A4FF6EF731A408282704721B1828A14
:1026200042F00802828204E0828A4FF6F7731A4071
:102630008282704721B1828942F40042828103E0A4
:102640008289C2F30E028281704721B1828A42F4EC
:102650000062828204E0828A4FF2FF731A40828213
:102660007047828A4FF6FB731A408282828A0A433D
:102670008282704721B1828A42F00202828204E0A3
:10268000828A4FF6FD731A4082827047024600200C
:10269000B1F5007F00D100BF13880B400BB10120C2
:1026A00000E00020704701F40072B2F5007F00D115
:1026B00000BFCA430280704770B502460024002361
:1026C0000025002040F66A16B14200D100BFC1F3D8
:1026D000421501F01F03012606FA03F3012D02D172
:1026E0009689334006E0022D02D1168A334001E07C
:1026F000968A33400C12012606FA04F416883440F8
:1027000013B10CB1012000E0002070BD10B5002213
:10271000002340F66A14A14200D100BF0A1201242E
:102720009440A3B2DC43048010BD00000038014097
:102730000044004000480040004C00400050004071
:102740004FF4E01000F0ADF800F0E5F800F09AF971
:1027500002F091FA00F048F900F03FFA02F0A9FC0B
:1027600029A003F079FA2E48A0F17901C1F8F00010
:10277000401CC1F8F400401CC1F8F800401CC1F82E
:10278000FC00401CC1F80001401CC1F80401401CC1
:10279000C1F80801401CC1F80C01401CC1F810012F
:1027A000083820490860401C4860401C8860401C74
:1027B000C8601D48A0F20111C1F80002401CC1F818
:1027C0000402401CC1F80802801CC1F81802401C19
:1027D000C1F810020846D0F80C020830C1F80C020B
:1027E00001F58470C1F814020221012002F0FAF907
:1027F0001521022002F0F6F905E002F097F900F049
:102800002BFF01F0ACF8F8E70D0A4D6173746572A7
:1028100020526562626F74210D0A0D0A00000000EB
:10282000E9720020B07500208D7400201CB50446AC
:10283000002001900090FEF7FBFB4FF48030FEF784
:1028400017FCFEF754FC00900098012826D11020B8
:10285000FDF7F0FE0220FDF7D9FE0020FEF78DFC0B
:102860000020FEF79CFC4FF48060FEF78FFC2146B1
:102870004FF48030FEF764FC0120FEF76DFC00BFD2
:102880003920FEF718FC0028FAD00220FEF767FC7A
:1028900000BFFEF76DFC0828FBD101E000BFFEE79A
:1028A0001CBD38B5044600200090FEF7C1FB012096
:1028B000FEF743FCEF48006800F00200009000982B
:1028C000022825D11020FDF7B5FE0220FDF79EFE5F
:1028D0000020FEF752FC0020FEF761FC4FF4806000
:1028E000FEF754FC21460020FEF72AFC0120FEF7EB
:1028F00033FC00BF3920FEF7DEFB0028FAD00220AF
:10290000FEF72DFC00BFFEF733FC0828FBD101E0E9
:1029100000BFFEE738BD10B501211020FEF7F6FC20
:1029200001210820FEF7F2FC01210846FEF7EEFC2B
:1029300001210420FEF7EAFC01218803FEF7E6FCF2
:1029400001214804FEF7EFFC01218804FEF7EBFCAF
:1029500010BD0EB54FF40070ADF8080003208DF8DF
:102960000A0018208DF80B0002A9C348FEF78CF965
:102970004FF48060ADF8080004208DF80B0002A928
:10298000BD48FEF781F90420ADF8040003208DF85E
:10299000060018208DF8070001A9B748FEF774F962
:1029A0000820ADF8040004208DF8070001A9B24802
:1029B000FEF76AF94FF48060ADF8000003208DF84F
:1029C000020018208DF803006946AC48FEF75CF958
:1029D0004FF40060ADF8000004208DF80300694654
:1029E000A648FEF751F90EBD1FB54FF4C060FDF7C4
:1029F000AFFC1D208DF80C0000208DF80D0002208A
:102A00008DF80E0001208DF80F0003A8FDF7A5FC3E
:102A10004FF4C060FDF79CFC25208DF808000020D5
:102A20008DF8090003208DF80A0001208DF80B00B5
:102A300002A8FDF792FC4FF4C060FDF789FC262048
:102A40008DF8040000208DF8050002208DF80600A6
:102A500001208DF8070001A8FDF77FFC4FF4C0604E
:102A6000FDF776FC27208DF8000000208DF801008E
:102A700001208DF802008DF803006846FDF76DFC1B
:102A80001FBD704700B58DB0FFF763FF4FF4E13015
:102A900009900020ADF82800ADF82A00ADF82C0010
:102AA000ADF830000C20ADF82E0009A97448FFF7EE
:102AB00086FC012240F225517148FFF718FD0121E3
:102AC0006F48FFF708FD4FF4E13005900020ADF8A6
:102AD0001800ADF81A00ADF81C00ADF820000C206D
:102AE000ADF81E0005A96748FFF769FC012240F216
:102AF00025516448FFF7FBFC01216248FFF7EBFC1E
:102B000040216048FFF7CFFD4FF4E13001900020F5
:102B1000ADF80800ADF80A00ADF80C00ADF81000F3
:102B20000C20ADF80E0001A95748FFF748FC012220
:102B300040F225515448FFF7DAFC01215248FFF7D3
:102B4000CAFC40215048FFF7AEFD0DB000BD0EB5E8
:102B50004FF47A70ADF804000720ADF800000020B3
:102B6000ADF80600ADF802008DF808006946474848
:102B7000FEF7A8FD01214548FFF7C6FB01221146DB
:102B80004248FFF716F901214048FFF7F7F80EBD5C
:102B900010B50120FEF7F1F9FDF748FC0120FEF722
:102BA0003BFB00BF6120FEF786FA0028FAD04FF405
:102BB0000070FEF734FB0120FEF737FBFEF76FFCD9
:102BC00049F64040FEF73CFCFEF760FC0121022084
:102BD000FEF700FCFEF75AFC10BD0EB501210220E5
:102BE000FEF7A1FB41F61F40ADF800000020ADF854
:102BF00002006320ADF804000020ADF8060069462D
:102C00002348FEF75FFD012211462148FFF7D1F866
:102C100001211F48FFF7B2F80EBD70B5044601212F
:102C20000807FEF780FBFEF79DF945F25550FEF7C9
:102C300079F904EB8400C0F35B05E8B2FEF775F99F
:102C400004EB8400C0F35B06B0B2FEF771F9FEF747
:102C500077F970BD70B504460D46E1B20848FFF73C
:102C6000A7FC00BF40210648FFF710FD0028F9D05F
:102C7000204670BD0010024000080140000C0140D9
:102C8000003801400044004000480040001000406F
:102C900000040040704700BFFEE700BFFEE700BF32
:102CA000FEE700BFFEE770477047704710B500F0C1
:102CB00036FA10BD10B50220FEF716FC88B14FF4AD
:102CC0000030FDF79AFC0120FEF79AF910B10120BF
:102CD000FEF7A0F9FEF7DAFB0220FEF715FCFEF77F
:102CE000D5FB10BD10B50121C048FFF710FBB8B1EE
:102CF0000121BE48FFF71CFBBD4800680A30BC49F3
:102D00000860BC4800680A30BA490860BA480068E0
:102D10000A30B9490860B94800680A30B749086004
:102D20000121B248FFF704FB10BD10B50121B448E2
:102D3000FFF7EDFA18B10121B148FFF7F9FA0121C7
:102D4000AF48FFF7F5FA10BD10B540F22551AD4878
:102D5000FFF7B2FC10BD10B540F22551AA48FFF7AD
:102D6000ABFC00287ED0A848FFF726FCA74991F8C5
:102D70001611A64A5054104690F8160120B9104674
:102D80000078EE2800D010BDA04890F81601401C35
:102D90009E4981F81601084690F81601401E085C0D
:102DA000FF280CD1084690F8180140B9084690F861
:102DB0001601974908600120944981F81801934849
:102DC00090F81801012843D1904890F816019049D5
:102DD0000968401A03283BD18C488D490968405C3A
:102DE000FC2828D189498A480068401C085CFF28D3
:102DF00021D187480068801C085CFF281BD185A072
:102E000002F02AFF814890F8161100F019FB7F4864
:102E100090F816110246783000F0D9F97B4890F806
:102E200016017A4981F81701012081F814017648CA
:102E300000F017FA0CE07BA002F00EFF00207349AF
:102E400081F81401704800F00CFA00207049086005
:102E50006E4890F81601782807DB77A002F0FCFE98
:102E6000694800E001E000F0FCF900BF8BE710B515
:102E700040F225517448FFF71FFC002871D0012053
:102E8000724981F821027048FFF796FB6F4991F86B
:102E900022126E4A5054104690F8220238B9104659
:102EA0000078A52803D0684800F0DBF910BD67481A
:102EB00090F82202401C654981F82202084690F8E9
:102EC0002202012816DD084640785A2812D060A058
:102ED00002F0C2FE002364A20121184602F04BF961
:102EE000022300221946594800F0BAFA564800F069
:102EF000B8F9DBE7554890F82202092856DB534819
:102F000090F82212007A093081424FD14F4890F850
:102F100022120246FF3000F04DF956A002F09CFE4E
:102F2000584801780078401C564A1070032091FBE5
:102F3000F0F200FB121020B1012813D0022821D199
:102F400018E002F09BF800234FA21946012002F07E
:102F500012F93E4890F8221201231A4600F080FA36
:102F600010E038E0394890F822120323012200F0E3
:102F700077FA07E0354890F822120523012200F085
:102F80006FFA00BF00BF314890F82212FF3000F006
:102F900057FA2E4890F822022C4981F823022A4839
:102FA00000F05FF90120294981F82002274890F8B4
:102FB000220278280BDB37A002F04EFE002339A254
:102FC0000121184602F0D7F81F4800F04AF9002006
:102FD0001E4981F8210200BF68E710B50120FDF706
:102FE000FBFA012801D1FDF708FB10BD00040040E9
:102FF000280000202C000020300000203400002099
:103000000010004000380140004400407072002071
:10301000380000205265636976655446543A200DA5
:103020000A00000052656369766554465420657253
:10303000726F200D0A00000064617461206F766574
:10304000726C656E670D0A00004800408C730020AA
:103050002D2D55617274335F495352206461746140
:1030600020657272200D0A006461746120657272BD
:10307000202020004D61737465722052656369766B
:10308000653A20003C0000205265636976653A206D
:103090002020000044617461206F7665724C656E7B
:1030A00074680A006F7665724C656E746820202023
:1030B0000000000030B53A4800683A4AB0FBF2F12F
:1030C000B1F1807F01D301201DE021F07F40401E3F
:1030D0004FF0E022506150170F22002807DA130743
:1030E0001D0E314B00F00F04241F1D5503E0130784
:1030F0001C0E2E4B1C5400BF00204FF0E0229061AC
:1031000007201061002008B100BFFEE730BD28494C
:10311000086000BF264909680029FBD17047244890
:10312000006820B122480068401E214908607047AD
:1031300010B5002106E0092200BF1300A2F1010230
:10314000FBD1491C8142F6D310BD7047014642F2C3
:1031500028324A434FF0E0235A6100229A6101224B
:103160001A6100BF4FF0E022106900F001021AB1AD
:1031700000F48032002AF5D000224FF0E0231A61DB
:103180009A61704710B5002106E0092200BF1300C4
:10319000A2F10102FBD1491C8142F6D310BD00000F
:1031A00000000020A086010018ED00E000E400E02F
:1031B0004000002010B50346002003E0145C1C54BE
:1031C000441CE0B28842F9DB00245C5410BD10B509
:1031D0000346002003E0145C1C54441CE0B2884207
:1031E000F9DB00245C5410BD2DE9F04107460C4684
:1031F000154601204C49086000260DE014F8011B1B
:103200003846FFF7D5F900BF80213846FFF73EFA70
:103210000028F9D0701CC6B2AE42EFDB0020424954
:103220000860BDE8F0812DE9F04106460C462046D5
:1032300002F0F4F8074600250FE0615D3BA002F0C4
:103240000BFD615D3046FFF7B3F900BF402130460A
:10325000FFF71CFA0028F9D06D1CBD42EDDBBDE87C
:10326000F08110B504463248844210D10020314923
:1032700081F8150181F8160178212E4802F0C3F873
:1032800000202C4981F818012BA002F0E5FC304801
:1032900084420CD100202F4981F8210281F82202BA
:1032A000FF212C4802F0AFF82BA002F0D5FC10BD96
:1032B0002DE9F04105460E4614461F465A202C497A
:1032C0000870A5204870287888706878C870A87839
:1032D000087100204871084686710020C8710846B0
:1032E000047222463946093002F074F804F10900EC
:1032F000C1B21F4800F095F81D4A04F1090150546D
:103300001CA002F0A9FC04F10A01194800F098F889
:103310006420FFF71BFF04F10A00C2B214490C48F5
:10332000FFF762FFBDE8F081A001214225630000A4
:1033300000440040707200207265736574207561EE
:103340007274325446545061636B0D0A00000000E1
:10335000004800408C7300207265736574207561AD
:103360007274335F3438355061636B0D0A000000AE
:10337000C07500206275696C642075333A200000C6
:103380002DE9F04107460D4614464FF0000800268F
:1033900009E057F8262005EB080090A102F06CFC2C
:1033A00008F10808761CA642F3DB002005F834007B
:1033B000BDE8F08170B50446002500208949086009
:1033C00008208949086008460068FFF7B1FE00BF81
:1033D00010E004F0010018B101208249086002E009
:1033E00000208049086080480068FFF7A1FE641053
:1033F000681CC5B2082DECDB01207A4908607A48C8
:103400000068FFF795FE70BD70B505460E460024B6
:1034100004E0285DFFF7CEFF601CC4B2B442F8DBC5
:1034200070BD10B502460B460021002000BF04E02D
:10343000545C0444E0B24C1CE1B29942F8DB10BD8C
:1034400070B505460E46002404E0295D67A002F031
:1034500003FC641CB442F8D366A002F0FDFB70BD0F
:103460002DE9F041A0B006460D46174698463C2D82
:1034700000DD3C25002407E0325D01A901EB44009A
:103480005DA102F0F9FB641CAC42F5D3002001AA57
:1034900002F8150000234146384601F06CFE20B0CA
:1034A000BDE8F0812DE9F041074688461646002424
:1034B000002500BF10E0385D18F80410884202D1E2
:1034C000681CC5B206E015B90120BDE8F081681C92
:1034D000C0B2FAE7601CC4B2B442ECDB701EA84272
:1034E00004D147A002F0B8FB0020EEE7FF20ECE794
:1034F0002DE9F84306460F46304601F08FFF05469A
:103500004FF000080024284605EBD0714910A5EBC8
:10351000410129B13EA002F09FFB601EBDE8F88387
:10352000284605EBD0714FEA610813E016F8140045
:103530008DF80000012000EB4400305C8DF80100A4
:1035400000208DF8020010220021684601F084FF5F
:103550003855641C4445E9DB4046DFE73EB5054687
:10356000002000900190029000242F4800680090F5
:103570002D48001D006801902B480830006802901B
:103580002AA09DE80E0002F067FB03222946684648
:10359000FFF7F6FE29462BA002F05EFB1AE05DF86D
:1035A0002400000E2B4A02F824005DF82400C0F32A
:1035B0000741A000401C11543DF82400C0F307212E
:1035C000A000801C11541DF82410A000C01C115430
:1035D000601CC4B2032CE2DB3EBD0000253038780D
:1035E000000000008C812142440000202530325828
:1035F000200000000A0000002530325800000000C2
:10360000686578436F6D70616572206F6B0A0000AA
:10361000496E76616C696420696E707574206C65A2
:103620006E6774680A000000E8F7FF1F436869705E
:103630004964203D25237820252378202523780AF6
:10364000000000004368697049645374723A202591
:10365000730A000038760020F0B59FB0FD4890F85E
:10366000200200287CD00020FA4981F82002084678
:10367000D0F8180200780A2804D00B2877D00C283C
:1036800070D107E0F348D0F814020178F2A002F0FC
:10369000E3FA5CE1F9A002F0DFFAEE48D0F80002AC
:1036A0000278FBA101A802F0E7FAEA48D0F8040288
:1036B0000278F7A10DF1060002F0DEFAE548D0F835
:1036C00008020078F44909784218F1A102A802F032
:1036D000D3FAE048D0F800020078F049097801EB0D
:1036E000C10202EB0111EE4A02F82100D948D0F8DC
:1036F00004020078E949097801EBC10202EB0111EB
:10370000E74A02EB81014870D248D0F808020078FD
:10371000E249097801EBC10202EB0111E04A02EB38
:1037200081018870DD48007800EBC00101EB0010DA
:10373000114601EB8000D949097801EBC10202EB87
:103740000111D74A02EB8101C86001AA08210220B9
:1037500000F094FCD0480078401CCF49087002E08B
:10376000FBE004E0EBE0CFA000F052FDEFE0D0A0E2
:1037700002F072FAB749D1F800020321FFF760FEA8
:10378000D248007800EBC00101EB0010C44901EB06
:103790008000B049D1F800120A88028089788170CF
:1037A000AC48D0F800020078AC284FD10120C749BE
:1037B000097801EBC10202EB0111B94A02EB810168
:1037C00081F86000A349D1F8141209780904A14ACC
:1037D000D2F81422527841EA02219E4AD2F81422E9
:1037E000927841EA020001F050FF0646B84AB94B10
:1037F00001F06AFE044601F092FFB449097801EB3A
:10380000C10202EB0111A64A02EB81014865914910
:10381000D1F8141209798F4AD2F81422D27841EAE9
:10382000022001F032FF0646A94AAA4B01F04CFEE5
:10383000044601F074FFA549097801EBC10202EBCF
:103840000111974A02EB8101886577E08148D0F841
:1038500000020078DC2871D101209C49097801EB35
:10386000C10202EB01118E4A02EB810181F8600076
:103870007849D1F814124978764AD2F8142212788D
:1038800041EA022001F001FF0646914A914B01F006
:103890001BFE044601F043FF8C49097801EBC1028D
:1038A00002EB01117E4A02EB810148656949D1F8BA
:1038B0001412C978674AD2F81422927841EA022099
:1038C00001F0E3FE0646824A824B01F0FDFD04460C
:1038D00001F025FF7D49097801EBC10202EB0111DE
:1038E0006F4A02EB810188655A49D1F8141249796F
:1038F000584AD2F81422127941EA022001F0C5FE9A
:103900000646734A734B01F0DFFD044601F007FFE2
:103910006E49097801EBC10202EB0111604A02EB2A
:103920008101C865694800785C490978884202DBF2
:1039300000206649087001206749087007E0454883
:10394000D0F81802017865A002F086F900BF00BF28
:10395000FF214048FF3001F056FD1FB0F0BD10B50B
:103960006648006801280ED964480068B0F5487FB1
:1039700009D2002062490860002353A20621782062
:1039800001F0F9FB11E05D48006840F23E318842E9
:103990000BD90020594908600120594908600123CA
:1039A00049A20621782001F0E6FB56480068B0F5F0
:1039B000FA7F22D348480078E0B14449097801EB06
:1039C000C10202EB0111364A02EB810101F1100044
:1039D00030A101F02AFD68B13C49097801EBC10230
:1039E00002EB01112E4A02EB8100474B00220B2112
:1039F000FFF75EFC0020434908604448006840F23D
:103A00004C41884209D342480078012805D1244816
:103A100000F006FC00203D4908603E480068C828C8
:103A200004D301F0E6F900203A49086010BD70B5F2
:103A300004460D4664B9384A0321284600F059FA75
:103A400036A002F009F903212846FFF7F9FC81E0CE
:103A50006EE000008C7300204E6F646544617461F9
:103A600020726574205B253032785D20504F5745B9
:103A700052434F4E54524C200D0A00004E6F646565
:103A8000446174612072657420414444520D0A00FF
:103A900025303278000000004C0000205400002047
:103AA000D40E0020CBD1CBF7BDE1CAF80000000056
:103AB0004E6F6465446174612052657420524551B3
:103AC00055455354454C4543200000005900002003
:103AD0007B14AE47E17A843F550000207561727413
:103AE000335F3438355061636B2E636D6420756EBF
:103AF0006B6F776E212025780D0A000028000020CA
:103B0000B08121422C0000205D7600203000002092
:103B1000560000203400002000D80008726561645F
:103B200020626F61726420616464723A200D0A0041
:103B3000012C0FD16249481400F046F961A002F04F
:103B40008BF803212846FFF77BFC5D4A03212846BA
:103B500000F0A8F970BD2DE9F04F87B082464FF014
:103B6000000B00200590049000BF9AF8140000F0AC
:103B700080005A49098888420AD059480088401C68
:103B8000574908809AF8140000F0800053490880D3
:103B90009AF80E0001049AF80F0001EB00209AF841
:103BA0001010084404904E48008801049AF815004B
:103BB00001EB00209AF8161008440590049801F0D3
:103BC00075FD484A484BCDE9000101F07DFC0246F5
:103BD0000B46CDE902010020444901F0E7FC804694
:103BE0000022434B01F070FC064601F06CFD834659
:103BF00042F2107105984843B0FBFBF8404601F0D3
:103C000055FD064600223A4B01F0D0FC04460D4615
:103C10002046294607B0BDE8F08F70B504460D4632
:103C20002A46214633A002F017F8012D21D1012C9C
:103C30000FD137A002F010F8002338A20121184656
:103C400001F099FA0120374908603749C1F8B401F9
:103C500034E036A002F000F8002337A20121184614
:103C600001F089FA00202F4908602F49C1F8B401FA
:103C700024E0022D22D1012C10D131A001F0ECFF63
:103C8000002332A20121342001F075FA01202549D8
:103C9000091D08602449C1F8B8010FE02DA001F00A
:103CA000DBFF00232EA20121342001F064FA002062
:103CB0001C49091D08601C49C1F8B80170BD00000D
:103CC00000D80008777269746520626F61726420A1
:103CD000616464723A200D0A000000004800002070
:103CE0004A00002014AE47E17A14FE3F2A75B54120
:103CF0000088C34072656C61794F70726561742091
:103D00007377202564206368202564200D0A000055
:103D1000484331204F4E200D0A0000004348313AFD
:103D20004F4E2000A0812142008021424348312093
:103D30004F46460D0A0000004348313A4F464600C0
:103D4000434832204F4E200D0A0000004348323ACB
:103D50004F4E2000434832204F46460D0A000000D7
:103D60004348323A4F4646002DE9FF4105460E468C
:103D70000027FCF76AFC0020009006EBC5200290AB
:103D8000012003903420FCF7FBFE0DE00298FCF7C5
:103D9000A1FC0446042C06D07AA001F05DFF34207B
:103DA000FCF7EEFE00E004E03846791CCFB2C828EC
:103DB000ECDB00BFC82F03DB214679A001F04CFFEC
:103DC000FCF74FFCBDE8FF812DE9F04104460F46AA
:103DD000B4F5006F01D24FF40064C4F30A0008B9CF
:103DE000E60A02E0012000EBD426002509E03A466D
:103DF000294677A001F030FFE8B23946FFF7B4FF5B
:103E00006D1CB542F3D3BDE8F0812DE9F047814642
:103E10000E4617460024A0467548874201D3BDE8E8
:103E2000F087FCF712FC3420FCF7AAFE27E039F8F3
:103E3000141007EB4400FCF750FD05461AE034204F
:103E4000FCF79EFE08F101001FFA80F83346224677
:103E5000414668A001F000FFB8F1050F09DD3420EC
:103E6000FCF78EFE29466DA001F0F6FEFCF7F9FB8B
:103E700002E000BF042DE2D100BF601C84B2B44256
:103E8000D5DBFCF7EEFB00BFC9E710B50346002009
:103E900005E032F8104023F81040441CA0B28842DC
:103EA000F7DB10BD2DE9F041C0B006460C461746C1
:103EB00000254FF48071684601F0A5FA224631468C
:103EC000684601F087FA2546204604EBD071491078
:103ED000A4EB410109B1681C85B2A84605EBD87076
:103EE000C0F34F013A466846FFF78FFF40B0BDE888
:103EF000F0812DE9F041C0B006460C46174600257A
:103F0000204604EBD0714910A4EB410179B9254654
:103F1000A84605EBD870C0F34F013A466846FFF754
:103F2000B4FF22466946304601F054FA0EE0601CA8
:103F300085B2A84605EBD87041103A466846FFF7AF
:103F4000A4FF22466946304601F044FA40B0BDE87D
:103F5000F08110B5044620683D490840B0F1005F8B
:103F60000CD13CA001F078FE60683F4908602068F1
:103F7000FCF7E8F83C480068804702E03BA001F00D
:103F80006BFE10BD666C6173685F65726173655F1F
:103F900070616765204661696C64200A000000005A
:103FA000666C6173685F65726173655F7061676598
:103FB000204661696C64203E20323030202121216E
:103FC000206C6173746572726F3A2025640A000078
:103FD000666C6173685F65726173655F7061676568
:103FE0002069202564206164642025780A0000008F
:103FF00000000108464C4153485F50726F67726180
:104000006D48616C66576F72642065692025642C69
:104010002025642F2564200A00000000464C4153EF
:10402000485F50726F6772616D48616C66576F725E
:1040300064204661696C64203E20323030202121AA
:1040400021206C6173746572726F3A2025640A00D6
:104050000000FE2F537461636B20537563636573B7
:1040600073210D0A000000005000002053746163AA
:104070006B204661696C6564210D0A002DE9F041F1
:1040800006460F4615460024EE20F8490870B12078
:104090004870102088700020C87008460671002003
:1040A000487108468771284601F0B8F9441C224639
:1040B0002946EE48C01D01F08DF90021EB4AA01DF4
:1040C0001154FF21E01D1154FC21401C1154FF210B
:1040D000401C1154401C1154401CC2B2E349E44836
:1040E000FFF782F8BDE8F08130B585B0E1A103C9E2
:1040F000CDE90301E1A103C9CDE90101E14800785F
:10410000401E00EB40004006050E2946DEA001F0EF
:10411000A3FD002410E0281900EBC00303EB0010FE
:10412000E24B03EB8000C21C03AB601C195C022055
:10413000FFF7A4FF601CC4B2062CECDB002411E0E6
:10414000281900EBC00303EB0010D84B03EB8000F1
:1041500000F1100201AB601C195C0220FFF78EFF1A
:10416000601CC4B2062CEBDBD1480278D1A16846B2
:1041700001F082FD6A4636210220FFF77FFF05B07D
:1041800030BD70B506460C461546EE20B74908709E
:10419000B1204870032088700020C870084606715E
:1041A0000020487108468471C571FF200872FC2008
:1041B0004872FF208872C8720C22AD48FFF714F8CD
:1041C00070BD70B5054600241FE0BB48015DBBA271
:1041D0000120FFF753FFBA48015DB8A20120FFF7A5
:1041E0004DFFB848015DB5A20120FFF747FFB64873
:1041F000015D2A460120FFF7C4FFB448015D2A464D
:104200000120FFF7BEFF601CC4B2062CDDDB70BDD1
:1042100010B5044622462F210220FFF72FFF10BDC4
:104220002DE9F04FC1B0AA480078401E00EB4000D5
:1042300040064FEA1069062004909D48007810B9A6
:104240000020049008E09A490978A1EB0901C8B25E
:10425000062800DA049000BF0024C7E009EB040040
:1042600000EBC00101EB0010904901EB800090F8D9
:10427000600001287ED19448015D01221046FFF7BD
:1042800080FF9248015D01221046FFF77AFF8D48BA
:10429000015D90A20120FFF7F1FE09EB040000EBA5
:1042A000C00101EB0010814911F82000DC2849D140
:1042B00009EB040000EBC00303EB00100B4603EB1B
:1042C000800000F110027E48015D0120FFF7D6FE5C
:1042D00009EB040101EBC10202EB0111734A02EB8D
:1042E0008101C86D01F008FA05460E4609EB04018C
:1042F00001EBC10202EB01116C4A02EB8101886DF6
:1043000001F0FAF90746884609EB040101EBC10206
:1043100002EB0111654A02EB8101486D01F0ECF9F5
:10432000824652460B466DA105A8CDE90078CDE93D
:10433000025601F0A1FC6048015D05AA0120FFF7CB
:104340009DFE45E009EB040000EBC00101EB00100D
:10435000564911F82000AC283AD109EB040000EBD3
:10436000C00303EB00100B4603EB800000F11002CA
:10437000534800E038E0015D0120FFF77FFE09EBC4
:10438000040101EBC10202EB0111484A02EB810179
:10439000886D01F0B1F905460E4609EB040101EB09
:1043A000C10202EB0111414A02EB8101486D01F0AB
:1043B000A3F907463A460B4652A105A8CDE9005697
:1043C00001F05AFC3C48015D05AA0120FFF756FEAA
:1043D000002009EB040101EBC10202EB0111334A99
:1043E00002EB810181F86000601CC4B20498844231
:1043F000FFF634AF41B0BDE8F08F7FB56F25792669
:1044000033480078401E00EB40004006040E42484E
:10441000D0F8FC000078012826D13F48D0F80401EC
:10442000007801280DD13DA001F016FC41A0FFF756
:10443000EFFEFFF759FE00203F49087002203F4978
:1044400008703548D0F80401007802280DD13248B0
:10445000D0F80C01007830381D4908700846017802
:1044600037A001F0F9FB54E1DFE075E0C0750020F2
:10447000004400400001020304050600002223243A
:104480002526270057000020544654446973706C59
:1044900061794E6F64654C69737432536574506111
:1044A00067206F666673657420256400D40E002053
:1044B00054000020256400005A0000202000000065
:1044C0006000002072000020660000206C000020C8
:1044D00058000020D5FDB3A30000000044433A205B
:1044E000252E326620562C20204348313A20252E96
:1044F000326620412C20204348323A20252E326655
:104500002041000041433A20252E326620562C20BF
:10451000252E3266204100007072002073657420E1
:10452000627574746F6E20756E446973706C617916
:104530000D0A000020200000550000205600002039
:1045400067657420446973706C6179506167652098
:1045500066312025640D0A00F848D0F8040100787F
:104560000B2805D0F548D0F8040100780C2806D1B6
:104570000020FFF726FEF248FFF752FEC9E0EF48A1
:10458000D0F8040100786E2824DDEC48D0F804014E
:10459000007875281EDAEBA001F05EFBE748D0F842
:1045A00010010078012101EBC010EB490870E349CC
:1045B000D1F8041109782144491B01EBC10202EB37
:1045C0000111DF4A02EB8100E34B01220A21FEF7D1
:1045D0006FFE9EE0D948D0F8040100787828CDDD40
:1045E000D648D0F8040100787F28C7DADBA001F0B4
:1045F00033FBD248D0F810010078022101EBC01043
:10460000D5490870CD49D1F8041109782144891B96
:1046100001EBC10202EB0111C94A02EB8100CE4B52
:1046200001220A21FEF744FE73E0C448D0F8FC00E2
:104630000078022866D1C148D0F8040100781E280D
:1046400021D006DC102816D0112818D0152850D1FA
:1046500004E0202832D021284BD136E0B748D0F8EA
:104660000C0100783038C249087008460178C1A0B2
:1046700001F0F2FA45E0C4A0FFF7CAFD41E0C4A092
:10468000FFF7C6FD3DE0C4A001F0E6FAAFF2D41298
:1046900008210220FFF7F2FCC5A0FFF7B9FDDC20DE
:1046A0008DF80000FF208DF801008DF80200AA4B64
:1046B00000220C216846FEF7FBFD22E0BEA001F0BF
:1046C000CBFAC2A0FFF7A4FD1BE0C3A001F0C4FA1F
:1046D000AFF2A010FFF79CFD0120C5490870002033
:1046E000C44908700120C44908700020FFF769FD23
:1046F00007E09248D0F804010178C0A001F0ACFABC
:1047000000BF06E08D48D0F8FC000178C2A001F09F
:10471000A3FA7FBD1CB504462246AFF26821684665
:1047200001F0AAFA6946C1A001F096FA6A4616217C
:104730000120FFF7A3FC6A4616210220FFF79EFC2A
:104740001CBD70B59CB0054600240DF10F00E96852
:1047500000F079FEE868C11D07A800F074FEB948B2
:104760000078FF280ADDFF22B7A1684601F084FA2D
:104770006846FFF74DFD601E1CB070BD17E004EBEE
:10478000C40000EB04106E4A02EB8000C11C0DF166
:104790000F0000F04AFE40B9B0A001F05DFABDA0E4
:1047A000FFF736FD4FF0FF30E6E7601CC4B2A548C6
:1047B00000788442E3DBA349097801EBC10202EBF4
:1047C00001115F4A02EB8101C81C0DF10F0100F0DD
:1047D0003AFE9C49097801EBC10202EB0111584AEB
:1047E00002EB810101F1100007A900F02CFE954AAF
:1047F000127802EBC20303EB0212514B03EB82016E
:10480000904A127802EBC20303EB02124C4B03EB0B
:104810008202D01CFEF76CFE8A48007800EBC001D3
:1048200001EB0010464901EB80008649097801EB55
:10483000C10202EB0111424A02EB8101C8608148CA
:104840000078401C7F4908700846017895A001F067
:1048500003FA00241FE004EBC40000EB0410384905
:1048600001EB800000F1100304EBC40000EB041026
:1048700001EB8000C21C214690A001F0EDF904EB91
:10488000C40101EB04112E4A02EB81000321FEF763
:10489000D7FD601CC4B26B4800788442DBDB92A079
:1048A000FFF7B6FC67480078062811DD65480078F8
:1048B000062190FBF1F201FB120060B16148007823
:1048C00090FBF1F0401CC6B23046FFF723FF02E038
:1048D0000120FFF71FFF5B480078194981F853005A
:1048E00085490814FFF770FA00241FE004EBC400A8
:1048F00000EB0410124901EB800000F1100304EBFF
:10490000C40000EB041001EB8000C21C21467BA018
:1049100001F0A2F904EBC40101EB0411084A02EB17
:1049200081000321FEF78CFD601CC4B2454800786D
:104930008442DBDB434800781EE7000070720020F1
:10494000D40E0020706F7765722063683120636831
:10495000616E67650D0A00005D760020706F7765F7
:104960007220636832206368616E67650D0A00001B
:104970005700002067657420536574506167652097
:1049800066312025640D0A00C9CFD2BBD2B3000026
:10499000CFC2D2BBD2B30000736561726368206E70
:1049A0006F646520627574746F6E0D0A00000000FC
:1049B000CBD1CBF72E2E00007265676973746572D8
:1049C000206E6F6465200D0A00000000D7A2B2E1DE
:1049D000BDDAB5E32E2E00006261636B2062757450
:1049E000746F6E20446973706C61790D0A00000069
:1049F0005600002059000020550000204E6F7466BC
:104A0000756E20706167653220627574746F6E20F8
:104A100025640D0A000000004E6F7466756E205309
:104A2000637265656E2025640D0A0000757064610F
:104A300074654C6973745061676520663220257314
:104A40000D0A000054000020BDDAB5E3CAFDB3AC86
:104A5000B9FD20256420B8F62100000055534552C9
:104A60005F434D442D2D3E3E20434D445F307843FF
:104A700031206964206F72206E616D6520616C72F7
:104A80006561647920726567697374657265642114
:104A90000D0A0000BDDAB5E3D2D1BEADB1BBD7A2DD
:104AA000B2E121004E6F646520436F756E7420255E
:104AB00064204C6973743A200D0A0000496420692F
:104AC0006E6465782025642C204944205B25735D45
:104AD0002C204E616D65205B25735D0D0A6865783D
:104AE00049443A2000000000BDDAB5E3D7A2B2E1A4
:104AF000B3C9B9A62100000000D800082D2D2D2033
:104B0000496420696E6465782025642C204944201E
:104B10005B25735D2C204E616D65205B25735D0DFB
:104B20000A68657849443A200000000010B55F48E3
:104B300090F81401002854D000205C4981F8140139
:104B40000846D0F8F0000078B12802D0CD283AD13C
:104B500008E05648D0F8F4000078112801D1FFF79A
:104B60004CFC38E0524840680078C12805D15048D4
:104B7000FFF7E7FDFFF7B8FA24E04D4840680078FA
:104B8000C3280DD14A48C0680078303849490870B8
:104B90000846017848A001F05FF8FFF7A5FA11E098
:104BA000434840680078C4280CD14148C068007868
:104BB00030384A4908700846017849A001F04CF89D
:104BC000FFF792FA07E03948D0F8F00001784DA0DD
:104BD00001F042F800BF00BF78213448783000F07F
:104BE00012FC10BDF0B5A1B006460F46002400250A
:104BF000EE204C490870B1204870112088700020C8
:104C0000C870084606710020487108468771FF2168
:104C10000246E01D1154FC2104F108001154FF214B
:104C200004F10900115404F10A00115404F10B05B8
:104C30003DA001F011F829463A48FEF701FC2A464A
:104C4000384901A800F0C6FB8DF87D50394800783E
:104C5000401CC0B2374908708DF87C00364820905F
:104C600001A800F0A4F821B0F0BD10B50221012088
:104C7000FFF7B8FF10BD10B5EE202A4908700720D5
:104C80004870352088705A20C87053200871A520BC
:104C90004871FF208871FC20C871FF20087248729B
:104CA0000A222548FEF7A0FA10BD0000707200200D
:104CB000B075002057000020555345525F434D44C6
:104CC000202DA1B7206E6F646550616765436861F0
:104CD0006E6765202564200D0A0000005800002042
:104CE000555345525F434D44202DA1B7206469734D
:104CF00070506167654368616E6765202564200DAB
:104D00000A00000075617274325446545061636B3E
:104D10002E636D6420756E6B6F776E212025780D84
:104D20000A000000C07500206275696C64203A209A
:104D3000000000007A0000200044004010B500246C
:104D400000BF0BE0324B621C03EBC2111A4602EBB0
:104D5000C410802200F03EFB601CC4B22D480088C5
:104D6000401EA042EEDC2B480088401E29490880E6
:104D700010BD10B5002427480088012816DD26A0A4
:104D800000F06AFF00BF09E0214800EBC41090F872
:104D9000781024A000F060FF601CC4B21D48008899
:104DA000401EA042F0DC20A000F056FF10BD10B560
:104DB000044618480088142811DA1549154A128843
:104DC00001EBC2104FF42062214600F003FBFFF715
:104DD000D0FF10480088401C0E49088008E00C48AD
:104DE00090F87820142111A000F036FFFFF7A6FFFD
:104DF00010BD10B507480088002807DD044991F868
:104E00007920C86FFEF7F0F9FFF798FF10BD00009A
:104E10006C76002078000020517565756E206964FD
:104E200020000000256420000D0A0000B7A2CBCDB1
:104E3000B6D3C1D0D2D1C2FA20256420CCF5B6AA0F
:104E4000C6FAD7EED4E7B5C4CFFBCFA22069642061
:104E500025640A0008B501210820FCF757FA4FF431
:104E60004070ADF8000010208DF8030003208DF88D
:104E700002006946FC48FBF707FF4FF44071FA480F
:104E8000FBF7AFFF08BD10B50120F8490860FEF739
:104E90004FF90120F649C1F8A001FEF749F90020B9
:104EA000F24908600120FEF743F90020F049C1F8FB
:104EB000A00110BD10B50020EC4908600120FEF7EC
:104EC00037F90020EA49C1F8A0010120FEF730F9C6
:104ED0000120E6490860FEF72BF90120E449C1F8FA
:104EE000A00110BD70B5044600251DE004F080004F
:104EF00018B10120DD49086002E00020DB490860AC
:104F00000120FEF715F90120D849091F0860FEF7B6
:104F10000FF90020D649C1F8A0010120FEF708F9D9
:104F20006006040E681CC5B2082DDFDB0120CF49E6
:104F3000091F0860FEF7FCF80020CD49C1F8A00168
:104F400070BD10B50446FFF79EFF7820FFF7CAFF3B
:104F50004020FFF7C7FF2046FFF7C4FFFFF7AAFF77
:104F600010BD10B50446FFF78EFF7820FFF7BAFF9B
:104F70000020FFF7B7FF2046FFF7B4FFFFF79AFFC7
:104F800010BD70B504460D4605F1B001C8B2FFF77B
:104F9000E8FF102141EA1410FFF7E3FF04F00F00CF
:104FA000FFF7DFFF70BD70B504460D4605F1B00197
:104FB000C8B2FFF7D6FF102141EA1410FFF7D1FF66
:104FC00004F00F0141F00100FFF7CBFF70BD70B599
:104FD0000646002415E004F1B001C8B2FFF7C1FF96
:104FE0000020FFF7BEFF1020FFF7BBFF002504E005
:104FF0003046FFF7A6FF681CC5B2802DF8DB601CA9
:10500000C4B2082CE7DB70BD2DE9F05F06460F4601
:1050100090461C46DDF828A04FF0000BE11704EB8A
:105020005171C910A4EBC10131B92046E11704EB5D
:105030005171C1F3C70506E02046E11704EB517139
:10504000C910491CCDB23D4614E029463046FFF751
:1050500098FFB1460AE059460BF1010B1AF801001E
:10506000FFF76FFF09F1010000F0FF09C145F2DB16
:10507000681CC5B2A542E8DBBDE8F09F10B5002072
:10508000FFF7A5FF10BD10B58D20FFF76AFF1420B4
:10509000FFF767FFAF20FFF764FF10BD10B58D204D
:1050A000FFF75FFF1020FFF75CFFAE20FFF759FF0F
:1050B00010BD10B5FFF7CEFE6420FEF747F8AE2016
:1050C000FFF74FFF0020FFF74CFF1020FFF749FFCD
:1050D0004020FFF746FF8120FFF743FFFF20FFF747
:1050E00040FFA020FFF73DFFC020FFF73AFFA620BA
:1050F000FFF737FFA820FFF734FF3F20FFF731FF0E
:10510000D320FFF72EFF0020FFF72BFFD520FFF75E
:1051100028FF8020FFF725FFD920FFF722FFF1208D
:10512000FFF71FFFDA20FFF71CFF1220FFF719FF20
:10513000DB20FFF716FF4020FFF713FF2020FFF7CB
:1051400010FF0220FFF70DFF8D20FFF70AFF14204C
:10515000FFF707FFA420FFF704FFA620FFF701FFDA
:10516000AF20FFF7FEFE0020FFF731FF00210846C9
:10517000FFF707FF10BD2DE9F05F0446894615468D
:105180009A464FF0000B00260027BAF1000F01D11C
:10519000B04601E04FF0FF0822E0E85D203800F063
:1051A000FF0B7E2C04DD002409F1010000F0FF0953
:1051B00049462046FFF7F7FE00260BE00BEB4B01BC
:1051C0002C4A02EB4101895D81EA0800FFF7B9FE34
:1051D000701CC6B2062EF1DBA01DC4B2781CC7B28B
:1051E000E85D0028D9D1BDE8F09F2DE9F0470546DC
:1051F0000E46174698464FF0000907EB47004FEA66
:10520000400AB8F1000F01D1002400E0FF247E2DF8
:1052100002DD0025701CC6B231462846FFF7B1FEFC
:105220004FF000090CE051460AF1010A124A515CA4
:1052300081EA0400FFF785FE09F1010000F0FF0993
:10524000B9F1060FEFDBBDE8F0872DE9F05F074607
:10525000884691469B4600250024A246BBF1000FDC
:105260000CD100260BE00000000C0140A48121427B
:1052700000802142310100207B000020FF2638E021
:1052800019F80A002038C5B2782F04DD002708F18C
:10529000010000F0FF0841463846FFF772FE002487
:1052A00009E004EB0511474A515C81EA0600FFF76B
:1052B00048FE601CC4B2082CF3DB08F10100C1B247
:1052C0003846FFF75EFE00240AE004EB05110831C2
:1052D0003C4A515C81EA0600FFF733FE601CC4B211
:1052E000082CF2DB07F10800C7B20AF1010000F058
:1052F000FF0A19F80A000028C2D1BDE8F09F2DE985
:10530000F04781460F461646984600244FEA481556
:1053100039464846FFF735FE00BF05E0705DFFF7F0
:1053200010FE6D1C601CC4B2102CF7DB781CC1B2DF
:105330004846FFF726FE002405E0705DFFF701FEFA
:105340006D1C601CC4B2102CF7DBBDE8F0872DE9A2
:10535000F0470546884616461F46002428074FEAB0
:10536000106900BF09E009EB0411C8B223463A46B0
:105370004146FFF7C4FF601CC4B2701C8442F2DBDC
:10538000BDE8F08708B510480523252201210090CB
:105390001846FFF739FE3220FDF7D8FE0B480523EB
:1053A0002522012100901846FFF72EFE3220FDF73E
:1053B000CDFE074805232522012100901846FFF75E
:1053C00023FE08BD59030020490D0020C90D00200F
:1053D000490E002040EA01039B0703D009E008C9F9
:1053E000121F08C0042AFAD203E011F8013B00F8AA
:1053F000013B521EF9D27047D2B201E000F8012BF6
:10540000491EFBD270470022F6E710B513460A4644
:1054100004461946FFF7F0FF204610BD421C10F865
:10542000011B0029FBD1801A704710B5002200E053
:10543000521C835C8C5CA34201D1002BF8D1D8B202
:10544000E1B2401A10BD034611F8012B00F8012B00
:10545000002AF9D1184670472DE9F04791460F46CA
:1054600080460446002614F8015B2DB100F0CAF90D
:105470000068405DC007F6D12B2D02D02D2D18D02D
:10548000641E4A463946204600F0C0F927B1396803
:10549000A14201D1C7F8008071054FF002040BD57D
:1054A0004042002803DD00F0FBFB0460A007BDE8DC
:1054B000F08746F48066E4E70028F8DA00F0F0FBB5
:1054C00004606FF00040F2E72DE9FE4F81EA03042B
:1054D00004F0004421F0004100944FF0000B23F051
:1054E000004350EA01045ED052EA03045BD0C3F3E8
:1054F0000A54C1F30A552C44A4F2F3340194A0FBDE
:105500000254C1F3130141F48011C3F3130343F4B4
:10551000801301FB024400FB034E840A970A44EA0D
:10552000815447EA8357A4FB076802958D0A05FB5F
:1055300007854FEA932C04FB0C542705029D4FEA84
:10554000065847EA1637B5EB08056EEB070C870ED1
:10555000920E47EA811742EA8312A7FB0201B6EBDB
:105560000B0164EB00042B0D43EA0C335E1844EB93
:105570001C50DA465146E7FB0201C5F313044FEA1B
:105580000B3343EA14534FEA0432019C43EA060307
:10559000A4F10C040294009CCDE900B400F0CBF916
:1055A00003B0BDE8F08F00200146F9E72DE9F04D8A
:1055B00081EA030404F0004B21F0004514464FF04B
:1055C000000A23F0004150EA050220D054EA01020B
:1055D0001DD0C5F30A570246C5F31303C1F31300E8
:1055E000C1F30A5640F4801543F48013A7EB060874
:1055F000101BD64608F2FD3873EB050002D308F104
:10560000010801E092185B41B8F1000F03DA0020B5
:105610000146BDE8F08D00204FF480110646844617
:105620000EE0171B73EB050705D3121B63EB050395
:1056300006434CEA010C49084FEA300092185B41DE
:1056400050EA0107EDD152EA030012D082EA0400C9
:1056500083EA0501084305D0101BAB4106D20122A5
:10566000002306E000224FF0004302E06FF0010249
:1056700053101AEB06004CEB085110EB0A0041EBFB
:105680000B01BDE8F04D00F047B90EB5C10F80EA3F
:10569000E0700844CA07002140F233438DE80E0051
:1056A0000A460B4600F047F903B000BD0EB540F2C4
:1056B000334102910021CDE900110A460B4600F06A
:1056C0003AF903B000BDC1F30A5210B5C1F313019A
:1056D00040F2FF3341F480119A4201DA002010BDFC
:1056E00040F233439A42A2F2334203DC524200F0CA
:1056F00079F810BD904010BD00F0004230F000403D
:105700000AD0C10D01F56071C0F3160042EA0151E3
:10571000C20840071143704700200146704701F05E
:10572000004330B421F0004150EA010206D00A0DD6
:10573000A2F56072C1F31301002A02DC30BC002024
:105740007047440F44EAC104C100E01830BC00EBCC
:10575000C25000F0AAB830B50B4601460020202206
:10576000012409E021FA02F59D4205D303FA02F56E
:10577000491B04FA02F52844151EA2F10102F1DCCE
:1057800030BD2DE9F05F0546002092469B468846D5
:105790000646814640241BE02846414647462246AD
:1057A00000F020F853465A46C01A914110D31146D2
:1057B0001846224600F0F6F92D1A67EB01084F460D
:1057C00022460120002100F0EDF917EB00094E41BF
:1057D000201EA4F10104DFDC484631462A46434638
:1057E000BDE8F09F202A04DB203A21FA02F00021D4
:1057F000704721FA02F3D040C2F1200291400843E1
:105800001946704700487047E86500082DE9F05FC9
:1058100082460078002715468B460AF10104B946F6
:10582000302801D09DB113E014F8010B012778282E
:1058300003D0582801D045B10AE00DB1102D07D191
:105840000027102514F8010B02E0082500E00A25C6
:105850000026B0460EE005FB080005FB06F1012717
:1058600001EB10461FFA80F8B6F5803F00D3B94629
:1058700014F8010B294600F0B6F90028EBDABBF169
:10588000000F05D00FB1641E00E05446CBF8004075
:10589000B9F1000F06D000F003FA02210160C81E22
:1058A000BDE8F09F48EA0640FAE70029A8BF704724
:1058B000401C490008BF20F00100704710B4B0FA46
:1058C00080FC00FA0CF050EA010404BF10BC7047E1
:1058D00049B1CCF1200421FA04F411FA0CF118BFFB
:1058E000012121430843A3EB0C01CB1D4FEA0061CA
:1058F0004FEA102042BF002010BC704700EBC3509D
:1059000010440029A4BF10BC7047401C490008BFC8
:1059100020F0010010BC704710B5141E73F1000494
:1059200008DA401C41F1000192185B411A4301D191
:1059300020F0010010BD2DE9F04D92469B4611B1BB
:10594000B1FA81F202E0B0FA80F22032904600F023
:1059500029F904460F4640EA0A0041EA0B01534682
:105960005A46084313D0114653EA010019D0C8F132
:1059700040025046FFF736FF05460E465046594650
:10598000424600F00FF9084305D0012004E020460C
:105990003946BDE8F08D0020054346EAE0762C4309
:1059A00037430A986305E40AA0EB08000022FD0AC9
:1059B00044EA47540A3002D500200146E9E70105D0
:1059C00010196941DDE9084500196941BDE8F04D4C
:1059D000A2E72DE9FE4F804681EA0300C00F0C4686
:1059E000009021F0004123F00045B8EB0200A941EE
:1059F00005D24046214690461C460B46024623F0FF
:105A00000040104347D0270DC7F30A00C3F30A51E3
:105A10000290401A019040286BDAC3F3130040F45F
:105A2000801B0098924620B10023D2EB030A63EB5F
:105A30000B0B01985946C0F14002504600F0B2F8F5
:105A400006460D4650465946019A00F0BAF810EB4A
:105A500008006141002487EA115284EAE7731A437F
:105A600040D0009A62B3019A012A4FEA075215DC2E
:105A7000001B61EB02014FF0004202EA0752CDE940
:105A80000042001C41F5801132462B46FFF753FFC0
:105A900003B0BDE8F08F40462146F9E7001B61EBFB
:105AA0000201001C41F5801300185B412018A2F58B
:105AB000001747EB030140EAD570B6196D4111E0BC
:105AC0006D084FEA360645EAC0754FEA0752001BDB
:105AD00061EB0201001C41F5801149084FEA3000DA
