:020000040800F2
:10000000A07000204D010008592D00085B2D00084C
:100010005F2D0008632D0008672D00080000000018
:100020000000000000000000000000006B2D000830
:100030006D2D0008000000006F2D0008712D0008D4
:1000400067010008670100086701000867010008F0
:100050006701000867010008B53000086701000863
:1000600067010008670100086701000867010008D0
:1000700067010008670100086701000867010008C0
:1000800067010008670100086701000867010008B0
:1000900067010008670100086701000867010008A0
:1000A0006701000867010008670100086701000890
:1000B00067010008A92D0008670100086701000812
:1000C0006701000867010008670100086701000870
:1000D00067010008292E0008372E00084F2F00085E
:1000E00067010008792D0008670100086701000812
:1000F0006701000867010008670100086701000840
:10010000670100086701000867010008670100082F
:1001100067010008670100080B2E0008670100084E
:10012000670100086701000867010008670100080F
:10013000DFF80CD006F07CF800480047DB27000809
:10014000A070002080F308887047000006488047B0
:1001500006480047FEE7FEE7FEE7FEE7FEE7FEE7AC
:10016000FEE7FEE7FEE7FEE74F0200083101000868
:100170000CB50020019000906C48006840F480307D
:100180006A49086000BF6948006800F400300090C8
:100190000198401C0190009818B90198B0F5A06F23
:1001A000F1D16248006800F4003010B101200090E5
:1001B00001E0002000900098012843D15C480068CD
:1001C00040F010005A4908600846006820F003001B
:1001D00008600846006840F0020008605348406824
:1001E000524948600846406848600846406840F404
:1001F000806048600846406820F47C1048600846EB
:10020000406840F4E81048600846006840F080709C
:10021000086000BF4548006800F000700028F9D071
:100220004248406820F00300404948600846406862
:1002300040F00200486000BF3C48406800F00C00FD
:100240000828F9D10CBD10B5FFF792FF10BD10B50D
:100250003648006840F001003449086008464068AC
:10026000344908403149486008460068324908402E
:100270002E4908600846006820F48020086008467F
:10028000406820F4FE0048604FF41F008860FFF7CC
:10029000DAFF4FF000602949086010BD10B5002159
:1002A00000200022214B5B6803F00C0121B10429DE
:1002B00006D0082928D107E0214B224C236027E0F3
:1002C0001F4B204C236023E0184B5B6803F4701035
:1002D000164B5B6803F48032022303EB904022B993
:1002E000194B4343174C23600DE0104B5B6803F43C
:1002F000003323B1144B4343124C236003E0104BF3
:100300004343104C236003E00D4B0E4C236000BFB1
:1003100000BF064B5B68C3F303130C4CE15C094B55
:100320001B68CB40074C236010BD0000001002404A
:10033000002002400000FFF8FFFFF6FE08ED00E09D
:1003400000127A000000002000093D000400002097
:1003500031490143314A1160704770B500210023D3
:100360000F22C47804B32D4C246804F4E064C4F56F
:10037000E064210AC1F10403CA40447804FA03F19D
:100380008478144021430901254C0678A15504784E
:1003900004F01F050124AC4005786D11AD0005F196
:1003A000E025C5F8004109E0047804F01F050124A8
:1003B000AC401C4D0678761145F8264070BD1A4AAF
:1003C0000A400243154B1B1F1A60704739B1134A8C
:1003D000121D12680243114B1B1D1A6006E00F4AE2
:1003E000121D126882430D4B1B1D1A6070470428B2
:1003F00008D14FF0E021096941F004014FF0E022FB
:10040000116107E04FF0E021096921F004014FF08C
:10041000E0221161704700000000FA050CED00E0D9
:1004200000E400E080E100E080FFFF1F10B5012044
:1004300000F0A0FF002000F09DFF10BD2A490860D9
:1004400070472949091F08607047274984310860AF
:10045000704701460020254A10884FF67F42104021
:100460000843224A10807047014600201F4A108826
:100470004FF68072104008431C4A1080704708B540
:1004800000220092194A2C3A0092009A02440092EB
:10049000009A116008BD08B501460020009013487D
:1004A0002C3800900098084400900098008808BDFF
:1004B0000D489C300068C0B270470C480830008876
:1004C00040F0010009490831088070470648A03013
:1004D0000068C0B2704705480830008840F002004C
:1004E000024908310880704704860D422C6C004098
:1004F000002044490860091D0860091D0860091DA5
:10050000086041483F4914310860704700213D4967
:100510008279002A3AD00A46126803689A430B4649
:100520001A600A1D126803689A430B1D1A6002794B
:1005300011440A6803681A430A60324A0832126892
:1005400003689A432F4B08331A601A1D1268036818
:100550009A432C4B0C331A604279102A0ED11A1F81
:10056000126803681A43274B08331A601A1D126871
:1005700003681A43234B0C331A600DE0214942797A
:1005800011440A6803681A430A6005E002791144BD
:100590000A6803689A430A6070470021016001718C
:1005A0000C21417100218171704716491031096891
:1005B0000143144A10321160704701460020114A6D
:1005C000143212680A400AB1012000E0002070478E
:1005D0000C49143108607047014600200022094B85
:1005E0001B6803EA0102074B14331B680B4013B16D
:1005F0000AB1012000E00020704702491431086070
:100600007047000000040140FFFF0F00014600207A
:10061000FE4A106800F03800084310607047FB493C
:10062000096821F00801F94A11601146096801437F
:1006300011607047F549096821F01001F34A116013
:1006400011460968014311607047F148EF4948605D
:10065000F04848607047EE48EC494860ED48486013
:100660007047EA48006940F08000E8490861704737
:10067000E648006940F08000E449086170470420C2
:10068000E249C96801F0010109B101200EE0DF492A
:10069000C96801F0040109B1022007E0DB49C9681B
:1006A00001F0100109B1032000E00420704700B5FB
:1006B00002460423FFF7E3FF034603E0FFF7DFFFF3
:1006C0000346521E012B01D1002AF7D102B905239E
:1006D000184600BD30B5044604254FF43020FFF71E
:1006E000E6FF0546042D17D1C848006940F0020016
:1006F000C649086108464461006940F0400008614D
:100700004FF43020FFF7D3FF0546C048006941F69B
:10071000FD710840BD490861284630BD10B504246C
:100720004FF43020FFF7C3FF0446042C16D1B7481E
:10073000006940F00400B54908610846006940F0CE
:10074000400008614FF43020FFF7B1FF0446AF4886
:10075000006941F6FB710840AC490861204610BDB4
:1007600000B502460423FFF78AFF034603E0FFF7C4
:1007700086FF0346521E012B01D1002AF7D102B990
:100780000523184600BD10B504244FF43020FFF7B0
:10079000E7FF0446042C16D19C48006940F0040091
:1007A0009A4908610846006940F0400008614FF42A
:1007B0003020FFF7D5FF04469448006941F6FB71ED
:1007C000084092490861204610BD00208F49C96940
:1007D00001F0020109B1012000E00020704730B5AE
:1007E000A5250424FFF7F1FF00B100254FF43020C8
:1007F000FFF75DFF0446042C3AD1854883498860A1
:10080000844888600846006940F020000861084676
:10081000006940F0400008614FF43020FFF747FFC7
:100820000446042C1BD17948006941F6DF71084069
:10083000764908610846006940F010000861764872
:100840000580E002FFF733FF0446052C10D06F4807
:10085000006941F6EF7108406C49086108E0052C19
:1008600006D06A48006941F6EF710840674908619F
:10087000204630BD78B506460C4604250020009081
:10088000E802FFF714FF0546042D24D15F480069F4
:1008900040F001005D4908613480E802FFF707FF7E
:1008A0000546042D10D1B01C0090200C0099088042
:1008B000E802FFF7FCFE05465448006941F6FE7168
:1008C00008405249086106E05048006941F6FE714F
:1008D00008404E490861284678BD70B504460D466B
:1008E0000426F002FFF7E3FE0646042E11D1474826
:1008F000006940F00100454908612580F002FFF7DA
:10090000D6FE06464148006941F6FE7108403F495F
:100910000861304670BD70B505460E460424E002FD
:10092000FFF7C5FE0446042C17D1394837498860C3
:10093000384888600846006940F0100008612E8041
:10094000E002FFF7B4FE0446052C06D02F480069EC
:1009500041F6EF7108402D490861204670BD2DE930
:10096000F04304464FF6FF763746B046B1460425BD
:10097000E443E6B2C4F30727C4F307484FEA146917
:10098000E802FFF794FE0546042D49D120481F498F
:100990008860204888600846006940F010000861BF
:1009A000FF2E06D01C4808300680E802FFF77FFEC5
:1009B0000546042D08D1FF2F06D017480A300780BE
:1009C000E802FFF774FE0546042D0AD1B8F1FF0FC7
:1009D00007D011480C30A0F80080E802FFF767FE4E
:1009E0000546042D0AD1B9F1FF0F07D00A480E3091
:1009F000A0F80090E802FFF75AFE0546052D0FD03B
:100A00000248006941F6EF71084007E0002002400B
:100A100023016745AB89EFCD00F8FF1F66490861E8
:100A20002846BDE8F08330B5054604244FF4302055
:100A3000FFF73DFE0446042C41D160485E498860C2
:100A40005F4888600846006940F020000861084659
:100A5000006940F0400008614FF43020FFF727FEA6
:100A60000446042C22D15448006941F6DF71084045
:100A7000514908610846006940F0100008611DB145
:100A800000205049088002E0A5204E4908804FF41C
:100A90003020FFF70CFE0446052C10D046480069B4
:100AA00041F6EF7108404449086108E0052C06D082
:100AB0004148006941F6DF7108403F49086120461E
:100AC00030BDF0B505460E46174604243B483A496A
:100AD00088603B488860E002FFF7E9FD0446042C8B
:100AE00019D13548006940F010003349086147F0DA
:100AF000F800304328433349891C0880E002FFF79F
:100B0000D6FD0446052C06D02B48006941F6EF714E
:100B10000840294908612046F0BD2748C06980087F
:100B200070472548006A704700202349096801F092
:100B3000200109B1012000E00020704729B11E4AC0
:100B4000126902431C4B1A6104E01B4A126982437A
:100B5000194B1A61704701460020012908D1164A35
:100B6000D26902F001020AB1012008E0002006E08B
:100B7000114AD2680A400AB1012000E00020704703
:100B80000D49C860704704200B49C96801F0010194
:100B900009B101200EE00849C96801F0040109B15A
:100BA000022007E00449C96801F0100109B10320DF
:100BB00000E0042070470000002002402301674548
:100BC000AB89EFCD00F8FF1F10B50446CC48844236
:100BD00008D10121042000F0B3FB0021042000F023
:100BE000AFFB46E0C748844208D10121082000F04D
:100BF000A7FB0021082000F0A3FB3AE0C248844292
:100C000008D10121102000F09BFB0021102000F0F2
:100C100097FB2EE0BD48844208D10121202000F03E
:100C20008FFB0021202000F08BFB22E0B84884429B
:100C300008D10121402000F083FB0021402000F07A
:100C40007FFB16E0B348844208D10121802000F0E8
:100C500077FB0021802000F073FB0AE0AE4884425D
:100C600007D10121801500F06BFB0021A01500F0D9
:100C700067FB10BD10B50121084600F061FB0021A3
:100C8000012000F05DFB10BD2DE9F041024600257A
:100C90000026002000230024002791F803C00CF058
:100CA0000F0591F803C00CF0100CBCF1000F03D03D
:100CB00091F802C04CEA050591F800C0BCF1000FA4
:100CC00031D0146800202BE04FF0010C0CFA00F337
:100CD000B1F800C00CEA03069E4220D183004FF019
:100CE0000F0C0CFA03F7BC4305FA03FC4CEA0404AE
:100CF00091F803C0BCF1280F06D14FF0010C0CFA9B
:100D000000FCC2F814C00AE091F803C0BCF1480F1F
:100D100005D14FF0010C0CFA00FCC2F810C0401CC9
:100D20000828D1D31460B1F800C0BCF1FF0F34DD46
:100D3000546800202EE000F1080C4FF0010808FA7A
:100D40000CF3B1F800C00CEA03069E4221D18300E7
:100D50004FF00F0C0CFA03F7BC4305FA03FC4CEA06
:100D6000040491F803C0BCF1280F05D100F1080C70
:100D700008FA0CF8C2F8148091F803C0BCF1480FCF
:100D800007D100F1080C4FF0010808FA0CF8C2F87E
:100D90001080401C0828CED35460BDE8F0814FF687
:100DA000FF710180022181700421C17070470246E9
:100DB000002093680B400BB1012000E00020704739
:100DC0000146886880B2704702460020D3680B4015
:100DD0000BB1012000E0002070470146C86880B2D6
:100DE000704701617047416170470AB1016100E0DD
:100DF00041617047C16070474FF480320A4382619D
:100E00008161826182698269704702460020434B9A
:100E100018684FF68073184040EA021008433F4BB1
:100E2000186070473E49C8617047F0B50A46002314
:100E300000240021002500F00046B6F1004F02D149
:100E4000364EF16901E0354E7168C0F3034583B257
:100E500000F44016B6F5401F08D121F070612F4E06
:100E6000766826F070662D4F7E6012E000F48016E2
:100E7000B6F5801F06D1032606FA05F4A14341F01A
:100E8000706106E0460D360103FA06F6B14341F003
:100E9000706122B1460D360103FA06F6314300F0C7
:100EA0000046B6F1004F02D11C4EF16101E01B4E2D
:100EB0007160F0BD30B500228B071C0F0F2303FAC1
:100EC00004F2164B08338C1053F824309343134C20
:100ED00008348D1044F8253023468C1053F8243004
:100EE0008C07240F00FA04F423430C4C08348D10B3
:100EF00044F8253030BD0A49DC31086070470000F5
:100F000000080140000C01400010014000140140A5
:100F100000180140001C0140002001400000014079
:100F2000000020420E49086070470D494860704734
:100F30000B49886070474AF6AA2009490860704743
:100F40004CF6CC4006490860704701460020044A30
:100F5000D2680A400AB1012000E00020704700007A
:100F60000030004010B50121080700F0F6F900211B
:100F70004FF0805000F0F1F910BD2A490862704727
:100F800028490861704701460020274A106820F070
:100F9000E0000843106070472249A03108607047A4
:100FA00010B502460020204B186820F003001043C3
:100FB00018601E4B1B6843F004031C4C236001297E
:100FC00001D130BF00E020BF184B1B6823F00403A1
:100FD000164C236010BD1448006840F0040012490C
:100FE00008600846006840F0020008600F4800688A
:100FF00040F004000D49086000BF00BF30BF7047DB
:1010000001460020084A52680A400AB1012000E067
:10101000002070470449096841EA8001024A1160D2
:101020007047000000000E420070004010ED00E02C
:10103000DF48006840F00100DD490860084640686C
:10104000DC490840DA49486008460068DA49084047
:10105000D74908600846006820F4802008600846E8
:10106000406820F4FE0048604FF41F00886070471D
:10107000CF49096821F48031CD4A116011460968D1
:1010800021F480211160B0F5803F03D0B0F5802FAE
:101090000ED106E0C649096841F48031C44A1160A6
:1010A00007E0C349096841F4A021C14A116000E08A
:1010B00000BF00BF704710B501460022002300208A
:1010C0004A11012A02D1BA4C236806E0022A02D151
:1010D000B74C236A01E0B64C636A01F01F02012499
:1010E00094401C400CB1012000E0002010BD38B538
:1010F000002000900024002500BF3120FFF7DBFF17
:1011000005460098401C00900098B0F5A06F01D0F3
:10111000002DF2D03120FFF7CEFF08B1012400E00E
:101120000024204638BD01460020A14A106820F066
:10113000F80040EAC10010607047A049086070479D
:10114000024600209A4B586820F47C1042EA0103C2
:101150001843974B58607047984908667047014696
:101160000020934A506820F0030008435060704705
:101170008F48406800F00C007047014600208C4A00
:10118000506820F0F000084350607047014600208E
:10119000874A506820F4E060084350607047014679
:1011A0000020834A506820F4605040EAC10050603B
:1011B000704729B17E4A527A02437D4B5A7204E04D
:1011C0007B4A527A82437A4B5A7270477B49D831B4
:1011D0000860704701460020754A506820F440407E
:1011E0000843506070470021714A20321170704AE4
:1011F00082F82010012802D004280AD104E001213D
:101200006B4A2032117005E00521694A20321170C5
:1012100000E000BF00BF704769490860704764493B
:10122000096A0143624A116270476549443908609E
:10123000704730B500210022002400235C4D6D680A
:1012400005F00C0121B1042905D0082923D105E0BE
:101250005C4D056022E05B4D05601FE0544D6D68FC
:1012600005F47012524D6D6805F48034022505EBCB
:1012700092421CB9544D554305600BE04C4D6D68CE
:1012800005F400351DB1504D5543056002E04D4D4C
:101290005543056002E04B4D056000BF00BF444D63
:1012A0006D6805F0F0010909484D6B5C0568DD408B
:1012B00045603F4D6D6805F4E061090A434D6B5C84
:1012C0004568DD4085603A4D6D6805F46051C90A96
:1012D0003E4D6B5C4568DD40C560354D6D6805F47D
:1012E0004041890B3A4D6B5CC568B5FBF3F5056170
:1012F00030BD29B12E4A526902432D4B5A6104E098
:101300002B4A526982432A4B5A61704729B1284AB5
:1013100092690243264B9A6104E0254A926982430E
:10132000234B9A61704729B1214AD2690243204B6D
:10133000DA6104E01E4AD26982431D4BDA617047CC
:1013400029B11B4AD2680243194BDA6004E0184AFB
:10135000D2688243164BDA60704729B1144A126989
:101360000243134B1A6104E0114A12698243104B85
:101370001A61704712494039086070470F49C864C4
:1013800070470B49C87170470948406A40F0807047
:1013900007494862704701460020054A92680A40A2
:1013A0000AB1012000E000207047014988727047AF
:1013B000001002400000FFF8FFFFF6FE000042426E
:1013C0008004424200127A0000093D00140000200F
:1013D0002400002029B1504A128802434E4B1A8043
:1013E00004E04D4A128882434B4B1A8070474A48AA
:1013F000001D008840F010004749091D0880704713
:101400004548001D00884FF6EF7108404249091D0C
:1014100008807047002140481C300188001F008868
:1014200041EA0040704700B50246FFF7E0FF100CAC
:10143000394918310880091D0A80FFF7E1FF00BD16
:1014400000B50246FFF7D3FFC2F30340324908312B
:101450000880091D0A80FFF7D3FF00BD00B50246D2
:10146000FFF7C5FF100C2C4920310880091D0A80A8
:10147000FFF7C6FF00BD0020274910310988090782
:10148000080B2549143109880843704700BF2248DA
:10149000001D008800F020000028F8D070471E488A
:1014A000001D00884FF6F77108401B49091D088090
:1014B00000BF1948001D008800F008000028F8D07F
:1014C000704701460020144A121D12880A400AB1D2
:1014D000012000E0002070470F49091D0988814361
:1014E0000D4A121D11807047014600200A4A121D44
:1014F00012880A40D0B2084A12880A4012B108B1D4
:10150000012000E0002070470349091D098881433C
:10151000014A121D118070470028004010B5044692
:10152000FE48844208D10121C014FFF709FF0021C1
:10153000E014FFF705FFC4E0B4F1804F08D10121AA
:101540000846FFF70AFF00210120FFF706FFB8E079
:10155000F348844208D101210220FFF7FEFE00215A
:101560000220FFF7FAFEACE0EE48844208D10121E8
:101570000420FFF7F2FE00210420FFF7EEFEA0E0BA
:10158000E948844208D101210820FFF7E6FE002146
:101590000820FFF7E2FE94E0E448844208D10121EC
:1015A0001020FFF7DAFE00211020FFF7D6FE88E0BA
:1015B000DF48844208D101212020FFF7CEFE002120
:1015C0002020FFF7CAFE7CE0DA48844208D10121DE
:1015D0004014FFF7B5FE00216014FFF7B1FE70E084
:1015E000D548844209D10121C804FFF7A9FE002192
:1015F0004FF40020FFF7A4FE63E0D048844209D1F5
:1016000001210805FFF79CFE00214FF48010FFF731
:1016100097FE56E0CA48844209D101214805FFF7E8
:101620008FFE00214FF40010FFF78AFE49E0C54805
:10163000844208D101214020FFF78FFE0021402085
:10164000FFF78BFE3DE0C048844208D10121802095
:10165000FFF783FE00218020FFF77FFE31E0BB48CB
:10166000844208D101218015FFF777FE0021A015E3
:10167000FFF773FE25E0B648844209D10121080432
:10168000FFF75EFE00214FF48030FFF759FE18E0AF
:10169000B048844209D101214804FFF751FE0021DE
:1016A0004FF40030FFF74CFE0BE0AB48844208D10A
:1016B00001218804FFF744FE00214FF48020FFF74A
:1016C0003FFE10BD00220288944B98420ED0994BE9
:1016D00098420BD0B0F1804F08D0914B984205D082
:1016E000904B984202D0904B984204D14FF68F73A2
:1016F0001A404B881A438D4B984207D08C4B984226
:1017000004D04FF6FF431A40CB881A4302808B88DF
:1017100083850B880385814B98420BD0854B98427B
:1017200008D08B4B984205D08A4B984202D08A4B06
:10173000984201D10B7A038601238382704770B5EA
:10174000002400220023058C4FF6FE7635400584E8
:10175000028C8388048B4FF68F752C40B51E2C406D
:101760000D882C43751E2A400D892A434D882A4333
:101770006A4DA8420BD06F4DA84208D0744DA842C4
:1017800005D0744DA84202D0734DA84213D14FF634
:10179000F7752A404D892A434FF6FB752A408D88FC
:1017A0002A434FF6FF652B404FF6FF552B408D899E
:1017B0002B43CD892B4383800483CD888586028487
:1017C00070BD70B5002400220023058C4FF6EF7623
:1017D00035400584028C8388048B48F6FF752C40C5
:1017E0004FF6FF452C400D884FF6FF7606EA05259B
:1017F0002C434FF6DF752A400D8906EA05152A436A
:101800004D8806EA05152A43444DA84202D0494DA9
:10181000A8421DD14FF67F752A404D894FF6FF76BD
:1018200006EA05152A434FF6BF752A408D8806EA59
:1018300005152A434FF6FF352B404FF2FF752B401D
:101840008D8906EA85052B43CD8906EA85052B435C
:1018500083800483CD880587028470BD70B5002421
:1018600000220023058C4FF6FF6635400584028C6C
:101870008388848B4FF68F752C404FF6FC752C4077
:101880000D882C434FF6FF552A400D894FF6FF7601
:1018900006EA05252A434D8806EA05252A431F4DF9
:1018A000A84202D0234DA8421DD14FF2FF752A4015
:1018B0004D894FF6FF7606EA05252A434FF6FF3598
:1018C0002A408D8806EA05252A434EF6FF752B40EF
:1018D0004DF6FF752B408D8906EA05152B43CD8902
:1018E00006EA05152B4383808483CD88858702848F
:1018F00070BD70B5002200230024058C4EF6FF76E3
:1019000035400584038C8488828B48F6FF752A4015
:101910004FF6FF452A400D8820E00000002C0140D2
:101920000004004000080040000C0040001000408F
:101930000014004000340140004C014000500140C0
:101940000054014000180040001C004000200040EE
:101950000040014000440140004801404FF6FF763E
:1019600006EA05252A434DF6FF752B400D8906EA48
:1019700005352B434D8806EA05352B43FA4DA84221
:1019800002D0FA4DA84208D14BF6FF752C408D8944
:101990004FF6FF7606EA85152C4384808283CD8836
:1019A000A0F84050038470BD828B4FF2FF331A4081
:1019B0008283828B4FF6FF7303EA01231A438283EB
:1019C0007047F0B50C461546002200210026078C12
:1019D0004EF6FF7C07EA0C070784828B018C4FF6DA
:1019E000FF7707EA043640F6FF473A404FF6FF77A5
:1019F00007EA05273A434FF6FF7707EA03373A43EA
:101A0000D94FB8420ED0D94FB8420BD0B0F1804F69
:101A100008D0D74FB84205D0D64FB84202D0D64FE3
:101A2000B84206D14DF6FF77394046F48057394326
:101A300005E047F6FF57394044F480573943828325
:101A40000184F0BD828B4FF6F3731A408283828B40
:101A50000A4382837047F0B50C46154600220021E8
:101A60000026078C4FF6FF6C07EA0C070784828B71
:101A7000018C4FF6FF7707EA04264FF60C773A40C1
:101A80004FF6FF7707EA03172F433A43B64FB842A2
:101A90000ED0B64FB8420BD0B0F1804F08D0B44F43
:101AA000B84205D0B34FB84202D0B34FB84206D1C6
:101AB0004FF6FF57394046F48077394305E04FF23F
:101AC000FF57394044F48077394382830184F0BD65
:101AD000028B4FF2FF331A400283028B4FF6FF73E3
:101AE00003EA01231A4302837047F0B50C461546FA
:101AF000002200210026078C4FF6EF7C07EA0C0736
:101B00000784028B018C4FF6FF7707EA041640F634
:101B1000FF473A404FF6FF7707EA03373A434FF65D
:101B2000FF7707EA05273A438F4FB8420ED08F4F11
:101B3000B8420BD0B0F1804F08D08D4FB84205D0DD
:101B40008C4FB84202D08C4FB84206D14FF6DF77A7
:101B5000394046F01007394305E04FF65F773940CA
:101B600044F01007394302830184F0BD028B4FF625
:101B7000F3731A400283028B0A4302837047F0B565
:101B80000C46154600220021068C4FF6FE773E409B
:101B90000684028B018C4FF60C7632407E1C06EADE
:101BA00003162E433243704EB0420ED06F4EB042F9
:101BB0000BD0B0F1804F08D06D4EB04205D06D4EC5
:101BC000B04202D06C4EB04206D14FF6FD763140A5
:101BD00044F00106314305E04FF6F576314044F01C
:101BE0000106314302830184F0BD70B505460C4601
:101BF0005D4885420ED05D4885420BD0B5F1804FDF
:101C000008D05B48854205D05A48854202D05A48E0
:101C1000854200D100E000BF208850B92389A28806
:101C200061882846FFF7ABFFE1882846FFF79EFF53
:101C300025E0208804280AD12389A28861882846C3
:101C4000FFF753FFE1882846FFF742FF17E020889F
:101C500008280AD12389A28861882846FFF7FBFE5D
:101C6000E1882846FFF7EEFE09E02389A288618813
:101C70002846FFF7A6FEE1882846FFF795FE70BDCF
:101C80002DE9F04105460C4600260127608808B979
:101C9000022600E00026A088012801D1022700E0EA
:101CA00001272088A0B92389A28861882846FFF7E8
:101CB00066FFE1882846FFF759FF23893A463146F7
:101CC0002846FFF712FFE1882846FFF701FF13E0DF
:101CD0002389A28861882846FFF707FFE188284604
:101CE000FFF7F6FE23893A4631462846FFF747FFBD
:101CF000E1882846FFF73AFFBDE8F0810A884B8863
:101D00001A438B881A43CB881A430B891A434B8991
:101D10001A438B891A43A0F8442070474FF6FF718D
:101D2000818000210180C1804180017270470021C3
:101D3000018041808180C180018141818181C18197
:101D40007047002101804180012181800021C180F4
:101D5000018170470021018041808180C180018123
:101D60004181818170470000002C01400034014016
:101D70000004004000080040000C004021B102882F
:101D800042F00102028004E002884FF6FE731A401E
:101D90000280704731B1B0F8442042F40042A0F80C
:101DA000442005E0B0F84420C2F30E02A0F844201D
:101DB00070471AB183890B43838102E083898B4387
:101DC000838170478182704741EA0203A0F848305E
:101DD00070471AB183890B43838102E083898B4367
:101DE0008381704701894FF6F87211400181704775
:101DF0000A46002101894FF68F7319401143018172
:101E0000704730B504460D4629462046FFF7F0FFDF
:101E1000208940F00700208130BD2DE9F0410446C3
:101E20000D4616461F46602D06D13B46012231461F
:101E30002046FFF75AFE05E03B4601223146204688
:101E4000FFF79DFE29462046FFF7D2FF208940F08C
:101E500007002081BDE8F08130B50C4600210189E2
:101E6000C9B24FF6FF7505EA0325154325432943FB
:101E7000018130BD2DE9F04105460E4617469846D2
:101E8000002443463A4631462846FFF7E5FF2C89B1
:101E90004FF6F870044044F007044FF68F7004408A
:101EA00044F070042C81BDE8F081F0B504460D4685
:101EB00016461F463B46324629462046FFF7CCFFD2
:101EC000208940F480402081F0BD018582827047E6
:101ED0000A46002101884FF68F7319401143018093
:101EE0007047F0B50C4615461E460021002200231F
:101EF0000189028B038C4FF6F877394021434FF666
:101F0000FC473A4040F201173A434FF6DD773B4039
:101F10004FF6FF7707EA06172F433B430181028301
:101F20000384F0BD0A460021018B4FF68F731940E0
:101F30001143018370470A460021018B48F6FF7365
:101F400019404FF6FF7303EA0223194301837047D8
:101F50000A460021818B4FF68F731940114381830C
:101F600070470A460021818B48F6FF7319404FF6EF
:101F7000FF7303EA022319438183704721B102886A
:101F800042F08002028004E002884FF67F731A401C
:101F90000280704721B1828842F00402828004E00E
:101FA00082884FF6FB731A408280704721B1828885
:101FB00042F00802828004E082884FF6F7731A40EC
:101FC0008280704721B1828842F00102828004E061
:101FD00082884FF6FE731A40828070470A460021BD
:101FE000018B4FF6F77319401143018370470A467E
:101FF0000021018B4FF2FF7319404FF6FF7303EA84
:1020000002231943018370470A460021818B4FF652
:10201000F77319401143818370470A460021818B71
:102020004FF2FF7319404FF6FF7303EA022319437F
:10203000818370470A460021018B4FF6FB731940DC
:102040001143018370470A460021018B4FF6FF338D
:1020500019404FF6FF7303EA0223194301837047C7
:102060000A460021818B4FF6FB731940114381838F
:1020700070470A460021818B4FF6FF3319404FF617
:10208000FF7303EA02231943818370470A46002144
:10209000018B4FF67F7319401143018370470A4645
:1020A0000021018BC1F30E014FF6FF7303EA0223F7
:1020B0001943018370470A460021818B4FF67F73D5
:1020C00019401143818370470A460021818BC1F377
:1020D0000E014FF6FF7303EA022319438183704711
:1020E0000A460021018C4FF6FD731940114301840B
:1020F00070470A460021018C4FF6F77319401143CF
:10210000018470470A460021018C4FF6DF731940A5
:102110004FF6FF7303EA02131943018470470A461E
:102120000021018C4FF67F7319404FF6FF7303EACD
:1021300002131943018470470A460021018C4FF6AF
:10214000FF5319404FF6FF7303EA0223194301843A
:1021500070470A460021018C4FF2FF7319404FF679
:10216000FF7303EA02231943018470470A460021E2
:10217000018C4DF6FF7319404FF6FF7303EA0233EB
:1021800019430184704730B5002301248C40A3B269
:10219000048C9C430484048C02FA01F5ADB22C43F8
:1021A000048430BD30B5002304248C40A3B2048CD9
:1021B0009C430484048C02FA01F5ADB22C430484E0
:1021C00030BD70B5034600200024184618300125A4
:1021D0008D40ACB21D8CA5431D8409B1082909D1DD
:1021E00000EB6100056825F0700505600568154382
:1021F00005600EE00D1FC5F34E052844056825F463
:10220000E045056005684FF6FF7606EA022635438D
:10221000056070BD21B1028842F00202028004E034
:1022200002884FF6FD731A400280704721B1028880
:1022300042F00402028004E002884FF6FB731A4069
:102240000280704721B1828842F08002828004E0DF
:1022500082884FF67F731A408280704702884FF65B
:10226000F7731A40028002880A430280704782880E
:102270004FF68F731A40828082880A4382807047AB
:1022800002894FF6F8731A40028102890A430281DB
:10229000704702894FF67F731A40028102890A4310
:1022A00002817047818470478185704781867047BD
:1022B0000187704781877047A0F8401070470288F7
:1022C0004FF6FF431A40028002880A43028070479B
:1022D0000146888E70470146088F70470146888FF7
:1022E00070470146B1F8400070470146888C70473E
:1022F0000146088D704702460020138A0B400BB13F
:10230000012000E000207047CA430282704730B5C8
:102310000246002000230024158A05EA010395895E
:1023200005EA010413B10CB1012000E0002030BD2A
:10233000CA4302827047000010B50446FB4884423D
:1023400009D101218803FEF7FBFF00214FF48040F3
:10235000FEF7F6FF32E0F648844209D10121480435
:10236000FEF7FBFF00214FF40030FEF7F6FF25E0FB
:10237000F048844209D101218804FEF7EEFF0021D4
:102380004FF48020FEF7E9FF18E0EB48844209D1C2
:102390000121C804FEF7E1FF00214FF40020FEF701
:1023A000DCFF0BE0E548844208D101210805FEF777
:1023B000D4FF00214FF48010FEF7CFFF10BD2DE9B0
:1023C000F04786B005460E460024A24600BFA1464F
:1023D0000027B08900B100BF2F462C8A4CF6FF7051
:1023E0000440F08804432C82AC894EF6F31004407C
:1023F000B08831890843718908430443AC81AC8AB1
:102400004FF6FF400440B0890443AC8201A8FEF7B8
:1024100010FFC648874202D1DDF810A001E0DDF8C8
:102420000CA0A88900F4004040B10AEBCA0000EB00
:102430000A1031684900B0FBF1F807E00AEBCA0066
:1024400000EB0A1031688900B0FBF1F86420B8FB9A
:10245000F0F004012009642101FB1089A88900F42F
:10246000004040B1322000EBC900B0FBF1F000F0B9
:102470000700044308E0322000EB09106421B0FBA0
:10248000F1F000F00F0004432C8106B0BDE8F087A6
:102490004FF41651016000218180C18001810C211F
:1024A000418100218181704710B502460020108AC9
:1024B0004FF2FF0318400B884C8823438C8823433A
:1024C000CC8823431843108210BD00210180418035
:1024D0008180C180704721B1828942F4005282819B
:1024E00004E082894DF6FF731A4082817047F0B58F
:1024F0000346002400260025002040F66A17B94252
:1025000000D100BF1846C1F3421401F01F06012795
:1025100007FA06F5012C01D10C3004E0022C01D1A0
:10252000103000E014301AB107682F43076002E052
:102530000768AF430760F0BD1AB1838A0B438382FB
:1025400002E0838A8B4383827047028A4FF6F073DE
:102550001A400282028A0A430282704782894FF23D
:10256000FF731A40828182890A438281704721B1B8
:10257000828942F00202828104E082894FF6FD7373
:102580001A4082817047028A4FF6DF731A40028236
:10259000028A0A430282704721B1028A42F48042D1
:1025A000028204E0028A4BF6FF731A4002827047EF
:1025B000C1F308028280704701468888C0F3080092
:1025C0007047818941F0010181817047028BD2B24D
:1025D0000283028B42EA012202837047028B02F4DB
:1025E0007F420283028B0A430283704721B1828AB1
:1025F00042F02002828204E0828A4FF6DF731A40A2
:102600008282704721B1828A42F01002828204E005
:10261000828A4FF6EF731A408282704721B1828A14
:1026200042F00802828204E0828A4FF6F7731A4071
:102630008282704721B1828942F40042828103E0A4
:102640008289C2F30E028281704721B1828A42F4EC
:102650000062828204E0828A4FF2FF731A40828213
:102660007047828A4FF6FB731A408282828A0A433D
:102670008282704721B1828A42F00202828204E0A3
:10268000828A4FF6FD731A4082827047024600200C
:10269000B1F5007F00D100BF13880B400BB10120C2
:1026A00000E00020704701F40072B2F5007F00D115
:1026B00000BFCA430280704770B502460024002361
:1026C0000025002040F66A16B14200D100BFC1F3D8
:1026D000421501F01F03012606FA03F3012D02D172
:1026E0009689334006E0022D02D1168A334001E07C
:1026F000968A33400C12012606FA04F416883440F8
:1027000013B10CB1012000E0002070BD10B5002213
:10271000002340F66A14A14200D100BF0A1201242E
:102720009440A3B2DC43048010BD00000038014097
:102730000044004000480040004C00400050004071
:1027400010B55048A0F17901C1F8F000401CC1F863
:10275000F400401CC1F8F800401CC1F8FC00401C0B
:10276000C1F80001401CC1F80401401CC1F8080177
:10277000401CC1F80C01401CC1F810010838424946
:102780000860401C4860401C8860401CC8603F488E
:10279000A0F20111C1F80002401CC1F80402401C63
:1027A000C1F80802801CC1F81802401CC1F81002D0
:1027B0000846D0F80C020830C1F80C0201F584700C
:1027C000C1F814020120324908704870C87040F204
:1027D0000C41304803F08FF910BD4FF4E01000F0C9
:1027E000C2F800F0FAF800F0AFF902F0AAFD2AA052
:1027F00003F09AFD4FF4FA6000F012FD00F056F974
:1028000000F04DFA02F0CDFFFFF79AFF0221012000
:1028100002F04EFD1521022002F04AFD244A44F642
:10282000B431244801F032FC224890F834002249A7
:102830000870002415E004EB440000EB04101D496F
:1028400001EB800000F1140304EB440000EB0410E2
:1028500001EB8000C21C214618A003F065FD601C3E
:10286000C4B2154800788442E5DB02F0C5F802F0F6
:10287000A5F805E002F08CFB00F0B3FF01F0C1FA0F
:10288000F8E70000FD5E0020C4610020A160002088
:1028900044000020785A00200D0A4D61737465725F
:1028A00020526562626F74210D0A0D0A000000005B
:1028B00000D80008C40E0020490000207265676936
:1028C00073746572643A20496420696E6465782087
:1028D00025642C204944205B25735D2C204E616DBE
:1028E00065205B25735D0D0A68657849443A2000D0
:1028F0001CB50446002001900090FEF799FB4FF4B0
:102900008030FEF7B5FBFEF7F2FB0090009801283F
:1029100026D11020FDF78EFE0220FDF777FE002065
:10292000FEF72BFC0020FEF73AFC4FF48060FEF728
:102930002DFC21464FF48030FEF702FC0120FEF70B
:102940000BFC00BF3920FEF7B6FB0028FAD00220AE
:10295000FEF705FC00BFFEF70BFC0828FBD101E0E9
:1029600000BFFEE71CBD38B5044600200090FEF70E
:102970005FFB0120FEF7E1FBEF48006800F002007A
:1029800000900098022825D11020FDF753FE022068
:10299000FDF73CFE0020FEF7F0FB0020FEF7FFFBFA
:1029A0004FF48060FEF7F2FB21460020FEF7C8FBE3
:1029B0000120FEF7D1FB00BF3920FEF77CFB002889
:1029C000FAD00220FEF7CBFB00BFFEF7D1FB0828B0
:1029D000FBD101E000BFFEE738BD10B5012110209A
:1029E000FEF794FC01210820FEF790FC0121084627
:1029F000FEF78CFC01210420FEF788FC01218803EE
:102A0000FEF784FC01214804FEF78DFC01218804B7
:102A1000FEF789FC10BD0EB54FF40070ADF808004C
:102A200003208DF80A0018208DF80B0002A9C34876
:102A3000FEF72AF94FF48060ADF8080004208DF805
:102A40000B0002A9BD48FEF71FF90420ADF80400F1
:102A500003208DF8060018208DF8070001A9B7485B
:102A6000FEF712F90820ADF8040004208DF80700E5
:102A700001A9B248FEF708F94FF48060ADF80000F4
:102A800003208DF8020018208DF803006946AC4839
:102A9000FEF7FAF84FF40060ADF8000004208DF85E
:102AA00003006946A648FEF7EFF80EBD1FB54FF4C8
:102AB000C060FDF74DFC1D208DF80C0000208DF846
:102AC0000D0002208DF80E0001208DF80F0003A8E4
:102AD000FDF743FC4FF4C060FDF73AFC25208DF86C
:102AE000080000208DF8090003208DF80A0001205D
:102AF0008DF80B0002A8FDF730FC4FF4C060FDF725
:102B000027FC26208DF8040000208DF80500022007
:102B10008DF8060001208DF8070001A8FDF71DFCC7
:102B20004FF4C060FDF714FC27208DF80000002052
:102B30008DF8010001208DF802008DF80300684631
:102B4000FDF70BFC1FBD704700B58DB0FFF763FFAD
:102B50004FF4E13009900020ADF82800ADF82A00CC
:102B6000ADF82C00ADF830000C20ADF82E0009A90E
:102B70007448FFF724FC012240F225517148FFF709
:102B8000B6FC01216F48FFF7A6FC4FF4E130059039
:102B90000020ADF81800ADF81A00ADF81C00ADF833
:102BA00020000C20ADF81E0005A96748FFF707FCC0
:102BB000012240F225516448FFF799FC0121624847
:102BC000FFF789FC40216048FFF76DFD4FF4E130CD
:102BD00001900020ADF80800ADF80A00ADF80C0037
:102BE000ADF810000C20ADF80E0001A95748FFF712
:102BF000E6FB012240F225515448FFF778FC012101
:102C00005248FFF768FC40215048FFF74CFD0DB0DB
:102C100000BD0EB54FF47A70ADF804000720ADF892
:102C200000000020ADF80600ADF802008DF80800A5
:102C300069464748FEF746FD01214548FFF764FB1A
:102C4000012211464248FFF7B4F801214048FFF73E
:102C500095F80EBD10B50120FEF78FF9FDF7E6FBE4
:102C60000120FEF7D9FA00BF6120FEF724FA002800
:102C7000FAD04FF40070FEF7D2FA0120FEF7D5FA31
:102C8000FEF70DFC49F64040FEF7DAFBFEF7FEFBCF
:102C900001210220FEF79EFBFEF7F8FB10BD0EB5EA
:102CA00001210220FEF73FFB41F61F40ADF8000076
:102CB0000020ADF802006320ADF804000020ADF85C
:102CC000060069462348FEF7FDFC01221146214813
:102CD000FFF76FF801211F48FFF750F80EBD70B5E0
:102CE000044601210807FEF71EFBFEF73BF945F2FB
:102CF0005550FEF717F904EB8400C0F35B05E8B20A
:102D0000FEF713F904EB8400C0F35B06B0B2FEF7E4
:102D10000FF9FEF715F970BD70B504460D46E1B226
:102D20000848FFF745FC00BF40210648FFF7AEFC0E
:102D30000028F9D0204670BD001002400008014074
:102D4000000C0140003801400044004000480040B1
:102D50000010004000040040704700BFFEE700BFC5
:102D6000FEE700BFFEE700BFFEE770477047704711
:102D700010B500F03EFA10BD10B50220FEF7B4FB0E
:102D800088B14FF40030FDF738FC0120FEF738F928
:102D900010B10120FEF73EF9FEF778FB0220FEF7A6
:102DA000B3FBFEF773FB10BD10B50121C648FFF75A
:102DB000AEFA28B30121C448FFF7BAFAC348006845
:102DC0000A30C2490860084640680A304860084630
:102DD00080680A3088600846C0680A30C8600024ED
:102DE0000AE0BA48103050F82400401CB7491031AE
:102DF00041F82400601CC4B2B54800788442F0DB7E
:102E00000121B148FFF794FA10BD10B50121B14876
:102E1000FFF77DFA18B10121AE48FFF789FA0121C9
:102E2000AC48FFF785FA10BD10B540F22551AA480D
:102E3000FFF742FC10BD10B540F22551A748FFF73F
:102E40003BFC00287AD0A548FFF7B6FBA44991F8CF
:102E50001611A34A5054104690F8160120B9104696
:102E60000078EE2800D010BD9D4890F81601401C57
:102E70009B4981F81601084690F81601401E085C2F
:102E8000FF280CD1084690F8180140B9084690F880
:102E90001601944908600120914981F81801904871
:102EA00090F81801012843D18D4890F816018D49FA
:102EB0000968401A03283BD189488A490968405C5F
:102EC000FC2828D1864987480068401C085CFF28F8
:102ED00021D184480068801C085CFF281BD182A097
:102EE00003F022FA7E4890F8161100F013FB7C489C
:102EF00090F816110246783000F0D3F9784890F82F
:102F00001601774981F81701012081F814017348EF
:102F100000F011FA0CE078A003F006FA00207049E6
:102F200081F814016D4800F006FA00206D49086030
:102F30006B4890F81601782807DB00E005E073A0E5
:102F400003F0F2F9654800F0F6F900BF8BE710B521
:102F500040F225517148FFF7AFFB002876D00120E1
:102F60006F4981F821026D48FFF726FB6C4991F803
:102F700022126B4A5054104690F8220220B9104693
:102F80000078A52800D010BD654890F82202401CAA
:102F9000634981F82202084690F82202012816DDD2
:102FA000084640785A2812D05EA003F0BDF90023ED
:102FB00062A20121184602F056FC022300221946A3
:102FC000574800F0B7FA554800F0B5F9DBE7544828
:102FD00090F82202092856DB514890F82212007A14
:102FE000093081424FD14E4890F822120246FF30FC
:102FF00000F04AF954A003F097F957480178007897
:10300000401C554A1070032091FBF0F200FB121097
:1030100020B1012812D0022821D118E002F0A6FB2D
:1030200000234EA21946012002F01DFC3C4890F8F6
:10303000221201231A4600F07DFA10E0384890F879
:1030400022120323012200F075FA08E030E0344830
:1030500090F822120523012200F06CFA00BF00BF95
:103060002F4890F82212FF3000F054FA2C4890F8C4
:1030700022022B4981F82302284800F05CF9012044
:10308000274981F82002264890F8220278280BDB95
:1030900035A003F049F9002337A20121184602F0B8
:1030A000E2FB1E4800F047F900201D4981F821028B
:1030B00000BF68E710B50120FDF78EFA012801D1A5
:1030C000FDF79BFA10BD000000040040785A002074
:1030D000490000200010004000380140004400403A
:1030E000845E00202800002052656369766554469E
:1030F000543A200D0A000000526563697665544613
:1031000054206572726F200D0A00000064617461C2
:10311000206F7665726C656E670D0A00004800408E
:10312000A05F00202D2D55617274335F49535220EA
:103130006461746120657272200D0A0064617461BB
:1031400020657272202020004D61737465722052D8
:1031500065636976653A20002C000020526563693A
:1031600076653A202020000044617461206F766506
:10317000724C656E74680A006F7665724C656E7489
:10318000682020200000000030B53A4800683A4A24
:10319000B0FBF2F1B1F1807F01D301201DE021F0FD
:1031A0007F40401E4FF0E022506150170F22002850
:1031B00007DA13071D0E314B00F00F04241F1D55B5
:1031C00003E013071C0E2E4B1C5400BF00204FF0D1
:1031D000E022906107201061002008B100BFFEE7E7
:1031E00030BD2849086000BF264909680029FBD185
:1031F00070472448006820B122480068401E2149D9
:103200000860704710B5002106E0092200BF1300D6
:10321000A2F10102FBD1491C8142F6D310BD7047D7
:10322000014642F228324A434FF0E0235A6100221D
:103230009A6101221A6100BF4FF0E022106900F08C
:1032400001021AB100F48032002AF5D000224FF0BA
:10325000E0231A619A61704710B5002106E0092247
:1032600000BF1300A2F10102FBD1491C8142F6D339
:1032700010BD000000000020A086010018ED00E055
:1032800000E400E03000002010B50346002003E019
:10329000145C1C54441CE0B28842F9DB00245C54EA
:1032A00010BD10B50346002003E0145C1C54441C00
:1032B000E0B28842F9DB00245C5410BD2DE9F041F6
:1032C00007460C46154601204C49086000260DE0D3
:1032D00014F8011B3846FFF76BF900BF8021384610
:1032E000FFF7D4F90028F9D0701CC6B2AE42EFDB6C
:1032F000002042490860BDE8F0812DE9F041064612
:103300000C46204602F002FC074600250FE0615DF6
:103310003BA003F009F8615D3046FFF749F900BFB3
:1033200040213046FFF7B2F90028F9D06D1CBD42AC
:10333000EDDBBDE8F08110B504463248844210D17F
:103340000020314981F8150181F8160178212E48B5
:1033500002F0D1FB00202C4981F818012BA002F0CB
:10336000E3FF304884420CD100202F4981F821022C
:1033700081F82202FF212C4802F0BDFB2BA002F0B5
:10338000D3FF10BD2DE9F04105460E4614461F46F9
:103390005A202C490870A5204870287888706878D1
:1033A000C870A8780871002048710846867100200E
:1033B000C8710846047222463946093002F082FB81
:1033C00004F10900C1B21F4800F095F81D4A04F14C
:1033D000090150541CA002F0A7FF04F10A0119488A
:1033E00000F098F86420FFF71BFF04F10A00C2B256
:1033F00014490C48FFF762FFBDE8F081A0012142AB
:103400002563000000440040845E002072657365FF
:10341000742075617274325446545061636B0D0AA6
:103420000000000000480040A05F00207265736546
:10343000742075617274335F3438355061636B0D7D
:103440000A000000D46100206275696C6420753345
:103450003A2000002DE9F04107460D4614464FF092
:103460000008002609E057F8262005EB08008CA18B
:1034700002F06AFF08F10808761CA642F3DB002080
:1034800005F83400BDE8F08170B504460025002041
:103490008549086008208549086008460068FFF7EC
:1034A000B1FE00BF10E004F0010018B101207E4918
:1034B000086002E000207C4908607C480068FFF753
:1034C000A1FE6410681CC5B2082DECDB0120764912
:1034D000086076480068FFF795FE70BD70B5054638
:1034E0000E46002404E0285DFFF7CEFF601CC4B246
:1034F000B442F8DB70BD10B502460B460021002037
:1035000000BF04E0545C0444E0B24C1CE1B29942B8
:10351000F8DB10BD70B505460E46002404E0295DB9
:1035200063A002F001FF641CB442F8D362A002F071
:10353000FBFE70BD2DE9F041A0B006460D461746D2
:1035400098463C2D00DD3C25002407E0325D01A9B2
:1035500001EB440059A102F0F7FE641CAC42F5D324
:10356000002001AA02F8150000234146384602F067
:103570007AF920B0BDE8F08170B504460D461346D7
:103580000021002200BF0EE0605C6E5CB04202D100
:10359000501CC2B205E00AB9012070BD501CC0B277
:1035A000FBE7481CC1B29942EEDB9A4201D10020F0
:1035B000F3E7FF20F1E72DE9F84306460F463046D2
:1035C00002F0A4FA05464FF000080024284605EB57
:1035D000D0714910A5EB410129B13AA002F0A4FE37
:1035E000601EBDE8F883284605EBD0714FEA6108FC
:1035F00013E016F814008DF80000012000EB4400E1
:10360000305C8DF8010000208DF8020010220021AE
:10361000684602F099FA3855641C4445E9DB404697
:10362000DFE73EB50546002000900190029000249F
:103630002A48006800902948001D0068019027482A
:1036400008300068029026A09DE80E0002F06CFE93
:10365000032229466846FFF7FDFE294626A002F010
:1036600063FE1AE05DF82400000E274A02F82400E9
:103670005DF82400C0F30741A000401C11543DF840
:103680002400C0F30721A000801C11541DF8241051
:10369000A000C01C1154601CC4B2032CE2DB3EBD70
:1036A00025303878000000008C8121423400002051
:1036B00025303258200000000A0000002530325822
:1036C00000000000496E76616C696420696E707557
:1036D00074206C656E6774680A000000E8F7FF1FCD
:1036E000436869704964203D25237820252378208C
:1036F0002523780A00000000436869704964537408
:10370000723A2025730A00004C62002001464420D2
:10371000405C10B991F8450008B1012070470020C5
:10372000FCE730B593B0012557E005EB450000EB11
:103730000510FE4A02EB80014C22684602F0C2F9F5
:103740006C1E12E004EB440202EB0412F74B03EB95
:103750008201621C02EB420303EB0212F34B03EB08
:1037600082004C2202F0AEF9641E002C28DB04EB30
:10377000440101EB0411ED4A02EB8100FFF7C6FFA3
:1037800002466846FFF7C2FF8242DBDB04EB4401DE
:1037900001EB0411E54A02EB8100FFF7B7FF024697
:1037A0006846FFF7B3FF82420AD104EB440000EB06
:1037B0000410DE4901EB8000C06803998842C1D83B
:1037C000611C01EB410202EB0111D84A02EB8100BE
:1037D0004C22694602F076F96D1CFF2DA5DB13B073
:1037E00030BD2DE9F0419EB0D14890F8200200286C
:1037F0007ED00020CE4981F820020846D0F8180279
:1038000000780A2804D00B2873D00C2872D107E066
:10381000C748D0F814020178C6A002F085FDE8E29E
:10382000C348D0F800020078CB49097801EB410287
:1038300002EB0111BD4A02F82100BD48D0F8040294
:103840000078C549097801EB410202EB0111B74A42
:1038500002EB81014870B648D0F808020078BF49F1
:1038600009780844BC49097801EB410202EB0111D7
:10387000AE4A02EB81018870B748007800EB400146
:1038800001EB0010114601EB8000B349097801EB10
:10389000410202EB0111A54A02EB81010861AE4829
:1038A000007800EB400101EB0010114611F82000F8
:1038B0000004A949097801EB410202EB01119B4A7E
:1038C00002EB8101497840EA0120A349097801EB24
:1038D000410202EB0111954A02EB8101897808430C
:1038E0009D49097801EB410202EB01118F4A02E088
:1038F00085E23BE075E202EB8101C8608C48D0F8BC
:103900000002027896A1684602F01EFD8848D0F8B1
:103910000402027892A10DF1020002F015FD844824
:10392000D0F8080200788D49097842188CA101A8C6
:1039300002F00AFD6A460821022000F04BFC86488E
:10394000007800EB400101EB0010784901EB8000AA
:103950006946C26884A002F0E7FC80480078401CF9
:103960007E49087087A000F0F2FC42E2002488A0A3
:1039700002F0DAFC6E49D1F800020321FFF7CAFD1C
:1039800000BF10E06A4AD2F8001204EB440202EBD6
:103990000412664B03EB82000322FFF7EDFD00B932
:1039A00006E0601CC4B26C480078401C8442E9DB2D
:1039B00000BF6948007884420ADB7CA002F0B4FCB6
:1039C000FF215B48FF3002F096F81EB0BDE8F081A1
:1039D0005748D0F800020078AC287CD15449D1F87F
:1039E000141209780904524AD2F81422527841EA92
:1039F00002214F4AD2F81422927841EA020002F0E2
:103A00004DF907466D4A6E4B02F0D6F8054602F0B6
:103A100069F904EB440101EB0411444A02EB810112
:103A200088634349D1F814120979414AD2F8142223
:103A3000D27841EA022002F031F907465F4A604B32
:103A400002F0BAF8054602F04DF904EB440101EB2F
:103A50000411364A02EB8101C86304EB440000EB19
:103A60000410114601EB8000C16B04EB440000EB35
:103A7000041002EB8000016404EB440101EB04112B
:103A800002EB8101886B4F4902F052F917D304EB26
:103A9000440101EB0411254A02EB8101886B4A497C
:103AA00002F03CF90BD304EB440101EB04111F4A73
:103AB00002EB8101C86B454902F03AF92FD201218E
:103AC00004EB440000EB0410184A02EB800080F87D
:103AD00044103FA000E0B6E002F026FC012041497E
:103AE000087004EB440101EB0411104A02EB810061
:103AF0003C4B01220A21FFF745FC6420FFF790FBB5
:103B000002203849087004EB440101EB0411074A14
:103B100002EB8100334B01220A21FFF733FC3249CB
:103B2000097801EB410202EB01115FE0C40E0020B5
:103B3000A05F00204E6F64654461746120726574FB
:103B4000205B253032785D20504F574552434F4E11
:103B500054524C200D0A0000490000203C00002077
:103B600025303278000000004E6F64654461746156
:103B700020726574204164647220257320256420BE
:103B80000D0A0000CBD1CBF7CDEAB3C9000000008D
:103B90004E6F6465446174612052657420524551D2
:103BA00055455354454C454320000000756E6D61EA
:103BB0007463682061646472210D0A007B14AE474F
:103BC000E17A843F0000824300003443000040411A
:103BD000414320706F776572204572726F202121FA
:103BE000200D0A00716200204A000020CD4A02EB3D
:103BF0008101886B02F063F805462A460B46CAA08D
:103C000002F092FBCB49097801EB410202EB011172
:103C1000C44A02EB8101C86B02F051F805462A46FE
:103C20000B46C5A002F080FBC248007800EB4002C2
:103C300002EB0010BB4A02EB800090F84410C0A0D9
:103C400002F072FBC5E0C148D0F800020078DC2821
:103C5000F8D1BE49D1F814124978BC4AD2F81422DE
:103C6000127841EA022002F019F80746B84AB94B27
:103C700001F0A2FF054602F035F804EB440101EB28
:103C80000411A84A02EB81018863B049D1F81412EB
:103C9000C978AE4AD2F81422927841EA022001F0A3
:103CA000FDFF0746AA4AAB4B01F086FF054602F02E
:103CB00019F804EB440101EB04119A4A02EB81016B
:103CC000C863A249D1F814124979A04AD2F8142243
:103CD000127941EA022001F0E1FF07469C4A9D4B20
:103CE00001F06AFF054601F0FDFF04EB440101EB22
:103CF00004118C4A02EB810108649448D0F8140244
:103D0000817904EB440000EB041002EB800080F8A2
:103D100044108E48D0F81402C17904EB440000EB43
:103D2000041002EB800080F845108249097801EB0D
:103D3000410202EB01117B4A02EB8101886B01F029
:103D4000BEFF05462A460B4677A002F0EDFA7949F8
:103D5000097801EB410202EB0111724A02EB810189
:103D6000C86B01F0ACFF05462A460B4672A002F074
:103D7000DBFA7049097801EB410202EB0111694A53
:103D800002EB8101086C01F09AFF05462A460B46BA
:103D900071A002F0C9FA6748007800EB400202EB1C
:103DA0000010604A02EB800090F844106CA002F012
:103DB000BBFA6048007800EB400202EB0010594A61
:103DC00002EB800090F8451069A002F0ADFAFFF711
:103DD000A8FC01206A49087000216A4840F82410B4
:103DE00007E05A48D0F81802017867A002F09CFA60
:103DF00000BF00BFFF215548FF3001F07CFE00BF2F
:103E0000E3E510B55F4810380068012810D95D4817
:103E100010380068B0F5487F0AD200206249086077
:103E20000023AFF27C220621782001F01CFD14E073
:103E300054481038006840F23E3188420DD90020C5
:103E40005049103908600120574908600123AFF23A
:103E5000A8220621782001F006FD4A481038406863
:103E6000B0F5FA7F40D33348007800EB400101EB16
:103E700000102C4901EB8000C21C2E4801784BA099
:103E800002F052FA3E480078E0B12A49097801EB85
:103E9000410202EB0111234A02EB810101F11400FE
:103EA00032A101F03AFE68B12249097801EB4102E2
:103EB00002EB01111B4A02EB8100424B00220B2155
:103EC000FFF760FA1B480078401C1A4908703E480A
:103ED0000078401E0978884202DA002015490870EF
:103EE000002028491039486026481038806840F280
:103EF0004C4188420AD335480078012806D1094848
:103F000000F03FFA00201F49103988601D48103822
:103F1000C068C82805D301F0E4FA00201949103917
:103F2000C86010BDC40E002076546F74616C2025EB
:103F3000662000004A00002069312025662000002C
:103F40006572726F3A202564200D0A00A05F002080
:103F50007B14AE47E17A843F693220256620000059
:103F60004368316572726F3A2025642000000000BA
:103F70004368326572726F3A2025640D0A000000B2
:103F800048000020885A002075617274335F34380D
:103F9000355061636B2E636D6420756E6B6F776E49
:103FA000212025780D0A0000B081214252657175EB
:103FB0006573744E6F646520256420202573200D81
:103FC0000A00000071620020490000204400002027
:103FD0002DE9FF4105460E460027FCF736FB002081
:103FE000009006EBC5200290012003903420FCF7DE
:103FF000C7FD0DE00298FCF76DFB0446042C06D0CB
:104000004EA002F091F93420FCF7BAFD00E004E084
:104010003846791CCFB20528ECDB00BF052F03DB47
:1040200021464DA002F080F9FCF71BFBBDE8FF81A3
:104030002DE9F04104460F46B4F5006F01D24FF46C
:104040000064C4F30A0008B9E60A02E0012000EBAC
:10405000D426002509E03A4629464BA002F064F92F
:10406000E8B23946FFF7B4FF6D1CB542F3D3BDE8A3
:10407000F08110B50346002005E032F8104023F827
:104080001040441CA0B28842F7DB10BD2DE9F0417E
:1040900006460C4617460025204604EBD071491011
:1040A000A4EB410151B92546A84605EBD870C0F3F1
:1040B0004F013A463046FFF7DCFF09E0601C85B24D
:1040C000A84605EBD87041103A463046FFF7D1FFBD
:1040D000BDE8F0812DE9F04706460D461746B0468B
:1040E000FCF7B3FA00240AE0295D601C285C41EA71
:1040F000002908EB04004946FCF7EFFBA41CBC4276
:10410000F2D3FCF7AEFABDE8F08710B5044620689C
:1041100025490840B0F1005F0CD124A002F004F959
:104120006068274908602068FCF70CF8244800689C
:10413000804702E023A002F0F7F810BD666C6173BF
:10414000685F65726173655F70616765204661696C
:104150006C64200A00000000666C6173685F657221
:104160006173655F70616765204661696C64203EBC
:104170002032303020212121206C617374657272ED
:104180006F3A2025640A0000666C6173685F65728F
:104190006173655F706167652069202564206164D3
:1041A000642025780A0000000000FE2F537461632C
:1041B0006B2053756363657373210D0A0000000063
:1041C00040000020537461636B204661696C656434
:1041D000210D0A002DE9F04106460F461546002440
:1041E000EE20F6490870B120487010208870002039
:1041F000C870084606710020487108468771284635
:1042000001F084FC441C22462946EC48C01D01F004
:1042100059FC0021E94AA01D1154FF21E01D115451
:10422000FC21401C1154FF21401C1154401C11540E
:10423000401CC2B2E149E248FFF740F8BDE8F08116
:104240007FB5E0A103C9CDE90201E0A103C9CDE931
:104250000001E0484078401E00EB40004006050E9B
:104260002946DDA002F060F8002410E0281900EBD8
:10427000400303EB0010E24B03EB8000C21C02ABD7
:10428000601C195C0220FFF7A5FF601CC4B2062C5D
:10429000ECDB002411E0281900EB400303EB0010D5
:1042A000D74B03EB800000F11402601C1DF80010D6
:1042B0000220FFF78FFF601CC4B2062CEBDB7FBD32
:1042C00070B506460C461546EE20BC490870B12074
:1042D0004870032088700020C870084606710020CE
:1042E000487108468471C571FF200872FC2048722D
:1042F000FF208872C8720C22B148FEF7DFFF70BD44
:1043000070B5054600241FE0BE48015DBEA2012035
:10431000FFF760FFBD48015DBBA20120FFF75AFF18
:10432000BB48015DB8A20120FFF754FFB948015D09
:104330002A460120FFF7C4FFB748015D2A46012045
:10434000FFF7BEFF601CC4B2062CDDDB70BD10B5EC
:10435000044622462F210220FFF73CFF10BD3EB548
:104360000446AEA207CA8DE807008DF80440214636
:10437000ADA001F0D9FF092269469148FEF79EFFE2
:104380003EBD2DE9F04FC3B09248C078401E00EB0F
:10439000400040064FEA10694FF0060B4FF0000A4C
:1043A000A648007830B9D3460020FFF7A9FF43B0F4
:1043B000BDE8F08FA1480078A0EB090000F0FF0AEB
:1043C000BAF1060F00DAD346002483E109EB0401B9
:1043D0009B4850F82100B0F5FA7F7DD28D48015DF1
:1043E00001221046FFF76CFF8B48015D0122104649
:1043F000FFF766FF09EB040000EB400101EB001042
:104400007F4911F82000DC284AD109EB040000EBB9
:10441000400303EB00100B4603EB800000F1140295
:104420007A48015D0120FFF7D5FE09EB040101EB9D
:10443000410202EB0111724A02EB8101086C01F0AA
:104440003EFC05460E4609EB040101EB410202EB7E
:1044500001116B4A02EB8101C86B01F030FC074689
:10446000884609EB040101EB410202EB0111644AA9
:1044700002EB8101886B01F022FC02460B46CDE97C
:104480000078CDE90256CDE904016EA106A801F03D
:104490005BFF5C48015D06AA0120FFF79BFE45E03B
:1044A00009EB040000EB400101EB0010544911F846
:1044B0002000AC283AD109EB040000EB400303EBE9
:1044C00000100B4603EB800000F114024F48015D21
:1044D0000120FFF77FFE00E04EE009EB040101EB55
:1044E000410202EB0111464A02EB8101C86B01F067
:1044F000E6FB05460E4609EB040101EB410202EB27
:1045000001113F4A02EB8101886B01F0D8FB07469D
:104510003A460B4655A106A8CDE9005601F014FF16
:104520003848015D06AA0120FFF754FE09EB04009C
:1045300000EB400101EB0010314901EB800090F8E5
:10454000440058B909EB040000EB400101EB0010F6
:104550002B4901EB800090F8450030B12C48015DFB
:1045600047A20120FFF736FEB2E02948015D46A2CE
:104570000120FFF72FFEABE02548015D44A201209A
:10458000FFF728FE09EB040000EB400101EB0010EF
:104590001B4911F82000DC287FD109EB040000EB57
:1045A000400303EB00100B4603EB800000F1140204
:1045B0001648015D0120FFF70DFE89E0D46100205F
:1045C00000440040000102030405060000222324E9
:1045D0002526270044000020544654446973706C1B
:1045E00061794E6F64654C697374325365745061C0
:1045F00067206F66667365742025640D0A000000ED
:10460000C40E00204B0000202000000051000020BC
:1046100063000020570000205D000020EEB1000084
:1046200003FFFCFFFF0000006368616E676554468E
:1046300054506167652025640D0A00004900002080
:10464000885A002044433A20252E326620562C20DA
:10465000204348313A20252E326620412C20204329
:1046600048323A20252E32662041000041433A204C
:10467000252E326620562C20252E32662041000041
:10468000D2ECB3A321000000D5FDB3A300000000CD
:10469000D2D1C0EBCFDF2100FFE709EB040000EB34
:1046A000400101EB0010F84911F82000AC280FD1AF
:1046B00009EB040000EB400303EB00100B4603EB97
:1046C000800000F11402F148015D0120FFF782FD36
:1046D000601CC4B25C45FFF679AE00BF67E670B5FA
:1046E00086B06F257926EA48C078401E00EB40006E
:1046F0004006040EE748D0F8FC00007801287DD180
:10470000E448D0F80401007801280DD1E2A001F0BE
:104710000BFEE7A0FFF71BFEFFF792FD0020E54927
:1047200008700220DA490870DA48D0F804010078ED
:1047300002280CD1D748D0F80C0100783038D44981
:10474000C8700846C178DCA001F0EEFD1CE1D1483C
:10475000D0F8040100780B2805D0CE48D0F8040129
:1047600000780C2809D10020FFF7CAFDC648FFF7E2
:1047700008FE0120C649087006E1C648D0F80401C9
:1047800000786E2827DDC348D0F80401007875282A
:1047900021DACFA001F0C8FDBE48D0F810010078A2
:1047A000012101EBC010CF490870BA49D1F80411BA
:1047B00009782144491B01EB410202EB0111B24A85
:1047C00002EB8100C74B01220A21FEF7DBFD01202D
:1047D000AF490870D8E0AF48D0F8040100787828D5
:1047E000B4DDAC48D0F8040100787F28AEDABEA072
:1047F00001F09AFDA748D0F8100100E01BE0007816
:10480000022101EBC010B7490870A249D1F8041188
:1048100009782144891B01EB410202EB01119A4AFC
:1048200002EB8100AF4B01220A21FEF7ABFD012014
:1048300097490870A8E09748D0F8FC000078022853
:1048400076D19448D0F8040100781E2838D008DCCE
:1048500007280FD0102818D011281DD0152868D18E
:1048600021E01F2849D0202858D0212862D035289F
:104870007AD172E08748D0F80C11A04801F05BF9BA
:104880009E499FA001F050FD76E0A4A0FFF75FFDD8
:1048900002207F4908706FE0A2A0FFF758FD0220B8
:1048A0007B49087068E07B48D0F80C01007830380C
:1048B00077494870084641789CA001F035FD5BE0DF
:1048C0009FA001F031FD022071490870AFF2C822AB
:1048D0000821FFF77FFCA0A0FFF739FDDC208DF851
:1048E0000400FF208DF805008DF806007D4B0022A6
:1048F0000C2101A8FEF746FD3EE099A17F4801F09A
:104900000CF938B9AFF20030FFF721FD0320FFF7B3
:1049100026FD02E094A0FFF71AFD2DE098A001F01B
:1049200003FD02205A4908709AA0FFF710FD23E00A
:1049300023E019E09AA001F0F7FC5DA0FFF707FD66
:1049400001205349087000209B49087001205949F3
:1049500008700020FFF7D4FC0EE098A001F0E4FC02
:1049600002204B49087007E04A48D0F8040101785A
:1049700098A001F0D9FC00BF06E04648D0F8FC0042
:1049800001789BA001F0D0FC06B070BD1CB50446B8
:104990003F48847022469BA1684601F0D5FC6946D9
:1049A00099A001F0C1FC6A4616210120FFF712FC14
:1049B0006A4616210220FFF70DFC1CBD10B598A019
:1049C00001F0B2FC9B480078062811DD9948007878
:1049D000062190FBF1F201FB120060B195480078CE
:1049E00090FBF1F0401CC4B22046FFF7CFFF02E07D
:1049F0000120FFF7CBFF10BD0EB58E48027881A1D4
:104A0000684601F0A1FC6A4636210220FFF7E2FB6E
:104A10000EBDF0B589B0054600240026002D01DB4F
:104A2000062D07DD84A001F07FFC8AA0FFF78FFC34
:104A300009B0F0BD16484078401E00EB400040062B
:104A4000060E7C480078062190FBF1F201FB12076C
:104A50002B467848009702783146824801F064FC82
:104A60000B4840780A49897888420BD17EA001F032
:104A70005BFC70196F490978884204DB7EA0FFF760
:104A800066FCD5E72DE1FFE0C40E002051000020B8
:104A900044000020845E0020736574206275747485
:104AA0006F6E20756E446973706C61790D0A000039
:104AB000202000004800002067657420446973705E
:104AC0006C6179506167652066312025640D0A00AC
:104AD000706F77657220636831206368616E676507
:104AE0000D0A000071620020706F776572206368A4
:104AF00032206368616E67650D0A00007D620020E8
:104B0000555345525F434D44202DA1B720696E5047
:104B100075745073772025730D0A0000C9CFD2BB7E
:104B2000D2B30000CFC2D2BBD2B3000067657420FD
:104B3000536574506167652066312025640D0A0055
:104B4000736561726368206E6F646520627574744A
:104B50006F6E0D0A00000000CBD1CBF72E2E0000A7
:104B60003132333435360000C7EBD5FDC8B7CAE45F
:104B7000C8EBC3DCC2EB2C313233343536000000D5
:104B80007265676973746572206E6F6465200D0AC3
:104B900000000000D7A2B2E1BDDAB5E32E2E00007E
:104BA0006261636B20627574746F6E204469737008
:104BB0006C61790D0A0000004A00002064656C6594
:104BC0007465206E6F646520627574746F6E0D0A73
:104BD000000000004E6F7466756E2070616765326C
:104BE00020627574746F6E2025640D0A0000000049
:104BF0004E6F7466756E2053637265656E20256412
:104C00000D0A0000256400007570646174654C69CC
:104C10007374506167652066322025730D0A0000A9
:104C20007570646174654C69737450616765663250
:104C3000200D0A004900002064656C6574654E6FA4
:104C40006465496E666F206661696C64203121205D
:104C50000D0A0000C9BEB4EDCBF7D2FDB4EDCEF322
:104C6000A3A10000BC6C00086672697374207061B7
:104C70006765200D0A000000C7EBD5FDC8B7D1A1BC
:104C8000D4F1CCF5C4BF0000701900EB400101EB7A
:104C90000010FA4901EB8000C21CF9A101A801F043
:104CA00053FB01A8FFF753FB344615E06219521C71
:104CB00002EB420303EB0212F04B03EB8201621999
:104CC00002EB420303EB0212EC4B03EB82004C229B
:104CD00000F0F8FE601CC4B2ED4800788442E5DBC9
:104CE0002BE0701900EB400101EB0010E34901EBF0
:104CF0008000C21CE2A101A801F026FB01A8FFF779
:104D000026FB344615E06219521C02EB420303EB0A
:104D10000212DA4B03EB8201621902EB420303EB4E
:104D20000212D64B03EB82004C2200F0CBFE601C3B
:104D3000C4B2D74800788442E5DBD5480078401EED
:104D4000D349087008460078CC4981F83400FFF751
:104D500077FAFFF751FEFFF731FECE490814FFF74F
:104D600067F944F6B432C549CA48FFF7B3F900BF42
:104D70005EE630B597B0054600240DF11300E968F2
:104D800000F0D9FEE868C11D09A800F0D4FEAFF21A
:104D90003C210DF1130000F0C0FE28B1AFF24C2110
:104DA00009A800F0BAFE30B9BBA0FFF7D0FA4FF067
:104DB000FF3017B030BDB6480078FF280ADDFF226B
:104DC000BAA101A801F0C0FA01A8FFF7C0FA4FF09C
:104DD000FF30EEE717E004EB440000EB0410A74AB5
:104DE00002EB8000C11C0DF1130000F096FE40B9EB
:104DF000B3A001F099FAC0A0FFF7A9FA4FF0FF3075
:104E0000D7E7601CC4B2A24800788442E3DBA04923
:104E1000097801EB410202EB0111984A02EB810192
:104E2000C81C0DF1130100F086FE9949097801EBC9
:104E3000410202EB0111914A02EB810101F11400E0
:104E400009A900F078FE924A127802EB420303EBC4
:104E500002128A4B03EB82018D4A127802EB420365
:104E600003EB0212854B03EB8202D01CFEF7A3FB7F
:104E70008748007800EB400101EB00107F4901EB0F
:104E800080008349097801EB410202EB01117B4A62
:104E900002EB810108617E480078401C7C49087063
:104EA00044F6B4320846017897A001F03DFA002498
:104EB0001FE004EB440000EB0410704901EB80009C
:104EC00000F1140304EB440000EB041001EB80003C
:104ED000C21C214695A001F027FA04EB440101EB26
:104EE0000411664A02EB81000321FEF713FB601CEC
:104EF000C4B2674800788442DBDB97A0FFF727FA4B
:104F0000FFF75CFDFFF778FD614800785B4981F8A9
:104F1000340060490814FFF78BF844F6B43257495F
:104F20005C48FFF7D7F890A001F0FEF9594A44F623
:104F3000B4315248FFF7AAF800241FE004EB440004
:104F400000EB04104D4901EB800000F1140304EB69
:104F5000440000EB041001EB8000C21C214684A039
:104F600001F0E2F904EB440101EB0411434A02EBC6
:104F700081000321FEF7CEFA601CC4B244480078D9
:104F80008442DBDB86A001F0CFF94148007810E7CE
:104F900070B590B0844890F8140100286AD00020C1
:104FA000814981F814010846D0F8F0000078B12852
:104FB00002D0CD285FD10DE07B48D0F8F400007816
:104FC000112804D07848D0F8F400007808B9FFF729
:104FD00086FB65E1022075490870754840680078D5
:104FE000C12805D17248FFF7C4FEFFF729F94EE149
:104FF0006F4840680078C3280DD16D48C0680078BC
:1050000030386A494870084641786AA001F08CF946
:10501000FFF716F93BE1664840680078C42811D1D3
:105020006348C068007830386049C8700846C17865
:1050300069A001F079F90020FFF762F901205B49CE
:10504000087024E15A4840680078C52814D100242B
:10505000292500265648C06804785548C068467817
:105060005348C068811C654800F065FD634B3246BB
:105070002146C5E01AE10BE1D6E00000C40E002095
:10508000D2D1C9BEB3FDBDDAB5E32025730000005F
:105090004900002000D80008BDDAB5E3B5D8D6B77E
:1050A000BBF2C3FBB3C6CEAABFD52100BDDAB5E3C0
:1050B000CAFDB3ACB9FD20256420B8F6210000007C
:1050C000555345525F434D442D2D3E3E20434D44A4
:1050D0005F30784331206964206F72206E616D65A6
:1050E00020616C72656164792072656769737465AB
:1050F000726564210D0A0000BDDAB5E3D2D1BEAD00
:10510000B1BBD7A2B2E121004E6F646520436F7539
:105110006E742025642073697A656F66202564208B
:105120004C6973743A200D0A00000000496420693C
:105130006E6465782025642C204944205B25735DCE
:105140002C204E616D65205B25735D0D0A686578C6
:1051500049443A2000000000BDDAB5E3D7A2B2E12D
:10516000B3C9B9A621000000656E64310D0A0000C4
:105170002D2D2D20496420696E6465782025642CCE
:10518000204944205B25735D2C204E616D65205BBA
:1051900025735D0D0A68657849443A2000000000D7
:1051A000656E64320D0A0000845E00204400002019
:1051B000C4610020555345525F434D44202DA1B793
:1051C000206E6F6465506167654368616E67652036
:1051D0002564200D0A000000555345525F434D449D
:1051E000202DA1B7206469737050616765436861C1
:1051F0006E6765202564200D0A0000007D62002096
:105200005DA001F091F8AFF2A861694800F085FC5B
:1052100028B9601BFFF7FDFBFFF712F803E0AFF2C0
:10522000B860FFF794F832E0624840680078C2281E
:105230002DD161484078401E00EB40004006040E2E
:1052400029265C48C0680078801BC5B2601900EB55
:10525000400101EB0010594901EB800000F11403FB
:10526000601900EB400101EB0010544901EB800094
:10527000C21C53A1684601F067F86A460121032069
:10528000FEF7A8FF694653A001F04EF800BF07E003
:105290005748D0F8F000017856A001F045F800BF5B
:1052A00000BF78215248783000F025FC10B070BD66
:1052B000F0B5A1B006460F4600240025EE20554962
:1052C0000870B1204870112088700020C87008460E
:1052D00006710020487108468771FF210246E01DD3
:1052E0001154FC2104F108001154FF2104F10900BC
:1052F000115404F10A00115404F10B0546A001F009
:1053000013F829464348FEF705F92A46414901A802
:1053100000F0D8FB8DF87D5042480078401CC0B2A8
:10532000404908708DF87C003F48209001A800F0AB
:10533000B6F821B0F0BD10B502210120FFF7B8FF8B
:1053400010BD10B5EE203349087007204870352095
:1053500088705A20C87053200871A5204871FF201A
:105360008871FC20C871FF20087248720A222E48FA
:10537000FDF7A4FF10BD0000555345525F434D4457
:10538000202DA1B720646973705061676544656C16
:105390006574652063686F6F73652025642C2066D3
:1053A000312025642C207073772025730D0A0000AE
:1053B0007D620020C461002044000020C40E002053
:1053C00049443A2025732020204E616D653A2025FE
:1053D00073000000555345525F434D44202DA1B743
:1053E000205345545F4E4F44452025730A0000006A
:1053F000845E002075617274325446545061636B50
:105400002E636D6420756E6B6F776E212025780D8D
:105410000A000000D46100206275696C64203A20A3
:10542000000000006C0000200044004010B5002483
:1054300000BF0BE0324B621C03EBC2111A4602EBB9
:10544000C410802200F03EFB601CC4B22D480088CE
:10545000401EA042EEDC2B480088401E29490880EF
:1054600010BD10B5002427480088012816DD26A0AD
:1054700000F05AFF00BF09E0214800EBC41090F88B
:10548000781024A000F050FF601CC4B21D480088B2
:10549000401EA042F0DC20A000F046FF10BD10B579
:1054A000044618480088142811DA1549154A12884C
:1054B00001EBC2104FF42062214600F003FBFFF71E
:1054C000D0FF10480088401C0E49088008E00C48B6
:1054D00090F87820142111A000F026FFFFF7A6FF16
:1054E00010BD10B507480088002807DD044991F871
:1054F0007920C86FFDF7E2FEFFF798FF10BD0000AE
:10550000A06200206A000020517565756E206964F4
:1055100020000000256420000D0A0000B7A2CBCDBA
:10552000B6D3C1D0D2D1C2FA20256420CCF5B6AA18
:10553000C6FAD7EED4E7B5C4CFFBCFA2206964206A
:1055400025640A0008B501210820FBF7DFFE4FF4AF
:105550004070ADF8000010208DF8030003208DF896
:1055600002006946FC48FBF78FFB4FF44071FA4894
:10557000FBF737FC08BD10B50120F8490860FDF7BE
:1055800041FE0120F649C1F8A001FDF73BFE0020D5
:10559000F24908600120FDF735FE0020F049C1F80E
:1055A000A00110BD10B50020EC4908600120FDF7F6
:1055B00029FE0020EA49C1F8A0010120FDF722FEE2
:1055C0000120E6490860FDF71DFE0120E449C1F80D
:1055D000A00110BD70B5044600251DE004F0800058
:1055E00018B10120DD49086002E00020DB490860B5
:1055F0000120FDF707FE0120D849091F0860FDF7CB
:1056000001FE0020D649C1F8A0010120FDF7FAFDF6
:105610006006040E681CC5B2082DDFDB0120CF49EF
:10562000091F0860FDF7EEFD0020CD49C1F8A0017B
:1056300070BD10B50446FFF79EFF7820FFF7CAFF44
:105640004020FFF7C7FF2046FFF7C4FFFFF7AAFF80
:1056500010BD10B50446FFF78EFF7820FFF7BAFFA4
:105660000020FFF7B7FF2046FFF7B4FFFFF79AFFD0
:1056700010BD70B504460D4605F1B001C8B2FFF784
:10568000E8FF102141EA1410FFF7E3FF04F00F00D8
:10569000FFF7DFFF70BD70B504460D4605F1B001A0
:1056A000C8B2FFF7D6FF102141EA1410FFF7D1FF6F
:1056B00004F00F0141F00100FFF7CBFF70BD70B5A2
:1056C0000646002415E004F1B001C8B2FFF7C1FF9F
:1056D0000020FFF7BEFF1020FFF7BBFF002504E00E
:1056E0003046FFF7A6FF681CC5B2802DF8DB601CB2
:1056F000C4B2082CE7DB70BD2DE9F05F06460F460B
:1057000090461C46DDF828A04FF0000BE11704EB93
:105710005171C910A4EBC10131B92046E11704EB66
:105720005171C1F3C70506E02046E11704EB517142
:10573000C910491CCDB23D4614E029463046FFF75A
:1057400098FFB1460AE059460BF1010B1AF8010027
:10575000FFF76FFF09F1010000F0FF09C145F2DB1F
:10576000681CC5B2A542E8DBBDE8F09F10B500207B
:10577000FFF7A5FF10BD10B58D20FFF76AFF1420BD
:10578000FFF767FFAF20FFF764FF10BD10B58D2056
:10579000FFF75FFF1020FFF75CFFAE20FFF759FF18
:1057A00010BD10B5FFF7CEFE6420FDF739FDAE2029
:1057B000FFF74FFF0020FFF74CFF1020FFF749FFD6
:1057C0004020FFF746FF8120FFF743FFFF20FFF750
:1057D00040FFA020FFF73DFFC020FFF73AFFA620C3
:1057E000FFF737FFA820FFF734FF3F20FFF731FF17
:1057F000D320FFF72EFF0020FFF72BFFD520FFF768
:1058000028FF8020FFF725FFD920FFF722FFF12096
:10581000FFF71FFFDA20FFF71CFF1220FFF719FF29
:10582000DB20FFF716FF4020FFF713FF2020FFF7D4
:1058300010FF0220FFF70DFF8D20FFF70AFF142055
:10584000FFF707FFA420FFF704FFA620FFF701FFE3
:10585000AF20FFF7FEFE0020FFF731FF00210846D2
:10586000FFF707FF10BD2DE9F05F04468946154696
:105870009A464FF0000B00260027BAF1000F01D125
:10588000B04601E04FF0FF0822E0E85D203800F06C
:10589000FF0B7E2C04DD002409F1010000F0FF095C
:1058A00049462046FFF7F7FE00260BE00BEB4B01C5
:1058B0002C4A02EB4101895D81EA0800FFF7B9FE3D
:1058C000701CC6B2062EF1DBA01DC4B2781CC7B294
:1058D000E85D0028D9D1BDE8F09F2DE9F0470546E5
:1058E0000E46174698464FF0000907EB47004FEA6F
:1058F000400AB8F1000F01D1002400E0FF247E2D02
:1059000002DD0025701CC6B231462846FFF7B1FE05
:105910004FF000090CE051460AF1010A124A515CAD
:1059200081EA0400FFF785FE09F1010000F0FF099C
:10593000B9F1060FEFDBBDE8F0872DE9F05F074610
:10594000884691469B4600250024A246BBF1000FE5
:105950000CD100260BE00000000C0140A481214284
:1059600000802142230100206D000020FF2638E046
:1059700019F80A002038C5B2782F04DD002708F195
:10598000010000F0FF0841463846FFF772FE002490
:1059900009E004EB0511474A515C81EA0600FFF774
:1059A00048FE601CC4B2082CF3DB08F10100C1B250
:1059B0003846FFF75EFE00240AE004EB05110831CB
:1059C0003C4A515C81EA0600FFF733FE601CC4B21A
:1059D000082CF2DB07F10800C7B20AF1010000F061
:1059E000FF0A19F80A000028C2D1BDE8F09F2DE98E
:1059F000F04781460F461646984600244FEA481560
:105A000039464846FFF735FE00BF05E0705DFFF7F9
:105A100010FE6D1C601CC4B2102CF7DB781CC1B2E8
:105A20004846FFF726FE002405E0705DFFF701FE03
:105A30006D1C601CC4B2102CF7DBBDE8F0872DE9AB
:105A4000F0470546884616461F46002428074FEAB9
:105A5000106900BF09E009EB0411C8B223463A46B9
:105A60004146FFF7C4FF601CC4B2701C8442F2DBE5
:105A7000BDE8F08708B510480523252201210090D4
:105A80001846FFF739FE3220FDF7CAFB0B48052305
:105A90002522012100901846FFF72EFE3220FDF747
:105AA000BFFB074805232522012100901846FFF778
:105AB00023FE08BD4B0300203B0D0020BB0D002042
:105AC0003B0E002040EA01039B0703D009E008C910
:105AD000121F08C0042AFAD203E011F8013B00F8B3
