:020000040800F2
:10000000D06B00204D010008C1260008C32600085F
:10001000C5260008C7260008C92600080000000001
:10002000000000000000000000000000CB260008D7
:10003000CD26000800000000CF260008D1260008C9
:1000400067010008670100086701000867010008F0
:10005000670100086701000891290008670100088E
:1000600067010008670100086701000867010008D0
:1000700067010008670100086701000867010008C0
:1000800067010008670100086701000867010008B0
:1000900067010008670100086701000867010008A0
:1000A0006701000867010008670100086701000890
:1000B000670100080B2700086701000867010008B6
:1000C0006701000867010008670100086701000870
:1000D00067010008832700088D27000861280008B1
:1000E00067010008D52600086701000867010008BD
:1000F0006701000867010008670100086701000840
:10010000670100086701000867010008670100082F
:1001100067010008670100086127000867010008FF
:10012000670100086701000867010008670100080F
:10013000DFF80CD005F080F900480047872100085F
:10014000D06B002080F30888704700000648804785
:1001500006480047FEE7FEE7FEE7FEE7FEE7FEE7AC
:10016000FEE7FEE7FEE7FEE719020008310100089E
:100170000CB50022019200925248016841F480318E
:1001800001604FF4A063016801F40031009101990E
:10019000491C0191009911B901999942F3D1016863
:1001A000890302D50121009100E000920099012904
:1001B00030D145490A6842F010020A600A6822F00C
:1001C00003020A600A6842F002020A604168416064
:1001D00041684160416841F480614160416821F4B7
:1001E0007C114160416841F4E8114160016841F0CF
:1001F0008071016001688901FCD5416821F003012B
:100200004160416841F0020141604168C1F38101F0
:100210000229FAD10CBDABE710B52A48016841F0BC
:10022000010101604168294A114041600168284A82
:1002300011400160016821F480210160416821F4CE
:10024000FE0141604FF41F018160FFF7E4FF214987
:100250004FF00060086010BD10B51A4A506800F0F9
:100260000C011D4B1D4800290ED004290ED0082971
:100270000ED003605168194AC1F30311121D515C7D
:100280000268CA40026010BD0360F3E70360F1E753
:10029000516801F47011536803F48033022404EBB5
:1002A000914133B153689B0307D50D4B594301600E
:1002B000E0E70B4B59430160DCE7074B5943016012
:1002C000D8E7000000100240002002400000FFF8C4
:1002D000FFFFF6FE08ED00E000127A0000000020AB
:1002E00000093D002A4908432A490860704770B553
:1002F0000F23C27801260178002A1ED0254A1268F1
:1003000002F4E062C2F5E062120AC2F10404D340D2
:100310004578A54082781A402A43120101F1E02174
:1003200081F80024007800F01F018E404009800011
:1003300000F1E020C0F8006170BD01F01F008640B0
:100340004809800000F1E020C0F8806170BD124AC9
:10035000114001430F48001F016070470D4A121DF4
:10036000002903D01168014311607047116881436F
:10037000116070474FF0E021042804D0086920F094
:10038000040008617047086940F004000861704784
:100390000000FA050CED00E080FFFF1F10B5012002
:1003A00000F021FEBDE81040002000F01CBE2049F6
:1003B000086070471E49091F086070471C49843156
:1003C000086070471B4A118821F460710143118055
:1003D0007047184A118821F07F010143118070474E
:1003E00008B5144A2C3A104400900098016008BDEA
:1003F00008B510492C39084400900098008808BDC1
:100400000B489C300068C0B270470A480830018829
:1004100041F00101018070470548A0300068C0B27A
:10042000704704480830018841F00201018070479C
:1004300004860D422C6C0040384900200860091DDC
:100440000860091D0860091D0860344934481431EA
:100450000860704730B5314A83790168002B2AD093
:1004600013688B431360111D0B680468A3430B6072
:10047000017911440B68046823430B60274C08344E
:100480002168036899432160231D19680568A94301
:1004900019604179102905D011440A6800680243A7
:1004A0000A6030BD21680268114321601968006844
:1004B0000143196030BD0079104402688A4302602C
:1004C00030BD0021016001710C22427181717047C1
:1004D000124910310A6802430A6070470146002041
:1004E0000E4A143212680A4200D0012070470B49AC
:1004F00014310860704701460020084A12680A401B
:10050000064B14331B680B4202D0002A00D0012096
:100510007047024914310860704700000004014030
:10052000FFFF0F00FE4A116801F03801014311601E
:100530007047FB490A6822F008020A600A68024311
:100540000A607047F6490A6822F010020A600A68D9
:1005500002430A607047F248F2494160F249416043
:100560007047EF48EF494160EF4941607047EC4800
:10057000016941F0800101617047E948016941F07A
:100580008001016170470420E549CA68D20701D0A3
:1005900001207047CA68520701D502207047C96818
:1005A000C906FBD50320704700B50346FFF7EBFFF4
:1005B00002E0FFF7E8FF5B1E012801D1002BF8D114
:1005C000002B00D1052000BD70B505464FF4302644
:1005D0003046FFF7E9FF042811D1D14C206940F0E3
:1005E000020020616561206940F0400020613046D2
:1005F000FFF7DAFF216941F6FD721140216170BDFC
:1006000030B54FF430252846FFF7CEFF042810D12F
:10061000C34C206940F004002061206940F0400094
:1006200020612846FFF7C0FF216941F6FB721140A7
:10063000216130BD00B50346FFF7A5FF02E0FFF7DB
:10064000A2FF5B1E012801D1002BF8D1002B00D1A5
:10065000052000BD30B54FF430252846FFF7EAFFEE
:10066000042810D1AE4C206940F0040020612069BC
:1006700040F0400020612846FFF7DCFF216941F689
:10068000FB721140216130BD0020A549C96989076D
:1006900000D50120704770B5A525FFF7F5FF00B123
:1006A00000254FF430263046FFF77EFF042818D18E
:1006B0009B4C9C48A0609C48A060206940F02000B2
:1006C0002061206940F0400020613046FFF76CFF58
:1006D00041F6EF76042805D0052802D02169314083
:1006E000216170BD206941F6DF71084020612069F9
:1006F00040F0100020618D4805804FF40050FFF756
:1007000053FF0528EDD021693140216170BD2DE9ED
:10071000F84105460E46002000904FF40057384639
:10072000FFF742FF04280FD17D4C206940F0010003
:1007300020612E80B8464046FFF736FFBF1E0428D2
:1007400004D0216939402161BDE8F881AD1C0095D4
:100750000099300C08804046FFF726FF2169394098
:100760002161F1E7F0B506460D464FF400573846D3
:10077000FFF71AFF04280CD1694C206940F00100F2
:10078000206135803846FFF70FFF2169BA1E1140FE
:100790002161F0BDF0B505460E464FF400573846CE
:1007A000FFF702FF042813D15D4C5E48A0605E484D
:1007B000A060206940F0100020612E803846FFF7CD
:1007C000F3FE052804D0216941F6EF721140216142
:1007D000F0BD2DE9F043C043C4B2C0F30725C0F318
:1007E0000746070E4FF400594846FFF7DDFE042880
:1007F0003CD1DFF82C814B49C8F808104A49C8F8A9
:100800000810D8F8101041F01001C8F81010FF2C93
:1008100005D04648083004804846FFF7C5FE042846
:1008200007D1FF2D05D041480A3005804846FFF723
:10083000BBFE042807D1FF2E05D03C480C300680B3
:100840004846FFF7B1FE042807D1FF2F05D03748EF
:100850000E3007804846FFF7A7FE052806D0D8F8D7
:10086000101041F6EF721140C8F81010BDE8F08387
:1008700070B505464FF430263046FFF795FE042844
:1008800018D1274C2748A0602748A060206940F075
:1008900020002061206940F0400020613046FFF7D1
:1008A00083FE41F6DF71042805D0052802D02269B5
:1008B0000A40226170BD206908402061206940F033
:1008C00010002061194815B10021018001E0A52127
:1008D00001803046FFF768FE0528EBD0216941F61C
:1008E000EF721140216170BD2DE9F04106460D46C1
:1008F00017460B4C0B48A0600B48A0604FF4005803
:100900004046FFF751FE04281DD1206940F0100039
:1009100020613D433543054945F0F800891C07E057
:100920000020024023016745AB89EFCD00F8FF1F8F
:1009300008804046FFF738FE052804D0216941F6BB
:10094000EF7211402161BDE8F0811E48C069800846
:1009500070471C48006A704700201A4909688906D8
:1009600000D501207047174A002903D011690143BF
:100970001161704711698143116170470146002080
:10098000104A012904D0D2680A4200D001207047E1
:10099000D169C907FBD0012070470A49C860704778
:1009A00004200849CA68D20701D001207047CA68EC
:1009B000520701D502207047C968C906FBD503203C
:1009C000704700000020024010B59C49884209D1C0
:1009D0000121042000F0F1FA0021BDE810400420BC
:1009E00000F0EBBA9649884209D10121082000F0B5
:1009F000E4FA0021BDE81040082000F0DEBA914979
:100A0000884209D10121102000F0D7FA0021BDE869
:100A10001040102000F0D1BA8B49884209D1012141
:100A2000202000F0CAFA0021BDE81040202000F08C
:100A3000C4BA8649884209D10121402000F0BDFA9C
:100A40000021BDE81040402000F0B7BA804988423C
:100A500009D10121802000F0B0FA0021BDE810404A
:100A6000802000F0AABA7B4988420AD1841501216E
:100A7000204600F0A2FA2046BDE81040002100F018
:100A80009CBA10BD10B50121084600F096FA00216D
:100A9000BDE81040012000F090BA2DE9F04100229D
:100AA000CC7804F00F03E40601D58C7823430C784E
:100AB0004FF00F0714F0FF0F4FF0010C1CD005682A
:100AC0000CFA02F40E882640A64211D1960007FACD
:100AD00006F825EA080503FA06F848EA0505CE787F
:100AE000282E02D0482E02D002E0446100E00461CA
:100AF000521C082AE4D305600A88FF2A1ED94568DB
:100B0000002202F108060CFA06F40E882640A642DE
:100B100010D1960007FA06F825EA080503FA06F848
:100B200048EA0505CE78282E00D14461CE78482EBB
:100B300000D10461521C082AE3D34560BDE8F0816E
:100B40004FF6FF710180022181700421C17070474E
:100B50000246002092680A4200D001207047806857
:100B600080B2704702460020D2680A4200D00120BD
:100B70007047C06880B2704701617047416170473B
:100B8000002A01D00161704741617047C160704720
:100B900041F480328261816182618169806970473C
:100BA00010B52D4B1A684FF68074224042EA0010AF
:100BB0000843186010BD2949C8617047F0B5264C3C
:100BC000002801DAE36900E06368C0F30346420DE0
:100BD000120185B2C0F301579540032F07D0C2021E
:100BE0000CD50322B240934343F0706209E023F036
:100BF0007062636823F07063636002E0AB4343F0AC
:100C0000706201B12A43002801DAE261F0BD62603E
:100C1000F0BD10B58A07120F0F23934021F0030493
:100C20000D4921448C689C438C608B689040034341
:100C30008B6010BD0949DC31086070470008014035
:100C4000000C014000100140001401400018014058
:100C5000001C014000200140000001400000204233
:100C60000D49086070470C49486070470A49886020
:100C7000704709494AF6AA200860704706494CF6B1
:100C8000CC400860704701460020034AD2680A42FF
:100C900000D00120704700000030004010B5012155
:100CA0000C07204600F094F92046BDE810400021D2
:100CB00000F08EB9214908627047204908617047E9
:100CC0001F4A116821F0E0010143116070471B4980
:100CD000A031086070471A4B1A6822F003020243E1
:100CE0001A601848026842F004020260012905D027
:100CF00020BF016821F004010160704730BFF8E7B0
:100D00000F48016841F004010160016841F00201EF
:100D100001600C48016841F00401016030BF704778
:100D200001460020064A52680A4200D0012070475E
:100D300003490A6842EA80000860704700000E42DA
:100D40000070004010ED00E0B448016841F001017E
:100D500001604168B24A114041600168B14A1140E6
:100D60000160016821F480210160416821F4FE01E5
:100D700041604FF41F0181607047A8490A6822F45E
:100D800080320A600A6822F480220A60B0F5803F4F
:100D900007D0B0F5802F03D1086840F4A020086088
:100DA0007047086840F480300860704703460020B0
:100DB00059099A4A01290AD002290AD0516A03F036
:100DC0001F02012393400B4200D00120704711689D
:100DD000F5E7116AF3E718B5002000904FF4A0641E
:100DE0003120FFF7E3FF0099491C00910099A142CF
:100DF00001D00028F4D03120FFF7D8FF08B101203E
:100E000018BD002018BD854A116821F0F80141EA9B
:100E1000C000106070478449086070477F4B5A6873
:100E200022F47C1208431043586070477E490866DC
:100E300070477A4A516821F00301014351607047BD
:100E40007648406800F00C007047744A516821F001
:100E5000F001014351607047704A516821F4E0612C
:100E60000143516070476D4A516821F4605141EA75
:100E7000C00050607047694A002903D0517A01438D
:100E800051727047517A8143517270476649D83127
:100E900008607047614A516821F440410143516044
:100EA00070475E49002220310A7001F8202901288C
:100EB00005D0042802D1052081F8200070470120C8
:100EC00081F82000704759490860704753490A6A01
:100ED00002430A627047554944390860704710B5AB
:100EE0004E4A516801F00C01514B002927D00429CA
:100EF00027D0082927D00360516801F0F0010909C3
:100F00004C4B5C5C0168E1404160546804F4E0646F
:100F1000240A1C5D21FA04F48460546804F46054CB
:100F2000E40A1B5DD940C160526802F44042920B52
:100F3000404B1B1F9A5CB1FBF2F1016110BD0360D5
:100F4000DAE70360D8E7516801F47011536803F4DD
:100F50008033022404EB914133B153689B0307D5DE
:100F6000354B59430160C7E7334B59430160C3E731
:100F70002F4B59430160BFE7284A002903D051692C
:100F80000143516170475169814351617047234A60
:100F9000002903D0916901439161704791698143B0
:100FA000916170471D4A002903D0D1690143D16185
:100FB0007047D1698143D1617047184A002903D035
:100FC000D1680143D1607047D1688143D1607047D7
:100FD000124A002903D01169014311617047116958
:100FE00081431161704711494039086070470E49CB
:100FF000C86470470949C87170470848416A41F0A0
:1010000080714162704701460020044A92680A429A
:1010100000D00120704701498872704700100240DB
:101020000000FFF8FFFFF6FE00004242800442424B
:1010300000127A001800002000093D00434A0029F0
:1010400003D01188014311807047118881431180BA
:1010500070473E48001D018841F010010180704733
:101060003A48001D018821F010010180704737487F
:101070001C30008835491831098840EA0140704722
:1010800000B50246FFF7E5FF3049100C1831088023
:10109000081D02805DF804EBE2E700B50246FFF7A9
:1010A000D8FF2A49C2F3034008310880081D028096
:1010B0005DF804EBD4E700B50246FFF7CAFF234909
:1010C000100C20310880081D02805DF804EBC7E792
:1010D0001E48103000880007010B1C48143000889F
:1010E000084370471948001D01888906FCD57047E0
:1010F0001648001D018821F00801018001880907B8
:10110000FCD5704701460020104A121D12880A4281
:1011100000D0012070470D49091D0A8882430A80CA
:1011200070470A49091D0988C2B21140074A12884E
:10113000024202D009B101207047002070470349E4
:10114000091D0A8882430A80704700000028004079
:1011500010B5FE4988420AD1C41401212046FFF788
:101160002CFF2046BDE810400021FFF726BFB0F15C
:10117000804F0CD0F649884213D101210220FFF79D
:1011800027FF0021BDE810400220FFF721BF012109
:101190000846FFF71DFF0021BDE810400120FFF7C2
:1011A00017BFEC49884209D101210420FFF710FF45
:1011B0000021BDE810400420FFF70ABFE64988423D
:1011C00009D101210820FFF703FF0021BDE81040ED
:1011D0000820FFF7FDBEE149884209D10121102016
:1011E000FFF7F6FE0021BDE810401020FFF7F0BE2B
:1011F000DB49884209D101212020FFF7E9FE0021C7
:10120000BDE810402020FFF7E3BED64988420AD14E
:10121000441401212046FFF7D0FE2046BDE81040CF
:101220000021FFF7CABED04988420AD10121CC046F
:101230002046FFF7C2FE2046BDE810400021FFF720
:10124000BCBECA4988420AD101210C052046FFF7DD
:10125000B4FE2046BDE810400021FFF7AEBEC449F1
:1012600088420AD101214C052046FFF7A6FE204600
:10127000BDE810400021FFF7A0BEBE49884209D159
:1012800001214020FFF7A4FE0021BDE810404020CE
:10129000FFF79EBEB849884209D101218020FFF79F
:1012A00097FE0021BDE810408020FFF791BEB349B2
:1012B00088420AD1841501212046FFF789FE204685
:1012C000BDE810400021FFF783BEAD4988420AD136
:1012D00001210C042046FFF770FE2046BDE81040B7
:1012E0000021FFF76ABEA74988420AD101214C04B8
:1012F0002046FFF762FE2046BDE810400021FFF7C0
:101300005CBEA14988420AD101218C042046FFF726
:1013100054FE2046BDE810400021FFF74EBE10BD30
:1013200030B50288894C8F4DA0420DD0A8420BD019
:10133000B0F1804F08D0864B984205D0854B98423B
:1013400002D0854B984203D122F070034A881A4399
:10135000824B984206D0824B984203D022F44073CD
:10136000CA881A4302808A8882850A880285A04238
:101370000AD0A84208D0824A904205D0814A9042C1
:1013800002D0814A904201D1097A018601218182ED
:1013900030BD30B5028C22F001020284028C8388B9
:1013A000048B24F0700424F003050C882C4322F0F5
:1013B00002020D8915434A882A43644DA8420BD086
:1013C000684DA84208D06E4DA84205D06D4DA84288
:1013D00002D06D4DA8420FD122F008054A892A4358
:1013E00022F004058A882A4323F4807323F40073CF
:1013F0008D891D43CB892B4383800483C9888186D3
:10140000028430BD70B5028C22F010020284028C7E
:101410008388048B24F4E04424F440760D884FF64E
:10142000FF7404EA0525354322F020020E8904EA00
:10143000061616434A8804EA02123243434EB0426B
:1014400002D0484EB04217D122F080024E8904EA01
:101450000616164326F040068A8804EA0212324332
:1014600023F4806323F400638E8904EA86061E4316
:10147000CB8904EA8303334383800583C9880187CA
:10148000028470BD70B5028C22F480720284028CDA
:101490008388848B24F0700424F003040D88254392
:1014A00022F400720E894FF6FF7404EA06261643F2
:1014B0004A8804EA02223243244EB04202D0294E26
:1014C000B04217D122F400664A8904EA022232436C
:1014D00022F480668A8804EA0222324323F480538D
:1014E00023F400538E8904EA06161E43CB8904EACE
:1014F0000313334383808583C9888187028470BD49
:1015000070B5028C22F480520284058C8288838B11
:1015100023F4E04323F440760C884FF6FF7303EA8C
:101520000424344325F400550E8903EA06362E437D
:101530004D8803EA05353543044EB04202D0094ECA
:10154000B04226D122F480468A891FE0002C014057
:101550000004004000080040000C00400010004063
:101560000014004000340140004C01400050014094
:101570000054014000180040001C004000200040C2
:1015800000400140004401400048014003EA82124B
:10159000324382808483C988A0F84010058470BDDE
:1015A000828B22F440628283828B4FF6FF7303EAC0
:1015B00001210A4382837047F0B5048C24F48054DF
:1015C0000484868B048C4FF6FF7505EA013726F4F8
:1015D000734605EA0222324305EA03331343F74A0E
:1015E00090420ED0F64A90420BD0B0F1804F08D016
:1015F000F44A904205D0F44A904202D0F34A904215
:1016000005D124F40051394341F4805104E024F41D
:1016100002420A4342F4805183830184F0BD828BED
:1016200022F00C028283828B0A4382837047F0B5DA
:10163000048C24F480740484858B048C4FF6FF772B
:1016400007EA012625F0F30507EA031313432B43AA
:10165000DA4A90420ED0DA4A90420BD0B0F1804F75
:1016600008D0D84A904205D0D74A904202D0D74AF3
:10167000904205D124F40071314341F4807104E0BB
:1016800024F420620A4342F4807183830184F0BD14
:10169000028B22F440620283028B4FF6FF7303EA4F
:1016A00001210A4302837047F0B5048C24F0100432
:1016B0000484068B048C4FF6FF7505EA011726F4A7
:1016C000734605EA0333334305EA02221A43BB4B50
:1016D00098420ED0BA4B98420BD0B0F1804F08D050
:1016E000B84B984205D0B84B984202D0B74B9842BD
:1016F00005D124F02001394341F0100104E024F029
:10170000A0030B4343F0100102830184F0BD028B60
:1017100022F00C020283028B0A430283704770B5E9
:10172000048C24F001040484058B048C25F0F3055B
:101730004FF6FF7606EA031313432B439F4A90426A
:101740000ED09F4A90420BD0B0F1804F08D09D4AF6
:10175000904205D09C4A904202D09C4A904205D1CA
:1017600024F002020A4342F0010104E024F00A02DC
:101770000A4342F001010383018470BD70B5054640
:101780000C468E48854209D08D48854206D0B5F179
:10179000804F03D08B48854200D08B4820886188D9
:1017A000A288238958B1042811D0082817D02846C8
:1017B000FFF702FFE1882846BDE87040F0E62846C2
:1017C000FFF7ADFFE1882846BDE870409FE7284657
:1017D000FFF76AFFE1882846BDE8704058E72846D1
:1017E000FFF725FFE1882846BDE8704017E72DE99F
:1017F000F04107460C46002501266188002900D1EA
:101800000225A288012A00D102262088238988B1D6
:101810003846FFF749FFE1883846FFF739FF23894B
:10182000324629463846FFF77AFFE1883846BDE858
:10183000F0416CE73846FFF772FFE1883846FFF762
:1018400066FF2389324629463846FFF72DFFE18897
:101850003846BDE8F0411BE710B50A884B88CC88B4
:101860001A438B8823431A430B891A434B8989896E
:101870001A430A43A0F8442010BD4FF6FF7181803F
:1018800000210180C18041800172704700210180E8
:1018900041808180C180018141818181C181704706
:1018A00000210180418001228280C1800181704736
:1018B0000021018041808180C1800181418181813D
:1018C0007047002904D0018841F001010180704770
:1018D000018821F0010101807047002905D030F80E
:1018E000441F41F400410180704730F8441FC1F3A8
:1018F0000E0101807047002A03D082890A43828149
:10190000704782898A438281704781827047114380
:10191000A0F848107047002A03D082890A438281C8
:10192000704782898A4382817047018921F00701CB
:1019300001817047028922F070020A4302817047D8
:1019400000B503461846FFF7F5FF188940F0070079
:10195000188100BD70B50D4604461146602D0CD0AF
:1019600001222046FFF7DBFE29462046FFF7E2FF73
:10197000208940F00700208170BD01222046FFF73A
:1019800093FEF1E730B50489E4B24FF6FF7505EA3E
:10199000032313430B432343038130BD10B5044697
:1019A0002046FFF7EFFF208920F0070040F00700F6
:1019B00020F0700040F07000208110BD002C01402C
:1019C000003401400004004000080040000C0040CA
:1019D00010B504462046FFF7D5FF208940F480402B
:1019E0002081EAE7018582827047028822F0700236
:1019F0000A430280704770B50589048B068C25F078
:101A000007050D434FF6FC410C4040F201110C4319
:101A100026F022064FF6FF7101EA0311114331430C
:101A200005810483018470BD028B22F070020A4399
:101A300002837047028B22F4E0424FF6FF7303EA01
:101A40000121114301837047828B22F070020A4307
:101A500082837047828B22F4E0424FF6FF7303EAE1
:101A60000121114381837047002904D0018841F08E
:101A7000800101807047018821F08001018070475A
:101A8000002904D0818841F0040181807047818859
:101A900021F0040181807047002904D0818841F041
:101AA000080181807047818821F00801818070479A
:101AB000002904D0818841F001018180704781882C
:101AC00021F0010181807047028B22F008020A4355
:101AD00002837047028B22F400624FF6FF7303EA21
:101AE0000121114301837047828B22F008020A43CF
:101AF00082837047828B22F400624FF6FF7303EA01
:101B00000121114381837047028B22F004020A43B2
:101B100002837047028B22F480624FF6FF7303EA60
:101B20000121114301837047828B22F004020A4392
:101B300082837047828B22F480624FF6FF7303EA40
:101B40000121114381837047028B22F080020A43F6
:101B500002837047028BC2F30E024FF6FF7303EA53
:101B60000121114301837047828B22F080020A43D6
:101B700082837047828BC2F30E024FF6FF7303EA33
:101B80000121114381837047028C22F002020A4333
:101B900002847047028C22F008020A4302847047D4
:101BA000028C22F020024FF6FF7303EA0111114369
:101BB00001847047028C22F080024FF6FF7303EA23
:101BC0000111114301847047028C22F400724FF618
:101BD000FF7303EA0121114301847047028C22F450
:101BE00000624FF6FF7303EA01211143018470473D
:101BF000028C22F400524FF6FF7303EA01311143C5
:101C00000184704710B501238B40048C9C430484ED
:101C1000038C8A4013430384CFE610B504238B4022
:101C2000048C9C430484038C8A4013430384C4E6DD
:101C300030B500F1180301248C40058CA5430584C0
:101C4000002911D008290FD0091FC1F34E001844F4
:101C5000016821F4E041016001684FF6FF7303EA77
:101C600002221143016030BD03EB5100016821F0F5
:101C70007001016001681143016030BD002904D08A
:101C8000018841F0020101807047018821F00201C2
:101C900001807047002904D0018841F004010180CF
:101CA0007047018821F0040101807047002904D0A9
:101CB000818841F0800181807047818821F0800116
:101CC00081807047028822F00802028002880A435D
:101CD00002807047828822F07002828082880A43E4
:101CE00082807047028922F00702028102890A433A
:101CF00002817047028922F08002028102890A4330
:101D00000281704781847047818570478186704762
:101D10000187704781877047A0F84010704702889C
:101D200022F44072028002880A4302807047808E4B
:101D30007047008F7047808F7047B0F84000704741
:101D4000808C7047008D704702460020128A0A423C
:101D500000D001207047C94301827047024600202D
:101D6000138A0B4092890A40002B02D0002A00D02F
:101D700001207047C94301827047000010B5E14956
:101D800088420AD101218C032046FFF716F920462C
:101D9000BDE810400021FFF710B9DB4988420AD1A5
:101DA00001214C042046FFF713F92046BDE81040FE
:101DB0000021FFF70DB9D54988420AD101218C04D1
:101DC0002046FFF705F92046BDE810400021FFF747
:101DD000FFB8CF4988420AD10121CC042046FFF741
:101DE000F7F82046BDE810400021FFF7F1B8C949D7
:101DF00088420AD101210C052046FFF7E9F8204668
:101E0000BDE810400021FFF7E3B810BD30B585B044
:101E100004460D46208A4CF6FF710840E9880143CC
:101E20002182A0894EF6F3110840A9882A8911431E
:101E30006A8902431143A181A08A4FF6FF410840FD
:101E4000A9890143A1826846FFF749F8AD48844259
:101E500001D1039800E00298A189090408D500EB9C
:101E6000C00101EB001029684900B0FBF1F007E068
:101E700000EBC00101EB001029688900B0FBF1F014
:101E80006422B0FBF2F109010B096FF018056B43F6
:101E900000EB8300A3891D044FF0320307D503EB49
:101EA000C000B0FBF2F000F00700084306E003EBCF
:101EB0000010B0FBF2F000F00F000843208105B0E5
:101EC00030BD4FF41651016000218180C180018135
:101ED0000C2242818181704710B5038A4FF2FF02C4
:101EE00013400A884C8822438C88C9880C432243BB
:101EF0001A43028210BD0021018041808180C1808F
:101F00007047002904D0818941F4005181817047D4
:101F1000818921F400518181704710B540F66A1320
:101F2000C1F3421301F01F040121A140012B07D08E
:101F3000022B07D014303AB102680A43026010BD88
:101F40000C30F8E71030F6E702688A43026010BDF3
:101F5000002A03D0828A0A4382827047828A8A4397
:101F600082827047028A22F00F020282028A0A43AA
:101F700002827047828922F40062828182890A4348
:101F800082817047002904D0818941F0020181815A
:101F90007047818921F0020181817047028A22F015
:101FA00020020282028A0A4302827047002904D07A
:101FB000018A41F4804101827047018A21F4804105
:101FC00001827047C1F30801818070478088C0F3A7
:101FD00008007047818941F0010181817047028BBF
:101FE000D2B20283028B42EA012101837047028B45
:101FF00002F47F420283028B0A4302837047002966
:1020000004D0818A41F0200181827047818A21F0C9
:10201000200181827047002904D0818A41F010019B
:1020200081827047818A21F01001818270470029E6
:1020300004D0818A41F0080181827047818A21F0B1
:10204000080181827047002904D0818941F4004150
:10205000818170478189C1F30E0181817047002918
:1020600004D0818A41F4006181827047818A21F421
:10207000006181827047828A22F004028282828A11
:102080000A4382827047002904D0818A41F002010C
:1020900081827047818A21F0020181827047024665
:1020A000002012880A4200D0012070478A05C943E7
:1020B0000180704770B5002440F66A12C1F34213E4
:1020C00001F01F05012606FA05F2012B0CD0022BA8
:1020D0000DD0838A1340090A8E40008830400BB12E
:1020E00000B10124204670BD83891340F3E7038AC1
:1020F0001340F0E740F66A120A0A01219140C943F1
:102100000180704700380140004400400048004012
:10211000004C00400050004030B4404901F17700CD
:1021200001604A1C42608B1C8360CC1CC4600D1D86
:1021300005614D1D45618D1D8561CD1DC561D51D97
:1021400005623748016042608360C460354901F12F
:10215000FF000160491C4160491C8160891C81614C
:10216000491C0161C1680831C160A0F1F8014161F9
:102170002D49012008704870C87030BC40F20C41F5
:102180002A4802F0D4BD4FF4E01000F0B4F800F09B
:10219000E8F800F092F902F0B5F925A003F0C8F9CB
:1021A0004FF4FA6000F093FC00F040F900F02FFAD1
:1021B00002F041FCFFF7B0FF0221012002F06EF9AE
:1021C0001521022002F06AF91F4A44F6B4311F4873
:1021D00001F042FA1D4D1E4E95F834003070002477
:1021E0000EE004EB440000EB041005EB800202F16A
:1021F0001403D21C214617A003F09AF9641CE4B220
:1022000030788442EDD301F03CFE01F01EFE02F076
:1022100099F800F0DEFE01F02AF9F8E7495A0020AB
:10222000885D0020ED5B002044000020C4550020A4
:102230000D0A4D617374657220526562626F74217C
:102240000D0A0D0A0000000000D80008100A002046
:10225000430000207265676973746572643A2049AF
:102260006420696E6465782025642C204944205BD5
:1022700025735D2C204E616D65205B25735D0D0A15
:1022800068657849443A20007CB5054600200190F5
:102290000090FEF759FD4FF480342046FEF76DFDA7
:1022A000FEF799FD00900098012800D0FEE710206D
:1022B000FEF748F90220FEF735F90020FEF7C5FDCC
:1022C0000020FEF7D0FD4FF48060FEF7C5FD2946E3
:1022D0002046FEF7A3FD0120FEF7A8FD3920FEF7FA
:1022E00065FD0028FAD00220FEF7A3FDFEF7A8FD49
:1022F0000828FBD17CBD38B5044600220092FEF7C9
:1023000023FD0120FEF787FDE54A126802F0020274
:102310000092009A022A00D0FEE71020FEF712F980
:102320000220FEF7FFF80020FEF78FFD0020FEF7E9
:102330009AFD4FF48060FEF78FFD21460020FEF7E6
:102340006DFD0120FEF772FD3920FEF72FFD0028FC
:10235000FAD00220FEF76DFDFEF772FD0828FBD1D2
:1023600038BD10B501211020FEF711FE0121082013
:10237000FEF70DFE01210846FEF709FE01210420AB
:10238000FEF705FE01218803FEF701FE0121480446
:10239000FEF708FE0121BDE810408804FEF702BEEA
:1023A0002DE9FE434FF40070ADF8080003258DF8C9
:1023B0000A5018268DF80B60DFF8E88202A9404623
:1023C000FEF76BFB4FF48067ADF8087004248DF8BE
:1023D0000B4002A94046FEF760FBADF804408DF8C3
:1023E00006508DF8076001A94046FEF756FB08200D
:1023F000ADF804008DF8074001A94046FEF74DFBFB
:10240000ADF800708DF802508DF80360A64D694656
:102410002846FEF742FB6102ADF800108DF803403C
:1024200069462846FEF739FBBDE8FE832DE9FF41EA
:102430004FF4C0673846FDF755FF1D208DF80C009E
:1024400000258DF80D5002268DF80E6001248DF8C0
:102450000F4003A8FDF74BFF3846FDF743FF25204B
:102460008DF808008DF8095003208DF80A008DF8CA
:102470000B4002A8FDF73BFF3846FDF733FF26204F
:102480008DF804008DF805508DF806608DF8074032
:1024900001A8FDF72CFF3846FDF724FF27208DF813
:1024A00000008DF801508DF802408DF80340684619
:1024B000FDF71DFFBDE8FF8170472DE9F0418CB0AD
:1024C000FFF76EFF4FF4E13608960024ADF8244084
:1024D000ADF82640ADF82840ADF82C400C25ADF8FD
:1024E0002A50DFF8C88108A94046FFF78FFC40F268
:1024F0002557012239464046FFF70FFD012140468E
:10250000FFF7FFFC0496ADF81440ADF81640ADF8A7
:102510001840ADF81C40ADF81A50DFF8948104A9BA
:102520004046FFF773FC012239464046FFF7F5FCB1
:1025300001214046FFF7E5FC40214046FFF7B6FD8C
:102540000096ADF80440ADF80640ADF80840ADF88F
:102550000C40ADF80A50574C69462046FFF756FC30
:10256000012239462046FFF7D8FC01212046FFF71B
:10257000C8FC40212046FFF799FD0CB0BDE8F08172
:102580003EB54FF47A70ADF804000720ADF80000B6
:102590000020ADF80600ADF802008DF80800464CAA
:1025A00069462046FEF7BCFE01212046FFF7D3FB1B
:1025B000012211462046FFF79EF901212046FFF730
:1025C00080F93EBD10B50120FEF774FBFDF7E6FE75
:1025D0000120FEF778FC6120FEF7E8FB0028FAD026
:1025E0004FF40070FEF772FC0120FEF774FCFEF75A
:1025F0007FFD49F64040FEF750FDFEF773FD0121D7
:102600000220FEF71BFDBDE81040FEF76BBD3EB596
:1026100001210220FEF7C6FC41F61F40ADF8000084
:102620000020ADF802006321ADF80410ADF80600FB
:10263000224C69462046FEF773FE012211462046D1
:10264000FFF759F901212046FFF73BF93EBD10B5D0
:10265000044601210807FEF7A5FCFEF71FFB45F223
:102660005550FEF7FDFA04EB8400C0F35B04E0B2C2
:10267000FEF7F9FAA0B2FEF7F9FABDE81040FEF74E
:10268000FDBA70B50446094DE1B22846FFF79AFC41
:1026900040212846FFF703FD0028F9D0204670BDF1
:1026A0000010024000080140000C014000380140C9
:1026B000004400400048004000100040000400407A
:1026C0007047FEE7FEE7FEE7FEE77047704770479A
:1026D00000F0EAB910B50220FEF723FD002813D060
:1026E0004FF40030FDF715FF0120FEF719FB10B184
:1026F0000120FEF71DFBFEF7F5FC0220FEF71FFD93
:10270000BDE81040FEF7EEBC10BD70B5A64C01212F
:102710002046FFF723FBE8B101212046FFF72AFB03
:10272000A24B18680A30186058680A3058609868D8
:102730000A309860D8680A30D86000219C48057833
:1027400006E003EB81021069401C1061491CC9B20C
:10275000A942F6D32046BDE870400121FFF70ABB2D
:1027600010B5944C01212046FFF7F8FA18B1012169
:102770002046FFF7FFFA2046BDE810400121FFF791
:10278000F9BA40F225518C48FFF794BC2DE9F0418D
:102790008A4D40F225512846FFF78CFC00285DD079
:1027A0002846FFF713FC864C94F81611605494F8F1
:1027B000161111B92078EE2850D1491CC9B284F8FD
:1027C00016117F480126401E7E4F085CFF2805D168
:1027D00094F8180110B9796084F8186194F8180118
:1027E000012817D17A68881A032813D1A05CFC2825
:1027F00006D1A1184878FF2802D18878FF2815D083
:1028000071A002F095FE002684F81461284600F0BD
:10281000D6F97E6094F8160178281FD36FA002F0D5
:1028200087FE2846BDE8F04100F0C9B96FA002F06C
:102830007FFE04F58A746248A17800F09AFA604A33
:10284000A17802F1780000F073F9A078E0702670AA
:10285000A4F58A74284600F0B2F9DBE7BDE8F08100
:102860002DE9F041654E40F225513046FFF722FC3C
:1028700000287DD0624C012584F821523046FFF7B4
:10288000A5FB94F82212605494F8221211B9207812
:10289000A528E3D1491CC9B284F82212012916D90E
:1028A00060785A2813D057A002F042FE00235BA2A2
:1028B0000121184602F021F902230022194650484E
:1028C00000F068FA3046BDE8F04100F078B9092917
:1028D00048D3207A0930814244D1494A02F1FF00AD
:1028E000074600F019F950A002F022FE354A11788F
:1028F000481C10700320B1FBF0F200FB121121B153
:10290000012912D002291FD117E002F07CF8002320
:1029100049A21946012002F0F0F8012394F822128E
:102920001A46374800F036FA0EE094F822120323D4
:102930000122334800F02EFA06E094F82212052313
:1029400001222F4800F026FA94F82212384600F0AF
:1029500010FA94F8220284F82302304600F02FF98E
:1029600084F8205294F8220278280DD335A000E094
:102970000DE002F0DDFD002336A20121184602F031
:10298000BCF8304600F01BF9002084F8210265E70E
:1029900010B50120FDF7AFFD012803D1BDE81040BF
:1029A000FDF7B7BD10BD000000040040C455002075
:1029B0004300002000100040003801400044004067
:1029C000D05900202800002052656369766554467E
:1029D00054206572726F200D0A00000064617461FA
:1029E000206F7665726C656E670D0A0052656369CB
:1029F00076655446543A200D0A0000000048004015
:102A0000EC5A00202D2D55617274335F49535220CA
:102A10006461746120657272200D0A0064617461E2
:102A200020657272202020004D61737465722052FF
:102A300065636976653A20005265636976653A2078
:102A40002020000044617461206F7665724C656ED1
:102A500074680A006F7665724C656E746820202079
:102A600000000000284829490068B0FBF1F0B0F1EF
:102A7000807F01D301200DE020F07F414FF0E02066
:102A8000491E4161224AF021117000218161072114
:102A900001610020002800D0FEE770471D49086052
:102AA00008680028FCD170471A480168002902D044
:102AB0000168491E01607047002204E00921491E97
:102AC0004B1CFCD1521C8242F8D37047704742F233
:102AD000283148434FF0E021486100238B610120F9
:102AE00008610869C20701D0C003FAD50B618B6188
:102AF0007047002204E00921491E4B1CFCD1521CE6
:102B00008242F8D37047000000000020A086010038
:102B100023ED00E03000002010B5002303E0D45C7A
:102B2000C4545B1CDBB28B42F9D30022425410BD6B
:102B300010B5002303E0D45CC4545B1CDBB28B42B1
:102B4000F9D30022425410BD2DE9F04180460D46D4
:102B50001646464F0120C7F8A00100240CE015F8E6
:102B6000011B4046FFF72EFA80214046FFF797FAF7
:102B70000028F9D0641CE4B2B442F0D30020C7F8B6
:102B8000A001BDE8F0812DE9F04107460D46284639
:102B900002F0D8F8064600240EE0295D34A002F0C9
:102BA000C7FC295D3846FFF70DFA40213846FFF78C
:102BB00076FA0028F9D0641CB442EEDBE1E770B588
:102BC00006462C48002486420BD12B4D2C706C708D
:102BD0007821A5F2151002F0AAF8EC7027A002F0F7
:102BE000A7FC2C4886420DD12348C01D80F8214205
:102BF00080F82242FF2102F09AF8BDE8704026A03A
:102C000002F096BC70BD70B51546294C5A22227050
:102C1000A52262700278A2704278E27080782071FA
:102C200000206071A171E07125722A46194604F1F5
:102C3000090002F063F805F10900C1B2204600F076
:102C40008BF8611948721BA002F072FC05F10A01B1
:102C50000C46174800F08DF86420FFF738FFE2B209
:102C6000BDE8704012490B486EE7000000002142A9
:102C70002563000000440040E55A0020726573653A
:102C8000742075617274325446545061636B0D0A3E
:102C90000000000000480040726573657420756193
:102CA0007274335F3438355061636B0D0A00000075
:102CB000105D00206275696C642075333A20000055
:102CC0002DE9F04180460E4617460025002407E016
:102CD00058F82420701979A102F03AFC0835641CD8
:102CE000BC42F5DB002006F83700BDE8F0812DE995
:102CF000F04705460024734FA146C7F88C91DFF8D2
:102D0000C8810820C8F80000FFF7D6FE0126E807B2
:102D100002D0C7F88C6101E0C7F88C91D8F80000A8
:102D2000FFF7CAFE6D08641CE4B2082CEFD3C7F8A5
:102D30008C61D8F80000BDE8F047FFF7BDBE70B564
:102D400005460E46002404E0285DFFF7D0FF641C12
:102D5000E4B2B442F8D370BD10B50346002200209F
:102D600004E09C5C2044C0B2521CD2B28A42F8D328
:102D700010BD70B505460E46002404E0295D53A041
:102D800002F0D6FB641CB442F8D3BDE8704051A0F9
:102D900002F0CEBB2DE9F0439FB007460D469046AA
:102DA00099463C2D00D93C2500246E4606E03A5D4C
:102DB00006EB440048A102F0CBFB641CAC42F6D306
:102DC000002006F8150000236A464946404601F0F7
:102DD00094FE1FB0BDE8F08370B50023002407E027
:102DE000C55CCE5CB54209D1641CE4B25B1CDBB2AD
:102DF0009342F5D3944207D1002070BD14B1641CF6
:102E0000E0B270BD012070BDFF2070BD2DE9F84318
:102E100005460F46284601F095FF0024C10705D05E
:102E20002FA002F085FB601EBDE8F88300EBD07098
:102E300046104FF0000811E015F814008DF800005E
:102E400005EB440040788DF801008DF802801022D7
:102E50000021684601F094FF3855641CB442EBDB56
:102E60003046E1E73EB5054600242348016800915D
:102E7000001D02680192001D036802931FA002F06A
:102E800057FB032229466846FFF71AFF294621A06F
:102E900002F04EFB6B46234A0DE053F82400010E6E
:102EA00002F8241002EB8401050C4D70050A8D70A8
:102EB000C870641CE4B2032CEFD33EBD25303878D3
:102EC00000000000008021423400002025303258EC
:102ED000200000000A0000002530325800000000E9
:102EE000496E76616C696420696E707574206C65DA
:102EF0006E6774680A000000E8F7FF1F4368697096
:102F00004964203D25237820252378202523780A2D
:102F1000000000004368697049645374723A2025C8
:102F2000730A0000985D002090F84410002902D137
:102F300090F8450008B1012070470020704770B537
:102F400094B00125FA4E05EB450000EB051006EBA9
:102F500080014C2201A801F0D1FE6C1E0BE011464D
:102F6000601C00EB400202EB001006EB80004C22DC
:102F700001F0C4FE641E002C1BDB04EB440000EBDC
:102F8000041006EB80021046FFF7CEFF034601A8AF
:102F9000FFF7CAFF8342E2DB1046FFF7C5FF034697
:102FA00001A8FFF7C1FF834203D1D068049988428A
:102FB000D5D8641C04EB440000EB041006EB800041
:102FC0004C2201A901F09AFE6D1CFF2DBBDB14B051
:102FD00070BD2DE9F04F9FB0D64D95F82002002826
:102FE00019D0002085F82002D5F81802017805F1E3
:102FF000FF001E900A2911D0CF4ECD4F0B2959D07A
:103000000C2912D00E297CD0CCA002F091FAFF211D
:103010001E9801F08CFE1FB0BDE8F08FD5F81402A9
:103020000178CEA002F084FAF1E705F5007530785A
:10303000296800EB400303EB00100A7807F8202012
:103040006A6807EB800012784270AA68CC4C12784C
:1030500023781A44827000610A78CAA1684602F097
:1030600077FA6868C7A1E84602780DF1020002F01D
:103070006FFAA868217800784218C2A108F104000C
:1030800002F066FA6A460821022000F06BFB3078F5
:1030900000EB400101EB001007EB80006946C268BD
:1030A000BAA002F045FA2078401C2070BEA000F0C3
:1030B00007FCACE70024BFA002F03AFA0321D5F8E0
:1030C0000002FFF756FE0DE004EB440000EB041095
:1030D00007EB80000322D5F80012FFF77DFE28B130
:1030E000641CE4B23078401C8442EDD330788442D2
:1030F00008D3B7A002F01CFAFF211E9801F017FEBA
:1031000089E7ABE1D5F80002DFF8D4A2DFF8D4B24A
:103110000078DFF8D482AC2802D0DC287FD0FEE033
:10312000D5F8149299F8000099F80110000440EACB
:10313000012099F80210084301F0CCFE52465B468C
:1031400001F056FE01F0E6FE064604EB440000EBFB
:10315000041007EB8005AE6399F8040099F803109A
:1031600040EA012001F0B6FE52465B4601F040FE07
:1031700001F0D0FEE86328649C493144B1F59C0F0E
:1031800002D89B4988421BDD012685F8446099A03E
:1031900002F0CEF9DFF8709289F8006028464B46BD
:1031A00001220A21FFF72FFD6420FFF790FC022087
:1031B00089F8000028464B4601220A21FFF723FD2B
:1031C00098F8000000EB400101EB001007EB8000D5
:1031D000806B01F08CFE02460B468CA002F0A8F931
:1031E00098F8000000EB400101EB001007EB8000B5
:1031F000C06B01F07CFE02460B4687A002F098F9F6
:1032000098F8000000EB400101EB001007EB800094
:1032100090F8441082A002F08BF980E0FFE7D5F827
:1032200014526878297840EA012001F053FE524692
:103230005B4601F0DDFD01F06DFE04EB440101EBA6
:10324000041107EB810646F8380FE878A97840EAC0
:10325000012001F03FFE52465B4601F0C9FD01F03E
:1032600059FE70606879297940EA012001F032FE48
:1032700052465B4601F0BCFD01F04CFEB060A879FF
:103280003073E879707398F8000000EB400101EBAF
:10329000001007EB8000806B01F029FE02460B4610
:1032A0005AA002F045F998F8000000EB400101EB4C
:1032B000001007EB8000C06B01F019FE02460B46C0
:1032C00055A002F035F998F8000000EB400101EB41
:1032D000001007EB8000006C01F009FE02460B466F
:1032E00052A002F025F998F8000000EB400101EB34
:1032F000001007EB800090F844104EA002F018F97F
:1033000098F8000000EB400101EB001007EB800093
:1033100090F845104BA002F00BF9FFF710FE4D4955
:10332000012008704C49002001EB840108616EE621
:10333000100A0020EC5A00204300002075617274CE
:10334000335F3438355061636B2E636D6420756E66
:103350006B6F776E212025780D0A00004E6F646533
:103360004461746120726574205B253032785D2081
:10337000504F574552434F4E54524C200D0A0000B7
:103380003800002025303278000000004E6F646560
:1033900044617461207265742041646472202573F5
:1033A000202564200D0A0000CBD1CBF7CDEAB3C9AC
:1033B000000000004E6F64654461746120526574C2
:1033C0002052455155455354454C4543200000007B
:1033D000756E6D617463682061646472210D0A000A
:1033E0007B14AE47E17A843F410000200000CCBC52
:1033F00000004041414320706F7765722045727232
:103400006F202121200D0A00A45D002076546F74E6
:10341000616C2025662000006931202566200000AF
:103420006572726F3A202564200D0A0069322025EA
:10343000662000004368316572726F3A202564206F
:10344000000000004368326572726F3A2025640DF7
:103450000A00000040000020C45500203BA002F0FC
:1034600067F841A22F21032000F07CF9CFE52DE978
:10347000F041404E40F21E333F4930680024821E26
:103480009A4208D2C1F8B041002336A20621782022
:1034900001F033FB0DE040F23E32904209D9346036
:1034A0000120C1F8B00101232EA20621782001F0ED
:1034B00024FB7068B0F5FA7F32D3304D304F297855
:1034C00001EB410000EB011007EB8002D21C2DA0A4
:1034D00002F02EF831480078B8B1287800EB4001AE
:1034E00001EB001007EB8000143021A101F031FC4A
:1034F00058B128782A4B00EB400101EB001007EB94
:10350000800000220B21FFF77EFB2878401CC0B210
:10351000287024490978491E884200DD2C707460A7
:10352000B06840F24C41884207D31F480078012818
:1035300003D1134800F0DCF9B460F068C82802D366
:1035400001F049F9F460BDE8F08100004E6F646558
:10355000446174612052657420534554424F415276
:103560004443464720000000C9E8D6C3B3C9B9A602
:1035700000000000C45500200080214241000020CE
:10358000100A0020526571756573744E6F64652072
:10359000256420202573200D0A0000004000002033
:1035A000A45D002043000020440000202DE9FF41DD
:1035B00007460E460024FCF7CEFF0022009206EBE1
:1035C000C7200290012003903420FDF7E6F90BE0BC
:1035D0000298FCF7F9FF0546042D0AD03BA001F044
:1035E000A7FF3420FDF7D9F92246641CE4B2052A6E
:1035F000EED3052C03D329463BA001F099FFBDE88B
:10360000FF41FCF7B4BF70B50E464FF4006188422D
:1036100000D20846410504D0012101EBD025002449
:103620000BE0C50AFBE7324621463BA001F080FFD4
:10363000E0B23146FFF7BAFF641CAC42F3D370BD71
:1036400010B5002305E032F8134020F813405B1C4E
:103650009BB28B42F7D310BDCB0703D0491C89B274
:103660004908EDE74908EBE72DE9F04106460D462C
:103670001746FCF770FF002408E02919285D4978F7
:1036800040EA01213019FDF76DF8A41CBC42F4D3C7
:10369000BDE8F041FCF76BBF70B5044620682649D1
:1036A0000840B0F1005F04D0BDE8704023A001F0F5
:1036B0003FBF26A001F03CFF6068294D28602068CC
:1036C000FCF740FD2868BDE870400047666C6173F8
:1036D000685F65726173655F7061676520466169E7
:1036E0006C64200A00000000666C6173685F65729C
:1036F0006173655F70616765204661696C64203E37
:103700002032303020212121206C61737465727267
:103710006F3A2025640A0000666C6173685F657209
:103720006173655F7061676520692025642061644D
:10373000642025780A0000000000FE2F53746163A6
:103740006B204661696C6564210D0A0053746163E6
:103750006B2053756363657373210D0A00000000CD
:103760003C0000202DE9F0411746FF4CEE2222706C
:10377000B12262701022A2700026E670207166717C
:10378000A171384601F0DEFA451C2A463946E01D93
:1037900001F0B4FA60198671FF21C171FC22027236
:1037A000417281720B35EAB22146BDE8F041EF4823
:1037B000FFF7CAB92DE9FF41EDA003C8CDE9020129
:1037C000EDA003C8CDE90001ED484078401E00EBB4
:1037D00040004006050E2946EAA001F0A9FE00249B
:1037E000F24E02AF281900EB400101EB001006EB8E
:1037F00080023819D21C41780220FFF7B3FF641C05
:10380000E4B2062CEED300246F46281900EB4001E9
:1038100001EB001006EB80023819143241780220C7
:10382000FFF7A0FF641CE4B2062CEED3BDE8FF81D5
:1038300030B4CD4BEE241C70B1245C7003249C701A
:103840000024DC7018715C719971DA71FF201872B4
:10385000FC2159729872D87230BC0C221946C348A8
:10386000FFF772B92DE9F04782460024C44D2D1DA3
:10387000AE1D05F1180705F10C0805F11209295DC7
:10388000CBA20120FFF76EFF315DC9A20120FFF737
:1038900069FF395DC6A20120FFF764FF18F8041024
:1038A00052460120FFF7C4FF19F8041052460120C8
:1038B000FFF7BEFF641CE4B2062CE0D3BDE8F0873E
:1038C00002462F2102204DE70EB5BAA2D2E900131D
:1038D0009268CDE9013200918DF804000146B8A04C
:1038E00001F026FE09226946A048FFF72DF90EBD1A
:1038F0002DE9F04FC3B0A248C078401E00EB400055
:103900004006000E0690062005909D48001FC078D6
:1039100000280AD00699401AC0B2062800D20590A5
:103920004FF00008DFF884A2C2E00020FFF79AFF02
:1039300043B0BDE8F08F069800EB0804A54800EB03
:1039400084000069B0F5FA7F7CD28D4801221030E6
:1039500010F808101046FFF76BFF89480122163057
:1039600010F808101046FFF763FF04EB440000EB6B
:1039700004191AF82900DC2802D0AC282ED050E017
:103980007F480AEB890B0A300BF1140210F808107B
:103990000120FFF7E7FEDBF8400001F0A8FA04463B
:1039A0000D46DBF83C0001F0A2FA06460F46DBF8B4
:1039B000380001F09CFA02460B4687A107A8CDE922
:1039C0000067CDE9024501F0C3FD6D4807AA001D5F
:1039D00010F808100120FFF7C5FE22E068480AEB46
:1039E00089060A3006F1140210F808100120FFF7CA
:1039F000B9FEF06B01F07BFA04460D46B06B01F0A6
:103A000076FA02460B467EA107A8CDE9004501F0F3
:103A10009FFD5B4807AA001D10F808100120FFF762
:103A2000A1FE0AEB890090F8441011B990F8450006
:103A300048B1534877A21C3010F808100120FFF756
:103A400091FE31E008E04E4874A21C3010F80810D6
:103A50000120FFF787FE27E0494872A21C3010F8CA
:103A600008100120FFF77EFE04EB440000EB041079
:103A70001AF82010DC2902D0AC290BD014E00AEB94
:103A800080023F4814320A3010F808100120FFF776
:103A900069FE09E00AEB8002394814320A3010F856
:103AA00008100120FFF75EFE08F1010808F0FF088A
:103AB00005988045FFF43FAF3AE72DE9F04786B01F
:103AC0002F4CE078401E00EB40004006060EDFF869
:103AD0005CA101270225DAF8FC004FF00009A4F1EF
:103AE0000408017850460129D0F8040108D00229C1
:103AF00034D0032933D04EA001F01AFD06B0DDE624
:103B0000007801280AD14FA001F012FD53A0FFF761
:103B1000D7FEFFF74FFE88F800902570DAF8040111
:103B2000007802281CD00B281BD00C2819D0A0F13B
:103B30006F01DFF87880DFF82891062912D249A0BA
:103B400001F0F6FCDAF81001007807EBC01089F8F4
:103B50000000DAF80401007830448DE0CBE04EE15B
:103B600098E0A1E0A8E00000105D002000440040C3
:103B70000001020304050600002223242526270055
:103B800044000020544654446973706C61794E6F50
:103B900064654C69737432536574506167206F6655
:103BA000667365742025640D0A000000100A002069
:103BB00020000000EEB1000003FFFCFFFF0000004A
:103BC0006368616E6765544654506167652025647B
:103BD0000D0A0000C455002044433A20252E3266C9
:103BE00020562C20204348313A20252E3266204191
:103BF0002C20204348323A20252E326620410000F6
:103C000041433A20252E326620562C20252E32663E
:103C100020410000D2ECB3A321000000D5FDB3A3E6
:103C200000000000D2D1C0EBCFDF2100D05900202E
:103C30004E6F7466756E2053637265656E202564E1
:103C40000D0A000073657420627574746F6E2075C0
:103C50006E446973706C61790D0A000020200000C9
:103C6000A45D0020706F77657220636831206368FF
:103C7000616E67650D0A00006F3800EB400101EBD3
:103C8000001008EB80004B4601220A21FEF7BBFF23
:103C9000277033E7DAF80C0100783038C1B2E170F0
:103CA000FAA001F045FC29E70020FFF7DBFDFD4805
:103CB000FFF71EFE277021E779380628E9D2FAA01F
:103CC00001F036FCDAF81001007805EBC01089F835
:103CD0000000DAF80401F94B012200783044793809
:103CE00000EB400101EB001008EB80000A21FEF719
:103CF0008AFF277002E701781E2935D00BDCF048D7
:103D00000729D0F80C0112D010291BD011291ED080
:103D1000152908D120E01F2942D0202952D021297D
:103D200058D0352966D0E7A001F002FCE6E601464E
:103D3000E2480C3001F01BF8E049E9A00C3101F039
:103D4000F7FBDBE6EDA0FFF7BBFD2570D6E6EDA0A7
:103D5000FFF7B6FD2570D1E600783038C1B261704A
:103D6000EAA001F0E5FBC9E6EDA001F0E1FB25705A
:103D7000AFF2C41208210220FFF7F4FCEEA0FFF717
:103D80009FFDDC208DF80400FF208DF805008DF8E4
:103D90000600CA4B00220C2101A8FEF734FFADE655
:103DA000C648E7A10C3000F0D4FF18B1E6A0FFF739
:103DB00087FDA3E6AFF20820FFF782FD0320FFF79F
:103DC00083FD9BE6E6A001F0B3FB2570E9A0FFF7B9
:103DD00077FD93E6EAA001F0ABFBAFF28010FFF7AE
:103DE0006FFD277088F8019088F800700020FFF7B9
:103DF00039FD83E6E8A001F09BFB25707EE60078A4
:103E0000072805D0092891D1E9A001F091FB75E6BA
:103E1000B2A22F210320FFF7A5FC6FE61CB5E749EE
:103E200088700246E6A1684601F092FB6946E5A06B
:103E300001F07EFB6A4616210120FFF793FC6A46DB
:103E400016210220FFF78EFC1CBD10B5E3A001F087
:103E50006FFBDA48001FC07806280DD90621B0FB99
:103E6000F1F201FB1202002A0AD0B0FBF1F0401C73
:103E7000BDE81040C0B2D1E7BDE810400120CDE759
:103E800010BD0EB5CD48CEA1001FC278684601F026
:103E90005FFB6A4636210220FFF764FC0EBDF0B5D9
:103EA00089B00546072D07D3D1A001F041FBD7A06B
:103EB000FFF706FD09B0F0BDC04F7878401E00EB5B
:103EC00040004006040E3E1F0620F2782B46B2FB4F
:103ED000F0F100FB112000902146D04801F028FBB2
:103EE0007878B9786F4F884231D1CDA001F020FBAE
:103EF000F1786019884203DBCDA0FFF7E1FCD9E738
:103F000000EB400101EB001007EB8002D21CCCA1BA
:103F100001A801F01DFB01A8FFF7D2FC13E0611915
:103F20000846491C01EB410202EB011100EB400283
:103F300002EB001007EB810107EB80004C2200F040
:103F4000DDFE641CE4B2F0788442E8D326E0601918
:103F500000EB400101EB001007EB8002D21CB8A17E
:103F600001A801F0F5FA01A8FFF7AAFC13E0611916
:103F70000846491C01EB410202EB011100EB400233
:103F800002EB001007EB810107EB80004C2200F0F0
:103F9000B5FE641CE4B2F0788442E8D3F078401EA9
:103FA000F07087F83400FFF705FCFFF76AFFFFF7B2
:103FB0004CFFA74C21462014FFF725FB44F6B432F2
:103FC00038492046FFF750FB74E72DE9F04393B0E2
:103FD000054600246F46F81CE96800F0C8FEE96851
:103FE00005A8C91D804600F0C2FE3CA1F81C00F0E7
:103FF000B0FE4FF0FF3940B138A1404600F0A9FEB5
:1040000018B16E4E274D361F14E092A0FFF758FCF2
:10401000484613B0BDE8F08304EB440000EB041005
:1040200005EB8001C91CF81C00F093FE00282CD081
:10403000641CE4B2F0788442EED3F07800EB4001E7
:1040400001EB001005EB8000C01CF91C00F08FFE96
:10405000F07800EB400101EB001005EB800014301C
:10406000414600F084FEF07800EB400101EB0010C7
:1040700005EB8000C21C01461046FEF7C7FEF17832
:1040800001EB410000EB0112EEE004E167657420F2
:10409000446973706C6179506167652066312025D1
:1040A000640D0A00100A0020706F77657220636843
:1040B00032206368616E67650D0A0000A45D002010
:1040C000D05900204E6F7466756E2070616765323E
:1040D00020627574746F6E2025640D0A0000000064
:1040E000555345525F434D44202DA1B720696E5072
:1040F00075745073772025730D0A0000C9CFD2BBA9
:10410000D2B30000CFC2D2BBD2B300006765742027
:10411000536574506167652066312025640D0A007F
:10412000736561726368206E6F6465206275747474
:104130006F6E0D0A00000000CBD1CBF72E2E0000D1
:104140003132333435360000C7EBD5FDC8B7CAE489
:10415000C8EBC3DCC2EB2C313233343536000000FF
:104160007265676973746572206E6F6465200D0AED
:1041700000000000D7A2B2E1BDDAB5E32E2E0000A8
:104180006261636B20627574746F6E204469737032
:104190006C61790D0A00000064656C657465206EC1
:1041A0006F646520627574746F6E0D0A0000000004
:1041B000CFC2B4EFC5E4D6C30D0A0000440000200E
:1041C000256400007570646174654C697374506196
:1041D00067652066322025730D0A000075706461E2
:1041E00074654C697374506167656632200D0A000E
:1041F00064656C6574654E6F6465496E666F2066B4
:1042000061696C64203121200D0A0000C9BEB4ED43
:10421000CBF7D2FDB4EDCEF3A3A10000C45E00083D
:1042200066726973742070616765200D0A00000072
:10423000C7EBD5FDC8B7D1A1D4F1CCF5C4BF000000
:10424000D2D1C9BEB3FDBDDAB5E3202573000000AD
:1042500000D80008BDDAB5E3B5D8D6B7BBF2C3FBCA
:10426000B3C6CEAABFD5210005EB8200006115F8C8
:1042700022204378120442EA032283781A43C26060
:10428000491CC9B2F17044F6B4384246A9A001F005
:104290004FF900241AE0B0A001F04AF9BCA0FFF7E2
:1042A0000FFB4846B5E604EB440000EB041005EBB9
:1042B000800707F11403FA1C2146B9A001F038F970
:1042C00038460321FEF755FD641CE4B2F0788442C1
:1042D000E9D3BEA0FFF7F4FAFFF7B7FDFFF7D1FD72
:1042E000F07885F83400BD4C21462014FFF78BF997
:1042F0004246BB492046FFF7B7F9BAA001F018F9CA
:1043000022464146B648FFF7A7F9002412E004EB25
:10431000440000EB041005EB800707F11403FA1CBE
:104320002146B2A001F004F938460321FEF721FD31
:10433000641CE4B2F0788442E9D3B8A001F0F8F844
:10434000F07866E670B590B0B64890F81411002980
:1043500078D0002180F81411D0F8F0100978B12934
:104360000CD0CD2914D0B0A001F0E2F810B0AD48C7
:10437000BDE870407821783000F0D9BCD0F8F40066
:104380000078112801D00028F0D1FFF796FBEDE767
:10439000AD4C02202070AD4948680078C1281DD07E
:1043A0000A46C328D3681FD0C42827D0C52832D0D6
:1043B0008B4E251FC2284DD0C628D7D188680278D9
:1043C000A87800EB400101EB001006EB80000E2105
:1043D000FEF719FC9EA001F0ABF8C7E79B48FFF77A
:1043E000F4FDFFF7E7F9C1E718783038C1B2617022
:1043F0009DA001F09DF8FFF7DDF9B7E71878303898
:10440000C1B2E170A1A001F093F80020FFF72AFAF1
:1044100001202070AAE71C785D78991CA44800F060
:10442000A6FCA34B2A462146A2A001F081F8AFF2D8
:10443000F0219F4800F08DFC28B1AFF2F420FFF787
:104440003FFA93E728E0A4F12900FFF728FDFFF7E2
:10445000B1F98BE76078401E00EB40004006000E8B
:1044600019782939C9B2441804EB440000EB041050
:1044700006EB800202F11403D21C9CA1684601F0F5
:1044800067F86A4601210320FFF76CF969469CA092
:1044900001F04EF8AC7069E710B070BD10B5A0B077
:1044A0009E4AEE231370B12353701123937000239F
:1044B000D370107153719171FF20D071FC21117272
:1044C000507290720B2496A001F032F82146934866
:1044D000FEF74FFC22469149684600F00FFC0B2086
:1044E0008DF8790091490878401C08708DF87800A3
:1044F0008F481F90684600F052F920B010BD02218D
:104500000120CBE78548EE2101700721417035215C
:1045100081705A21C17053210171A5214171FF2180
:104520008171FC22C2710172417201460A228048E7
:10453000FEF70ABB4E6F646520436F756E742025CD
:10454000642073697A656F66202564204C697374F2
:104550003A200D0A00000000555345525F434D4478
:104560002D2D3E3E20434D445F3078433120696419
:10457000206F72206E616D6520616C726561647977
:104580002072656769737465726564210D0A0000A5
:10459000BDDAB5E3D2D1BEADB1BBD7A2B2E1210045
:1045A000496420696E6465782025642C2049442084
:1045B0005B25735D2C204E616D65205B25735D0D61
:1045C0000A68657849443A2000000000BDDAB5E386
:1045D000D7A2B2E1B3C9B9A62100000000D80008F3
:1045E000100A0020656E64310D0A00002D2D2D206B
:1045F000496420696E6465782025642C2049442034
:104600005B25735D2C204E616D65205B25735D0D10
:104610000A68657849443A2000000000656E6432FB
:104620000D0A0000D059002075617274325446544E
:104630005061636B2E636D6420756E6B6F776E21B6
:104640002025780D0A00000044000020885D00202D
:10465000555345525F434D44202DA1B72043464753
:104660005F4E4F44450A0000555345525F434D4449
:10467000202DA1B7206E6F64655061676543686146
:104680006E6765202564200D0A00000055534552D1
:104690005F434D44202DA1B720646973705061675A
:1046A000654368616E6765202564200D0A0000007F
:1046B000B05D0020555345525F434D44202DA1B7B6
:1046C00020646973705061676544656C657465202A
:1046D00063686F6F73652025642C20663120256424
:1046E0002C207073772025730D0A000049443A206E
:1046F00025732020204E616D653A2025730000004F
:10470000555345525F434D44202DA1B72053455486
:104710005F4E4F44452025730A000000105D0020C5
:104720006275696C64203A20000000006800002077
:104730000044004070B500202F4E304D09E0411C70
:104740000C4605EBC11105EBC010802200F0D6FA33
:10475000E0B23188491E8842F1DB3088401E30804B
:1047600070BD70B50024244E3088012816D924A0CD
:1047700000F0DEFE214D08E005EBC41090F8781043
:1047800022A000F0D5FE641CE4B23088401E8442B2
:10479000F2DBBDE870401EA000F0CABE70BD10B5CF
:1047A0000146154C154A208814280BD202EBC01084
:1047B0004FF4206200F0A2FAFFF7D3FF2088401CDC
:1047C000208010BD92F87820142112A000F0B0FED5
:1047D000BDE81040AEE710B507480088002809D0B2
:1047E0000648064990F87920C06FFEF7ADF9BDE89C
:1047F00010409FE710BD000066000020D05D002043
:10480000517565756E2069642000000025642000E4
:104810000D0A0000B7A2CBCDB6D3C1D0D2D1C2FA17
:1048200020256420CCF5B6AAC6FAD7EED4E7B5C4E5
:10483000CFFBCFA22069642025640A0038B501218E
:104840000820FCF7A4FB4FF44074ADF800401020A2
:104850008DF8030003208DF80200FF4D69462846BD
:10486000FCF71BF921462846FCF786F938BD70B5E0
:10487000FA4C012565600120FEF71EF92560012034
:10488000FEF71AF9002565600120FEF715F925608D
:1048900070BD70B5F14C002565600120FEF70CF984
:1048A00025600120FEF708F9012565600120FEF76B
:1048B00003F9256070BD2DE9F04105460024E84E5E
:1048C000A0460127280602D5C6F8A47101E0C6F863
:1048D000A4810120FEF7F0F8C6F8A0710120FEF7D0
:1048E000EBF8C6F8A0810120FEF7E6F86806050E91
:1048F000641CE4B2082CE5D3C6F8A0710120FEF7D1
:10490000DBF8C6F8A081BDE8F08110B50446FFF7DA
:10491000AEFF7820FFF7CFFF4020FFF7CCFF204607
:10492000FFF7C9FFBDE81040B3E710B50446FFF735
:104930009EFF7820FFF7BFFF0020FFF7BCFF204657
:10494000FFF7B9FFBDE81040A3E710B50446B0314A
:10495000C8B2FFF7EAFF102040EA1410FFF7E5FFA6
:1049600004F00F00BDE81040DFE710B50446B03199
:10497000C8B2FFF7DAFF102040EA1410FFF7D5FFA6
:1049800004F00F00BDE8104040F00100CDE770B525
:104990000646002505F1B000C0B2FFF7C6FF0020B3
:1049A000FFF7C3FF1020FFF7C0FF00243046FFF7DA
:1049B000ACFF641CE4B2802CF8D36D1CEDB2082D62
:1049C000E8D370BD2DE9F0478246DDF820900E4611
:1049D00090461F460025780711E031465046FFF704
:1049E000B4FF544607E028466D1C19F80000FFF795
:1049F0008CFF641CE4B24445F5D3761CF6B2BE428B
:104A0000EBD3BDE8F0870020C1E710B58D20FFF79C
:104A10008CFF1420FFF789FFBDE81040AF2084E72A
:104A200010B58D20FFF781FF1020FFF77EFFBDE856
:104A30001040AE2079E710B5FFF700FF6420FEF7C5
:104A400046F8AE20FFF771FF0020FFF76EFF102041
:104A5000FFF76BFF4020FFF768FF8120FFF765FF3E
:104A6000FF20FFF762FFA020FFF75FFFC020FFF7E6
:104A70005CFFA620FFF759FFA820FFF756FF3F2055
:104A8000FFF753FFD320FFF750FF0020FFF74DFF44
:104A9000D520FFF74AFF8020FFF747FFD920FFF717
:104AA00044FFF120FFF741FFDA20FFF73EFF12201D
:104AB000FFF73BFFDB20FFF738FF4020FFF735FF14
:104AC0002020FFF732FF0220FFF72FFF8D20FFF796
:104AD0002CFF1420FFF729FFA420FFF726FFA620B4
:104AE000FFF723FFAF20FFF720FF0020FFF74FFF66
:104AF0000021BDE81040084627E72DE9F0470546AC
:104B0000884691460026002B01D0FF2722E000278F
:104B100020E0203800F0FF0A7E2D04D9002508F19E
:104B2000010808F0FF0841462846FFF71EFF002451
:104B30004C490AEB4A0001EB400A1AF8040078409D
:104B4000FFF7E3FE641CE4B2062CF6D3AD1DEDB214
:104B5000761CF6B219F806000028DAD151E72DE9E3
:104B6000F041002402EB42025500002B13D0FF2637
:104B70007E2802D90020491CC9B2FFF7E6FE3A4F51
:104B800028466D1C385C7040FFF7BFFE641CE4B221
:104B9000062CF5D3B7E60026EAE72DE9F05F0546D7
:104BA000894693464FF00008002B03D0FF26DFF81C
:104BB000BCA032E00026FAE72038C7B2782D04D92D
:104BC000002509F1010909F0FF0949462846FFF7C8
:104BD000BCFE002404EB07101AF800007040FFF739
:104BE00094FE641CE4B2082CF4D309F10100C1B2B4
:104BF0002846FFF7AAFE002404EB07105044007A71
:104C00007040FFF782FE641CE4B2082CF4D3083530
:104C1000EDB208F1010808F0FF081BF808000028B1
:104C2000CAD1BDE8F09F2DE9F04180460F461646F7
:104C300000255C0139464046FFF787FE305DFFF7EF
:104C400064FE641C6D1CEDB2102DF7D37F1CF9B20D
:104C50004046FFF77AFE0BE0000C0140A0812142A4
:104C6000008021426F000020690000209702002090
:104C70000025305DFFF749FE641C6D1CEDB2102D60
:104C8000F7D340E62DE9F04188461F46002400078F
:104C9000050E561C09E005EB0410C0B223463A4647
:104CA0004146FFF7C0FF641CE4B2B442F3D32AE6E6
:104CB00008B50F4805230090252201211846FFF76B
:104CC00081FE3220FDF703FF0A48052300902522CC
:104CD00001211846FFF776FE3220FDF7F8FE064860
:104CE00005230090252201211846FFF76BFE08BD21
:104CF00087080020070900208709002040EA0103F7
:104D00009B0703D009E008C9121F08C0042AFAD281
:104D100003E011F8013B00F8013B521EF9D2704745
:104D2000D2B201E000F8012B491EFBD270470022ED
:104D3000F6E710B513460A4604461946FFF7F0FF9A
:104D4000204610BD421C10F8011B0029FBD1801A1F
:104D5000704710B5002200E0521C835C8C5CA342BB
:104D600001D1002BF8D1D8B2E1B2401A10BD0346F0
:104D700011F8012B00F8012B002AF9D118467047D1
:104D80002DE9F04791460F4680460446002614F868
:104D9000015B2DB100F022F90068405DC007F6D13B
:104DA0002B2D02D02D2D18D0641E4A4639462046A0
:104DB00000F018F927B13968A14201D1C7F8008085
:104DC00071054FF002040BD54042002803DD00F0CE
:104DD000D3FB0460A007BDE8F08746F48066E4E7F3
:104DE0000028F8DA00F0C8FB04606FF00040F2E73A
:104DF0002DE9FE4F81EA030404F0004421F0004154
:104E000000944FF0000B23F0004350EA01045ED001
:104E100052EA03045BD0C3F30A54C1F30A552C448D
:104E2000A4F2F3340194A0FB0254C1F3130141F442
:104E30008011C3F3130343F4801301FB024400FB0E
:104E4000034E840A970A44EA815447EA8357A4FB35
:104E5000076802958D0A05FB07854FEA932C04FB32
:104E60000C542705029D4FEA065847EA1637B5EB62
:104E700008056EEB070C870E920E47EA811742EA8F
:104E80008312A7FB0201B6EB0B0164EB00042B0DB0
:104E900043EA0C335E1844EB1C50DA465146E7FBFC
:104EA0000201C5F313044FEA0B3343EA14534FEAEC
:104EB0000432019C43EA0603A4F10C040294009C12
:104EC000CDE900B400F023F903B0BDE8F08F002075
:104ED0000146F9E70EB540F2334102910021CDE9D8
:104EE00000110A460B4600F012F903B000BD00F0B5
:104EF000004230F000400AD0C10D01F56071C0F3EE
:104F0000160042EA0151C2084007114370470020D1
:104F10000146704701F0004330B421F0004150EAEF
:104F2000010206D00A0DA2F56072C1F31301002A36
:104F300002DC30BC00207047440F44EAC104C100C9
:104F4000E01830BC00EBC25000F09BB830B50B4607
:104F5000014600202022012409E021FA02F59D42A9
:104F600005D303FA02F5491B04FA02F52844151E7D
:104F7000A2F10102F1DC30BD2DE9F05F0546002011
:104F800092469B4688460646814640241BE02846BA
:104F900041464746224600F070FA53465A46C01A28
:104FA000914110D311461846224600F057FA2D1AA7
:104FB00067EB01084F4622460120002100F04EFA1F
:104FC00017EB00094E41201EA4F10104DFDC484626
:104FD00031462A464346BDE8F09F0000004870472E
:104FE000C05E00082DE9F05F824600780027154674
:104FF0008B460AF10104B946302801D09DB113E077
:1050000014F8010B0127782803D0582801D045B1A6
:105010000AE00DB1102D07D10027102514F8010B5F
:1050200002E0082500E00A250026B0460EE005FB58
:10503000080005FB06F1012701EB10461FFA80F876
:10504000B6F5803F00D3B94614F8010B294600F0AD
:1050500036FA0028EBDABBF1000F05D00FB1641E61
:1050600000E05446CBF80040B9F1000F06D000F044
:1050700083FA02210160C81EBDE8F09F48EA06409D
:10508000FAE70029A8BF7047401C490008BF20F07C
:105090000100704710B4B0FA80FC00FA0CF050EA3E
:1050A000010404BF10BC704749B1CCF1200421FABF
:1050B00004F411FA0CF118BF012121430843A3EBBA
:1050C0000C01CB1D4FEA00614FEA102042BF0020C7
:1050D00010BC704700EBC35010440029A4BF10BCA3
:1050E0007047401C490008BF20F0010010BC704709
:1050F00010B5141E73F1000408DA401C41F10001E0
:1051000092185B411A4301D120F0010010BD2DE936
:10511000F04D92469B4611B1B1FA81F202E0B0FA2D
:1051200080F22032904600F099F904460F4640EA9A
:105130000A0041EA0B0153465A46084313D0114670
:1051400053EA010019D0C8F14002504600F095F929
:1051500005460E4650465946424600F07FF9084340
:1051600005D0012004E020463946BDE8F08D00203E
:10517000054346EAE0762C4337430A986305E40A80
:10518000A0EB08000022FD0A44EA47540A3002D589
:1051900000200146E9E7010510196941DDE90845EC
:1051A00000196941BDE8F04DA2E72DE9FE4F8046A8
:1051B00081EA0300C00F0C46009021F0004123F06B
:1051C0000045B8EB0200A94105D240462146904671
:1051D0001C460B46024623F00040104347D0270DE3
:1051E000C7F30A00C3F30A510290401A0190402805
:1051F0006BDAC3F3130040F4801B0098924620B191
:105200000023D2EB030A63EB0B0B01985946C0F164
:105210004002504600F022F906460D4650465946D7
:10522000019A00F03AF910EB08006141002487EA86
:10523000115284EAE7731A4340D0009A62B3019A8C
:10524000012A4FEA075215DC001B61EB02014FF007
:10525000004202EA0752CDE90042001C41F58011EC
:1052600032462B46FFF753FF03B0BDE8F08F4046B0
:105270002146F9E7001B61EB0201001C41F5801398
:1052800000185B412018A2F5001747EB030140EA24
:10529000D570B6196D4111E06D084FEA360645EA42
:1052A000C0754FEA0752001B61EB0201001C41F57B
:1052B000801149084FEA30000019514132462B460F
:1052C00003B0BDE8F04FFFF713BF00980122400084
:1052D0000023D0EB020263EBE073009821464FEA13
:1052E000E074B8EB000061EB0401E9E783F00043F0
:1052F0005BE781F0004158E72DE9F04D81EA0304B6
:1053000004F0004B21F0004514464FF0000A23F052
:10531000004150EA050220D054EA01021DD0C5F335
:105320000A570246C5F31303C1F31300C1F30A562B
:1053300040F4801543F48013A7EB0608101BD646F3
:1053400008F2FD3873EB050002D308F1010801E013
:1053500092185B41B8F1000F03DA00200146BDE866
:10536000F08D00204FF48011064684460EE0171B96
:1053700073EB050705D3121B63EB050306434CEAE9
:10538000010C49084FEA300092185B4150EA0107CE
:10539000EDD152EA030012D082EA040083EA05014B
:1053A000084305D0101BAB4106D20122002306E0C2
:1053B00000224FF0004302E06FF0010253101AEB9D
:1053C00006004CEB085110EB0A0041EB0B01BDE865
:1053D000F04DFFF78DBEC1F30A52C1F3130140F245
:1053E000FF3341F480119A4202DA002001467047EF
:1053F00040F233439A42A2F2334202DC524200F0BE
:105400003CB800F02BB8000030B5041E71F1000468
:1054100004DB4FF00044404264EB0101141E73F1C1
:10542000000405DB1C464FF00043524263EB0403CB
:10543000994208BF904230BD064C074D06E0E06837
:1054400040F0010394E8070098471034AC42F6D3CB
:10545000FAF772FE145F0008345F0008202A04DBAC
:10546000203A00FA02F1002070479140C2F1200377
:1054700020FA03F3194390407047202A04DB203AB6
:1054800021FA02F00021704721FA02F3D040C2F164
:1054900020029140084319467047202A06DBCB17AB
:1054A000203A41FA02F043EAE07306E041FA02F3DF
:1054B000D040C2F1200291400843194670473A2873
:1054C00000D2303820F02002412A01D3A2F1370067
:1054D000884201D34FF0FF30704770B58C1810F838
:1054E000015B15F0070301D110F8013B2A1106D129
:1054F00010F8012B03E010F8016B01F8016B5B1E43
:10550000F9D12B0705D40023521E0DD401F8013B1D
:10551000FAE710F8013BCB1A921C03E013F8015B89
:1055200001F8015B521EF9D5A142D8D3002070BD0D
:105530000FB4054B10B503A9044A029800F0E2F835
:1055400010BC5DF814FB000083260008080A002048
:105550000FB4084B10B504A902AA039800F0D2F8C2
:10556000044602A9002000F064FC204610BC5DF84F
:1055700014FB0000335E0008004870470C0A00204E
:1055800002E008C8121F08C1002AFAD1704770470C
:10559000002001E001C1121F002AFBD1704700006A
:1055A0002DE9FF5FDDE90220010DDDF838B002438F
:1055B00018D044F61050A1F2FF3141430D140F985A
:1055C000012820D0A5EB0B00401C5FEA000A4FF039
:1055D0000004474EDFF81C91A046504616D5CAF18C
:1055E000000728E00F98012443A2012808D00021D9
:1055F00000980F9BC0E90021C0E90243BDE8FF9F6E
:105600006FEA0B01F4E7CBF10000DEE7074612E09A
:10561000F80707D02246334640464946FFF7E8FBE5
:10562000804689462246334610461946FFF7E0FB7E
:1056300004460E467F10002FEAD1DDE90201BAF1DF
:10564000000F42464B4602DAFFF7D2FB01E0FFF7BC
:1056500053FE04460E460022284BFFF7D5FE03D822
:105660004FF0FF30014607E00022254B204631462F
:10567000FFF79BFDFFF7AFFE102409E0002C0ADBCB
:105680000A220023FFF778FC019B30321A55641E72
:1056900050EA0102F2D1641C019AC4F111031444CE
:1056A0000F9A012A03D0012208430DD10AE00843D2
:1056B00004D000204FF0110B0F9080E7A3EB0B05F7
:1056C0006D1E0DE05B4504DD4FF0000205F10105A4
:1056D00004E003DA4FF00002A5F10105002AECD046
:1056E00000980F99C0E90231C0E9004586E7000043
:1056F000000024400000F03F300000000000F043B4
:105700000000E03F2DE9FF4F95B09B4689460646D5
:1057100000250FE2252877D100242746F84A0121E9
:10572000059400E0044316F8013F203B01FA03F022
:105730001042F7D130782A2811D06FF02F0330783B
:10574000A0F13002092A16D8059A44F0020402EBAF
:10575000820203EB42021044761C0590EFE759F8F1
:10576000042B0592002A03DA504244F400540590B9
:1057700044F00204761C30782E2816D116F8010F5A
:1057800044F004042A280DD06FF02F023078A0F1E5
:105790003003092B09D807EB870302EB4303C71833
:1057A000761CF3E759F8047B761C30786C280FD010
:1057B00006DC4C2817D068280DD06A2814D104E0E4
:1057C000742810D07A280FD10DE044F400140AE0B8
:1057D00044F4801401E044F440147278824202D10F
:1057E00004F58014761C761C307866280BD013DC08
:1057F000582877D009DC002875D04528F6D04628EF
:10580000F4D047281AD19DE118E0632835D06428E8
:1058100079D0652812D195E1702873D008DC67280B
:10582000F1D069286FD06E280DD06F2806D1B5E071
:1058300073282CD0752875D0782874D05A461799BB
:1058400090476D1C75E1C4F30250022809D003286B
:105850000DD0D9F8001004280DD00D6009F104090D
:1058600067E1D9F80010EA17C1E90052F6E7D9F864
:1058700000100D80F2E70D70F0E719F8041B8DF8A9
:10588000001000208DF80100EA46012003E059F8DD
:1058900004AB4FF0FF3061074FF0000102D40DE080
:1058A00008F101018846B9420FDA8045F8DB1AF8A1
:1058B00008100029F4D108E008F10101884681426E
:1058C000FADB1AF808100029F6D105985B46A0EB20
:1058D000080721463846179A00F094FA284400EB4E
:1058E000080507E04DE029E10DE01AF8010B5A46E2
:1058F00017999047B8F10108F7D25B462146384620
:10590000179A13E142E00A220092C4F302524FF0C8
:10591000000A022A08D059F804CB032A4FEAEC7196
:105920000AD00DE029E02AE009F1070121F0070281
:10593000F2E802C1914609E00FFA8CFC4FEAEC71E3
:10594000042A03D14FFA8CFC4FEAEC71002907DAE4
:105950000A460021DCF1000C61EB02012D2202E07D
:10596000220504D52B228DF80420012203E0E20752
:1059700001D02022F7E7904659E00A2102E01022E8
:105980000DE010214FF0000A00910BE010224FF0C3
:10599000000A44F004040827009203E008224FF0B4
:1059A000000A0092C4F30252022A05D059F804CB2F
:1059B0000021032A08D009E009F1070121F00702BC
:1059C000F2E802C1914605E01FFA8CFC042A01D1DD
:1059D0000CF0FF0C4FF00008220728D5702806D0E5
:1059E000009B83F0100353EA0A0305D00EE0402227
:1059F0008DF80420012208E05CEA010206D0302282
:105A00008DF804208DF8050002229046009B83F05B
:105A1000080353EA0A030AD15CEA010201D16207D2
:105A200005D530228DF804204FF001087F1E58283C
:105A300004D034A003900EA802900DE036A0F9E740
:105A400053466046009AFFF797FA84460398825CB3
:105A50000298401E029002705CEA0100F0D10298A8
:105A600006A9081A00F1200A600702D524F4803440
:105A700000E00127574502DDA7EB0A0000E0002007
:105A800000EB0A01009005984144401A0590E0039C
:105A900006D45B462146179A059800F0B3F90544F1
:105AA000002706E001A85A46C05D179990476D1C73
:105AB0007F1C4745F6DBE0030CD55B462146179A71
:105AC000059800F09FF9054404E030205A461799E4
:105AD00090476D1C0099481E00900029F5DC08E0F5
