:020000040800F2
:10000000806100204D010008812C0008832C00082D
:10001000872C00088B2C00088F2C000800000000A3
:10002000000000000000000000000000932C000809
:10003000952C000800000000972C0008992C00085F
:1000400067010008670100086701000867010008F0
:100050006701000867010008BD2F0008670100085C
:1000600067010008670100086701000867010008D0
:1000700067010008670100086701000867010008C0
:1000800067010008670100086701000867010008B0
:1000900067010008670100086701000867010008A0
:1000A0006701000867010008670100086701000890
:1000B00067010008D12C00086701000867010008EB
:1000C0006701000867010008670100086701000870
:1000D000670100082B2D0008392D0008512E00085B
:1000E00067010008A12C00086701000867010008EB
:1000F0006701000867010008670100086701000840
:10010000670100086701000867010008670100082F
:1001100067010008670100080D2D0008670100084D
:10012000670100086701000867010008670100080F
:10013000DFF80CD005F030F90048004741270008EF
:100140008061002080F308887047000006488047DF
:1001500006480047FEE7FEE7FEE7FEE7FEE7FEE7AC
:10016000FEE7FEE7FEE7FEE74F0200083101000868
:100170000CB50020019000906C48006840F480307D
:100180006A49086000BF6948006800F400300090C8
:100190000198401C0190009818B90198B0F5A06F23
:1001A000F1D16248006800F4003010B101200090E5
:1001B00001E0002000900098012843D15C480068CD
:1001C00040F010005A4908600846006820F003001B
:1001D00008600846006840F0020008605348406824
:1001E000524948600846406848600846406840F404
:1001F000806048600846406820F47C1048600846EB
:10020000406840F4E81048600846006840F080709C
:10021000086000BF4548006800F000700028F9D071
:100220004248406820F00300404948600846406862
:1002300040F00200486000BF3C48406800F00C00FD
:100240000828F9D10CBD10B5FFF792FF10BD10B50D
:100250003648006840F001003449086008464068AC
:10026000344908403149486008460068324908402E
:100270002E4908600846006820F48020086008467F
:10028000406820F4FE0048604FF41F008860FFF7CC
:10029000DAFF4FF000602949086010BD10B5002159
:1002A00000200022214B5B6803F00C0121B10429DE
:1002B00006D0082928D107E0214B224C236027E0F3
:1002C0001F4B204C236023E0184B5B6803F4701035
:1002D000164B5B6803F48032022303EB904022B993
:1002E000194B4343174C23600DE0104B5B6803F43C
:1002F000003323B1144B4343124C236003E0104BF3
:100300004343104C236003E00D4B0E4C236000BFB1
:1003100000BF064B5B68C3F303130C4CE15C094B55
:100320001B68CB40074C236010BD0000001002404A
:10033000002002400000FFF8FFFFF6FE08ED00E09D
:1003400000127A000000002000093D000400002097
:1003500031490143314A1160704770B500210023D3
:100360000F22C47804B32D4C246804F4E064C4F56F
:10037000E064210AC1F10403CA40447804FA03F19D
:100380008478144021430901254C0678A15504784E
:1003900004F01F050124AC4005786D11AD0005F196
:1003A000E025C5F8004109E0047804F01F050124A8
:1003B000AC401C4D0678761145F8264070BD1A4AAF
:1003C0000A400243154B1B1F1A60704739B1134A8C
:1003D000121D12680243114B1B1D1A6006E00F4AE2
:1003E000121D126882430D4B1B1D1A6070470428B2
:1003F00008D14FF0E021096941F004014FF0E022FB
:10040000116107E04FF0E021096921F004014FF08C
:10041000E0221161704700000000FA050CED00E0D9
:1004200000E400E080E100E080FFFF1F10B5012044
:1004300000F0A0FF002000F09DFF10BD2A490860D9
:1004400070472949091F08607047274984310860AF
:10045000704701460020254A10884FF67F42104021
:100460000843224A10807047014600201F4A108826
:100470004FF68072104008431C4A1080704708B540
:1004800000220092194A2C3A0092009A02440092EB
:10049000009A116008BD08B501460020009013487D
:1004A0002C3800900098084400900098008808BDFF
:1004B0000D489C300068C0B270470C480830008876
:1004C00040F0010009490831088070470648A03013
:1004D0000068C0B2704705480830008840F002004C
:1004E000024908310880704704860D422C6C004098
:1004F000002044490860091D0860091D0860091DA5
:10050000086041483F4914310860704700213D4967
:100510008279002A3AD00A46126803689A430B4649
:100520001A600A1D126803689A430B1D1A6002794B
:1005300011440A6803681A430A60324A0832126892
:1005400003689A432F4B08331A601A1D1268036818
:100550009A432C4B0C331A604279102A0ED11A1F81
:10056000126803681A43274B08331A601A1D126871
:1005700003681A43234B0C331A600DE0214942797A
:1005800011440A6803681A430A6005E002791144BD
:100590000A6803689A430A6070470021016001718C
:1005A0000C21417100218171704716491031096891
:1005B0000143144A10321160704701460020114A6D
:1005C000143212680A400AB1012000E0002070478E
:1005D0000C49143108607047014600200022094B85
:1005E0001B6803EA0102074B14331B680B4013B16D
:1005F0000AB1012000E00020704702491431086070
:100600007047000000040140FFFF0F00014600207A
:10061000FE4A106800F03800084310607047FB493C
:10062000096821F00801F94A11601146096801437F
:1006300011607047F549096821F01001F34A116013
:1006400011460968014311607047F148EF4948605D
:10065000F04848607047EE48EC494860ED48486013
:100660007047EA48006940F08000E8490861704737
:10067000E648006940F08000E449086170470420C2
:10068000E249C96801F0010109B101200EE0DF492A
:10069000C96801F0040109B1022007E0DB49C9681B
:1006A00001F0100109B1032000E00420704700B5FB
:1006B00002460423FFF7E3FF034603E0FFF7DFFFF3
:1006C0000346521E012B01D1002AF7D102B905239E
:1006D000184600BD30B5044604254FF43020FFF71E
:1006E000E6FF0546042D17D1C848006940F0020016
:1006F000C649086108464461006940F0400008614D
:100700004FF43020FFF7D3FF0546C048006941F69B
:10071000FD710840BD490861284630BD10B504246C
:100720004FF43020FFF7C3FF0446042C16D1B7481E
:10073000006940F00400B54908610846006940F0CE
:10074000400008614FF43020FFF7B1FF0446AF4886
:10075000006941F6FB710840AC490861204610BDB4
:1007600000B502460423FFF78AFF034603E0FFF7C4
:1007700086FF0346521E012B01D1002AF7D102B990
:100780000523184600BD10B504244FF43020FFF7B0
:10079000E7FF0446042C16D19C48006940F0040091
:1007A0009A4908610846006940F0400008614FF42A
:1007B0003020FFF7D5FF04469448006941F6FB71ED
:1007C000084092490861204610BD00208F49C96940
:1007D00001F0020109B1012000E00020704730B5AE
:1007E000A5250424FFF7F1FF00B100254FF43020C8
:1007F000FFF75DFF0446042C3AD1854883498860A1
:10080000844888600846006940F020000861084676
:10081000006940F0400008614FF43020FFF747FFC7
:100820000446042C1BD17948006941F6DF71084069
:10083000764908610846006940F010000861764872
:100840000580E002FFF733FF0446052C10D06F4807
:10085000006941F6EF7108406C49086108E0052C19
:1008600006D06A48006941F6EF710840674908619F
:10087000204630BD78B506460C4604250020009081
:10088000E802FFF714FF0546042D24D15F480069F4
:1008900040F001005D4908613480E802FFF707FF7E
:1008A0000546042D10D1B01C0090200C0099088042
:1008B000E802FFF7FCFE05465448006941F6FE7168
:1008C00008405249086106E05048006941F6FE714F
:1008D00008404E490861284678BD70B504460D466B
:1008E0000426F002FFF7E3FE0646042E11D1474826
:1008F000006940F00100454908612580F002FFF7DA
:10090000D6FE06464148006941F6FE7108403F495F
:100910000861304670BD70B505460E460424E002FD
:10092000FFF7C5FE0446042C17D1394837498860C3
:10093000384888600846006940F0100008612E8041
:10094000E002FFF7B4FE0446052C06D02F480069EC
:1009500041F6EF7108402D490861204670BD2DE930
:10096000F04304464FF6FF763746B046B1460425BD
:10097000E443E6B2C4F30727C4F307484FEA146917
:10098000E802FFF794FE0546042D49D120481F498F
:100990008860204888600846006940F010000861BF
:1009A000FF2E06D01C4808300680E802FFF77FFEC5
:1009B0000546042D08D1FF2F06D017480A300780BE
:1009C000E802FFF774FE0546042D0AD1B8F1FF0FC7
:1009D00007D011480C30A0F80080E802FFF767FE4E
:1009E0000546042D0AD1B9F1FF0F07D00A480E3091
:1009F000A0F80090E802FFF75AFE0546052D0FD03B
:100A00000248006941F6EF71084007E0002002400B
:100A100023016745AB89EFCD00F8FF1F66490861E8
:100A20002846BDE8F08330B5054604244FF4302055
:100A3000FFF73DFE0446042C41D160485E498860C2
:100A40005F4888600846006940F020000861084659
:100A5000006940F0400008614FF43020FFF727FEA6
:100A60000446042C22D15448006941F6DF71084045
:100A7000514908610846006940F0100008611DB145
:100A800000205049088002E0A5204E4908804FF41C
:100A90003020FFF70CFE0446052C10D046480069B4
:100AA00041F6EF7108404449086108E0052C06D082
:100AB0004148006941F6DF7108403F49086120461E
:100AC00030BDF0B505460E46174604243B483A496A
:100AD00088603B488860E002FFF7E9FD0446042C8B
:100AE00019D13548006940F010003349086147F0DA
:100AF000F800304328433349891C0880E002FFF79F
:100B0000D6FD0446052C06D02B48006941F6EF714E
:100B10000840294908612046F0BD2748C06980087F
:100B200070472548006A704700202349096801F092
:100B3000200109B1012000E00020704729B11E4AC0
:100B4000126902431C4B1A6104E01B4A126982437A
:100B5000194B1A61704701460020012908D1164A35
:100B6000D26902F001020AB1012008E0002006E08B
:100B7000114AD2680A400AB1012000E00020704703
:100B80000D49C860704704200B49C96801F0010194
:100B900009B101200EE00849C96801F0040109B15A
:100BA000022007E00449C96801F0100109B10320DF
:100BB00000E0042070470000002002402301674548
:100BC000AB89EFCD00F8FF1F10B50446CC48844236
:100BD00008D10121042000F0B3FB0021042000F023
:100BE000AFFB46E0C748844208D10121082000F04D
:100BF000A7FB0021082000F0A3FB3AE0C248844292
:100C000008D10121102000F09BFB0021102000F0F2
:100C100097FB2EE0BD48844208D10121202000F03E
:100C20008FFB0021202000F08BFB22E0B84884429B
:100C300008D10121402000F083FB0021402000F07A
:100C40007FFB16E0B348844208D10121802000F0E8
:100C500077FB0021802000F073FB0AE0AE4884425D
:100C600007D10121801500F06BFB0021A01500F0D9
:100C700067FB10BD10B50121084600F061FB0021A3
:100C8000012000F05DFB10BD2DE9F041024600257A
:100C90000026002000230024002791F803C00CF058
:100CA0000F0591F803C00CF0100CBCF1000F03D03D
:100CB00091F802C04CEA050591F800C0BCF1000FA4
:100CC00031D0146800202BE04FF0010C0CFA00F337
:100CD000B1F800C00CEA03069E4220D183004FF019
:100CE0000F0C0CFA03F7BC4305FA03FC4CEA0404AE
:100CF00091F803C0BCF1280F06D14FF0010C0CFA9B
:100D000000FCC2F814C00AE091F803C0BCF1480F1F
:100D100005D14FF0010C0CFA00FCC2F810C0401CC9
:100D20000828D1D31460B1F800C0BCF1FF0F34DD46
:100D3000546800202EE000F1080C4FF0010808FA7A
:100D40000CF3B1F800C00CEA03069E4221D18300E7
:100D50004FF00F0C0CFA03F7BC4305FA03FC4CEA06
:100D6000040491F803C0BCF1280F05D100F1080C70
:100D700008FA0CF8C2F8148091F803C0BCF1480FCF
:100D800007D100F1080C4FF0010808FA0CF8C2F87E
:100D90001080401C0828CED35460BDE8F0814FF687
:100DA000FF710180022181700421C17070470246E9
:100DB000002093680B400BB1012000E00020704739
:100DC0000146886880B2704702460020D3680B4015
:100DD0000BB1012000E0002070470146C86880B2D6
:100DE000704701617047416170470AB1016100E0DD
:100DF00041617047C16070474FF480320A4382619D
:100E00008161826182698269704702460020434B9A
:100E100018684FF68073184040EA021008433F4BB1
:100E2000186070473E49C8617047F0B50A46002314
:100E300000240021002500F00046B6F1004F02D149
:100E4000364EF16901E0354E7168C0F3034583B257
:100E500000F44016B6F5401F08D121F070612F4E06
:100E6000766826F070662D4F7E6012E000F48016E2
:100E7000B6F5801F06D1032606FA05F4A14341F01A
:100E8000706106E0460D360103FA06F6B14341F003
:100E9000706122B1460D360103FA06F6314300F0C7
:100EA0000046B6F1004F02D11C4EF16101E01B4E2D
:100EB0007160F0BD30B500228B071C0F0F2303FAC1
:100EC00004F2164B08338C1053F824309343134C20
:100ED00008348D1044F8253023468C1053F8243004
:100EE0008C07240F00FA04F423430C4C08348D10B3
:100EF00044F8253030BD0A49DC31086070470000F5
:100F000000080140000C01400010014000140140A5
:100F100000180140001C0140002001400000014079
:100F2000000020420E49086070470D494860704734
:100F30000B49886070474AF6AA2009490860704743
:100F40004CF6CC4006490860704701460020044A30
:100F5000D2680A400AB1012000E00020704700007A
:100F60000030004010B50121080700F0F6F900211B
:100F70004FF0805000F0F1F910BD2A490862704727
:100F800028490861704701460020274A106820F070
:100F9000E0000843106070472249A03108607047A4
:100FA00010B502460020204B186820F003001043C3
:100FB00018601E4B1B6843F004031C4C236001297E
:100FC00001D130BF00E020BF184B1B6823F00403A1
:100FD000164C236010BD1448006840F0040012490C
:100FE00008600846006840F0020008600F4800688A
:100FF00040F004000D49086000BF00BF30BF7047DB
:1010000001460020084A52680A400AB1012000E067
:10101000002070470449096841EA8001024A1160D2
:101020007047000000000E420070004010ED00E02C
:10103000DF48006840F00100DD490860084640686C
:10104000DC490840DA49486008460068DA49084047
:10105000D74908600846006820F4802008600846E8
:10106000406820F4FE0048604FF41F00886070471D
:10107000CF49096821F48031CD4A116011460968D1
:1010800021F480211160B0F5803F03D0B0F5802FAE
:101090000ED106E0C649096841F48031C44A1160A6
:1010A00007E0C349096841F4A021C14A116000E08A
:1010B00000BF00BF704710B501460022002300208A
:1010C0004A11012A02D1BA4C236806E0022A02D151
:1010D000B74C236A01E0B64C636A01F01F02012499
:1010E00094401C400CB1012000E0002010BD38B538
:1010F000002000900024002500BF3120FFF7DBFF17
:1011000005460098401C00900098B0F5A06F01D0F3
:10111000002DF2D03120FFF7CEFF08B1012400E00E
:101120000024204638BD01460020A14A106820F066
:10113000F80040EAC10010607047A049086070479D
:10114000024600209A4B586820F47C1042EA0103C2
:101150001843974B58607047984908667047014696
:101160000020934A506820F0030008435060704705
:101170008F48406800F00C007047014600208C4A00
:10118000506820F0F000084350607047014600208E
:10119000874A506820F4E060084350607047014679
:1011A0000020834A506820F4605040EAC10050603B
:1011B000704729B17E4A527A02437D4B5A7204E04D
:1011C0007B4A527A82437A4B5A7270477B49D831B4
:1011D0000860704701460020754A506820F440407E
:1011E0000843506070470021714A20321170704AE4
:1011F00082F82010012802D004280AD104E001213D
:101200006B4A2032117005E00521694A20321170C5
:1012100000E000BF00BF704769490860704764493B
:10122000096A0143624A116270476549443908609E
:10123000704730B500210022002400235C4D6D680A
:1012400005F00C0121B1042905D0082923D105E0BE
:101250005C4D056022E05B4D05601FE0544D6D68FC
:1012600005F47012524D6D6805F48034022505EBCB
:1012700092421CB9544D554305600BE04C4D6D68CE
:1012800005F400351DB1504D5543056002E04D4D4C
:101290005543056002E04B4D056000BF00BF444D63
:1012A0006D6805F0F0010909484D6B5C0568DD408B
:1012B00045603F4D6D6805F4E061090A434D6B5C84
:1012C0004568DD4085603A4D6D6805F46051C90A96
:1012D0003E4D6B5C4568DD40C560354D6D6805F47D
:1012E0004041890B3A4D6B5CC568B5FBF3F5056170
:1012F00030BD29B12E4A526902432D4B5A6104E098
:101300002B4A526982432A4B5A61704729B1284AB5
:1013100092690243264B9A6104E0254A926982430E
:10132000234B9A61704729B1214AD2690243204B6D
:10133000DA6104E01E4AD26982431D4BDA617047CC
:1013400029B11B4AD2680243194BDA6004E0184AFB
:10135000D2688243164BDA60704729B1144A126989
:101360000243134B1A6104E0114A12698243104B85
:101370001A61704712494039086070470F49C864C4
:1013800070470B49C87170470948406A40F0807047
:1013900007494862704701460020054A92680A40A2
:1013A0000AB1012000E000207047014988727047AF
:1013B000001002400000FFF8FFFFF6FE000042426E
:1013C0008004424200127A0000093D00140000200F
:1013D0002400002029B1504A128802434E4B1A8043
:1013E00004E04D4A128882434B4B1A8070474A48AA
:1013F000001D008840F010004749091D0880704713
:101400004548001D00884FF6EF7108404249091D0C
:1014100008807047002140481C300188001F008868
:1014200041EA0040704700B50246FFF7E0FF100CAC
:10143000394918310880091D0A80FFF7E1FF00BD16
:1014400000B50246FFF7D3FFC2F30340324908312B
:101450000880091D0A80FFF7D3FF00BD00B50246D2
:10146000FFF7C5FF100C2C4920310880091D0A80A8
:10147000FFF7C6FF00BD0020274910310988090782
:10148000080B2549143109880843704700BF2248DA
:10149000001D008800F020000028F8D070471E488A
:1014A000001D00884FF6F77108401B49091D088090
:1014B00000BF1948001D008800F008000028F8D07F
:1014C000704701460020144A121D12880A400AB1D2
:1014D000012000E0002070470F49091D0988814361
:1014E0000D4A121D11807047014600200A4A121D44
:1014F00012880A40D0B2084A12880A4012B108B1D4
:10150000012000E0002070470349091D098881433C
:10151000014A121D118070470028004010B5044692
:10152000FE48844208D10121C014FFF709FF0021C1
:10153000E014FFF705FFC4E0B4F1804F08D10121AA
:101540000846FFF70AFF00210120FFF706FFB8E079
:10155000F348844208D101210220FFF7FEFE00215A
:101560000220FFF7FAFEACE0EE48844208D10121E8
:101570000420FFF7F2FE00210420FFF7EEFEA0E0BA
:10158000E948844208D101210820FFF7E6FE002146
:101590000820FFF7E2FE94E0E448844208D10121EC
:1015A0001020FFF7DAFE00211020FFF7D6FE88E0BA
:1015B000DF48844208D101212020FFF7CEFE002120
:1015C0002020FFF7CAFE7CE0DA48844208D10121DE
:1015D0004014FFF7B5FE00216014FFF7B1FE70E084
:1015E000D548844209D10121C804FFF7A9FE002192
:1015F0004FF40020FFF7A4FE63E0D048844209D1F5
:1016000001210805FFF79CFE00214FF48010FFF731
:1016100097FE56E0CA48844209D101214805FFF7E8
:101620008FFE00214FF40010FFF78AFE49E0C54805
:10163000844208D101214020FFF78FFE0021402085
:10164000FFF78BFE3DE0C048844208D10121802095
:10165000FFF783FE00218020FFF77FFE31E0BB48CB
:10166000844208D101218015FFF777FE0021A015E3
:10167000FFF773FE25E0B648844209D10121080432
:10168000FFF75EFE00214FF48030FFF759FE18E0AF
:10169000B048844209D101214804FFF751FE0021DE
:1016A0004FF40030FFF74CFE0BE0AB48844208D10A
:1016B00001218804FFF744FE00214FF48020FFF74A
:1016C0003FFE10BD00220288944B98420ED0994BE9
:1016D00098420BD0B0F1804F08D0914B984205D082
:1016E000904B984202D0904B984204D14FF68F73A2
:1016F0001A404B881A438D4B984207D08C4B984226
:1017000004D04FF6FF431A40CB881A4302808B88DF
:1017100083850B880385814B98420BD0854B98427B
:1017200008D08B4B984205D08A4B984202D08A4B06
:10173000984201D10B7A038601238382704770B5EA
:10174000002400220023058C4FF6FE7635400584E8
:10175000028C8388048B4FF68F752C40B51E2C406D
:101760000D882C43751E2A400D892A434D882A4333
:101770006A4DA8420BD06F4DA84208D0744DA842C4
:1017800005D0744DA84202D0734DA84213D14FF634
:10179000F7752A404D892A434FF6FB752A408D88FC
:1017A0002A434FF6FF652B404FF6FF552B408D899E
:1017B0002B43CD892B4383800483CD888586028487
:1017C00070BD70B5002400220023058C4FF6EF7623
:1017D00035400584028C8388048B48F6FF752C40C5
:1017E0004FF6FF452C400D884FF6FF7606EA05259B
:1017F0002C434FF6DF752A400D8906EA05152A436A
:101800004D8806EA05152A43444DA84202D0494DA9
:10181000A8421DD14FF67F752A404D894FF6FF76BD
:1018200006EA05152A434FF6BF752A408D8806EA59
:1018300005152A434FF6FF352B404FF2FF752B401D
:101840008D8906EA85052B43CD8906EA85052B435C
:1018500083800483CD880587028470BD70B5002421
:1018600000220023058C4FF6FF6635400584028C6C
:101870008388848B4FF68F752C404FF6FC752C4077
:101880000D882C434FF6FF552A400D894FF6FF7601
:1018900006EA05252A434D8806EA05252A431F4DF9
:1018A000A84202D0234DA8421DD14FF2FF752A4015
:1018B0004D894FF6FF7606EA05252A434FF6FF3598
:1018C0002A408D8806EA05252A434EF6FF752B40EF
:1018D0004DF6FF752B408D8906EA05152B43CD8902
:1018E00006EA05152B4383808483CD88858702848F
:1018F00070BD70B5002200230024058C4EF6FF76E3
:1019000035400584038C8488828B48F6FF752A4015
:101910004FF6FF452A400D8820E00000002C0140D2
:101920000004004000080040000C0040001000408F
:101930000014004000340140004C014000500140C0
:101940000054014000180040001C004000200040EE
:101950000040014000440140004801404FF6FF763E
:1019600006EA05252A434DF6FF752B400D8906EA48
:1019700005352B434D8806EA05352B43FA4DA84221
:1019800002D0FA4DA84208D14BF6FF752C408D8944
:101990004FF6FF7606EA85152C4384808283CD8836
:1019A000A0F84050038470BD828B4FF2FF331A4081
:1019B0008283828B4FF6FF7303EA01231A438283EB
:1019C0007047F0B50C461546002200210026078C12
:1019D0004EF6FF7C07EA0C070784828B018C4FF6DA
:1019E000FF7707EA043640F6FF473A404FF6FF77A5
:1019F00007EA05273A434FF6FF7707EA03373A43EA
:101A0000D94FB8420ED0D94FB8420BD0B0F1804F69
:101A100008D0D74FB84205D0D64FB84202D0D64FE3
:101A2000B84206D14DF6FF77394046F48057394326
:101A300005E047F6FF57394044F480573943828325
:101A40000184F0BD828B4FF6F3731A408283828B40
:101A50000A4382837047F0B50C46154600220021E8
:101A60000026078C4FF6FF6C07EA0C070784828B71
:101A7000018C4FF6FF7707EA04264FF60C773A40C1
:101A80004FF6FF7707EA03172F433A43B64FB842A2
:101A90000ED0B64FB8420BD0B0F1804F08D0B44F43
:101AA000B84205D0B34FB84202D0B34FB84206D1C6
:101AB0004FF6FF57394046F48077394305E04FF23F
:101AC000FF57394044F48077394382830184F0BD65
:101AD000028B4FF2FF331A400283028B4FF6FF73E3
:101AE00003EA01231A4302837047F0B50C461546FA
:101AF000002200210026078C4FF6EF7C07EA0C0736
:101B00000784028B018C4FF6FF7707EA041640F634
:101B1000FF473A404FF6FF7707EA03373A434FF65D
:101B2000FF7707EA05273A438F4FB8420ED08F4F11
:101B3000B8420BD0B0F1804F08D08D4FB84205D0DD
:101B40008C4FB84202D08C4FB84206D14FF6DF77A7
:101B5000394046F01007394305E04FF65F773940CA
:101B600044F01007394302830184F0BD028B4FF625
:101B7000F3731A400283028B0A4302837047F0B565
:101B80000C46154600220021068C4FF6FE773E409B
:101B90000684028B018C4FF60C7632407E1C06EADE
:101BA00003162E433243704EB0420ED06F4EB042F9
:101BB0000BD0B0F1804F08D06D4EB04205D06D4EC5
:101BC000B04202D06C4EB04206D14FF6FD763140A5
:101BD00044F00106314305E04FF6F576314044F01C
:101BE0000106314302830184F0BD70B505460C4601
:101BF0005D4885420ED05D4885420BD0B5F1804FDF
:101C000008D05B48854205D05A48854202D05A48E0
:101C1000854200D100E000BF208850B92389A28806
:101C200061882846FFF7ABFFE1882846FFF79EFF53
:101C300025E0208804280AD12389A28861882846C3
:101C4000FFF753FFE1882846FFF742FF17E020889F
:101C500008280AD12389A28861882846FFF7FBFE5D
:101C6000E1882846FFF7EEFE09E02389A288618813
:101C70002846FFF7A6FEE1882846FFF795FE70BDCF
:101C80002DE9F04105460C4600260127608808B979
:101C9000022600E00026A088012801D1022700E0EA
:101CA00001272088A0B92389A28861882846FFF7E8
:101CB00066FFE1882846FFF759FF23893A463146F7
:101CC0002846FFF712FFE1882846FFF701FF13E0DF
:101CD0002389A28861882846FFF707FFE188284604
:101CE000FFF7F6FE23893A4631462846FFF747FFBD
:101CF000E1882846FFF73AFFBDE8F0810A884B8863
:101D00001A438B881A43CB881A430B891A434B8991
:101D10001A438B891A43A0F8442070474FF6FF718D
:101D2000818000210180C1804180017270470021C3
:101D3000018041808180C180018141818181C18197
:101D40007047002101804180012181800021C180F4
:101D5000018170470021018041808180C180018123
:101D60004181818170470000002C01400034014016
:101D70000004004000080040000C004021B102882F
:101D800042F00102028004E002884FF6FE731A401E
:101D90000280704731B1B0F8442042F40042A0F80C
:101DA000442005E0B0F84420C2F30E02A0F844201D
:101DB00070471AB183890B43838102E083898B4387
:101DC000838170478182704741EA0203A0F848305E
:101DD00070471AB183890B43838102E083898B4367
:101DE0008381704701894FF6F87211400181704775
:101DF0000A46002101894FF68F7319401143018172
:101E0000704730B504460D4629462046FFF7F0FFDF
:101E1000208940F00700208130BD2DE9F0410446C3
:101E20000D4616461F46602D06D13B46012231461F
:101E30002046FFF75AFE05E03B4601223146204688
:101E4000FFF79DFE29462046FFF7D2FF208940F08C
:101E500007002081BDE8F08130B50C4600210189E2
:101E6000C9B24FF6FF7505EA0325154325432943FB
:101E7000018130BD2DE9F04105460E4617469846D2
:101E8000002443463A4631462846FFF7E5FF2C89B1
:101E90004FF6F870044044F007044FF68F7004408A
:101EA00044F070042C81BDE8F081F0B504460D4685
:101EB00016461F463B46324629462046FFF7CCFFD2
:101EC000208940F480402081F0BD018582827047E6
:101ED0000A46002101884FF68F7319401143018093
:101EE0007047F0B50C4615461E460021002200231F
:101EF0000189028B038C4FF6F877394021434FF666
:101F0000FC473A4040F201173A434FF6DD773B4039
:101F10004FF6FF7707EA06172F433B430181028301
:101F20000384F0BD0A460021018B4FF68F731940E0
:101F30001143018370470A460021018B48F6FF7365
:101F400019404FF6FF7303EA0223194301837047D8
:101F50000A460021818B4FF68F731940114381830C
:101F600070470A460021818B48F6FF7319404FF6EF
:101F7000FF7303EA022319438183704721B102886A
:101F800042F08002028004E002884FF67F731A401C
:101F90000280704721B1828842F00402828004E00E
:101FA00082884FF6FB731A408280704721B1828885
:101FB00042F00802828004E082884FF6F7731A40EC
:101FC0008280704721B1828842F00102828004E061
:101FD00082884FF6FE731A40828070470A460021BD
:101FE000018B4FF6F77319401143018370470A467E
:101FF0000021018B4FF2FF7319404FF6FF7303EA84
:1020000002231943018370470A460021818B4FF652
:10201000F77319401143818370470A460021818B71
:102020004FF2FF7319404FF6FF7303EA022319437F
:10203000818370470A460021018B4FF6FB731940DC
:102040001143018370470A460021018B4FF6FF338D
:1020500019404FF6FF7303EA0223194301837047C7
:102060000A460021818B4FF6FB731940114381838F
:1020700070470A460021818B4FF6FF3319404FF617
:10208000FF7303EA02231943818370470A46002144
:10209000018B4FF67F7319401143018370470A4645
:1020A0000021018BC1F30E014FF6FF7303EA0223F7
:1020B0001943018370470A460021818B4FF67F73D5
:1020C00019401143818370470A460021818BC1F377
:1020D0000E014FF6FF7303EA022319438183704711
:1020E0000A460021018C4FF6FD731940114301840B
:1020F00070470A460021018C4FF6F77319401143CF
:10210000018470470A460021018C4FF6DF731940A5
:102110004FF6FF7303EA02131943018470470A461E
:102120000021018C4FF67F7319404FF6FF7303EACD
:1021300002131943018470470A460021018C4FF6AF
:10214000FF5319404FF6FF7303EA0223194301843A
:1021500070470A460021018C4FF2FF7319404FF679
:10216000FF7303EA02231943018470470A460021E2
:10217000018C4DF6FF7319404FF6FF7303EA0233EB
:1021800019430184704730B5002301248C40A3B269
:10219000048C9C430484048C02FA01F5ADB22C43F8
:1021A000048430BD30B5002304248C40A3B2048CD9
:1021B0009C430484048C02FA01F5ADB22C430484E0
:1021C00030BD70B5034600200024184618300125A4
:1021D0008D40ACB21D8CA5431D8409B1082909D1DD
:1021E00000EB6100056825F0700505600568154382
:1021F00005600EE00D1FC5F34E052844056825F463
:10220000E045056005684FF6FF7606EA022635438D
:10221000056070BD21B1028842F00202028004E034
:1022200002884FF6FD731A400280704721B1028880
:1022300042F00402028004E002884FF6FB731A4069
:102240000280704721B1828842F08002828004E0DF
:1022500082884FF67F731A408280704702884FF65B
:10226000F7731A40028002880A430280704782880E
:102270004FF68F731A40828082880A4382807047AB
:1022800002894FF6F8731A40028102890A430281DB
:10229000704702894FF67F731A40028102890A4310
:1022A00002817047818470478185704781867047BD
:1022B0000187704781877047A0F8401070470288F7
:1022C0004FF6FF431A40028002880A43028070479B
:1022D0000146888E70470146088F70470146888FF7
:1022E00070470146B1F8400070470146888C70473E
:1022F0000146088D704702460020138A0B400BB13F
:10230000012000E000207047CA430282704730B5C8
:102310000246002000230024158A05EA010395895E
:1023200005EA010413B10CB1012000E0002030BD2A
:10233000CA4302827047000010B50446FB4884423D
:1023400009D101218803FEF7FBFF00214FF48040F3
:10235000FEF7F6FF32E0F648844209D10121480435
:10236000FEF7FBFF00214FF40030FEF7F6FF25E0FB
:10237000F048844209D101218804FEF7EEFF0021D4
:102380004FF48020FEF7E9FF18E0EB48844209D1C2
:102390000121C804FEF7E1FF00214FF40020FEF701
:1023A000DCFF0BE0E548844208D101210805FEF777
:1023B000D4FF00214FF48010FEF7CFFF10BD2DE9B0
:1023C000F04786B005460E460024A24600BFA1464F
:1023D0000027B08900B100BF2F462C8A4CF6FF7051
:1023E0000440F08804432C82AC894EF6F31004407C
:1023F000B08831890843718908430443AC81AC8AB1
:102400004FF6FF400440B0890443AC8201A8FEF7B8
:1024100010FFC648874202D1DDF810A001E0DDF8C8
:102420000CA0A88900F4004040B10AEBCA0000EB00
:102430000A1031684900B0FBF1F807E00AEBCA0066
:1024400000EB0A1031688900B0FBF1F86420B8FB9A
:10245000F0F004012009642101FB1089A88900F42F
:10246000004040B1322000EBC900B0FBF1F000F0B9
:102470000700044308E0322000EB09106421B0FBA0
:10248000F1F000F00F0004432C8106B0BDE8F087A6
:102490004FF41651016000218180C18001810C211F
:1024A000418100218181704710B502460020108AC9
:1024B0004FF2FF0318400B884C8823438C8823433A
:1024C000CC8823431843108210BD00210180418035
:1024D0008180C180704721B1828942F4005282819B
:1024E00004E082894DF6FF731A4082817047F0B58F
:1024F0000346002400260025002040F66A17B94252
:1025000000D100BF1846C1F3421401F01F06012795
:1025100007FA06F5012C01D10C3004E0022C01D1A0
:10252000103000E014301AB107682F43076002E052
:102530000768AF430760F0BD1AB1838A0B438382FB
:1025400002E0838A8B4383827047028A4FF6F073DE
:102550001A400282028A0A430282704782894FF23D
:10256000FF731A40828182890A438281704721B1B8
:10257000828942F00202828104E082894FF6FD7373
:102580001A4082817047028A4FF6DF731A40028236
:10259000028A0A430282704721B1028A42F48042D1
:1025A000028204E0028A4BF6FF731A4002827047EF
:1025B000C1F308028280704701468888C0F3080092
:1025C0007047818941F0010181817047028BD2B24D
:1025D0000283028B42EA012202837047028B02F4DB
:1025E0007F420283028B0A430283704721B1828AB1
:1025F00042F02002828204E0828A4FF6DF731A40A2
:102600008282704721B1828A42F01002828204E005
:10261000828A4FF6EF731A408282704721B1828A14
:1026200042F00802828204E0828A4FF6F7731A4071
:102630008282704721B1828942F40042828103E0A4
:102640008289C2F30E028281704721B1828A42F4EC
:102650000062828204E0828A4FF2FF731A40828213
:102660007047828A4FF6FB731A408282828A0A433D
:102670008282704721B1828A42F00202828204E0A3
:10268000828A4FF6FD731A4082827047024600200C
:10269000B1F5007F00D100BF13880B400BB10120C2
:1026A00000E00020704701F40072B2F5007F00D115
:1026B00000BFCA430280704770B502460024002361
:1026C0000025002040F66A16B14200D100BFC1F3D8
:1026D000421501F01F03012606FA03F3012D02D172
:1026E0009689334006E0022D02D1168A334001E07C
:1026F000968A33400C12012606FA04F416883440F8
:1027000013B10CB1012000E0002070BD10B5002213
:10271000002340F66A14A14200D100BF0A1201242E
:102720009440A3B2DC43048010BD00000038014097
:102730000044004000480040004C00400050004071
:102740004FF4E01000F0A3F800F0DBF800F090F98F
:1027500000F040F900F037FA02F0B7F825A002F0D7
:1027600087FE2A48A0F17901C1F8F000401CC1F8A9
:10277000F400401CC1F8F800401CC1F8FC00401CEB
:10278000C1F80001401CC1F80401401CC1F8080157
:10279000401CC1F80C01401CC1F8100108381C494C
:1027A0000860401C4860401C8860401CC860194894
:1027B000A0F20111C1F80002401CC1F80402401C43
:1027C000C1F80802801CC1F81802401CC1F81002B0
:1027D0000846D0F80C020830C1F80C0201F58470EC
:1027E000C1F8140205E001F06FFD00F0CBFE01F02E
:1027F00062F8F8E70D0A4D617374657220526562E4
:10280000626F74210D0A0D0A00000000215A002099
:10281000E85C0020C55B00201CB504460020019048
:102820000090FEF705FC4FF48030FEF721FCFEF728
:102830005EFC00900098012826D11020FDF7FAFEDA
:102840000220FDF7E3FE0020FEF797FC0020FEF7D4
:10285000A6FC4FF48060FEF799FC21464FF48030CF
:10286000FEF76EFC0120FEF777FC00BF3920FEF773
:1028700022FC0028FAD00220FEF771FC00BFFEF710
:1028800077FC0828FBD101E000BFFEE71CBD38B58E
:10289000044600200090FEF7CBFB0120FEF74DFC24
:1028A000EF48006800F0020000900098022825D14F
:1028B0001020FDF7BFFE0220FDF7A8FE0020FEF766
:1028C0005CFC0020FEF76BFC4FF48060FEF75EFCC2
:1028D00021460020FEF734FC0120FEF73DFC00BF3E
:1028E0003920FEF7E8FB0028FAD00220FEF737FC7B
:1028F00000BFFEF73DFC0828FBD101E000BFFEE76A
:1029000038BD10B501211020FEF700FD012108207F
:10291000FEF7FCFC01210846FEF7F8FC012104202B
:10292000FEF7F4FC01218803FEF7F0FC01214804C6
:10293000FEF7F9FC01218804FEF7F5FC10BD0EB589
:102940004FF40070ADF8080003208DF80A0018203D
:102950008DF80B0002A9C348FEF796F94FF480608A
:10296000ADF8080004208DF80B0002A9BD48FEF761
:102970008BF90420ADF8040003208DF80600182020
:102980008DF8070001A9B748FEF77EF90820ADF8D9
:10299000040004208DF8070001A9B248FEF774F97D
:1029A0004FF48060ADF8000003208DF8020018207D
:1029B0008DF803006946AC48FEF766F94FF40060F5
:1029C000ADF8000004208DF803006946A648FEF724
:1029D0005BF90EBD1FB54FF4C060FDF7B9FC1D20BB
:1029E0008DF80C0000208DF80D0002208DF80E00EF
:1029F00001208DF80F0003A8FDF7AFFC4FF4C06075
:102A0000FDF7A6FC25208DF8080000208DF80900B0
:102A100003208DF80A0001208DF80B0002A8FDF7B5
:102A20009CFC4FF4C060FDF793FC26208DF8040059
:102A300000208DF8050002208DF8060001208DF899
:102A4000070001A8FDF789FC4FF4C060FDF780FC8A
:102A500027208DF8000000208DF8010001208DF85E
:102A600002008DF803006846FDF777FC1FBD704734
:102A700000B58DB0FFF763FF4FF4E13009900020FF
:102A8000ADF82800ADF82A00ADF82C00ADF8300004
:102A90000C20ADF82E0009A97448FFF790FC012224
:102AA00040F225517148FFF722FD01216F48FFF7E1
:102AB00012FD4FF4E13005900020ADF81800ADF89C
:102AC0001A00ADF81C00ADF820000C20ADF81E0077
:102AD00005A96748FFF773FC012240F225516448BD
:102AE000FFF705FD01216248FFF7F5FC4021604832
:102AF000FFF7D9FD4FF4E13001900020ADF8080058
:102B0000ADF80A00ADF80C00ADF810000C20ADF8DF
:102B10000E0001A95748FFF752FC012240F225514F
:102B20005448FFF7E4FC01215248FFF7D4FC402150
:102B30005048FFF7B8FD0DB000BD0EB54FF47A70E8
:102B4000ADF804000720ADF800000020ADF8060045
:102B5000ADF802008DF8080069464748FEF7B2FD5F
:102B600001214548FFF7D0FB012211464248FFF7FB
:102B700020F901214048FFF701F90EBD10B50120F1
:102B8000FEF7FBF9FDF752FC0120FEF745FB00BF05
:102B90006120FEF790FA0028FAD04FF40070FEF79B
:102BA0003EFB0120FEF741FBFEF779FC49F6404071
:102BB000FEF746FCFEF76AFC01210220FEF70AFC44
:102BC000FEF764FC10BD0EB501210220FEF7ABFB41
:102BD00041F61F40ADF800000020ADF80200632070
:102BE000ADF804000020ADF8060069462348FEF762
:102BF00069FD012211462148FFF7DBF801211F483A
:102C0000FFF7BCF80EBD70B5044601210807FEF7BA
:102C10008AFBFEF7A7F945F25550FEF783F904EB5E
:102C20008400C0F35B05E8B2FEF77FF904EB840093
:102C3000C0F35B06B0B2FEF77BF9FEF781F970BD19
:102C400070B504460D46E1B20848FFF7B1FC00BF7D
:102C500040210648FFF71AFD0028F9D0204670BD34
:102C60000010024000080140000C01400038014003
:102C700000440040004800400010004000040040B4
:102C8000704700BFFEE700BFFEE700BFFEE700BFE2
:102C9000FEE770477047704710B500F030FA10BD7E
:102CA00010B50220FEF720FC88B14FF40030FDF78C
:102CB000A4FC0120FEF7A4F910B10120FEF7AAF947
:102CC000FEF7E4FB0220FEF71FFCFEF7DFFB10BD62
:102CD00010B50121BE48FFF71AFB90B10121BC4895
:102CE000FFF726FBBB4800680A30BA490860BA48BB
:102CF00000680A30B8490860B84800680A30B74927
:102D000008600121B248FFF713FB10BD10B5012187
:102D1000B348FFF7FCFA18B10121B148FFF708FBEF
:102D20000121AF48FFF704FB10BD10B540F225515B
:102D3000AC48FFF7C1FC10BD10B540F22551AA48C0
:102D4000FFF7BAFC00287DD0A748FFF735FCA7495C
:102D500091F81611A54A5054104690F8160120B962
:102D600010460078EE2800D010BDA04890F816015B
:102D7000401C9E4981F81601084690F81601401E35
:102D8000085CFF280CD1084690F8180140B90846A5
:102D900090F81601964908600120944981F81801BD
:102DA000924890F81801012843D1904890F81601F4
:102DB0008F490968401A03283BD18C488C4909681F
:102DC000405CFC2828D1894989480068401C085C7F
:102DD000FF2821D186480068801C085CFF281BD191
:102DE00084A002F045FB814890F8161100F016FB14
:102DF0007E4890F816110246783000F0D8F97B48EA
:102E000090F81601794981F81701012081F8140121
:102E1000754800F016FA0CE07AA002F029FB0020B9
:102E2000724981F81401704800F00BFA00207049D3
:102E300008606E4890F81601782807DB76A002F04B
:102E400017FB00E002E0684800F0FBF900BF8BE7E9
:102E500010B540F225517448FFF72EFC002871D0C0
:102E60000120724981F821026F48FFF7A5FB6F49E5
:102E700091F822126D4A5054104690F8220238B947
:102E800010460078A52803D0674800F0DAF910BD95
:102E9000664890F82202401C644981F822020846E4
:102EA00090F82202012816DD084640785A2812D0F0
:102EB0005FA002F0DDFA002363A20121184601F0B1
:102EC00066FD022300221946584800F0B7FA56481A
:102ED00000F0B7F9DBE7554890F82202092856DBE5
:102EE000524890F82212007A093081424FD14F485F
:102EF00090F822120246FF3000F04CF955A002F083
:102F0000B7FA584801780078401C564A10700320E0
:102F100091FBF0F200FB121020B1012813D002281F
:102F200021D118E001F0B6FC00234FA21946012080
:102F300001F02DFD3D4890F8221201231A4600F0C1
:102F40007DFA10E038E0394890F82212032301227C
:102F500000F074FA07E0354890F8221205230122A8
:102F600000F06CFA00BF00BF304890F82212FF302A
:102F700000F054FA2D4890F822022C4981F82302DF
:102F8000294800F05EF90120284981F820022748ED
:102F900090F8220278280BDB36A002F069FA0023B1
:102FA00038A20121184601F0F2FC1F4800F049F94F
:102FB00000201E4981F8210200BF68E710B50120FA
:102FC000FDF70AFB012801D1FDF717FB10BD00003A
:102FD00000040040280000202C00002030000020C9
:102FE000001000400038014000440040A859002073
:102FF000340000205265636976655446543A200DCA
:103000000A00000052656369766554465420657273
:10301000726F200D0A00000064617461206F766594
:10302000726C656E670D0A0000480040C45A0020AB
:103030002D2D55617274335F495352206461746160
:1030400020657272200D0A006461746120657272DD
:10305000202020004D61737465722052656369768B
:10306000653A2000380000205265636976653A2091
:103070002020000044617461206F7665724C656E9B
:1030800074680A006F7665724C656E746820202043
:103090000000000030B53A4800683A4AB0FBF2F14F
:1030A000B1F1807F01D301201DE021F07F40401E5F
:1030B0004FF0E022506150170F22002807DA130763
:1030C0001D0E314B00F00F04241F1D5503E01307A4
:1030D0001C0E2E4B1C5400BF00204FF0E0229061CC
:1030E00007201061002008B100BFFEE730BD28496D
:1030F000086000BF264909680029FBD170472448B1
:10310000006820B122480068401E214908607047CD
:1031100010B5002106E0092200BF1300A2F1010250
:10312000FBD1491C8142F6D310BD7047014642F2E3
:1031300028324A434FF0E0235A6100229A6101226B
:103140001A6100BF4FF0E022106900F001021AB1CD
:1031500000F48032002AF5D000224FF0E0231A61FB
:103160009A61704710B5002106E0092200BF1300E4
:10317000A2F10102FBD1491C8142F6D310BD00002F
:1031800000000020A086010018ED00E000E400E04F
:103190003C00002010B50346002003E0145C1C54E2
:1031A000441CE0B28842F9DB00245C5410BD10B529
:1031B0000346002003E0145C1C54441CE0B2884227
:1031C000F9DB00245C5410BD2DE9F04107460C46A4
:1031D000154601204B49086000260DE014F8011B3C
:1031E0003846FFF7E5F900BF80213846FFF74EFA71
:1031F0000028F9D0701CC6B2AE42EFDB0020414976
:103200000860BDE8F0812DE9F04106460C462046F5
:1032100001F010FD074600250FE0615D3AA002F0C5
:1032200027F9615D3046FFF7C3F900BF4021304602
:10323000FFF72CFA0028F9D06D1CBD42EDDBBDE88C
:10324000F08110B504463148844210D10020304945
:1032500081F8150181F8160178212D4801F0DFFC75
:1032600000202B4981F818012AA002F001F92F480B
:1032700084420CD100202E4981F8210281F82202DB
:10328000FF212B4801F0CBFC2AA002F0F1F810BD81
:103290002DE9F04104460E4617461D46DDF818801C
:1032A0005A202070A52060703078A0707078E0708F
:1032B000B078207100206071A771E07125722A46F4
:1032C000414604F1090001F091FC05F10900C1B289
:1032D000204600F094F805F1090160541BA002F0AB
:1032E000C7F805F10A011C4800F098F86420FFF7C0
:1032F0001DFF05F10A00C2B217490C48FFF764FF31
:10330000BDE8F081A0012142256300000044004097
:10331000A859002072657365742075617274325407
:1033200046545061636B0D0A0000000000480040E5
:10333000C45A002072657365742075617274335FBE
:103340003438355061636B0D0A0000006275696C9A
:10335000642075333A200000F85C00202DE9F0412C
:1033600007460D4614464FF00008002609E057F8BE
:10337000262005EB080070A102F08AF808F1080881
:10338000761CA642F3DB002005F83400BDE8F0818E
:1033900070B5044600250020694908600820694985
:1033A000086008460068FFF7B3FE00BF10E004F0B5
:1033B000010018B101206249086002E00020604964
:1033C000086060480068FFF7A3FE6410681CC5B27F
:1033D000082DECDB01205A4908605A480068FFF7C5
:1033E00097FE70BD70B505460E46002404E0285DCA
:1033F000FFF7CEFF601CC4B2B442F8DB70BD10B55D
:1034000002460B460021002000BF04E0545C044447
:10341000E0B24C1CE1B29942F8DB10BD70B5054634
:103420000E46002404E0295D47A002F021F8641C48
:10343000B442F8D346A002F01BF870BD2DE9F0416C
:10344000A0B006460D46174698463C2D00DD3C25AB
:10345000002407E0325D01A901EB44003DA102F028
:1034600017F8641CAC42F5D3002001AA02F815003D
:1034700000234146384601F08AFA20B0BDE8F081C9
:103480002DE9F0410746884616460024002500BF76
:1034900010E0385D18F80410884202D1681CC5B2EB
:1034A00006E015B90120BDE8F081681CC0B2FAE75A
:1034B000601CC4B2B442ECDB701EA84204D127A049
:1034C00001F0D6FF0020EEE7FF20ECE72DE9F843FE
:1034D00006460F46304601F0ADFB05464FF00008AA
:1034E0000024284605EBD0714910A5EB410129B114
:1034F0001EA001F0BDFF601EBDE8F883284605EB65
:10350000D0714FEA610813E016F814008DF800003E
:10351000012000EB4400305C8DF8010000208DF8A4
:10352000020010220021684601F0A2FB3855641CFD
:103530004445E9DB4046DFE72530387800000000ED
:103540008C812142400000202530325820000000AC
:103550000A000000253032580000000068657843FA
:103560006F6D70616572206F6B0A0000496E766145
:103570006C696420696E707574206C656E67746820
:103580000A0000002DE9F0419EB00024F64890F8B2
:10359000200200287ED00020F34981F8200208464E
:1035A000D0F8180200780A2804D00B2860D00C2824
:1035B00071D107E0EC48D0F814020178EBA001F0DB
:1035C00057FF6FE1F2A001F053FFE748D0F8000287
:1035D0000278F4A1684601F05BFFE348D0F80402EA
:1035E0000278F0A10DF1020001F052FFDE48D0F8A0
:1035F000080200780219EBA101A801F049FFDA489E
:10360000D0F800020078E949097801EB4101E84A65
:1036100002EB41110870D448D0F804020078E34965
:10362000097801EB410102EB41114870CE48D0F816
:1036300008020078DD49097801EB410102EB4111F4
:103640008870DA48007800EB4000114601EB40102A
:10365000D649097801EB410102EB4111C8606B4684
:1036600008220221D34800F091FC601CC4B219E189
:10367000D1A001F0FDFEBC49D1F800020321FFF703
:10368000CDFED448007800EB4000C94901EB401062
:10369000B54901E00CE1FDE0D1F800120A88028092
:1036A00089788170B048D0F800020078AC285DD1EC
:1036B000AD49D1F8141209780904AB4AD2F81422A2
:1036C000527841EA0221A84AD2F81422927841EABB
:1036D000020001F0E6FB0746BF4AC04B01F000FBC9
:1036E000054601F028FCBB49097801EB4101B04ACD
:1036F00002EB41114865B749097801EB410102EB42
:103700004111486D01F004FC05462A460B46B4A061
:1037100001F0AEFE9449D1F814120979924AD2F818
:103720001422D27841EA022001F0BBFB0746AA4AE4
:10373000AA4B01F0D5FA054601F0FDFBA549097831
:1037400001EB41019A4A02EB41118865A1490978D0
:1037500001EB410102EB4111886D01F0D9FB0546F7
:103760002A460B46A1A001F083FE92E07E48D0F8E5
:1037700000020078DC28F8D17B49D1F8141249788E
:10378000794AD2F81422127841EA022001F089FB2A
:103790000746914A914B01F0A3FA054601F0CBFB95
:1037A0008C49097801EB4101814A02EB41114865DE
:1037B0008849097801EB410102EB4111486D01F0A4
:1037C000A7FB05462A460B4685A001F051FE664937
:1037D000D1F81412C978644AD2F81422927841EAD6
:1037E000022001F05EFB07467B4A7C4B01F078FA31
:1037F000054601F0A0FB7749097801EB41016C4ACD
:1038000002EB411188657349097801EB410102EB34
:103810004111886D01F07CFB05462A460B4673A0DA
:1038200001F026FE5049D1F8141249794E4AD2F8D7
:103830001422127941EA022001F033FB0746664A5E
:10384000664B01F04DFA054601F075FB61490978B8
:1038500001EB4101564A02EB4111C8655D49097807
:1038600001EB410102EB4111C86D01F051FB05462E
:103870002A460B465FA001F0FBFD564800784B49F5
:103880000978884202DB00205249087001205B4918
:10389000087007E03448D0F81802017858A001F009
:1038A000E7FD00BF00BFFF212F48FF3001F0B7F94F
:1038B0001EB0BDE8F08108B55948006801280ED94E
:1038C00057480068B0F5487F09D200205549086084
:1038D00000233FA20621782001F059F811E050485A
:1038E000006840F23E3188420BD900204C49086004
:1038F00001204C490860012335A20621782001F0FF
:1039000046F849480068B0F5FA7F20D33B48007874
:10391000D0B13049097801EB4101254A02EB411150
:1039200001F1100020A101F08CF968B13F4800902E
:103930002848007800EB40001D4A02EB40110023AC
:103940000B221C48FFF7A4FC0020374908603848C8
:103950000068B0F57A7F06D31549164800F02AFDB5
:1039600000203349086008BDC45A00204E6F6465CA
:103970004461746120726574205B253032785D206B
:10398000504F574552434F4E54524C200D0A0000A1
:103990004E6F6465446174612072657420414444D3
:1039A000520D0A0025303278000000004C00002043
:1039B000A80E0020F85C00204E6F646544617461BD
:1039C000205265742052455155455354454C45434A
:1039D00020000000500000207B14AE47E17A843FB5
:1039E00076546F74616C2025660D0A0069312025BC
:1039F000660D0A0069322025660D0A004D00002080
:103A000075617274335F3438355061636B2E636D4A
:103A10006420756E6B6F776E212025780D0A00008B
:103A200028000020B08121422C000020705D002081
:103A30003000002070B504460D4664B9694A032180
:103A4000284600F0EDF968A001F012FD0321284698
:103A5000FFF7E4FC11E0012C0FD16249481400F09B
:103A60004FF966A001F004FD03212846FFF7D6FCBC
:103A70005C4A0321284600F0ACF970BD2DE9F04FF7
:103A800087B082464FF0000B00200590049000BFE5
:103A90009AF8140000F080005E49098888420AD034
:103AA0005D480088401C5C4908809AF8140000F0CA
:103AB0008000584908809AF80E0001049AF80F0017
:103AC00001EB00209AF81010084404905248008836
:103AD00001049AF8150001EB00209AF8161008442A
:103AE0000590049801F0EEF94C4A4D4BCDE90001E8
:103AF00001F0F6F802460B46CDE9020100204949E3
:103B000001F060F980460022474B01F0E9F80646D3
:103B100001F0E5F9834642F2107105984843B0FB85
:103B2000FBF8404601F0CEF9064600223E4B01F07C
:103B300049F904460D462046294607B0BDE8F08FF6
:103B400070B504460D462A46214638A001F090FC87
:103B5000012D21D1012C0FD13BA001F089FC0023C4
:103B60003CA20121184600F012FF01203B490860E9
:103B70003B49C1F8B40134E03AA001F079FC0023DC
:103B80003BA20121184600F002FF002033490860E3
:103B90003349C1F8B40124E0022D22D1012C10D107
:103BA00035A001F065FC002336A20121342000F08D
:103BB000EEFE01202949091D08602949C1F8B80114
:103BC0000FE032A001F054FC002333A20121342085
:103BD00000F0DDFE00202149091D08602049C1F8E0
:103BE000B80170BD00C800087265616420626F6131
:103BF000726420616464723A200D0A0077726974FD
:103C00006520626F61726420616464723A200D0AFB
:103C100000000000440000204600002014AE47E1F0
:103C20007A14FE3F2A75B5410088C34072656C6105
:103C3000794F707265617420737720256420636802
:103C4000202564200D0A0000484331204F4E200DEE
:103C50000A0000004348313A4F4E2000A081214223
:103C600000802142434831204F46460D0A000000A3
:103C70004348313A4F464600434832204F4E200DCC
:103C80000A0000004348323A4F4E20004348322099
:103C90004F46460D0A0000004348323A4F46460060
:103CA0002DE9FF4105460E460027FCF7CEFC00201B
:103CB000009006EB85200290012003903420FCF751
:103CC0005FFF0DE00298FCF705FD0446042C06D0CA
:103CD00078A001F0CDFB3420FCF752FF00E004E0B7
:103CE0003846791CCFB2C828ECDB00BFC82F03DBF5
:103CF000214677A001F0BCFBFCF7B3FCBDE8FF81D7
:103D00002DE9F04104460F46B4F5806F01D24FF41F
:103D10008064C4F3090008B9A60A02E0012000EBA0
:103D20009426002504E0E8B23946FFF7B9FF6D1C80
:103D3000B542F8D3BDE8F0812DE9F04781460E4643
:103D400017460024A0466E48874201D3BDE8F0879D
:103D5000FCF77BFC3420FCF713FF27E039F8141044
:103D600007EB4400FCF7B9FD05461AE03420FCF7E8
:103D700007FF08F101001FFA80F83346224641464A
:103D800060A001F075FBB8F1050F09DD3420FCF7E8
:103D9000F7FE294665A001F06BFBFCF762FC02E030
:103DA00000BF042DE2D100BF601C84B2B442D5DB59
:103DB000FCF757FC00BFC9E710B50346002005E03B
:103DC00032F8104023F81040441CA0B28842F7DBC0
:103DD00010BD2DE9F041C0B006460C46174600253F
:103DE0004FF48071684600F01AFF2246314668465B
:103DF00000F0FCFE2546204604EBD0714910A4EBF0
:103E0000410109B1681C85B2A84605EBD870C0F322
:103E10004F013A466846FFF78FFF40B0BDE8F0819A
:103E20002DE9F041C0B006460C4617460025204655
:103E300004EBD0714910A4EB410179B92546A8469D
:103E400005EBD870C0F34F013A466846FFF7B4FF60
:103E500022466946304600F0C9FE0EE0601C85B27D
:103E6000A84605EBD87041103A466846FFF7A4FF14
:103E700022466946304600F0B9FE40B0BDE8F08108
:103E800010B50446206836490840B0F1005F0CD1F7
:103E900034A001F0EDFA6068374908602068FCF74B
:103EA00051F935480068804702E034A001F0E0FA9B
:103EB00010BD0000666C6173685F65726173655F59
:103EC00070616765204661696C64200A000000002B
:103ED000666C6173685F65726173655F7061676569
:103EE000204661696C64203E20323030202121213F
:103EF000206C6173746572726F3A2025640A000049
:103F000000000108464C4153485F50726F67726170
:103F10006D48616C66576F72642065692025642C5A
:103F20002025642F2564200A00000000464C4153E0
:103F3000485F50726F6772616D48616C66576F724F
:103F400064204661696C64203E203230302021219B
:103F500021206C6173746572726F3A2025640A00C7
:103F60000000FE2F537461636B20537563636573A8
:103F700073210D0A000000004800002053746163A3
:103F80006B204661696C6564210D0A002DE9F041E2
:103F900004460F4690461E460025EE202070B120B4
:103FA00060701020A0700020E0702771607184F8AC
:103FB0000680304600F03EFE451C2A463146E01D94
:103FC00000F014FE0021A81D2154FF21E81D2154FA
:103FD000FC21401C2154FF21401C2154401C215431
:103FE000401CC2B2F749F848FFF7EEF8BDE8F0818F
:103FF00010B586B0F5A103C9CDE90401F5A103C947
:10400000CDE90201002410E0062C0CDA04EB440098
:10401000F24901EB4010C31C04A9601C0A5C022198
:10402000E848FFF7B3FF601CC4B2ED480078844253
:10403000EADB002411E0062C0DDA04EB4400E7492A
:1040400001EB401000F1100302A9601C0A5C022180
:10405000DC48FFF79BFF601CC4B2E1480078844253
:10406000E9DBDF480278DFA101A801F011FA01AB1A
:1040700036220221D348FFF789FF06B010BD00B5F4
:1040800085B0D948D0F8FC000078012836D1D64850
:10409000D0F804010078012804D06F280CD07928CA
:1040A00023D11EE0D1A001F0E3F90020D54908702A
:1040B0000220D549087020E0D4A001F0D9F9CA48FF
:1040C000D0F810010078012101EBC010D44908702C
:1040D000084601230A22C1490090BA48FFF7D8F8E0
:1040E0000BE0D0A001F0C4F907E0BF48D0F804010C
:1040F0000178D1A001F0BCF900BF4FE0BA48D0F878
:10410000FC000078022842D1B748D0F804010078BA
:104110001E280FD006DC092809D0102808D0112845
:104120002CD106E0202819D0212827D11AE02DE033
:104130002CE02BE0C7A001F09BF9DC208DF80400F7
:10414000FF208DF805008DF80600B54800230C22ED
:1041500001A900909B48FFF79BF817E0C3A001F06E
:1041600087F913E0C6A001F083F90120A649087081
:10417000A44908700020C849087007E09A48D0F8A0
:1041800004010178C5A001F073F900BF06E096486C
:10419000D0F8FC000178C8A001F06AF905B000BDB4
:1041A00030B599B0054600240DF10700E96800F02C
:1041B00056FDE868C11D05A800F051FD1EE004EBA6
:1041C0004400864A02EB401000F1100105A800F0FF
:1041D00038FD50B104EB4400804A02EB4010C11C92
:1041E0000DF1070000F02DFD30B9B8A001F040F945
:1041F0004FF0FF3019B030BD601CC4B27848007871
:104200008442DCDB7649097801EB4101734A02EB19
:104210004111C81C0DF1070100F021FD704909781A
:1042200001EB41016D4A02EB411101F1100005A9BA
:1042300000F015FD6A4A127802EB4202674B03EB6D
:104240004211674A127802EB420203EB4212D01C81
:10425000FFF73CF96248007800EB40005F4901EB52
:1042600040105F49097801EB41015C4A02EB4111C2
:10427000C8605B480078401C59490870A1A001F053
:10428000F7F8002419E004EB4400544901EB401016
:1042900000F1100304EB440001EB4010C21C214666
:1042A0009CA001F0E5F804EB44014C4A02EB4110FC
:1042B0000321FFF7B3F8601CC4B249480078844278
:1042C000E1DB4748007895E710B5474890F81401BE
:1042D00000283FD00020444981F814010846D0F856
:1042E000F0000078B12802D0CD2825D108E03E4862
:1042F000D0F8F4000078112801D1FFF7C0FE23E0C8
:104300008F4840680078C12805D18D48FFF748FFE5
:10431000FFF76EFE0FE08A4840680078C3280AD194
:104320008748C068007830388649087008460178A8
:1043300085A001F09DF807E02B48D0F8F000017847
:104340008AA001F095F800BF00BF78212648783098
:1043500000F065FC10BD2DE9F04104460E461746FD
:104360000025EE202070B12060701120A070002088
:10437000E07026716071A771FF21E81D2154FC21B6
:1043800005F108002154FF2105F10900215405F130
:104390000A0021547DA001F06BF805F10B010948DA
:1043A000FFF73CF805F10B0206490748FEF70CFF42
:1043B000BDE8F0812DE9F04FC1B083464FF0000A0F
:1043C00033E10000F85C00200044004000010203DB
:1043D000040506000022232425262700A80E00201D
:1043E0004C00002025640000A8590020736574204B
:1043F000627574746F6E20756E446973706C617948
:104400000D0A00004D0000204E000020636F6E7406
:10441000726C206E6F6465206368310D0A000000C5
:10442000705D0020636F6E74726C206E6F64652027
:104430006368320D0A0000004E6F7466756E20705E
:104440006167653120627574746F6E2025780D0A7E
:1044500000000000736561726368206E6F64652000
:10446000627574746F6E0D0A0000000072656769F2
:1044700073746572206E6F6465200D0A0000000081
:104480006261636B20627574746F6E20446973702F
:104490006C61790D0A000000500000204E6F7466B8
:1044A000756E20706167653220627574746F6E205E
:1044B00025780D0A000000004E6F7466756E20535B
:1044C000637265656E2025640D0A000055534552E0
:1044D0005F434D442D2D3E3E20434D445F30784395
:1044E00031206964206F72206E616D6520616C728D
:1044F00065616479207265676973746572656421AA
:104500000D0A00004E6F6465204C6973743A200DEB
:104510000A000000496420696E6465782025642CD7
:10452000204944205B25735D2C204E616D65205B26
:1045300025735D0D0A68657849443A200000000043
:10454000E85C00204F000020555345525F434D4426
:10455000202DA1B7206E6F64655061676543686167
:104560006E6765202564200D0A0000007561727475
:10457000325446545061636B2E636D6420756E6BCC
:104580006F776E212025780D0A0000006275696C36
:1045900064203A20000000000AEB4A00264901EBA3
:1045A000401000F11003524601212448FFF7EEFCB1
:1045B0000AEB4A00204901EB40100078DC282FD19B
:1045C0000AEB4A011C4A02EB4111C86D00F0A0FC45
:1045D00004460D460AEB4A01174A02EB4111886D69
:1045E00000F096FC06460F460AEB4A01124A02EB1F
:1045F0004111486D00F08CFC804642460B4610A1EC
:1046000005A8CDE90067CDE9024500F041FF0AF1B8
:104610006500C2B205AB01210848FFF7B7FC00E016
:1046200000BF0AF1010000F0FF0A0F480078824540
:10463000B2DB41B0BDE8F08FA80E0020F85C00208E
:1046400044433A20252E326620562C202043483100
:1046500020252E326620412C202043483220252E52
:1046600032662041000000004C00002008B5012106
:104670000820FCF74BFE4FF44070ADF8000010200E
:104680008DF8030003208DF802006946FC48FCF712
:10469000FBFA4FF44071FA48FCF7A3FB08BD10B5D4
:1046A0000120F8490860FEF733FD0120F649C1F802
:1046B000A001FEF72DFD0020F24908600120FEF761
:1046C00027FD0020F049C1F8A00110BD10B5002061
:1046D000EC4908600120FEF71BFD0020EA49C1F803
:1046E000A0010120FEF714FD0120E6490860FEF755
:1046F0000FFD0120E449C1F8A00110BD70B50446CA
:1047000000251DE004F0800018B10120DD4908609B
:1047100002E00020DB4908600120FEF7F9FC0120DF
:10472000D849091F0860FEF7F3FC0020D649C1F8FC
:10473000A0010120FEF7ECFC6006040E681CC5B267
:10474000082DDFDB0120CF49091F0860FEF7E0FCE0
:104750000020CD49C1F8A00170BD10B50446FFF797
:104760009EFF7820FFF7CAFF4020FFF7C7FF2046D3
:10477000FFF7C4FFFFF7AAFF10BD10B50446FFF70F
:104780008EFF7820FFF7BAFF0020FFF7B7FF204623
:10479000FFF7B4FFFFF79AFF10BD70B504460D4652
:1047A00005F1B001C8B2FFF7E8FF102141EA14108B
:1047B000FFF7E3FF04F00F00FFF7DFFF70BD70B5F8
:1047C00004460D4605F1B001C8B2FFF7D6FF10212F
:1047D00041EA1410FFF7D1FF04F00F0141F001008E
:1047E000FFF7CBFF70BD70B50646002415E004F15D
:1047F000B001C8B2FFF7C1FF0020FFF7BEFF1020D5
:10480000FFF7BBFF002504E03046FFF7A6FF681C5A
:10481000C5B2802DF8DB601CC4B2082CE7DB70BD8C
:104820002DE9F05F06460F4690461C46DDF828A0AD
:104830004FF0000BE11704EB5171C910A4EBC1015B
:1048400031B92046E11704EB5171C1F3C70506E009
:104850002046E11704EB5171C910491CCDB23D4609
:1048600014E029463046FFF798FFB1460AE0594662
:104870000BF1010B1AF80100FFF76FFF09F10100BE
:1048800000F0FF09C145F2DB681CC5B2A542E8DBB8
:10489000BDE8F09F10B50020FFF7A5FF10BD10B5D3
:1048A0008D20FFF76AFF1420FFF767FFAF20FFF7A7
:1048B00064FF10BD10B58D20FFF75FFF1020FFF7DC
:1048C0005CFFAE20FFF759FF10BD10B5FFF7CEFE1D
:1048D0006420FEF72BFCAE20FFF74FFF0020FFF710
:1048E0004CFF1020FFF749FF4020FFF746FF8120D3
:1048F000FFF743FFFF20FFF740FFA020FFF73DFF3A
:10490000C020FFF73AFFA620FFF737FFA820FFF7E8
:1049100034FF3F20FFF731FFD320FFF72EFF0020A9
:10492000FFF72BFFD520FFF728FF8020FFF725FF9B
:10493000D920FFF722FFF120FFF71FFFDA20FFF752
:104940001CFF1220FFF719FFDB20FFF716FF4020A6
:10495000FFF713FF2020FFF710FF0220FFF70DFFE6
:104960008D20FFF70AFF1420FFF707FFA420FFF7B1
:1049700004FFA620FFF701FFAF20FFF7FEFE002097
:10498000FFF731FF00210846FFF707FF10BD2DE9B3
:10499000F05F0446894615469A464FF0000B002604
:1049A0000027BAF1000F01D1B04601E04FF0FF0837
:1049B00022E0E85D203800F0FF0B7E2C04DD0024AF
:1049C00009F1010000F0FF0949462046FFF7F7FE14
:1049D00000260BE00BEB4B012C4A02EB4101895DF9
:1049E00081EA0800FFF7B9FE701CC6B2062EF1DBA3
:1049F000A01DC4B2781CC7B2E85D0028D9D1BDE8BB
:104A0000F09F2DE9F04705460E46174698464FF0B1
:104A1000000907EB47004FEA400AB8F1000F01D147
:104A2000002400E0FF247E2D02DD0025701CC6B2AC
:104A300031462846FFF7B1FE4FF000090CE0514621
:104A40000AF1010A124A515C81EA0400FFF785FE6F
:104A500009F1010000F0FF09B9F1060FEFDBBDE835
:104A6000F0872DE9F05F0746884691469B46002572
:104A70000024A246BBF1000F0CD100260BE0000081
:104A8000000C0140A4812142008021420701002046
:104A900051000020FF2638E019F80A002038C5B27E
:104AA000782F04DD002708F1010000F0FF084146DF
:104AB0003846FFF772FE002409E004EB0511474A6F
:104AC000515C81EA0600FFF748FE601CC4B2082C66
:104AD000F3DB08F10100C1B23846FFF75EFE0024A7
:104AE0000AE004EB051108313C4A515C81EA0600FA
:104AF000FFF733FE601CC4B2082CF2DB07F108009C
:104B0000C7B20AF1010000F0FF0A19F80A000028F4
:104B1000C2D1BDE8F09F2DE9F04781460F46164609
:104B2000984600244FEA481539464846FFF735FEB7
:104B300000BF05E0705DFFF710FE6D1C601CC4B285
:104B4000102CF7DB781CC1B24846FFF726FE002484
:104B500005E0705DFFF701FE6D1C601CC4B2102CF7
:104B6000F7DBBDE8F0872DE9F04705468846164695
:104B70001F46002428074FEA106900BF09E009EB2F
:104B80000411C8B223463A464146FFF7C4FF601CF1
:104B9000C4B2701C8442F2DBBDE8F08708B510484F
:104BA00005232522012100901846FFF739FE322007
:104BB000FEF7BCFA0B480523252201210090184678
:104BC000FFF72EFE3220FEF7B1FA07480523252213
:104BD000012100901846FFF723FE08BD2F03002097
:104BE0001F0D00209F0D00201F0E002040EA010332
:104BF0009B0703D009E008C9121F08C0042AFAD293
:104C000003E011F8013B00F8013B521EF9D2704756
:104C1000D2B201E000F8012B491EFBD270470022FE
:104C2000F6E710B513460A4604461946FFF7F0FFAB
:104C3000204610BD421C10F8011B0029FBD1801A30
:104C4000704710B5002200E0521C835C8C5CA342CC
:104C500001D1002BF8D1D8B2E1B2401A10BD034601
:104C600011F8012B00F8012B002AF9D118467047E2
:104C70002DE9F04791460F4680460446002614F879
:104C8000015B2DB100F0CAF90068405DC007F6D1A4
:104C90002B2D02D02D2D18D0641E4A4639462046B1
:104CA00000F0C0F927B13968A14201D1C7F80080EE
:104CB00071054FF002040BD54042002803DD00F0DF
:104CC000FBFB0460A007BDE8F08746F48066E4E7DC
:104CD0000028F8DA00F0F0FB04606FF00040F2E723
:104CE0002DE9FE4F81EA030404F0004421F0004165
:104CF00000944FF0000B23F0004350EA01045ED013
:104D000052EA03045BD0C3F30A54C1F30A552C449E
:104D1000A4F2F3340194A0FB0254C1F3130141F453
:104D20008011C3F3130343F4801301FB024400FB1F
:104D3000034E840A970A44EA815447EA8357A4FB46
:104D4000076802958D0A05FB07854FEA932C04FB43
:104D50000C542705029D4FEA065847EA1637B5EB73
:104D600008056EEB070C870E920E47EA811742EAA0
:104D70008312A7FB0201B6EB0B0164EB00042B0DC1
:104D800043EA0C335E1844EB1C50DA465146E7FB0D
:104D90000201C5F313044FEA0B3343EA14534FEAFD
:104DA0000432019C43EA0603A4F10C040294009C23
:104DB000CDE900B400F0CBF903B0BDE8F08F0020DE
:104DC0000146F9E72DE9F04D81EA030404F0004BB8
:104DD00021F0004514464FF0000A23F0004150EA4C
:104DE000050220D054EA01021DD0C5F30A5702463D
:104DF000C5F31303C1F31300C1F30A5640F4801541
:104E000043F48013A7EB0608101BD64608F2FD38C2
:104E100073EB050002D308F1010801E092185B4131
:104E2000B8F1000F03DA00200146BDE8F08D002044
:104E30004FF48011064684460EE0171B73EB0507FE
:104E400005D3121B63EB050306434CEA010C49082A
:104E50004FEA300092185B4150EA0107EDD152EA67
:104E6000030012D082EA040083EA0501084305D05A
:104E7000101BAB4106D20122002306E000224FF0B6
:104E8000004302E06FF0010253101AEB06004CEBF6
:104E9000085110EB0A0041EB0B01BDE8F04D00F0AA
:104EA00047B90EB5C10F80EAE0700844CA07002177
:104EB00040F233438DE80E000A460B4600F047F9F6
:104EC00003B000BD0EB540F2334102910021CDE99F
:104ED00000110A460B4600F03AF903B000BDC1F3D9
:104EE0000A5210B5C1F3130140F2FF3341F48011AF
:104EF0009A4201DA002010BD40F233439A42A2F2F6
:104F0000334203DC524200F079F810BD904010BDEE
:104F100000F0004230F000400AD0C10D01F5607190
:104F2000C0F3160042EA0151C2084007114370471E
:104F300000200146704701F0004330B421F00041E9
:104F400050EA010206D00A0DA2F56072C1F3130106
:104F5000002A02DC30BC00207047440F44EAC10440
:104F6000C100E01830BC00EBC25000F0AAB830B568
:104F70000B46014600202022012409E021FA02F517
:104F80009D4205D303FA02F5491B04FA02F52844B1
:104F9000151EA2F10102F1DC30BD2DE9F05F0546DE
:104FA000002092469B4688460646814640241BE0E8
:104FB000284641464746224600F020F853465A46C6
:104FC000C01A914110D311461846224600F0F6F956
:104FD0002D1A67EB01084F4622460120002100F000
:104FE000EDF917EB00094E41201EA4F10104DFDCAE
:104FF000484631462A464346BDE8F09F202A04DB56
:10500000203A21FA02F00021704721FA02F3D04041
:10501000C2F120029140084319467047004870478A
:10502000005E00082DE9F05F8246007800271546F3
:105030008B460AF10104B946302801D09DB113E036
:1050400014F8010B0127782803D0582801D045B166
:105050000AE00DB1102D07D10027102514F8010B1F
:1050600002E0082500E00A250026B0460EE005FB18
:10507000080005FB06F1012701EB10461FFA80F836
:10508000B6F5803F00D3B94614F8010B294600F06D
:10509000B6F90028EBDABBF1000F05D00FB1641EA2
:1050A00000E05446CBF80040B9F1000F06D000F004
:1050B00003FA02210160C81EBDE8F09F48EA0640DD
:1050C000FAE70029A8BF7047401C490008BF20F03C
:1050D0000100704710B4B0FA80FC00FA0CF050EAFE
:1050E000010404BF10BC704749B1CCF1200421FA7F
:1050F00004F411FA0CF118BF012121430843A3EB7A
:105100000C01CB1D4FEA00614FEA102042BF002086
:1051100010BC704700EBC35010440029A4BF10BC62
:105120007047401C490008BF20F0010010BC7047C8
:1051300010B5141E73F1000408DA401C41F100019F
:1051400092185B411A4301D120F0010010BD2DE9F6
:10515000F04D92469B4611B1B1FA81F202E0B0FAED
:1051600080F22032904600F029F904460F4640EACA
:105170000A0041EA0B0153465A46084313D0114630
:1051800053EA010019D0C8F140025046FFF736FF3C
:1051900005460E4650465946424600F00FF9084370
:1051A00005D0012004E020463946BDE8F08D0020FE
:1051B000054346EAE0762C4337430A986305E40A40
:1051C000A0EB08000022FD0A44EA47540A3002D549
:1051D00000200146E9E7010510196941DDE90845AC
:1051E00000196941BDE8F04DA2E72DE9FE4F804668
:1051F00081EA0300C00F0C46009021F0004123F02B
:105200000045B8EB0200A94105D240462146904630
:105210001C460B46024623F00040104347D0270DA2
:10522000C7F30A00C3F30A510290401A01904028C4
:105230006BDAC3F3130040F4801B0098924620B150
:105240000023D2EB030A63EB0B0B01985946C0F124
:105250004002504600F0B2F806460D465046594608
:10526000019A00F0BAF810EB08006141002487EAC7
:10527000115284EAE7731A4340D0009A62B3019A4C
:10528000012A4FEA075215DC001B61EB02014FF0C7
:10529000004202EA0752CDE90042001C41F58011AC
:1052A00032462B46FFF753FF03B0BDE8F08F404670
:1052B0002146F9E7001B61EB0201001C41F5801358
:1052C00000185B412018A2F5001747EB030140EAE4
:1052D000D570B6196D4111E06D084FEA360645EA02
:1052E000C0754FEA0752001B61EB0201001C41F53B
:1052F000801149084FEA30000019514132462B46CF
:1053000003B0BDE8F04FFFF713BF00980122400043
:105310000023D0EB020263EBE073009821464FEAD2
:10532000E074B8EB000061EB0401E9E783F00043AF
:105330005BE781F0004158E7C1F30A52C1F3130162
:1053400040F2FF3341F480119A4202DA0020014614
:10535000704740F233439A42A2F2334202DC524297
:10536000FFF74CBE00F02AB830B5041E71F10004FE
:1053700004DB4FF00044404264EB0101141E73F162
:10538000000405DB1C464FF00043524263EB04036C
:10539000994208BF904230BD064C074D06E0E068D8
:1053A00040F0010394E8070098471034AC42F6D36C
:1053B000FAF7C2FE045E0008245E0008202A04DB1F
:1053C000203A00FA02F1002070479140C2F1200318
:1053D00020FA03F3194390407047202A06DBCB17CD
:1053E000203A41FA02F043EAE07306E041FA02F3A0
:1053F000D040C2F1200291400843194670473A2834
:1054000000D2303820F02002412A01D3A2F1370027
:10541000884201D34FF0FF30704770B58C1810F8F8
:10542000015B15F0070301D110F8013B2A1106D1E9
:1054300010F8012B03E010F8016B01F8016B5B1E03
:10544000F9D12B0705D40023521E0DD401F8013BDE
:10545000FAE710F8013BCB1A921C03E013F8015B4A
:1054600001F8015B521EF9D5A142D8D3002070BDCE
:105470000FB4054B10B503A9044A029800F0E2F8F6
:1054800010BC5DF814FB0000412C0008A00E0020A9
:105490000FB4084B10B504A902AA039800F0D2F883
:1054A000044602A9002000F064FC204610BC5DF810
:1054B00014FB0000735D000800487047A40E002034
:1054C00002E008C8121F08C1002AFAD170477047CD
:1054D000002001E001C1121F002AFBD1704700002B
:1054E0002DE9FF5FDDE90220010DDDF838B0024350
:1054F00018D044F61050A1F2FF3141430D140F981B
:10550000012820D0A5EB0B00401C5FEA000A4FF0F9
:105510000004474EDFF81C91A046504616D5CAF14C
:10552000000728E00F98012443A2012808D0002199
:1055300000980F9BC0E90021C0E90243BDE8FF9F2E
:105540006FEA0B01F4E7CBF10000DEE7074612E05B
:10555000F80707D02246334640464946FFF7C0FBCE
:10556000804689462246334610461946FFF7B8FB67
:1055700004460E467F10002FEAD1DDE90201BAF1A0
:10558000000F42464B4602DAFFF7AAFB01E0FFF7A5
:1055900019FC04460E460022284BFFF7E5FE03D80F
:1055A0004FF0FF30014607E00022254B20463146F0
:1055B000FFF71BFEFFF7C0FE102409E0002C0ADBFA
:1055C0000A220023FFF7E9FC019B30321A55641EC2
:1055D00050EA0102F2D1641C019AC4F1110314448F
:1055E0000F9A012A03D0012208430DD10AE0084393
:1055F00004D000204FF0110B0F9080E7A3EB0B05B8
:105600006D1E0DE05B4504DD4FF0000205F1010564
:1056100004E003DA4FF00002A5F10105002AECD006
:1056200000980F99C0E90231C0E9004586E7000003
:10563000000024400000F03F300000000000F04374
:105640000000E03F2DE9FF4F95B09B468946064696
:1056500000250FE2252877D100242746F84A0121AA
:10566000059400E0044316F8013F203B01FA03F0E3
:105670001042F7D130782A2811D06FF02F033078FC
:10568000A0F13002092A16D8059A44F0020402EB70
:10569000820203EB42021044761C0590EFE759F8B2
:1056A000042B0592002A03DA504244F4005405907A
:1056B00044F00204761C30782E2816D116F8010F1B
:1056C00044F004042A280DD06FF02F023078A0F1A6
:1056D0003003092B09D807EB870302EB4303C718F4
:1056E000761CF3E759F8047B761C30786C280FD0D1
:1056F00006DC4C2817D068280DD06A2814D104E0A5
:10570000742810D07A280FD10DE044F400140AE078
:1057100044F4801401E044F440147278824202D1CF
:1057200004F58014761C761C307866280BD013DCC8
:10573000582877D009DC002875D04528F6D04628AF
:10574000F4D047281AD19DE118E0632835D06428A9
:1057500079D0652812D195E1702873D008DC6728CC
:10576000F1D069286FD06E280DD06F2806D1B5E032
:1057700073282CD0752875D0782874D05A4617997C
:1057800090476D1C75E1C4F30250022809D003282C
:105790000DD0D9F8001004280DD00D6009F10409CE
:1057A00067E1D9F80010EA17C1E90052F6E7D9F825
:1057B00000100D80F2E70D70F0E719F8041B8DF86A
:1057C000001000208DF80100EA46012003E059F89E
:1057D00004AB4FF0FF3061074FF0000102D40DE041
:1057E00008F101018846B9420FDA8045F8DB1AF862
:1057F00008100029F4D108E008F10101884681422F
:10580000FADB1AF808100029F6D105985B46A0EBE0
:10581000080721463846179A00F094FA284400EB0E
:10582000080507E04DE029E10DE01AF8010B5A46A2
:1058300017999047B8F10108F7D25B4621463846E0
:10584000179A13E142E00A220092C4F302524FF089
:10585000000A022A08D059F804CB032A4FEAEC7157
:105860000AD00DE029E02AE009F1070121F0070242
:10587000F2E802C1914609E00FFA8CFC4FEAEC71A4
:10588000042A03D14FFA8CFC4FEAEC71002907DAA5
:105890000A460021DCF1000C61EB02012D2202E03E
:1058A000220504D52B228DF80420012203E0E20713
:1058B00001D02022F7E7904659E00A2102E01022A9
:1058C0000DE010214FF0000A00910BE010224FF084
:1058D000000A44F004040827009203E008224FF075
:1058E000000A0092C4F30252022A05D059F804CBF0
:1058F0000021032A08D009E009F1070121F007027D
:10590000F2E802C1914605E01FFA8CFC042A01D19D
:105910000CF0FF0C4FF00008220728D5702806D0A5
:10592000009B83F0100353EA0A0305D00EE04022E7
:105930008DF80420012208E05CEA010206D0302242
:105940008DF804208DF8050002229046009B83F01C
:10595000080353EA0A030AD15CEA010201D1620793
:1059600005D530228DF804204FF001087F1E5828FD
:1059700004D034A003900EA802900DE036A0F9E701
:1059800053466046009AFFF708FB84460398825C02
:105990000298401E029002705CEA0100F0D1029869
:1059A00006A9081A00F1200A600702D524F4803401
:1059B00000E00127574502DDA7EB0A0000E00020C8
:1059C00000EB0A01009005984144401A0590E0035D
:1059D00006D45B462146179A059800F0B3F90544B2
:1059E000002706E001A85A46C05D179990476D1C34
:1059F0007F1C4745F6DBE0030CD55B462146179A32
:105A0000059800F09FF9054404E030205A461799A4
:105A100090476D1C0099481E00900029F5DC08E0B5
:105A2000029802995A460078491C029117999047AA
:105A30006D1CBAF10001AAF1010AF1DC65E1000078
:105A40000928010030313233343536373839616254
:105A50006364656600000000303132333435363718
:105A600038394142434445460000000000F058F9EF
:105A70000544761C307800287FF4ECAD19B0284638
:105A8000BDE8F08F620700D4062709F1070222F073
:105A9000070CFCE80223E14603F000485FEA080C2B
:105AA00002D00FF2702C0DE05FEA045C02D50FF219
:105AB000682C07E05FEAC47C02D00FF2602C01E0A2
:105AC000AFF2700C4FF0FF3823F00043CDF850C018
:105AD00065280CD006DC452809D046281DD047286B
