:020000040800F2
:10000000285800204D010008C12C0008C32C00080E
:10001000C72C0008CB2C0008CF2C000800000000E3
:10002000000000000000000000000000D32C0008C9
:10003000D52C000800000000D72C0008D92C00089F
:1000400067010008670100086701000867010008F0
:100050006701000867010008C32F00086701000856
:1000600067010008670100086701000867010008D0
:1000700067010008670100086701000867010008C0
:1000800067010008670100086701000867010008B0
:1000900067010008670100086701000867010008A0
:1000A0006701000867010008670100086701000890
:1000B00067010008112D00086701000867010008AA
:1000C0006701000867010008670100086701000870
:1000D00067010008612D00086F2D0008872E0008B9
:1000E00067010008E12C00086701000867010008AB
:1000F0006701000867010008670100086701000840
:10010000670100086701000867010008670100082F
:100110006701000867010008432D00086701000817
:10012000670100086701000867010008670100080F
:10013000DFF80CD004F01AFE004800474127000801
:100140002858002080F30888704700000648804740
:1001500006480047FEE7FEE7FEE7FEE7FEE7FEE7AC
:10016000FEE7FEE7FEE7FEE74F0200083101000868
:100170000CB50020019000906C48006840F480307D
:100180006A49086000BF6948006800F400300090C8
:100190000198401C0190009818B90198B0F5A06F23
:1001A000F1D16248006800F4003010B101200090E5
:1001B00001E0002000900098012843D15C480068CD
:1001C00040F010005A4908600846006820F003001B
:1001D00008600846006840F0020008605348406824
:1001E000524948600846406848600846406840F404
:1001F000806048600846406820F47C1048600846EB
:10020000406840F4E81048600846006840F080709C
:10021000086000BF4548006800F000700028F9D071
:100220004248406820F00300404948600846406862
:1002300040F00200486000BF3C48406800F00C00FD
:100240000828F9D10CBD10B5FFF792FF10BD10B50D
:100250003648006840F001003449086008464068AC
:10026000344908403149486008460068324908402E
:100270002E4908600846006820F48020086008467F
:10028000406820F4FE0048604FF41F008860FFF7CC
:10029000DAFF4FF000602949086010BD10B5002159
:1002A00000200022214B5B6803F00C0121B10429DE
:1002B00006D0082928D107E0214B224C236027E0F3
:1002C0001F4B204C236023E0184B5B6803F4701035
:1002D000164B5B6803F48032022303EB904022B993
:1002E000194B4343174C23600DE0104B5B6803F43C
:1002F000003323B1144B4343124C236003E0104BF3
:100300004343104C236003E00D4B0E4C236000BFB1
:1003100000BF064B5B68C3F303130C4CE15C094B55
:100320001B68CB40074C236010BD0000001002404A
:10033000002002400000FFF8FFFFF6FE08ED00E09D
:1003400000127A000000002000093D000400002097
:1003500031490143314A1160704770B500210023D3
:100360000F22C47804B32D4C246804F4E064C4F56F
:10037000E064210AC1F10403CA40447804FA03F19D
:100380008478144021430901254C0678A15504784E
:1003900004F01F050124AC4005786D11AD0005F196
:1003A000E025C5F8004109E0047804F01F050124A8
:1003B000AC401C4D0678761145F8264070BD1A4AAF
:1003C0000A400243154B1B1F1A60704739B1134A8C
:1003D000121D12680243114B1B1D1A6006E00F4AE2
:1003E000121D126882430D4B1B1D1A6070470428B2
:1003F00008D14FF0E021096941F004014FF0E022FB
:10040000116107E04FF0E021096921F004014FF08C
:10041000E0221161704700000000FA050CED00E0D9
:1004200000E400E080E100E080FFFF1F10B5012044
:1004300000F0A0FF002000F09DFF10BD2A490860D9
:1004400070472949091F08607047274984310860AF
:10045000704701460020254A10884FF67F42104021
:100460000843224A10807047014600201F4A108826
:100470004FF68072104008431C4A1080704708B540
:1004800000220092194A2C3A0092009A02440092EB
:10049000009A116008BD08B501460020009013487D
:1004A0002C3800900098084400900098008808BDFF
:1004B0000D489C300068C0B270470C480830008876
:1004C00040F0010009490831088070470648A03013
:1004D0000068C0B2704705480830008840F002004C
:1004E000024908310880704704860D422C6C004098
:1004F000002044490860091D0860091D0860091DA5
:10050000086041483F4914310860704700213D4967
:100510008279002A3AD00A46126803689A430B4649
:100520001A600A1D126803689A430B1D1A6002794B
:1005300011440A6803681A430A60324A0832126892
:1005400003689A432F4B08331A601A1D1268036818
:100550009A432C4B0C331A604279102A0ED11A1F81
:10056000126803681A43274B08331A601A1D126871
:1005700003681A43234B0C331A600DE0214942797A
:1005800011440A6803681A430A6005E002791144BD
:100590000A6803689A430A6070470021016001718C
:1005A0000C21417100218171704716491031096891
:1005B0000143144A10321160704701460020114A6D
:1005C000143212680A400AB1012000E0002070478E
:1005D0000C49143108607047014600200022094B85
:1005E0001B6803EA0102074B14331B680B4013B16D
:1005F0000AB1012000E00020704702491431086070
:100600007047000000040140FFFF0F00014600207A
:10061000FE4A106800F03800084310607047FB493C
:10062000096821F00801F94A11601146096801437F
:1006300011607047F549096821F01001F34A116013
:1006400011460968014311607047F148EF4948605D
:10065000F04848607047EE48EC494860ED48486013
:100660007047EA48006940F08000E8490861704737
:10067000E648006940F08000E449086170470420C2
:10068000E249C96801F0010109B101200EE0DF492A
:10069000C96801F0040109B1022007E0DB49C9681B
:1006A00001F0100109B1032000E00420704700B5FB
:1006B00002460423FFF7E3FF034603E0FFF7DFFFF3
:1006C0000346521E012B01D1002AF7D102B905239E
:1006D000184600BD30B5044604254FF43020FFF71E
:1006E000E6FF0546042D17D1C848006940F0020016
:1006F000C649086108464461006940F0400008614D
:100700004FF43020FFF7D3FF0546C048006941F69B
:10071000FD710840BD490861284630BD10B504246C
:100720004FF43020FFF7C3FF0446042C16D1B7481E
:10073000006940F00400B54908610846006940F0CE
:10074000400008614FF43020FFF7B1FF0446AF4886
:10075000006941F6FB710840AC490861204610BDB4
:1007600000B502460423FFF78AFF034603E0FFF7C4
:1007700086FF0346521E012B01D1002AF7D102B990
:100780000523184600BD10B504244FF43020FFF7B0
:10079000E7FF0446042C16D19C48006940F0040091
:1007A0009A4908610846006940F0400008614FF42A
:1007B0003020FFF7D5FF04469448006941F6FB71ED
:1007C000084092490861204610BD00208F49C96940
:1007D00001F0020109B1012000E00020704730B5AE
:1007E000A5250424FFF7F1FF00B100254FF43020C8
:1007F000FFF75DFF0446042C3AD1854883498860A1
:10080000844888600846006940F020000861084676
:10081000006940F0400008614FF43020FFF747FFC7
:100820000446042C1BD17948006941F6DF71084069
:10083000764908610846006940F010000861764872
:100840000580E002FFF733FF0446052C10D06F4807
:10085000006941F6EF7108406C49086108E0052C19
:1008600006D06A48006941F6EF710840674908619F
:10087000204630BD78B506460C4604250020009081
:10088000E802FFF714FF0546042D24D15F480069F4
:1008900040F001005D4908613480E802FFF707FF7E
:1008A0000546042D10D1B01C0090200C0099088042
:1008B000E802FFF7FCFE05465448006941F6FE7168
:1008C00008405249086106E05048006941F6FE714F
:1008D00008404E490861284678BD70B504460D466B
:1008E0000426F002FFF7E3FE0646042E11D1474826
:1008F000006940F00100454908612580F002FFF7DA
:10090000D6FE06464148006941F6FE7108403F495F
:100910000861304670BD70B505460E460424E002FD
:10092000FFF7C5FE0446042C17D1394837498860C3
:10093000384888600846006940F0100008612E8041
:10094000E002FFF7B4FE0446052C06D02F480069EC
:1009500041F6EF7108402D490861204670BD2DE930
:10096000F04304464FF6FF763746B046B1460425BD
:10097000E443E6B2C4F30727C4F307484FEA146917
:10098000E802FFF794FE0546042D49D120481F498F
:100990008860204888600846006940F010000861BF
:1009A000FF2E06D01C4808300680E802FFF77FFEC5
:1009B0000546042D08D1FF2F06D017480A300780BE
:1009C000E802FFF774FE0546042D0AD1B8F1FF0FC7
:1009D00007D011480C30A0F80080E802FFF767FE4E
:1009E0000546042D0AD1B9F1FF0F07D00A480E3091
:1009F000A0F80090E802FFF75AFE0546052D0FD03B
:100A00000248006941F6EF71084007E0002002400B
:100A100023016745AB89EFCD00F8FF1F66490861E8
:100A20002846BDE8F08330B5054604244FF4302055
:100A3000FFF73DFE0446042C41D160485E498860C2
:100A40005F4888600846006940F020000861084659
:100A5000006940F0400008614FF43020FFF727FEA6
:100A60000446042C22D15448006941F6DF71084045
:100A7000514908610846006940F0100008611DB145
:100A800000205049088002E0A5204E4908804FF41C
:100A90003020FFF70CFE0446052C10D046480069B4
:100AA00041F6EF7108404449086108E0052C06D082
:100AB0004148006941F6DF7108403F49086120461E
:100AC00030BDF0B505460E46174604243B483A496A
:100AD00088603B488860E002FFF7E9FD0446042C8B
:100AE00019D13548006940F010003349086147F0DA
:100AF000F800304328433349891C0880E002FFF79F
:100B0000D6FD0446052C06D02B48006941F6EF714E
:100B10000840294908612046F0BD2748C06980087F
:100B200070472548006A704700202349096801F092
:100B3000200109B1012000E00020704729B11E4AC0
:100B4000126902431C4B1A6104E01B4A126982437A
:100B5000194B1A61704701460020012908D1164A35
:100B6000D26902F001020AB1012008E0002006E08B
:100B7000114AD2680A400AB1012000E00020704703
:100B80000D49C860704704200B49C96801F0010194
:100B900009B101200EE00849C96801F0040109B15A
:100BA000022007E00449C96801F0100109B10320DF
:100BB00000E0042070470000002002402301674548
:100BC000AB89EFCD00F8FF1F10B50446CC48844236
:100BD00008D10121042000F0B3FB0021042000F023
:100BE000AFFB46E0C748844208D10121082000F04D
:100BF000A7FB0021082000F0A3FB3AE0C248844292
:100C000008D10121102000F09BFB0021102000F0F2
:100C100097FB2EE0BD48844208D10121202000F03E
:100C20008FFB0021202000F08BFB22E0B84884429B
:100C300008D10121402000F083FB0021402000F07A
:100C40007FFB16E0B348844208D10121802000F0E8
:100C500077FB0021802000F073FB0AE0AE4884425D
:100C600007D10121801500F06BFB0021A01500F0D9
:100C700067FB10BD10B50121084600F061FB0021A3
:100C8000012000F05DFB10BD2DE9F041024600257A
:100C90000026002000230024002791F803C00CF058
:100CA0000F0591F803C00CF0100CBCF1000F03D03D
:100CB00091F802C04CEA050591F800C0BCF1000FA4
:100CC00031D0146800202BE04FF0010C0CFA00F337
:100CD000B1F800C00CEA03069E4220D183004FF019
:100CE0000F0C0CFA03F7BC4305FA03FC4CEA0404AE
:100CF00091F803C0BCF1280F06D14FF0010C0CFA9B
:100D000000FCC2F814C00AE091F803C0BCF1480F1F
:100D100005D14FF0010C0CFA00FCC2F810C0401CC9
:100D20000828D1D31460B1F800C0BCF1FF0F34DD46
:100D3000546800202EE000F1080C4FF0010808FA7A
:100D40000CF3B1F800C00CEA03069E4221D18300E7
:100D50004FF00F0C0CFA03F7BC4305FA03FC4CEA06
:100D6000040491F803C0BCF1280F05D100F1080C70
:100D700008FA0CF8C2F8148091F803C0BCF1480FCF
:100D800007D100F1080C4FF0010808FA0CF8C2F87E
:100D90001080401C0828CED35460BDE8F0814FF687
:100DA000FF710180022181700421C17070470246E9
:100DB000002093680B400BB1012000E00020704739
:100DC0000146886880B2704702460020D3680B4015
:100DD0000BB1012000E0002070470146C86880B2D6
:100DE000704701617047416170470AB1016100E0DD
:100DF00041617047C16070474FF480320A4382619D
:100E00008161826182698269704702460020434B9A
:100E100018684FF68073184040EA021008433F4BB1
:100E2000186070473E49C8617047F0B50A46002314
:100E300000240021002500F00046B6F1004F02D149
:100E4000364EF16901E0354E7168C0F3034583B257
:100E500000F44016B6F5401F08D121F070612F4E06
:100E6000766826F070662D4F7E6012E000F48016E2
:100E7000B6F5801F06D1032606FA05F4A14341F01A
:100E8000706106E0460D360103FA06F6B14341F003
:100E9000706122B1460D360103FA06F6314300F0C7
:100EA0000046B6F1004F02D11C4EF16101E01B4E2D
:100EB0007160F0BD30B500228B071C0F0F2303FAC1
:100EC00004F2164B08338C1053F824309343134C20
:100ED00008348D1044F8253023468C1053F8243004
:100EE0008C07240F00FA04F423430C4C08348D10B3
:100EF00044F8253030BD0A49DC31086070470000F5
:100F000000080140000C01400010014000140140A5
:100F100000180140001C0140002001400000014079
:100F2000000020420E49086070470D494860704734
:100F30000B49886070474AF6AA2009490860704743
:100F40004CF6CC4006490860704701460020044A30
:100F5000D2680A400AB1012000E00020704700007A
:100F60000030004010B50121080700F0F6F900211B
:100F70004FF0805000F0F1F910BD2A490862704727
:100F800028490861704701460020274A106820F070
:100F9000E0000843106070472249A03108607047A4
:100FA00010B502460020204B186820F003001043C3
:100FB00018601E4B1B6843F004031C4C236001297E
:100FC00001D130BF00E020BF184B1B6823F00403A1
:100FD000164C236010BD1448006840F0040012490C
:100FE00008600846006840F0020008600F4800688A
:100FF00040F004000D49086000BF00BF30BF7047DB
:1010000001460020084A52680A400AB1012000E067
:10101000002070470449096841EA8001024A1160D2
:101020007047000000000E420070004010ED00E02C
:10103000DF48006840F00100DD490860084640686C
:10104000DC490840DA49486008460068DA49084047
:10105000D74908600846006820F4802008600846E8
:10106000406820F4FE0048604FF41F00886070471D
:10107000CF49096821F48031CD4A116011460968D1
:1010800021F480211160B0F5803F03D0B0F5802FAE
:101090000ED106E0C649096841F48031C44A1160A6
:1010A00007E0C349096841F4A021C14A116000E08A
:1010B00000BF00BF704710B501460022002300208A
:1010C0004A11012A02D1BA4C236806E0022A02D151
:1010D000B74C236A01E0B64C636A01F01F02012499
:1010E00094401C400CB1012000E0002010BD38B538
:1010F000002000900024002500BF3120FFF7DBFF17
:1011000005460098401C00900098B0F5A06F01D0F3
:10111000002DF2D03120FFF7CEFF08B1012400E00E
:101120000024204638BD01460020A14A106820F066
:10113000F80040EAC10010607047A049086070479D
:10114000024600209A4B586820F47C1042EA0103C2
:101150001843974B58607047984908667047014696
:101160000020934A506820F0030008435060704705
:101170008F48406800F00C007047014600208C4A00
:10118000506820F0F000084350607047014600208E
:10119000874A506820F4E060084350607047014679
:1011A0000020834A506820F4605040EAC10050603B
:1011B000704729B17E4A527A02437D4B5A7204E04D
:1011C0007B4A527A82437A4B5A7270477B49D831B4
:1011D0000860704701460020754A506820F440407E
:1011E0000843506070470021714A20321170704AE4
:1011F00082F82010012802D004280AD104E001213D
:101200006B4A2032117005E00521694A20321170C5
:1012100000E000BF00BF704769490860704764493B
:10122000096A0143624A116270476549443908609E
:10123000704730B500210022002400235C4D6D680A
:1012400005F00C0121B1042905D0082923D105E0BE
:101250005C4D056022E05B4D05601FE0544D6D68FC
:1012600005F47012524D6D6805F48034022505EBCB
:1012700092421CB9544D554305600BE04C4D6D68CE
:1012800005F400351DB1504D5543056002E04D4D4C
:101290005543056002E04B4D056000BF00BF444D63
:1012A0006D6805F0F0010909484D6B5C0568DD408B
:1012B00045603F4D6D6805F4E061090A434D6B5C84
:1012C0004568DD4085603A4D6D6805F46051C90A96
:1012D0003E4D6B5C4568DD40C560354D6D6805F47D
:1012E0004041890B3A4D6B5CC568B5FBF3F5056170
:1012F00030BD29B12E4A526902432D4B5A6104E098
:101300002B4A526982432A4B5A61704729B1284AB5
:1013100092690243264B9A6104E0254A926982430E
:10132000234B9A61704729B1214AD2690243204B6D
:10133000DA6104E01E4AD26982431D4BDA617047CC
:1013400029B11B4AD2680243194BDA6004E0184AFB
:10135000D2688243164BDA60704729B1144A126989
:101360000243134B1A6104E0114A12698243104B85
:101370001A61704712494039086070470F49C864C4
:1013800070470B49C87170470948406A40F0807047
:1013900007494862704701460020054A92680A40A2
:1013A0000AB1012000E000207047014988727047AF
:1013B000001002400000FFF8FFFFF6FE000042426E
:1013C0008004424200127A0000093D00140000200F
:1013D0002400002029B1504A128802434E4B1A8043
:1013E00004E04D4A128882434B4B1A8070474A48AA
:1013F000001D008840F010004749091D0880704713
:101400004548001D00884FF6EF7108404249091D0C
:1014100008807047002140481C300188001F008868
:1014200041EA0040704700B50246FFF7E0FF100CAC
:10143000394918310880091D0A80FFF7E1FF00BD16
:1014400000B50246FFF7D3FFC2F30340324908312B
:101450000880091D0A80FFF7D3FF00BD00B50246D2
:10146000FFF7C5FF100C2C4920310880091D0A80A8
:10147000FFF7C6FF00BD0020274910310988090782
:10148000080B2549143109880843704700BF2248DA
:10149000001D008800F020000028F8D070471E488A
:1014A000001D00884FF6F77108401B49091D088090
:1014B00000BF1948001D008800F008000028F8D07F
:1014C000704701460020144A121D12880A400AB1D2
:1014D000012000E0002070470F49091D0988814361
:1014E0000D4A121D11807047014600200A4A121D44
:1014F00012880A40D0B2084A12880A4012B108B1D4
:10150000012000E0002070470349091D098881433C
:10151000014A121D118070470028004010B5044692
:10152000FE48844208D10121C014FFF709FF0021C1
:10153000E014FFF705FFC4E0B4F1804F08D10121AA
:101540000846FFF70AFF00210120FFF706FFB8E079
:10155000F348844208D101210220FFF7FEFE00215A
:101560000220FFF7FAFEACE0EE48844208D10121E8
:101570000420FFF7F2FE00210420FFF7EEFEA0E0BA
:10158000E948844208D101210820FFF7E6FE002146
:101590000820FFF7E2FE94E0E448844208D10121EC
:1015A0001020FFF7DAFE00211020FFF7D6FE88E0BA
:1015B000DF48844208D101212020FFF7CEFE002120
:1015C0002020FFF7CAFE7CE0DA48844208D10121DE
:1015D0004014FFF7B5FE00216014FFF7B1FE70E084
:1015E000D548844209D10121C804FFF7A9FE002192
:1015F0004FF40020FFF7A4FE63E0D048844209D1F5
:1016000001210805FFF79CFE00214FF48010FFF731
:1016100097FE56E0CA48844209D101214805FFF7E8
:101620008FFE00214FF40010FFF78AFE49E0C54805
:10163000844208D101214020FFF78FFE0021402085
:10164000FFF78BFE3DE0C048844208D10121802095
:10165000FFF783FE00218020FFF77FFE31E0BB48CB
:10166000844208D101218015FFF777FE0021A015E3
:10167000FFF773FE25E0B648844209D10121080432
:10168000FFF75EFE00214FF48030FFF759FE18E0AF
:10169000B048844209D101214804FFF751FE0021DE
:1016A0004FF40030FFF74CFE0BE0AB48844208D10A
:1016B00001218804FFF744FE00214FF48020FFF74A
:1016C0003FFE10BD00220288944B98420ED0994BE9
:1016D00098420BD0B0F1804F08D0914B984205D082
:1016E000904B984202D0904B984204D14FF68F73A2
:1016F0001A404B881A438D4B984207D08C4B984226
:1017000004D04FF6FF431A40CB881A4302808B88DF
:1017100083850B880385814B98420BD0854B98427B
:1017200008D08B4B984205D08A4B984202D08A4B06
:10173000984201D10B7A038601238382704770B5EA
:10174000002400220023058C4FF6FE7635400584E8
:10175000028C8388048B4FF68F752C40B51E2C406D
:101760000D882C43751E2A400D892A434D882A4333
:101770006A4DA8420BD06F4DA84208D0744DA842C4
:1017800005D0744DA84202D0734DA84213D14FF634
:10179000F7752A404D892A434FF6FB752A408D88FC
:1017A0002A434FF6FF652B404FF6FF552B408D899E
:1017B0002B43CD892B4383800483CD888586028487
:1017C00070BD70B5002400220023058C4FF6EF7623
:1017D00035400584028C8388048B48F6FF752C40C5
:1017E0004FF6FF452C400D884FF6FF7606EA05259B
:1017F0002C434FF6DF752A400D8906EA05152A436A
:101800004D8806EA05152A43444DA84202D0494DA9
:10181000A8421DD14FF67F752A404D894FF6FF76BD
:1018200006EA05152A434FF6BF752A408D8806EA59
:1018300005152A434FF6FF352B404FF2FF752B401D
:101840008D8906EA85052B43CD8906EA85052B435C
:1018500083800483CD880587028470BD70B5002421
:1018600000220023058C4FF6FF6635400584028C6C
:101870008388848B4FF68F752C404FF6FC752C4077
:101880000D882C434FF6FF552A400D894FF6FF7601
:1018900006EA05252A434D8806EA05252A431F4DF9
:1018A000A84202D0234DA8421DD14FF2FF752A4015
:1018B0004D894FF6FF7606EA05252A434FF6FF3598
:1018C0002A408D8806EA05252A434EF6FF752B40EF
:1018D0004DF6FF752B408D8906EA05152B43CD8902
:1018E00006EA05152B4383808483CD88858702848F
:1018F00070BD70B5002200230024058C4EF6FF76E3
:1019000035400584038C8488828B48F6FF752A4015
:101910004FF6FF452A400D8820E00000002C0140D2
:101920000004004000080040000C0040001000408F
:101930000014004000340140004C014000500140C0
:101940000054014000180040001C004000200040EE
:101950000040014000440140004801404FF6FF763E
:1019600006EA05252A434DF6FF752B400D8906EA48
:1019700005352B434D8806EA05352B43FA4DA84221
:1019800002D0FA4DA84208D14BF6FF752C408D8944
:101990004FF6FF7606EA85152C4384808283CD8836
:1019A000A0F84050038470BD828B4FF2FF331A4081
:1019B0008283828B4FF6FF7303EA01231A438283EB
:1019C0007047F0B50C461546002200210026078C12
:1019D0004EF6FF7C07EA0C070784828B018C4FF6DA
:1019E000FF7707EA043640F6FF473A404FF6FF77A5
:1019F00007EA05273A434FF6FF7707EA03373A43EA
:101A0000D94FB8420ED0D94FB8420BD0B0F1804F69
:101A100008D0D74FB84205D0D64FB84202D0D64FE3
:101A2000B84206D14DF6FF77394046F48057394326
:101A300005E047F6FF57394044F480573943828325
:101A40000184F0BD828B4FF6F3731A408283828B40
:101A50000A4382837047F0B50C46154600220021E8
:101A60000026078C4FF6FF6C07EA0C070784828B71
:101A7000018C4FF6FF7707EA04264FF60C773A40C1
:101A80004FF6FF7707EA03172F433A43B64FB842A2
:101A90000ED0B64FB8420BD0B0F1804F08D0B44F43
:101AA000B84205D0B34FB84202D0B34FB84206D1C6
:101AB0004FF6FF57394046F48077394305E04FF23F
:101AC000FF57394044F48077394382830184F0BD65
:101AD000028B4FF2FF331A400283028B4FF6FF73E3
:101AE00003EA01231A4302837047F0B50C461546FA
:101AF000002200210026078C4FF6EF7C07EA0C0736
:101B00000784028B018C4FF6FF7707EA041640F634
:101B1000FF473A404FF6FF7707EA03373A434FF65D
:101B2000FF7707EA05273A438F4FB8420ED08F4F11
:101B3000B8420BD0B0F1804F08D08D4FB84205D0DD
:101B40008C4FB84202D08C4FB84206D14FF6DF77A7
:101B5000394046F01007394305E04FF65F773940CA
:101B600044F01007394302830184F0BD028B4FF625
:101B7000F3731A400283028B0A4302837047F0B565
:101B80000C46154600220021068C4FF6FE773E409B
:101B90000684028B018C4FF60C7632407E1C06EADE
:101BA00003162E433243704EB0420ED06F4EB042F9
:101BB0000BD0B0F1804F08D06D4EB04205D06D4EC5
:101BC000B04202D06C4EB04206D14FF6FD763140A5
:101BD00044F00106314305E04FF6F576314044F01C
:101BE0000106314302830184F0BD70B505460C4601
:101BF0005D4885420ED05D4885420BD0B5F1804FDF
:101C000008D05B48854205D05A48854202D05A48E0
:101C1000854200D100E000BF208850B92389A28806
:101C200061882846FFF7ABFFE1882846FFF79EFF53
:101C300025E0208804280AD12389A28861882846C3
:101C4000FFF753FFE1882846FFF742FF17E020889F
:101C500008280AD12389A28861882846FFF7FBFE5D
:101C6000E1882846FFF7EEFE09E02389A288618813
:101C70002846FFF7A6FEE1882846FFF795FE70BDCF
:101C80002DE9F04105460C4600260127608808B979
:101C9000022600E00026A088012801D1022700E0EA
:101CA00001272088A0B92389A28861882846FFF7E8
:101CB00066FFE1882846FFF759FF23893A463146F7
:101CC0002846FFF712FFE1882846FFF701FF13E0DF
:101CD0002389A28861882846FFF707FFE188284604
:101CE000FFF7F6FE23893A4631462846FFF747FFBD
:101CF000E1882846FFF73AFFBDE8F0810A884B8863
:101D00001A438B881A43CB881A430B891A434B8991
:101D10001A438B891A43A0F8442070474FF6FF718D
:101D2000818000210180C1804180017270470021C3
:101D3000018041808180C180018141818181C18197
:101D40007047002101804180012181800021C180F4
:101D5000018170470021018041808180C180018123
:101D60004181818170470000002C01400034014016
:101D70000004004000080040000C004021B102882F
:101D800042F00102028004E002884FF6FE731A401E
:101D90000280704731B1B0F8442042F40042A0F80C
:101DA000442005E0B0F84420C2F30E02A0F844201D
:101DB00070471AB183890B43838102E083898B4387
:101DC000838170478182704741EA0203A0F848305E
:101DD00070471AB183890B43838102E083898B4367
:101DE0008381704701894FF6F87211400181704775
:101DF0000A46002101894FF68F7319401143018172
:101E0000704730B504460D4629462046FFF7F0FFDF
:101E1000208940F00700208130BD2DE9F0410446C3
:101E20000D4616461F46602D06D13B46012231461F
:101E30002046FFF75AFE05E03B4601223146204688
:101E4000FFF79DFE29462046FFF7D2FF208940F08C
:101E500007002081BDE8F08130B50C4600210189E2
:101E6000C9B24FF6FF7505EA0325154325432943FB
:101E7000018130BD2DE9F04105460E4617469846D2
:101E8000002443463A4631462846FFF7E5FF2C89B1
:101E90004FF6F870044044F007044FF68F7004408A
:101EA00044F070042C81BDE8F081F0B504460D4685
:101EB00016461F463B46324629462046FFF7CCFFD2
:101EC000208940F480402081F0BD018582827047E6
:101ED0000A46002101884FF68F7319401143018093
:101EE0007047F0B50C4615461E460021002200231F
:101EF0000189028B038C4FF6F877394021434FF666
:101F0000FC473A4040F201173A434FF6DD773B4039
:101F10004FF6FF7707EA06172F433B430181028301
:101F20000384F0BD0A460021018B4FF68F731940E0
:101F30001143018370470A460021018B48F6FF7365
:101F400019404FF6FF7303EA0223194301837047D8
:101F50000A460021818B4FF68F731940114381830C
:101F600070470A460021818B48F6FF7319404FF6EF
:101F7000FF7303EA022319438183704721B102886A
:101F800042F08002028004E002884FF67F731A401C
:101F90000280704721B1828842F00402828004E00E
:101FA00082884FF6FB731A408280704721B1828885
:101FB00042F00802828004E082884FF6F7731A40EC
:101FC0008280704721B1828842F00102828004E061
:101FD00082884FF6FE731A40828070470A460021BD
:101FE000018B4FF6F77319401143018370470A467E
:101FF0000021018B4FF2FF7319404FF6FF7303EA84
:1020000002231943018370470A460021818B4FF652
:10201000F77319401143818370470A460021818B71
:102020004FF2FF7319404FF6FF7303EA022319437F
:10203000818370470A460021018B4FF6FB731940DC
:102040001143018370470A460021018B4FF6FF338D
:1020500019404FF6FF7303EA0223194301837047C7
:102060000A460021818B4FF6FB731940114381838F
:1020700070470A460021818B4FF6FF3319404FF617
:10208000FF7303EA02231943818370470A46002144
:10209000018B4FF67F7319401143018370470A4645
:1020A0000021018BC1F30E014FF6FF7303EA0223F7
:1020B0001943018370470A460021818B4FF67F73D5
:1020C00019401143818370470A460021818BC1F377
:1020D0000E014FF6FF7303EA022319438183704711
:1020E0000A460021018C4FF6FD731940114301840B
:1020F00070470A460021018C4FF6F77319401143CF
:10210000018470470A460021018C4FF6DF731940A5
:102110004FF6FF7303EA02131943018470470A461E
:102120000021018C4FF67F7319404FF6FF7303EACD
:1021300002131943018470470A460021018C4FF6AF
:10214000FF5319404FF6FF7303EA0223194301843A
:1021500070470A460021018C4FF2FF7319404FF679
:10216000FF7303EA02231943018470470A460021E2
:10217000018C4DF6FF7319404FF6FF7303EA0233EB
:1021800019430184704730B5002301248C40A3B269
:10219000048C9C430484048C02FA01F5ADB22C43F8
:1021A000048430BD30B5002304248C40A3B2048CD9
:1021B0009C430484048C02FA01F5ADB22C430484E0
:1021C00030BD70B5034600200024184618300125A4
:1021D0008D40ACB21D8CA5431D8409B1082909D1DD
:1021E00000EB6100056825F0700505600568154382
:1021F00005600EE00D1FC5F34E052844056825F463
:10220000E045056005684FF6FF7606EA022635438D
:10221000056070BD21B1028842F00202028004E034
:1022200002884FF6FD731A400280704721B1028880
:1022300042F00402028004E002884FF6FB731A4069
:102240000280704721B1828842F08002828004E0DF
:1022500082884FF67F731A408280704702884FF65B
:10226000F7731A40028002880A430280704782880E
:102270004FF68F731A40828082880A4382807047AB
:1022800002894FF6F8731A40028102890A430281DB
:10229000704702894FF67F731A40028102890A4310
:1022A00002817047818470478185704781867047BD
:1022B0000187704781877047A0F8401070470288F7
:1022C0004FF6FF431A40028002880A43028070479B
:1022D0000146888E70470146088F70470146888FF7
:1022E00070470146B1F8400070470146888C70473E
:1022F0000146088D704702460020138A0B400BB13F
:10230000012000E000207047CA430282704730B5C8
:102310000246002000230024158A05EA010395895E
:1023200005EA010413B10CB1012000E0002030BD2A
:10233000CA4302827047000010B50446FB4884423D
:1023400009D101218803FEF7FBFF00214FF48040F3
:10235000FEF7F6FF32E0F648844209D10121480435
:10236000FEF7FBFF00214FF40030FEF7F6FF25E0FB
:10237000F048844209D101218804FEF7EEFF0021D4
:102380004FF48020FEF7E9FF18E0EB48844209D1C2
:102390000121C804FEF7E1FF00214FF40020FEF701
:1023A000DCFF0BE0E548844208D101210805FEF777
:1023B000D4FF00214FF48010FEF7CFFF10BD2DE9B0
:1023C000F04786B005460E460024A24600BFA1464F
:1023D0000027B08900B100BF2F462C8A4CF6FF7051
:1023E0000440F08804432C82AC894EF6F31004407C
:1023F000B08831890843718908430443AC81AC8AB1
:102400004FF6FF400440B0890443AC8201A8FEF7B8
:1024100010FFC648874202D1DDF810A001E0DDF8C8
:102420000CA0A88900F4004040B10AEBCA0000EB00
:102430000A1031684900B0FBF1F807E00AEBCA0066
:1024400000EB0A1031688900B0FBF1F86420B8FB9A
:10245000F0F004012009642101FB1089A88900F42F
:10246000004040B1322000EBC900B0FBF1F000F0B9
:102470000700044308E0322000EB09106421B0FBA0
:10248000F1F000F00F0004432C8106B0BDE8F087A6
:102490004FF41651016000218180C18001810C211F
:1024A000418100218181704710B502460020108AC9
:1024B0004FF2FF0318400B884C8823438C8823433A
:1024C000CC8823431843108210BD00210180418035
:1024D0008180C180704721B1828942F4005282819B
:1024E00004E082894DF6FF731A4082817047F0B58F
:1024F0000346002400260025002040F66A17B94252
:1025000000D100BF1846C1F3421401F01F06012795
:1025100007FA06F5012C01D10C3004E0022C01D1A0
:10252000103000E014301AB107682F43076002E052
:102530000768AF430760F0BD1AB1838A0B438382FB
:1025400002E0838A8B4383827047028A4FF6F073DE
:102550001A400282028A0A430282704782894FF23D
:10256000FF731A40828182890A438281704721B1B8
:10257000828942F00202828104E082894FF6FD7373
:102580001A4082817047028A4FF6DF731A40028236
:10259000028A0A430282704721B1028A42F48042D1
:1025A000028204E0028A4BF6FF731A4002827047EF
:1025B000C1F308028280704701468888C0F3080092
:1025C0007047818941F0010181817047028BD2B24D
:1025D0000283028B42EA012202837047028B02F4DB
:1025E0007F420283028B0A430283704721B1828AB1
:1025F00042F02002828204E0828A4FF6DF731A40A2
:102600008282704721B1828A42F01002828204E005
:10261000828A4FF6EF731A408282704721B1828A14
:1026200042F00802828204E0828A4FF6F7731A4071
:102630008282704721B1828942F40042828103E0A4
:102640008289C2F30E028281704721B1828A42F4EC
:102650000062828204E0828A4FF2FF731A40828213
:102660007047828A4FF6FB731A408282828A0A433D
:102670008282704721B1828A42F00202828204E0A3
:10268000828A4FF6FD731A4082827047024600200C
:10269000B1F5007F00D100BF13880B400BB10120C2
:1026A00000E00020704701F40072B2F5007F00D115
:1026B00000BFCA430280704770B502460024002361
:1026C0000025002040F66A16B14200D100BFC1F3D8
:1026D000421501F01F03012606FA03F3012D02D172
:1026E0009689334006E0022D02D1168A334001E07C
:1026F000968A33400C12012606FA04F416883440F8
:1027000013B10CB1012000E0002070BD10B5002213
:10271000002340F66A14A14200D100BF0A1201242E
:102720009440A3B2DC43048010BD00000038014097
:102730000044004000480040004C00400050004071
:1027400008B54FF4E01000F0C2F800F0FAF800F01D
:10275000AFF900F05FF900F056FA01F004FF3448D9
:102760000823802200210090084601F0A7FE31A036
:1027700002F056FB02F060F8642000F0DBFC02F08F
:102780005BF8642000F0D6FC02F056F828480823D5
:10279000802200210090084601F090FE2B48A0F115
:1027A0007901C1F8F000401CC1F8F400401CC1F8E8
:1027B000F800401CC1F8FC00401CC1F80001401C9E
:1027C000C1F80401401CC1F80801401CC1F80C010B
:1027D000401CC1F8100108381D490860401C4860C1
:1027E000401C8860401CC8601A48A0F20111C1F862
:1027F0000002401CC1F80402401CC1F80802801C01
:10280000C1F81802401CC1F810020846D0F80C02AA
:102810000830C1F80C0201F58470C1F8140205E01B
:1028200001F0B4F801F0E8F801F0AAFAF8E70000C6
:102830001A0900200D0A4D61737465722052656299
:10284000626F74210D0A0D0A00000000CD500020B7
:1028500094530020715200201CB5044600200190C2
:102860000090FEF7E5FB4FF48030FEF701FCFEF729
:102870003EFC00900098012826D11020FDF7DAFEDA
:102880000220FDF7C3FE0020FEF777FC0020FEF7D4
:1028900086FC4FF48060FEF779FC21464FF48030CF
:1028A000FEF74EFC0120FEF757FC00BF3920FEF773
:1028B00002FC0028FAD00220FEF751FC00BFFEF710
:1028C00057FC0828FBD101E000BFFEE71CBD38B56E
:1028D000044600200090FEF7ABFB0120FEF72DFC24
:1028E000EF48006800F0020000900098022825D10F
:1028F0001020FDF79FFE0220FDF788FE0020FEF766
:102900003CFC0020FEF74BFC4FF48060FEF73EFCE1
:1029100021460020FEF714FC0120FEF71DFC00BF3D
:102920003920FEF7C8FB0028FAD00220FEF717FC7A
:1029300000BFFEF71DFC0828FBD101E000BFFEE749
:1029400038BD10B501211020FEF7E0FC0121082060
:10295000FEF7DCFC01210846FEF7D8FC012104202B
:10296000FEF7D4FC01218803FEF7D0FC01214804C6
:10297000FEF7D9FC01218804FEF7D5FC10BD0EB589
:102980004FF40070ADF8080003208DF80A001820FD
:102990008DF80B0002A9C348FEF776F94FF480606A
:1029A000ADF8080004208DF80B0002A9BD48FEF721
:1029B0006BF90420ADF8040003208DF80600182000
:1029C0008DF8070001A9B748FEF75EF90820ADF8B9
:1029D000040004208DF8070001A9B248FEF754F95D
:1029E0004FF48060ADF8000003208DF8020018203D
:1029F0008DF803006946AC48FEF746F94FF40060D5
:102A0000ADF8000004208DF803006946A648FEF7E3
:102A10003BF90EBD1FB54FF4C060FDF799FC1D20BA
:102A20008DF80C0000208DF80D0002208DF80E00AE
:102A300001208DF80F0003A8FDF78FFC4FF4C06054
:102A4000FDF786FC25208DF8080000208DF8090090
:102A500003208DF80A0001208DF80B0002A8FDF775
:102A60007CFC4FF4C060FDF773FC26208DF8040059
:102A700000208DF8050002208DF8060001208DF859
:102A8000070001A8FDF769FC4FF4C060FDF760FC8A
:102A900027208DF8000000208DF8010001208DF81E
:102AA00002008DF803006846FDF757FC1FBD704714
:102AB00000B58DB0FFF763FF4FF4E13009900020BF
:102AC000ADF82800ADF82A00ADF82C00ADF83000C4
:102AD0000C20ADF82E0009A97448FFF770FC012204
:102AE00040F225517148FFF702FD01216F48FFF7C1
:102AF000F2FC4FF4E13005900020ADF81800ADF87D
:102B00001A00ADF81C00ADF820000C20ADF81E0036
:102B100005A96748FFF753FC012240F2255164489C
:102B2000FFF7E5FC01216248FFF7D5FC4021604832
:102B3000FFF7B9FD4FF4E13001900020ADF8080037
:102B4000ADF80A00ADF80C00ADF810000C20ADF89F
:102B50000E0001A95748FFF732FC012240F225512F
:102B60005448FFF7C4FC01215248FFF7B4FC402150
:102B70005048FFF798FD0DB000BD0EB54FF47A70C8
:102B8000ADF804000720ADF800000020ADF8060005
:102B9000ADF802008DF8080069464748FEF792FD3F
:102BA00001214548FFF7B0FB012211464248FFF7DB
:102BB00000F901214048FFF7E1F80EBD10B50120F2
:102BC000FEF7DBF9FDF732FC0120FEF725FB00BF25
:102BD0006120FEF770FA0028FAD04FF40070FEF77B
:102BE0001EFB0120FEF721FBFEF759FC49F6404091
:102BF000FEF726FCFEF74AFC01210220FEF7EAFB65
:102C0000FEF744FC10BD0EB501210220FEF78BFB40
:102C100041F61F40ADF800000020ADF8020063202F
:102C2000ADF804000020ADF8060069462348FEF721
:102C300049FD012211462148FFF7BBF801211F4839
:102C4000FFF79CF80EBD70B5044601210807FEF79A
:102C50006AFBFEF787F945F25550FEF763F904EB7E
:102C60008400C0F35B05E8B2FEF75FF904EB840073
:102C7000C0F35B06B0B2FEF75BF9FEF761F970BD19
:102C800070B504460D46E1B20848FFF791FC00BF5D
:102C900040210648FFF7FAFC0028F9D0204670BD15
:102CA0000010024000080140000C014000380140C3
:102CB0000044004000480040001000400004004074
:102CC000704700BFFEE700BFFEE700BFFEE700BFA2
:102CD000FEE770477047704710B500F014FA10BD5A
:102CE00010B50220FEF700FC88B14FF40030FDF76C
:102CF00084FC0120FEF784F910B10120FEF78AF967
:102D0000FEF7C4FB0220FEF7FFFBFEF7BFFB10BD82
:102D100010B50121AF48FFF7FAFA68B10121AD48BB
:102D2000FFF706FBAC4800680A30AB490860AB48C7
:102D300000680A30A94908600121A648FFF7F8FA9F
:102D400010BD10B50121A648FFF7E1FA18B1012125
:102D5000A348FFF7EDFA0121A148FFF7E9FA10BDFA
:102D600010B540F225519F48FFF7A6FC10BD10B5E5
:102D700040F225519C48FFF79FFC00287AD09A48E2
:102D8000FFF71AFC994991F81611984A50541046C9
:102D900090F8160120B910460078EE2800D010BD3A
:102DA000924890F81601401C904981F81601084697
:102DB00090F81601401E085CFF280CD1084690F8D8
:102DC000180140B9084690F81601894908600120A9
:102DD000864981F81801854890F81801012843D1E7
:102DE000824890F8160182490968401A03283BD1AD
:102DF0007E487F490968405CFC2828D17B497C4893
:102E00000068401C085CFF2821D179480068801CBC
:102E1000085CFF281BD177A002F002F8734890F8F5
:102E2000161100F0A3FB714890F816110246783095
:102E300000F0C1F96D4890F816016C4981F817014E
:102E4000012081F81401684800F0FFF90CE06DA042
:102E500001F0E6FF0020654981F81401624800F0A6
:102E6000F4F9002062490860604890F8160178285B
:102E700007DB00E005E068A001F0D2FF5A4800F04F
:102E8000E4F900BF8BE710B540F225516648FFF723
:102E900013FC00287ED00120644981F82102624899
:102EA000FFF78AFB614991F82212604A505410469C
:102EB00090F8220298B910460078A5280FD05A48F9
:102EC00000F0C3F900235AA20121184601F0ADFB1E
:102ED000022300220121554800F058FB10BD534841
:102EE00090F82202401C514981F82202084690F8CD
:102EF0002202012816DD084640785A2812D04FA039
:102F000001F08EFF002353A20121184601F08DFB32
:102F1000022300221946454800F038FB424800F0E1
:102F200094F9DBE7414890F82202092830DB3F485A
:102F300090F82212007A0930814229D13B4890F85A
:102F400022120246FF3000F029F945A001F068FF87
:102F5000002347A20121184601F067FB334890F88F
:102F600022120223002200F011FB304890F82212B6
:102F7000FF3000F0FBFA2D4890F822022B4981F82F
:102F80002302294800F061F90120284981F8200234
:102F9000264800E013E090F8220278280BDB37A0E7
:102FA00001F03EFF002339A20121184601F03DFB4C
:102FB0001D4800F04AF900201C4981F8210200BF99
:102FC0008CE710B50120FDF707FB012801D1FDF7C3
:102FD00014FB10BD00040040280000202C0000203D
:102FE00000100040003801400044004054500020D0
:102FF00030000020526563697665484D493A200DDE
:103000000A000000526563697665484D4920657283
:10301000726F200D0A00000064617461206F766594
:10302000726C656E670D0A00004800407051002008
:103030007468726F77202020202000002D2D5561AC
:103040007274335F495352206461746120657272F7
:10305000200D0A00646174612065727220202000D6
:103060004D6173746572205265636976653A20001C
:103070005265636976653A202020000044617461DE
:10308000206F7665724C656E74680A006F766572A3
:103090004C656E74682020200000000030B53A486E
:1030A00000683A4AB0FBF2F1B1F1807F01D3012010
:1030B0001DE021F07F40401E4FF0E022506150178C
:1030C0000F22002807DA13071D0E314B00F00F0402
:1030D000241F1D5503E013071C0E2E4B1C5400BF6C
:1030E00000204FF0E022906107201061002008B11D
:1030F00000BFFEE730BD2849086000BF26490968C7
:103100000029FBD170472448006820B1224800689C
:10311000401E21490860704710B5002106E00922D1
:1031200000BF1300A2F10102FBD1491C8142F6D37A
:1031300010BD7047014642F228324A434FF0E02367
:103140005A6100229A6101221A6100BF4FF0E02209
:10315000106900F001021AB100F48032002AF5D0A3
:1031600000224FF0E0231A619A61704710B50021E8
:1031700006E0092200BF1300A2F10102FBD1491CA5
:103180008142F6D310BD000000000020A08601009F
:1031900018ED00E000E400E03400002010B5034624
:1031A000002003E0145C1C54441CE0B28842F9DBAC
:1031B00000245C5410BD10B50346002003E0145CED
:1031C0001C54441CE0B28842F9DB00245C5410BD5E
:1031D0002DE9F04107460C46154601209949086043
:1031E00000260DE014F8011B3846FFF7E1F900BF97
:1031F00080213846FFF74AFA0028F9D0701CC6B281
:10320000AE42EFDB00208F490860BDE8F0812DE978
:10321000F04106460C46204601F05AFB07460025C1
:103220000FE0615D88A001F0FBFD615D3046FFF7B6
:10323000BFF900BF40213046FFF728FA0028F9D037
:103240006D1CBD42EDDBBDE8F08110B504467F4842
:10325000844210D100207E4981F8150181F81601C1
:1032600078217B4801F029FB0020794981F8180179
:1032700078A001F0D5FD7D4884420CD100207C4926
:1032800081F8210281F82202FF21794801F015FB23
:1032900078A001F0C5FD10BD2DE9F04104460E46B1
:1032A00015461F46A52020705A2060707748C068D8
:1032B0000078A07075484078E0707448807820717C
:1032C00000206071A671681CE071002020722A46FF
:1032D000394604F1090001F0D7FA05F10900C1B23D
:1032E000204600F034F905F10901605468A001F0AE
:1032F00097FD05F10A01694800F038F905F10A0067
:10330000C2B266495148FFF763FFBDE8F0812DE97D
:10331000F04104460F4690461E460025EE202070E0
:10332000B12060701020A0700020E07027716071E3
:1033300084F80680304601F0CBFA451C2A46314617
:10334000E01D01F0A1FA0021A81D2154FF21E81D74
:103350002154FC21401C2154FF21401C2154401CBD
:103360002154401CC2B24D493848FFF731FFBDE837
:10337000F0812DE9F04104460E4617460025EE2067
:103380002070B12060701120A0700020E0702671C4
:103390006071A771FF21E81D2154FC2105F108008F
:1033A0002154FF2105F10900215405F10A0021549F
:1033B00037A001F035FD05F10B01384800F0D6F8D3
:1033C00005F10B0235492148FFF702FFBDE8F08106
:1033D0002DE9F04104460E4617461D46DDF81880DB
:1033E0005A202070A52060703078A0707078E0704E
:1033F000B078207100206071A771E07125722A46B3
:10340000414604F1090001F03FFA05F10900C1B29B
:10341000204600F09CF805F10901605420A001F05D
:10342000FFFC05F10A011D4800F0A0F86420FFF739
:1034300081FE05F10A00C2B218490C48FFF7C8FE28
:10344000BDE8F081A0012142256300000044004056
:10345000545000207265736574207561727432482F
:103460004D495061636B0D0A0000000000480040A8
:103470007051002072657365742075617274335FDA
:103480003438355061636B0D0A000000A40E002033
:103490006275696C64203A2000000000A45300208B
:1034A0006275696C642075333A2000002DE9F041A3
:1034B00007460D4614464FF00008002609E057F86D
:1034C000262005EB08006FA101F0BAFC08F10808FE
:1034D000761CA642F3DB002005F83400BDE8F0813D
:1034E00070B5044600250020684908600820684936
:1034F000086008460068FFF70FFE00BF10E004F008
:10350000010018B101206149086002E000205F4914
:1035100008605F480068FFF7FFFD6410681CC5B2D3
:10352000082DECDB01205949086059480068FFF775
:10353000F3FD70BD70B505460E46002404E0285D1D
:10354000FFF7CEFF601CC4B2B442F8DB70BD10B50B
:1035500002460B460021002000BF04E0545C0444F6
:10356000E0B24C1CE1B29942F8DB10BD70B50546E3
:103570000E46002404E0295D46A001F051FC641CC5
:10358000B442F8D345A001F04BFC70BD2DE9F041E9
:103590009EB006460C4617469846002505E0725D2B
:1035A0003CA1684601F04CFC6D1CA542F7D30021FC
:1035B00004EB4400401C0DF8001000236A4641460D
:1035C000384601F032F81EB0BDE8F0812DE9F04137
:1035D0000746884616460024002500BF10E0385DE7
:1035E00018F80410884202D1681CC5B206E015B96B
:1035F0000120BDE8F081681CC0B2FAE7601CC4B2CB
:10360000B442ECDB701EA84204D125A001F008FCF6
:103610000020EEE7FF20ECE72DE9F84306460F46D1
:10362000304601F055F905464FF0000800242846C1
:1036300005EBD0714910A5EB410129B11CA001F0A7
:10364000EFFB601EBDE8F883284605EBD0714FEA1A
:10365000610813E016F814008DF80000012000EB5B
:103660004400305C8DF8010000208DF8020010222B
:103670000021684601F04AF93855641C4445E9DBED
:103680004046DFE725303878000000008C81214279
:103690003800002025303258200000000A000000C9
:1036A000686578436F6D70616572206F6B0A00000A
:1036B000496E76616C696420696E707574206C6502
:1036C0006E6774680A00000030B595B005460024A6
:1036D0000DF10300E96801F010F9E868C11D04A8C4
:1036E00001F00BF922E0C4EBC40000EB4000FE4AFD
:1036F00002EB800000F1100104A801F0F0F860B1C5
:10370000C4EBC40000EB4000F74A02EB8000C11C90
:103710000DF1030001F0E3F830B9F4A001F080FBF3
:103720004FF0FF3015B030BD601CC4B2FD480078CA
:103730008442D8DBFB490978C1EBC10101EB4101AF
:10374000E94A02EB8101C81C0DF1030101F0D5F833
:10375000F4490978C1EBC10101EB4101E24A02EBF6
:10376000810101F1100004A901F0C7F8ED4A1278B7
:10377000C2EBC20202EB4202DB4B03EB8201E94ADD
:103780001278C2EBC20202EB420203EB8202D01CAF
:10379000FFF742FFE3480078C0EBC00000EB4000B9
:1037A000D14901EB8000DF490978C1EBC10101EB90
:1037B0004101CD4A02EB8101C860DA480078401C23
:1037C000D8490870D8A001F02BFB00241FE0C4EBFF
:1037D000C40000EB4000C44901EB800000F110037D
:1037E000C4EBC40000EB400001EB8000C21C21468A
:1037F000D1A001F015FBC4EBC40101EB4101BA4AB1
:1038000002EB81000321FFF7B1FE601CC4B2C54882
:1038100000788442DBDBC348007883E71FB5D1A181
:1038200003C9CDE90201D1A103C9CDE900010024FA
:1038300012E0062C0EDAC4EBC40000EB4000AA49EB
:1038400001EB8000C31C02A9601C0A5C0221C9486C
:10385000FFF75DFD601CC4B2B24800788442E8DB2B
:10386000002413E0062C0FDAC4EBC40000EB400088
:103870009D4901EB800000F11003601C1DF8002041
:103880000221BC48FFF743FD601CC4B2A548007884
:103890008442E7DB1FBD00B585B0B748D0F8FC0017
:1038A0000078012822D1B448D0F8040100786F28AC
:1038B00002D0792811D10CE0B0A001F0B1FAAE48E5
:1038C000D0F810010078012101EBC010B049087058
:1038D0000BE0B0A001F0A4FA07E0A748D0F804017B
:1038E0000178B1A001F09CFA00BF4DE0A248D0F8E9
:1038F000FC000078022840D19F48D0F804010078ED
:103900001E2812D004DC012807D009282CD10BE096
:1039100020281ED0212827D11FE0AAA001F080FA7C
:103920000020AC49087027E026E0ABA001F078FA4F
:10393000DC208DF80400FF208DF805008DF80600CE
:10394000934800230C2201A900908A48FFF740FD0C
:1039500012E0A7A001F064FA0EE0AAA001F060FA5C
:1039600001209C49087007E08348D0F804010178E1
:10397000A8A001F055FA00BF06E07F48D0F8FC008F
:103980000178ABA001F04CFA05B000BD10B57A4843
:1039900090F8140100282ED00020774981F81401F6
:1039A0000846D0F8F0000078B12802D0CD2814D114
:1039B00008E07148D0F8F4000078112801D1FFF731
:1039C0006AFF12E09F4840680078C12804D19D48F2
:1039D000FFF77AFEFFF722FF07E06748D0F8F00014
:1039E000017899A001F01CFA00BF00BF782162485D
:1039F000783000F062FF10BD00B59FB09A4890F893
:103A0000200200286ED00020974981F82002084645
:103A1000D0F8180200780A2802D00C2863D107E0F9
:103A20009148D0F81402017890A001F0F9F94EE124
:103A300097A001F0F5F98C48D0F80002027899A11E
:103A400001A801F0FDF98848D0F80402027895A198
:103A50000DF1060001F0F4F98348D0F8080200786F
:103A60009249097842188FA102A801F0E9F97E482D
:103A7000D0F8000200782B490978C1EBC10101EBB5
:103A80004101194A02F821007748D0F80402007871
:103A900024490978C1EBC10101EB410102EB81012D
:103AA00048707148D0F8080200781E490978C1EBC7
:103AB000C10101EB410102EB8101887019480078D6
:103AC000C0EBC00000EB4000114601EB800015493F
:103AD0000978C1EBC10101EB410102EB8101C86032
:103AE00001ABE5E0F8E0EEE0B40E0020555345529E
:103AF0005F434D442D2D3E3E20434D445F3078437F
:103B000031206964206F72206E616D6520616C7276
:103B10006561647920726567697374657265642193
:103B20000D0A00003C0000204E6F6465204C697354
:103B3000743A200D0A000000496420696E646578BB
:103B40002025642C204944205B25735D2C204E6188
:103B50006D65205B25735D0D0A68657849443A20E0
:103B600000000000000102030405060000222324D7
:103B700025262700A453002054500020636F6E7444
:103B8000726C206E6F6465206368310D0A0000005E
:103B90001C540020636F6E74726C206E6F6465201D
:103BA0006368320D0A0000004E6F7466756E2070F7
:103BB0006167653120627574746F6E2025780D0A17
:103BC0000000000073657420627574746F6E0D0AD6
:103BD0000000000042000020736561726368206E7F
:103BE0006F646520627574746F6E0D0A00000000CA
:103BF0007265676973746572206E6F6465200D0A63
:103C0000000000006261636B20627574746F6E0D5A
:103C10000A0000004E6F7466756E20706167653231
:103C200020627574746F6E2025780D0A0000000004
:103C30004E6F7466756E2053637265656E202564E1
:103C40000D0A0000945300207561727432484D498A
:103C50005061636B2E636D6420756E6B6F776E21A0
:103C60002025780D0A000000705100204E6F646519
:103C70004461746120726574205B253032785D2068
:103C8000504F574552434F4E54524C200D0A00009E
:103C90004E6F6465446174612072657420414444D0
:103CA000520D0A0025303278000000004300002049
:103CB000082202219848FFF72AFB98480078401C08
:103CC0009649087003E096A001F0AAF800BF00BF73
:103CD000FF219B4800F0F1FD1FB000BD70B5044608
:103CE0000D462A46214697A001F09AF8012D21D1D0
:103CF000012C0FD19AA001F093F800239BA201217F
:103D0000184600F092FC01209A4908609A49C1F8CF
:103D1000B40134E099A001F083F800239AA20121B4
:103D2000184600F082FC0020924908609249C1F8D0
:103D3000B40124E0022D22D1012C10D194A001F075
:103D40006FF8002395A20121342000F06EFC0120C1
:103D50008849091D08608849C1F8B8010FE091A0A1
:103D600001F05EF8002392A20121342000F05DFCF6
:103D700000208049091D08607F49C1F8B80170BD65
:103D800008B58D48006801280FD98B480068B0F548
:103D9000487F0AD20020774910310860002387A2AB
:103DA0000621782000F041FC12E08348006840F2D0
:103DB0003E3188420CD900207F49086001206D49BE
:103DC0001031086001237DA20621782000F02DFC2F
:103DD0007B480068B0F57A7F17D37A480078A0B1A5
:103DE0007948009079480078C0EBC00000EB4000B3
:103DF000774A02EB800100230B224748FFF7E8FADD
:103E000072480078401C7149087008BD70B50446BE
:103E10000D4664B96F4A0321284600F0BFF96EA031
:103E200000F0FEFF03212846FFF7A0FB11E0012C64
:103E30000FD16849481400F021F96CA000F0F0FFA0
:103E400003212846FFF792FB624A0321284600F02F
:103E50007EF970BD2DE9F04F87B082464FF0000B20
:103E600000200590049000BF9AF8140000F0800034
:103E70006449098888420AD063480088401C624926
:103E800008809AF8140000F080005E4908809AF8D3
:103E90000E0001049AF80F0001EB00209AF81010B0
:103EA000084404905848008801049AF8150001EB72
:103EB00000209AF8161008440590049800F03FFE80
:103EC000524A534BCDE9000100F058FD02460B4623
:103ED000CDE9020100204F4900F0C2FD80460022DA
:103EE0004D4B00F04BFD064600F036FE834642F295
:103EF000107105984843B0FBFBF8404600F01FFEE8
:103F000006460022444B00F0ABFD04460D46204619
:103F1000294607B0BDE8F08FA453002043000020DD
:103F200075617274335F3438355061636B2E636D25
:103F30006420756E6B6F776E21200D0A0000000003
:103F40006F52002072656C61794F707265617420E8
:103F50007377202564206368202564200D0A000003
:103F6000484331204F4E200D0A0000004348313AAB
:103F70004F4E2000A0812142008021424348312041
:103F80004F46460D0A0000004348313A4F4646006E
:103F9000434832204F4E200D0A0000004348323A79
:103FA0004F4E2000434832204F46460D0A00000085
:103FB0004348323A4F4646002800002020000000C7
:103FC0002C000020420000201C540020440000204F
:103FD000B40E002000C800087265616420626F6141
:103FE000726420616464723A200D0A007772697409
:103FF0006520626F61726420616464723A200D0A08
:10400000000000003E0000204000002014AE47E108
:104010007A14FE3F2A75B5410088C3402DE9FF415F
:1040200005460E460027FCF710FB0020009006EB2B
:1040300085200290012003903420FCF7A1FD0DE0C3
:104040000298FCF747FB0446042C06D078A000F049
:10405000E7FE3420FCF794FD00E004E03846791CCC
:10406000CFB2C828ECDB00BFC82F03DB214677A006
:1040700000F0D6FEFCF7F5FABDE8FF812DE9F0412E
:1040800004460F46B4F5806F01D24FF48064C4F348
:10409000090008B9A60A02E0012000EB94260025D9
:1040A00004E0E8B23946FFF7B9FF6D1CB542F8D31A
:1040B000BDE8F0812DE9F04781460E461746002401
:1040C000A0466E48874201D3BDE8F087FCF7BDFAF1
:1040D0003420FCF755FD27E039F8141007EB4400B5
:1040E000FCF7FBFB05461AE03420FCF749FD08F11C
:1040F00001001FFA80F833462246414660A000F0D6
:104100008FFEB8F1050F09DD3420FCF739FD294693
:1041100065A000F085FEFCF7A4FA02E000BF042DC4
:10412000E2D100BF601C84B2B442D5DBFCF799FA3F
:1041300000BFC9E710B50346002005E032F8104083
:1041400023F81040441CA0B28842F7DB10BD2DE9D3
:10415000F041C0B006460C46174600254FF480716A
:10416000684600F0AAFB22463146684600F08CFB08
:104170002546204604EBD0714910A4EB410109B15A
:10418000681C85B2A84605EBD870C0F34F013A46CB
:104190006846FFF78FFF40B0BDE8F0812DE9F041A0
:1041A000C0B006460C4617460025204604EBD071E9
:1041B0004910A4EB410179B92546A84605EBD87012
:1041C000C0F34F013A466846FFF7B4FF22466946FE
:1041D000304600F059FB0EE0601C85B2A84605EBA6
:1041E000D87041103A466846FFF7A4FF2246694658
:1041F000304600F049FB40B0BDE8F08110B5044600
:10420000206836490840B0F1005F0CD134A000F0BE
:1042100007FE6068374908602068FBF793FF354860
:104220000068804702E034A000F0FAFD10BD0000F5
:10423000666C6173685F65726173655F7061676505
:10424000204661696C64200A00000000666C61739E
:10425000685F65726173655F70616765204661695B
:104260006C64203E2032303020212121206C61738B
:10427000746572726F3A2025640A0000000001081C
:10428000464C4153485F50726F6772616D48616C74
:1042900066576F72642065692025642C2025642F81
:1042A0002564200A00000000464C4153485F5072CC
:1042B0006F6772616D48616C66576F72642046610A
:1042C000696C64203E2032303020212121206C6135
:1042D00073746572726F3A2025640A000000FE2F25
:1042E000537461636B2053756363657373210D0AA7
:1042F0000000000048000020537461636B20466199
:10430000696C6564210D0A0008B501210820FCF7DD
:10431000FDFF4FF44070ADF8000010208DF8030051
:1043200003208DF802006946FC48FCF7ADFC4FF411
:104330004071FA48FCF755FD08BD10B50120F84959
:104340000860FEF7E9FE0120F649C1F8A001FEF77A
:10435000E3FE0020F24908600120FEF7DDFE0020A8
:10436000F049C1F8A00110BD10B50020EC4908606B
:104370000120FEF7D1FE0020EA49C1F8A00101208A
:10438000FEF7CAFE0120E6490860FEF7C5FE0120DF
:10439000E449C1F8A00110BD70B5044600251DE038
:1043A00004F0800018B10120DD49086002E000201F
:1043B000DB4908600120FEF7AFFE0120D849091F44
:1043C0000860FEF7A9FE0020D649C1F8A00101202F
:1043D000FEF7A2FE6006040E681CC5B2082DDFDBE6
:1043E0000120CF49091F0860FEF796FE0020CD4945
:1043F000C1F8A00170BD10B50446FFF79EFF7820FC
:10440000FFF7CAFF4020FFF7C7FF2046FFF7C4FFB2
:10441000FFF7AAFF10BD10B50446FFF78EFF782006
:10442000FFF7BAFF0020FFF7B7FF2046FFF7B4FF02
:10443000FFF79AFF10BD70B504460D4605F1B001B7
:10444000C8B2FFF7E8FF102141EA1410FFF7E3FFBD
:1044500004F00F00FFF7DFFF70BD70B504460D4696
:1044600005F1B001C8B2FFF7D6FF102141EA1410E0
:10447000FFF7D1FF04F00F0141F00100FFF7CBFF80
:1044800070BD70B50646002415E004F1B001C8B255
:10449000FFF7C1FF0020FFF7BEFF1020FFF7BBFFB3
:1044A000002504E03046FFF7A6FF681CC5B2802D4A
:1044B000F8DB601CC4B2082CE7DB70BD2DE9F05FAF
:1044C00006460F4690461C46DDF828A04FF0000B2C
:1044D000E11704EB5171C910A4EBC10131B92046B9
:1044E000E11704EB5171C1F3C70506E02046E1175F
:1044F00004EB5171C910491CCDB23D4614E0294668
:104500003046FFF798FFB1460AE059460BF1010B20
:104510001AF80100FFF76FFF09F1010000F0FF0931
:10452000C145F2DB681CC5B2A542E8DBBDE8F09FDF
:1045300010B50020FFF7A5FF10BD10B58D20FFF7C7
:104540006AFF1420FFF767FFAF20FFF764FF10BD7D
:1045500010B58D20FFF75FFF1020FFF75CFFAE2046
:10456000FFF759FF10BD10B5FFF7CEFE6420FEF730
:10457000E1FDAE20FFF74FFF0020FFF74CFF1020BA
:10458000FFF749FF4020FFF746FF8120FFF743FF79
:10459000FF20FFF740FFA020FFF73DFFC020FFF7FF
:1045A0003AFFA620FFF737FFA820FFF734FF3F2090
:1045B000FFF731FFD320FFF72EFF0020FFF72BFF7F
:1045C000D520FFF728FF8020FFF725FFD920FFF730
:1045D00022FFF120FFF71FFFDA20FFF71CFF122058
:1045E000FFF719FFDB20FFF716FF4020FFF713FF4F
:1045F0002020FFF710FF0220FFF70DFF8D20FFF7AF
:104600000AFF1420FFF707FFA420FFF704FFA620EE
:10461000FFF701FFAF20FFF7FEFE0020FFF731FF9D
:1046200000210846FFF707FF10BD2DE9F05F0446A3
:10463000894615469A464FF0000B00260027BAF12E
:10464000000F01D1B04601E04FF0FF0822E0E85D25
:10465000203800F0FF0B7E2C04DD002409F101005E
:1046600000F0FF0949462046FFF7F7FE00260BE061
:104670000BEB4B012C4A02EB4101895D81EA0800FA
:10468000FFF7B9FE701CC6B2062EF1DBA01DC4B246
:10469000781CC7B2E85D0028D9D1BDE8F09F2DE9AC
:1046A000F04705460E46174698464FF0000907EBBF
:1046B00047004FEA400AB8F1000F01D1002400E0A2
:1046C000FF247E2D02DD0025701CC6B2314628462F
:1046D000FFF7B1FE4FF000090CE051460AF1010A64
:1046E000124A515C81EA0400FFF785FE09F10100DE
:1046F00000F0FF09B9F1060FEFDBBDE8F0872DE907
:10470000F05F0746884691469B4600250024A24656
:10471000BBF1000F0CD100260BE00000000C0140A3
:10472000A481214200802142020100204C0000208F
:10473000FF2638E019F80A002038C5B2782F04DDCA
:10474000002708F1010000F0FF0841463846FFF756
:1047500072FE002409E004EB0511474A515C81EA2E
:104760000600FFF748FE601CC4B2082CF3DB08F11A
:104770000100C1B23846FFF75EFE00240AE004EBF8
:10478000051108313C4A515C81EA0600FFF733FE0F
:10479000601CC4B2082CF2DB07F10800C7B20AF1B2
:1047A000010000F0FF0A19F80A000028C2D1BDE894
:1047B000F09F2DE9F04781460F46164698460024A3
:1047C0004FEA481539464846FFF735FE00BF05E079
:1047D000705DFFF710FE6D1C601CC4B2102CF7DB7F
:1047E000781CC1B24846FFF726FE002405E0705D44
:1047F000FFF701FE6D1C601CC4B2102CF7DBBDE896
:10480000F0872DE9F0470546884616461F460024E6
:1048100028074FEA106900BF09E009EB0411C8B28C
:1048200023463A464146FFF7C4FF601CC4B2701CE1
:104830008442F2DBBDE8F08708B510480523252245
:10484000012100901846FFF739FE3220FEF772FC76
:104850000B4805232522012100901846FFF72EFE64
:104860003220FEF767FC074805232522012100902E
:104870001846FFF723FE08BD2A0300201A0D00206A
:104880009A0D00201A0E002040EA01039B0703D076
:1048900009E008C9121F08C0042AFAD203E011F87F
:1048A000013B00F8013B521EF9D27047D2B201E041
:1048B00000F8012B491EFBD270470022F6E710B525
:1048C00013460A4604461946FFF7F0FF204610BD7E
:1048D000421C10F8011B0029FBD1801A704710B54B
:1048E000002200E0521C835C8C5CA34201D1002BAF
:1048F000F8D1D8B2E1B2401A10BD034611F8012B2D
:1049000000F8012B002AF9D1184670472DE9F0472D
:1049100091460F4680460446002614F8015B2DB1EF
:1049200000F074F90068405DC007F6D12B2D02D06D
:104930002D2D18D0641E4A463946204600F06AF9EB
:1049400027B13968A14201D1C7F8008071054FF045
:1049500002040BD54042002803DD00F085FA046014
:10496000A007BDE8F08746F48066E4E70028F8DA9F
:1049700000F07AFA04606FF00040F2E72DE9FE4F94
:1049800081EA030404F0004421F0004100944FF058
:10499000000B23F0004350EA01045ED052EA030406
:1049A0005BD0C3F30A54C1F30A552C44A4F2F33488
:1049B0000194A0FB0254C1F3130141F48011C3F32D
:1049C000130343F4801301FB024400FB034E840AEB
:1049D000970A44EA815447EA8357A4FB0768029583
:1049E0008D0A05FB07854FEA932C04FB0C54270521
:1049F000029D4FEA065847EA1637B5EB08056EEBFD
:104A0000070C870E920E47EA811742EA8312A7FB32
:104A10000201B6EB0B0164EB00042B0D43EA0C33EF
:104A20005E1844EB1C50DA465146E7FB0201C5F321
:104A300013044FEA0B3343EA14534FEA0432019C48
:104A400043EA0603A4F10C040294009CCDE900B4EF
:104A500000F03EF903B0BDE8F08F00200146F9E711
:104A60002DE9F04D81EA030404F0004B21F00045EC
:104A700014464FF0000A23F0004150EA050220D00E
:104A800054EA01021DD0C5F30A570246C5F31303C9
:104A9000C1F31300C1F30A5640F4801543F48013A8
:104AA000A7EB0608101BD64608F2FD3873EB05008D
:104AB00002D308F1010801E092185B41B8F1000F40
:104AC00003DA00200146BDE8F08D00204FF480118C
:104AD000064684460EE0171B73EB050705D3121B31
:104AE00063EB050306434CEA010C49084FEA30002A
:104AF00092185B4150EA0107EDD152EA030012D04F
:104B000082EA040083EA0501084305D0101BAB418B
:104B100006D20122002306E000224FF0004302E00B
:104B20006FF0010253101AEB06004CEB085110EB2A
:104B30000A0041EB0B01BDE8F04D00F0BAB80EB52C
:104B400040F2334102910021CDE900110A460B46A3
:104B500000F0BEF803B000BDC1F30A5210B5C1F3B6
:104B6000130140F2FF3341F480119A4201DA002030
:104B700010BD40F233439A42A2F2334203DC524268
:104B800000F034F810BD904010BD2DE9F05F0546EF
:104B9000002092469B4688460646814640241BE0FC
:104BA000284641464746224600F020F853465A46DA
:104BB000C01A914110D311461846224600F0E8F879
:104BC0002D1A67EB01084F4622460120002100F014
:104BD000DFF817EB00094E41201EA4F10104DFDCD1
:104BE000484631462A464346BDE8F09F202A04DB6A
:104BF000203A21FA02F00021704721FA02F3D04056
:104C0000C2F120029140084319467047004870479E
:104C1000805300082DE9F05F824600780027154692
:104C20008B460AF10104B946302801D09DB113E04A
:104C300014F8010B0127782803D0582801D045B17A
:104C40000AE00DB1102D07D10027102514F8010B33
:104C500002E0082500E00A250026B0460EE005FB2C
:104C6000080005FB06F1012701EB10461FFA80F84A
:104C7000B6F5803F00D3B94614F8010B294600F081
:104C800096F80028EBDABBF1000F05D00FB1641ED7
:104C900000E05446CBF80040B9F1000F06D000F018
:104CA000E3F802210160C81EBDE8F09F48EA064013
:104CB000FAE710B5141E73F1000408DA401C41F144
:104CC000000192185B411A4301D120F0010010BD90
:104CD0002DE9F04D92469B4611B1B1FA81F202E006
:104CE000B0FA80F22032904600F052F804460F46A7
:104CF00040EA0A0041EA0B0153465A46084313D0E2
:104D0000114653EA010019D0C8F140025046FFF79E
:104D10006DFF05460E4650465946424600F038F8AB
:104D2000084305D0012004E020463946BDE8F08D57
:104D30000020054346EAE0762C4337430A98630592
:104D4000E40AA0EB08000022FD0A44EA47540A30B6
:104D500002D500200146E9E7010510196941DDE9A6
:104D6000084500196941BDE8F04DA2E7064C074D22
:104D700006E0E06840F0010394E80700984710342B
:104D8000AC42F6D3FBF7D8F984530008A4530008CB
:104D9000202A04DB203A00FA02F1002070479140FB
:104DA000C2F1200320FA03F31943904070473A28D8
:104DB00000D2303820F02002412A01D3A2F137007E
:104DC000884201D34FF0FF30704770B58C1810F84F
:104DD000015B15F0070301D110F8013B2A1106D140
:104DE00010F8012B03E010F8016B01F8016B5B1E5A
:104DF000F9D12B0705D40023521E0DD401F8013B35
:104E0000FAE710F8013BCB1A921C03E013F8015BA0
:104E100001F8015B521EF9D5A142D8D3002070BD24
:104E20000FB4054B10B503A9044A029800F030F8FE
:104E300010BC5DF814FB0000812C00089C0E0020C3
:104E40000FB4084B10B504A902AA039800F020F88B
:104E5000044602A9002000F04CFA204610BC5DF880
:104E600014FB0000F352000800487047A00E002019
:104E700002E008C8121F08C1002AFAD17047704723
:104E8000002001E001C1121F002AFBD17047000081
:104E90002DE9FF4F8DB00F460546002606E0252878
:104EA0000BD0DDE90F1290476D1C761C2878002886
:104EB000F5D111B03046BDE8F08F0024A246A146DE
:104EC0000122EC4900E0044315F8013F203B02FABF
:104ED00003F00842F7D128782A2810D06FF02F026B
:104EE0002878A0F13001092914D80AEB8A0102EBD5
:104EF000410144F0020400EB010A6D1CF0E701CF10
:104F00005FEA000A03D544F40054CAF1000A44F0F1
:104F100002046D1C28782E2817D115F8010F44F0D3
:104F200004042A280ED06FF02F022878A0F1300157
:104F300009290AD809EB890102EB410100EB0109BB
:104F40006D1CF2E757F8049B6D1C28786C280FD075
:104F500006DC4C2817D068280DD06A2814D104E04C
:104F6000742810D07A280FD10DE044F400140AE020
:104F700044F4801401E044F440146978814202D181
:104F800004F580146D1C6D1C2A786E2A1FD00CDC71
:104F9000632A31D004DC002A8BD0582A11D1A3E037
:104FA000642A68D0692A0CD165E0732A2ED004DC0B
:104FB0006F2A73D0702A04D19BE0752A6FD0782AAB
:104FC0006ED01046DDE90F129047761C50E1C4F315
:104FD0000250022806D0032809D0042801CF09D0A6
:104FE000066045E101CFF117C0E9006140E101CF62
:104FF00006803DE106703BE117F8040B8DF80000D8
:1050000000208DF80100EB46012003E057F804BBB7
:105010004FF0FF3061074FF0000102D40DE008F1BE
:105020000101884649450FDA8045F8DB1BF8081076
:105030000029F4D108E008F1010188468142FADB39
:105040001BF808100029F6D1DDE90F23AAEB0800B0
:105050008146214600F036F9304400EB080604E0B2
:10506000DDE90F121BF8010B9047B8F10108F7D2E8
:1050700021464846F7E00A21C4F302534FF0000BE3
:105080000891022B04D001CFC117032B09D00AE0ED
:10509000FF1D27F00707F7E8020108E032E01FE0F4
:1050A00020E000B2C117042B01D140B2C117031E8A
:1050B00071F1000307DA4FF0000CD0EB0C006CEB41
:1050C00001012D2302E0230504D52B238DF8243084
:1050D000012303E0E30701D02023F7E7984658E0D7
:1050E0000A2110E010210EE010204FF0000B089074
:1050F0000CE010214FF0000B44F004044FF00809BD
:10510000089103E008214FF0000B0891C4F302530B
:10511000022B04D001CF0021032B06D006E0FF1D97
:1051200027F00707F7E8020103E080B2042B00D163
:10513000C0B24FF0000823072BD5702A07D0DDF846
:1051400020C08CF0100C5CEA0B0C05D00EE0402364
:105150008DF82430012308E050EA010306D0302303
:105160008DF824308DF8252002239846DDF820C0E4
:105170008CF0080C5CEA0B0C0BD150EA010301D156
:10518000630706D530238DF824304FF00108A9F1CC
:105190000109582A04D038A20B9208AA0A920BE0FF
:1051A0003AA2F9E75B46089AFFF7EFFC0B9B9B5C82
:1051B0000A9A521E0A92137050EA0102F2D10A981A
:1051C000ADEB000000F1200B600702D524F4803421
:1051D00001E04FF00109D94502DDA9EB0B0000E029
:1051E000002000EB0B0141440890AAEB010AE00308
:1051F00006D4DDE90F232146504600F063F806444B
:105200004FF0000908E009A911F80900DDE90F12C3
:10521000904709F10109761CC145F4DBE0030CD588
:10522000DDE90F232146504600F04CF8064404E027
:10523000DDE90F1230209047761C0899481E08902F
:105240000029F5DC08E00A980A990078491C0A91BF
:10525000DDE90F129047761CBBF10001ABF1010BA9
:10526000F1DC21465046DDE90F2300F019F8064431
:105270006D1C1BE6092801003031323334353637D6
:105280003839616263646566000000003031323392
:105290003435363738394142434445460000000032
:1052A0002DE9F041044600251E461746880404D423
:1052B00005E039462020B0476D1C641EF9D528460C
:1052C000BDE8F0812DE9F041044600251E469046D8
:1052D000C80301D5302700E02027880404D505E065
:1052E00041463846B0476D1C641EF9D52846BDE8D6
:1052F000F0810A68531C0B601070704700404040FA
:105300004040404040404141414141404040404098
:105310004040404040404040404040404005020244
:105320000202020202020202020202020220202003
:10533000202020202020200202020202020290905F
:10534000909090901010101010101010101010105D
:1053500010101010101010100202020202028888B1
:1053600088888888080808080808080808080808BD
:1053700008080808080808080202020240000000A5
:10538000FD520008A453000800000020A40E0000F5
:10539000CA4D0008245A0008A40E002084490000C9
:1053A000804E00081184A24A046809010203040621
:1053B0000708090C6910051A020406080211015BAE
:1053C0007E9201249E80E01A040128080C34040413
:1053D00044847F0B111702FE9292FE0220081011E6
:1053E00016F01413101010101F0808FF048141312B
:1053F0000D030D31418110102030AC6320188090D6
:1054000090FF90494A484020102267221212124011
:105410004020130C142241F825FE2222FE2008F120
:105420001610101814F31010807F0282FF804021A4
:105430001907013F414170180E840414640F04845D
:1054400044B4242FA46470180E080BF80403040459
:10545000FA4A49494AFA1031193F0113422F1A07F3
:1054600002111B147F021116242A7F2A121662646D
:10547000081323263649552250430503341C224184
:105480001C41221C2A15083E08141A08063208235B
:10549000A0602A0801211A600B11162010080402CE
:1054A000263E5149453E1C427F4005156151494603
:1054B000162141454B31161814127F101627454509
:1054C00045391A3C9E12301C017109621636494951
:1054D000493626064949291E4336362A56062B08E0
:1054E00014782A1401297E131408160201510906A2
:1054F00016324959513E167C1211127C3A7F3C16E5
:105500003E414141221A7F053A1C1212411E7F0979
:10551000090901181449497A1A7FA11A7F421A7F92
:105520004E1E2040413F0112295B1B7F4001111696
:105530007F020C027F3E7F0408107F483A3E3C1AEF
:10554000060C1C51215E0C141929461A46541231BE
:105550001601017F01011A3F35123F1E1F20402016
:105560001F0C1A380C166314081463160708700809
:105570000719EF234543198B211B552A0219781A65
:10558000417D16040201020429712240290B1116E3
:105590002054545478167F484444382E38444444A8
:1055A000200613487F1A3818121816087E090102BF
:1055B0001D18A4A4A4E425080404781B447D3B1D05
:1055C0004080847D5F341028441B417F121C7C0482
:1055D000181E3A7C242948123816FC242424181A50
:1055E00018053AFC1812081A4854122016043F44B1
:1055F0004020163C4040207C1A1CC01A1C0C143061
:10560000403C2B44284F161CA0A0A07C3F4464546F
:105610004C441401011372F84333301C100C060380
:10562000912C40C0780319672A0403212D7088FC4F
:105630000829261820FF211E14F008F033E0184D29
:10564000211C031E11338870000C101E2123241905
:1056500027211010160E45E01804021C071820EA36
:105660003D020418E0692C20180707174080F080DD
:1056700040403F0202010F01022842F01D010101DA
:105680001F04912B80B066B1191D2901913A30CECB
:10569000492C146018043C6018061D1EE010080810
:1056A00010721F0F102020100FF05310F83620201A
:1056B0003F20203C700808C21E3028242221441EAE
:1056C0003008888848082E1820202011CC3BC020A4
:1056D0003227070424243F241AF8202308084B19F2
:1056E000212036E0108888184B0F11101E3808084A
:1056F000C8382021523F1A702E29608F1C22212188
:10570000221C90111D31222211901961CAC0C26A57
:1057100080C659081C4020105017010204081020B0
:105720004A4001114A04012119152A403219251B4A
:105730000402F21B7048D13AF0501A360F1EC030E6
:10574000C828E87028080718272423140B6F2A3864
:105750007E280D203C23020227382008F888889FE5
:105760004B203FF01BC0303F1B0838301910197810
:105770001B08F80F194039201B100F103E8888E8CD
:10578000081010AC23201810112A035E294022387B
:1057900029402C221E024019A41809F808203F2194
:1057A000010121252A0852298129424149112EC08F
:1057B0008080807F0E2FF888C0281808501C012692
:1057C000382F2940292F29801B20301012F81AF871
:1057D0001413203F190229204B30C0601A20741284
:1057E0003F4BE010B06B0F10B029D01AF030198089
:1057F000220179203F18242438504FC04C888870EB
:10580000C0140C30204B7088C11738202121221C75
:105810003A189F4A188239A049D0112A1F90121FA6
:10582000240878881BC838151C07380E60191A1A06
:10583000F8201114033C0714073C034814081868A7
:10584000808068180820302C03032C30200838C8CA
:105850002F5950298F29102F2038262120206811F8
:1058600045FE020202257F4040401A0CE0611C0107
:1058700006380B191D42FE191D527F1A041202111F
:10588000045A80011930D91D39162118081924220B
:1058900022223F20AB390F115F3F112020110E2132
:1058A000311A0E104B2011104B88F8102A10B359E2
:1058B000401A1F3F2B22130F16F0888888181A20D1
:1058C000D029D1497A21176B949494936039601947
:1058D0000F4C203F21F354809898793059121AC008
:1058E0002719D1193039311F203F24022D30212AA8
:1058F0000812893069D7294B2903190BC96079A08F
:1059000019BF2B201FDD390F9C80FFA1E019122940
:10591000D03BA0FF0C3950194112208A01C01B3323
:1059200024012A190F3AE0413952290F39234960DD
:105930003C103F202C29053F010E3008060170293C
:105940001038080F300C030C300F2C49A14E312EAB
:105950000E31200C29621D818E70183059D12157CB
:1059600021302C22213055807C0202443F4040727D
:10597000FF39083C02027C8F5440403F80080601FA
:1059800001020204040B7BFF01016AFFAC017709ED
:10599000FD8009FD800982800A7B800162FF1C80F6
:1059A00080C0015A800D390C590D417B7CFF018B61
:1059B000FCFC0C923C48090103070F1F3F7F7F1836
:1059C0000008157F7F3F1F0F070303150101B973FF
:1059D000598D7981997F8DFEFCFCFE0E6A7C5539CC
:1059E0007E891819832982E96BD80901010303070D
:1059F000070303841E80C0E0E0F0012CE0E0C073E8
:105A0000197EB910AA3E589BFFFE7F19010A137E2A
:105A10007E0913821A017C1F0F0F1F1F0F0F84E9CD
:045A20009B410000A6
:0400000508000131BD
:00000001FF
