:020000040800F2
:10000000500A002009010008752800087728000818
:100010007F280008872800088F28000800000000BB
:100020000000000000000000000000009728000809
:1000300099280008000000009B2800089D2800085F
:100040002301000823010008230100082301000800
:1000500023010008230100082301000823010008F0
:1000600023010008230100082301000823010008E0
:1000700023010008230100082301000823010008D0
:1000800023010008230100082301000823010008C0
:1000900023010008230100082301000823010008B0
:1000A00023010008230100082301000823010008A0
:1000B000A3280008C1280008230100082301000824
:1000C0002301000823010008230100082301000880
:1000D00023010008EB280008DB29000823010008A1
:1000E00023010008A128000823010008DFF80CD034
:1000F00004F0D8F80048004771220008500A002098
:1001000080F308887047000006488047064800478B
:10011000FEE7FEE7FEE7FEE7FEE7FEE7FEE7FEE7B7
:10012000FEE7FEE7CD010008ED0000080CB5002158
:100130004B4801910091026842F4803202604FF412
:10014000A063026802F400320092019A521C0192EC
:10015000009A12B9019A9A42F3D10268920333D5F8
:10016000012100913F490A6842F010020A600A68C2
:1001700022F003020A600A6842F002020A60416843
:10018000416041684160416841F48061416041687B
:1001900021F47C114160416841F4E811416001683B
:1001A00041F08071016001688901FCD5416821F04E
:1001B00003014160416841F0020141604168C1F3BF
:1001C00081010229FAD10CBD00910CBD244810B563
:1001D000016841F0010101604168234A114041601A
:1001E0000168224A11400160016821F48021016008
:1001F000416821F4FE0141604FF41F018160FFF767
:1002000095FF1B494FF00060086010BD144910B500
:100210004868184A10F00C03174803D0042B01D08B
:10022000082B0AD002604968134AC1F30311121D5A
:10023000515C0268CA40026010BD4A684B6802F413
:1002400070124FF0020413F4803F04EB924202D08C
:100250004B689B0301D5094B00E0064B5A43E1E78D
:1002600000100240002002400000FFF8FFFFF6FEF1
:1002700008ED00E000127A000000002000093D00B7
:100280002849084328490860704770B50F23C4788F
:1002900001780122F4B1244C2468457804F4E06428
:1002A000C4F5E064240AC4F10406E3408478B54050
:1002B0001C402C4301F1E021230181F80034007837
:1002C00000F01F018A404009800000F1E020C0F8E2
:1002D000002170BD01F01F0082404809800000F13C
:1002E000E020C0F8802170BD104A114001430E4843
:1002F000001F016070470C4A121D0029116801D0CF
:10030000014300E08143116070474FF0E021042871
:10031000086903D020F004000861704740F0040031
:10032000FAE700000000FA050CED00E080FFFF1F77
:10033000C54910B5884202D1012144150AE0C349DC
:10034000884202D10121041504E0C14988420AD142
:100350000121CC03204600F0B8FF2046BDE8104044
:10036000002100F0B2BF10BD10B54268B94B0C7946
:100370001A400B6842EA0422134343608368B64A7A
:100380001340D1E9024222434C7943EA44031A4321
:100390008260C26A097C22F47002491EC9B242EA34
:1003A0000151C16210BD0021016001714171816084
:1003B000C1600121017470470029816802D041F0B9
:1003C000010101E021F0010181607047002981688D
:1003D00002D041F4807101E021F4807181607047A6
:1003E000002A4268C9B201D00A4300E08A43426051
:1003F0007047816841F00801816070470146002024
:100400008968090700D501207047816841F004011F
:1004100081607047014600208968490700D50120A6
:1004200070470029816802D041F4A00101E021F465
:10043000A00181607047014600208968490200D50B
:10044000012070474268491E22F4604242EA41316D
:10045000416070470029416802D041F4006101E029
:1004600021F400614160704770B5072409290AD959
:10047000C568A1F10A0606EB4606B440A543B340A1
:100480001D43C56007E0056901EB4106B440A54383
:10049000B3401D4305611F23072A09D2446B521E36
:1004A00002EB820293409C4391400C43446370BD35
:1004B0000D2A09D2046BD21F02EB820293409C43A7
:1004C00091400C43046370BDC46A0D3A02EB820292
:1004D00093409C4391400C43C46270BD00298168E5
:1004E00002D041F4801101E021F480118160704755
:1004F000C06C80B2704754484C3000687047002987
:10050000416802D041F4806101E021F480614160E2
:1005100070470029416802D041F4805101E021F484
:10052000805141607047826822F4E0420A43826051
:1005300070470029816802D041F4004101E021F4B4
:100540000041816070470029816802D041F40211A6
:1005500001E021F4021181607047014600208968A2
:10056000890200D50120704770B5072409290AD9EE
:10057000C568A1F10A0606EB4606B440A543B340A0
:100580001D43C56007E0056901EB4106B440A54382
:10059000B3401D430561836BC3F30154121B921CCE
:1005A00002EB82041F22A2409343A1400B438363CA
:1005B00070BD826B491E22F4401242EA01518163F0
:1005C000704708B508440090026008BD08B50844AB
:1005D00028300090006880B208BD42681F4B1A4066
:1005E0000A4342607047416282627047426822F06B
:1005F0001F020A4342607047134908310028086807
:1006000002D040F4000001E020F4000008607047D0
:100610000246002012680A4200D001207047C943F8
:100620000160704710B50246002054680B0AC9B239
:100630000C401168194202D0002C00D0012010BDDE
:100640006FEA112101607047002401400028014039
:10065000003C0140FFFEF0FFFDF7F1FFFFFD3FFF13
:1006600010B5012000F043FEBDE81040002000F06E
:100670003EBE1F49086070471D49091F086070474A
:100680001B498431086070471A4A118821F460714F
:10069000014311807047174A118821F07F010143FF
:1006A00011807047134A08B52C3A1044009001603D
:1006B00008BD104908B52C3908440090008808BDD1
:1006C0000B489C300068C0B270470A480830018867
:1006D00041F00101018070470548A0300068C0B2B8
:1006E000704704480830018841F0020101807047DA
:1006F00004860D422C6C004001684FF6FE721140DA
:1007000001600021016041608160C1606A496A4AFC
:100710000839904203D1486840F00F0006E0664A6D
:100720001432904204D1486840F0F00048607047AD
:10073000614A2832904203D1486840F47060F5E77E
:100740005D4A3C32904203D1486840F47040EDE786
:10075000594A5032904203D1486840F47020E5E78E
:10076000554A6432904203D1486840F47000DDE796
:10077000514A7832904203D1486840F07060D5E722
:100780004E4A111F904203D1086840F00F0006E066
:100790004A4A1432904204D1086840F0F0000860E0
:1007A0007047464A2832904203D1086840F470608E
:1007B000F5E7424A3C32904203D1086840F4704069
:1007C000EDE73E4A50329042EAD1086840F470208A
:1007D000E5E730B5036847F6F07293430C6A8A6820
:1007E0002243D1E904452C4322438C692243CC693E
:1007F00022434C6A22438C6A22431A430260CA682D
:1008000042600A6882604968C16030BD00210160B1
:1008100041608160C160016141618161C1610162CA
:100820004162816270470029016802D041F00101F4
:1008300002E04FF6FE72114001607047002A026824
:1008400001D00A4300E08A4302607047416070476C
:10085000406880B2704701460020CA0002D5174A9E
:10086000083A01E0144A083A12680A4200D001200E
:100870007047C10003D51149091F086070470E4930
:1008800008394860704701460020CA0002D50B4A6B
:10089000083A01E0084A083A12680A4200D00120EA
:1008A0007047C10003D50549091F08607047024918
:1008B0000839486070470000080002400804024000
:1008C000FC4A116801F03801014311607047F94991
:1008D0000A6822F008020A600A6802430A60704748
:1008E000F4490A6822F010020A600A6802430A60AA
:1008F0007047F048F0494160F04941607047ED4869
:10090000ED494160ED4941607047EA48016941F0B5
:10091000800101617047E748016941F08001016190
:100920007047E4490420CA68D20701D0012070470B
:10093000CA68520701D502207047C968C906FBD5AD
:100940000320704700B50346FFF7EBFF03E000BF4D
:10095000FFF7E7FF5B1E012803D0002B00D1052025
:1009600000BD002BF4D1FAE770B505464FF43026F0
:100970003046FFF7E7FF042811D1CE4C206940F044
:10098000020020616561206940F04000206130462E
:10099000FFF7D8FF216941F6FD721140216170BD5A
:1009A00030B54FF430252846FFF7CCFF042810D18E
:1009B000C04C206940F004002061206940F04000F4
:1009C00020612846FFF7BEFF216941F6FB72114006
:1009D000216130BD00B50346FFF7A3FF03E000BF70
:1009E000FFF79FFF5B1E012803D0002B00D10520DD
:1009F00000BD002BF4D1FAE730B54FF4302528467E
:100A0000FFF7E8FF042810D1AA4C206940F0040049
:100A10002061206940F0400020612846FFF7DAFF9E
:100A2000216941F6FB721140216130BDA1490020CE
:100A3000C969890700D50120704770B5A525FFF762
:100A4000F5FF00B100254FF430263046FFF77AFF5E
:100A5000042827D1974C9848A0609848A060206946
:100A600040F020002061206940F0400020613046C5
:100A7000FFF768FF41F6EF7604280ED1206941F6B2
:100A8000DF7108402061206940F0100020618C482F
:100A900005804FF40050FFF755FF052802D021696B
:100AA0003140216170BDF8B5064600204FF4005C6E
:100AB00000900D466046FFF745FF042816D17D4C97
:100AC000206940F00100206135806046FFF73AFF61
:100AD00041F6FE77042806D1B61C280C009630801B
:100AE0006046FFF72FFF216939402161F8BDF0B55D
:100AF00006464FF400570D463846FFF723FF0428FB
:100B00000CD16C4C206940F00100206135803846E2
:100B1000FFF718FF2169BA1E11402161F0BDF0B541
:100B200006464FF400570D463846FFF70BFF0428E2
:100B300013D1604C6048A0606048A060206940F01C
:100B40001000206135803846FFF7FCFE052804D0F0
:100B5000216941F6EF7211402161F0BD2DE9F041AC
:100B6000C04300F0FF0CC0F30727C0F30746050E93
:100B70004FF400584046FFF7E5FE042837D14D4CAE
:100B80004D49A1604D49A160216941F010012161E9
:100B9000BCF1FF0F08D04A480830A0F800C040461A
:100BA000FFF7D0FE04281BD1FF2F07D044480A309E
:100BB00007804046FFF7C6FE042811D1FF2E07D05C
:100BC0003F480C3006804046FFF7BCFE042807D1A2
:100BD000FF2D07D03A480E3005804046FFF7B2FEA1
:100BE000052804D0216941F6EF7211402161BDE86A
:100BF000F08170B505464FF430263046FFF7A2FE6F
:100C0000042818D12B4C2C48A0602C48A0602069E7
:100C100040F020002061206940F040002061304613
:100C2000FFF790FE41F6DF71042805D0052802D0B9
:100C300022690A40226170BD206908402061206954
:100C400040F0100020611E480DB1002100E0A521F8
:100C500001803046FFF776FE0528ECD0216941F689
:100C6000EF721140216170BDF0B5124C0746124879
:100C700016460D46A0601148A0604FF4005C604627
:100C8000FFF760FE042814D1206940F010002061B5
:100C900035430B493D43891C45F0F8000880604608
:100CA000FFF750FE052804D0216941F6EF7211408C
:100CB0002161F0BD0020024023016745AB89EFCDE3
:100CC00000F8FF1F1C48C069800870471A48006A76
:100CD0007047194900200968890600D5012070472E
:100CE000154A0029116901D0014300E081431161D7
:100CF000704701460020104A012903D0D2680A42F9
:100D000003D17047D169C907FBD0012070470A4958
:100D1000C860704708490420CA68D20701D0012082
:100D20007047CA68520701D502207047C968C906D2
:100D3000FBD503207047000000200240914910B508
:100D4000884206D10121042000F0BFFA00210420CE
:100D50003BE08D49884206D10121082000F0B5FA18
:100D60000021082031E08949884206D10121102064
:100D700000F0ABFA0021102027E08549884206D117
:100D80000121202000F0A1FA002120201DE081494E
:100D9000884206D10121402000F097FA002140202E
:100DA00013E07D49884206D10121802000F08DFAB0
:100DB0000021802009E0794988420AD18415012167
:100DC000204600F082FA00212046BDE8104000F0E5
:100DD0007CBA10BD10B50121084600F076FA00215A
:100DE000BDE81040012000F070BAF0B5CA780025C7
:100DF00002F00F03D20601D58A7813430A784FF028
:100E00000F0E12F0FF0F4FF001021DD0D0F800407E
:100E10000F8802FA05F63740B74211D14FEA850C28
:100E20000EFA0CF724EA070703FA0CF43C43CF78D8
:100E3000282F02D0482F02D002E0466100E0066170
:100E40006D1C082DE4D304600C88FF2C1ED9446867
:100E50005FF0000606F1080702FA07F50F882F4039
:100E6000AF420FD14FEA860C0EFA0CF7BC4303FADF
:100E70000CF73C43CF78282F00D14561CF78482F1D
:100E800000D10561761C082EE4D34460F0BD4FF616
:100E9000FF710180022181700421C17070470246F8
:100EA000002092680A4200D001207047806880B21A
:100EB000704702460020D2680A4200D001207047E5
:100EC000C06880B2704701617047416170470AB1E4
:100ED0000161704741617047C160704741F48032E1
:100EE0008261816182618169806970472C4B10B594
:100EF0001A684FF68074224042EA001008431860D6
:100F000010BD2849C8617047F0B5254C002801DAAA
:100F1000E36900E06368420D120185B2C0F3015736
:100F20009540C0F30346032F05D0C2020AD5032221
:100F3000B240934307E023F07062636823F070636C
:100F4000636002E0AB4343F0706201B12A430028C2
:100F500001DAE261F0BD6260F0BD10B58A0721F0F0
:100F600003040F49130F21440F228C689A409443C5
:100F70008C608A68984002438A6010BD0949C1F8B4
:100F8000DC00704700080140000C014000100140E7
:100F90000014014000180140001C014000200140E5
:100FA00000000140000020420D49086070470C49D4
:100FB000486070470A498860704709494AF6AA2084
:100FC0000860704706494CF6CC4008607047044AF8
:100FD00001460020D2680A4200D00120704700007C
:100FE0000030004010B501210C07204600F076F9D2
:100FF0002046BDE81040002100F070B92149086288
:1010000070472049086170471F4A116821F0E001CC
:101010000143116070471B49C1F8A00070471A4B8B
:101020001A6822F0030202431A601848026842F06C
:1010300004020260012905D020BF016821F00401EB
:101040000160704730BFF8E70F48016841F00401C4
:101050000160016841F0020101600C48016841F043
:101060000401016030BF7047074A01460020526802
:101070000A4200D00120704703490A6842EA800012
:101080000860704700000E420070004010ED00E064
:10109000A448016841F0010101604168A24A114081
:1010A00041600168A14A11400160016821F480217A
:1010B0000160416821F4FE0141604FF41F0181602D
:1010C000704798490A6822F480320A600A6822F45C
:1010D00080220A60B0F5803F07D0B0F5802F03D1A1
:1010E000086840F4A02008607047086840F4803029
:1010F000F9E70246002053098A49012B0AD0022B46
:101100000AD0496A02F01F02012393400B4200D02B
:10111000012070470968F5E7096AF3E718B5002070
:101120004FF4A06400903120FFF7E3FF0099491CC1
:101130000091A14201D00028F5D03120FFF7D9FF5E
:10114000002800D0012018BD76490A6822F0F80274
:1011500042EAC00008607047754908607047714AEC
:101160005368084323F47C13184350607047704958
:10117000086670476B4A516821F0030101435160D2
:1011800070476848406800F00C007047654A516835
:1011900021F0F001014351607047624A516821F427
:1011A000E0610143516070475E494A6822F4605231
:1011B00042EAC000486070475A4A0029517A01D07B
:1011C000014300E08143517270475949C1F8D8008A
:1011D0007047544A516821F44041014351607047BF
:1011E0005049002281F8202081F82020012802D0D7
:1011F000042802D1052081F8200070474D4908607D
:10120000704748490A6A02430A62704749494439AB
:101210000860704730B543494A6812F00C03464AEB
:1012200003D0042B01D0082B21D002604A680F2381
:10123000424C03EA1212A35C0268DA4042604B6837
:10124000072505EA1323E35C22FA03F383604B6866
:1012500005EAD323E35CDA40C2604968032303EA6A
:101260009131231F595CB2FBF1F1016130BD4A6835
:101270004B6802F470124FF0020413F4803F04EB49
:10128000924202D04B689B0301D52D4B00E02A4BC4
:101290005A43CAE7234A0029516901D0014300E0BB
:1012A0008143516170471F4A0029916901D0014370
:1012B00000E08143916170471A4A0029D16901D049
:1012C000014300E08143D1617047164A0029D1688B
:1012D00001D0014300E08143D1607047114A0029E9
:1012E000116901D0014300E0814311617047114948
:1012F0004039086070470E49C86470470949C87191
:1013000070470848416A41F0807141627047054A60
:101310000146002092680A4200D00120704701492E
:1013200088727047001002400000FFF8FFFFF6FED1
:10133000000042428004424200127A00180000205D
:1013400000093D00424A0029118801D0014300E014
:101350008143118070473E48001D018841F0100113
:10136000018070473A48001D018821F0100101807A
:10137000704737481C30008835491831098840EAE1
:101380000140704700B50246FFF7E5FF3049100CF9
:1013900018310880081D02805DF804EBE2E700B513
:1013A0000246FFF7D8FF2A49C2F3034008310880FC
:1013B000081D02805DF804EBD4E700B50246FFF794
:1013C000CAFF2349100C20310880081D02805DF8F7
:1013D00004EBC7E71E48103000880007010B1C48CB
:1013E00014300088084370471948001D0188890699
:1013F000FCD570471648001D018821F008010180C6
:1014000001880907FCD570470146114A0020121DCA
:1014100012880A4200D0012070470D49091D0A8830
:1014200082430A8070470A49091D0988C2B21140E7
:10143000074A1288024202D009B1012070470020F9
:1014400070470349091D0A8882430A8070470000DB
:1014500000280040F94910B5884202D10121C41486
:1014600086E0B0F1804F09D0F54988420DD10121C5
:101470000220FFF733FF0021022064E0012108462B
:10148000FFF72CFF002101205DE0EE49884206D1E4
:1014900001210420FFF722FF0021042053E0EA4944
:1014A000884206D101210820FFF718FF00210820FB
:1014B00049E0E649884206D101211020FFF70EFFDE
:1014C000002110203FE0E249884206D1012120207E
:1014D000FFF704FF0021202035E0DE49884202D1D9
:1014E0000121441444E0DC49884202D10121CC04AA
:1014F0003EE0DA49884202D101210C0538E0D849A2
:10150000884202D101214C0532E0D649884206D1F9
:1015100001214020FFF7E2FE0021402013E0D249E4
:10152000884206D101218020FFF7D8FE00218020CB
:1015300009E0CE4988420AD1841501212046FFF7EF
:10154000CDFE00212046BDE81040FFF7C7BEC849C8
:10155000884202D101210C040AE0C649884202D126
:1015600001214C0404E0C44988420AD101218C04C1
:101570002046FFF7AAFE2046BDE810400021FFF7F5
:10158000A4BE10BD30B50288AC4BB24C98420DD011
:10159000A0420BD0B0F1804F08D0A94DA84205D091
:1015A000A84DA84202D0A84DA84203D122F0700550
:1015B0004A882A43A54DA84206D0A54DA84203D08B
:1015C00022F44075CA882A4302808A8882850A8864
:1015D000028598420AD0A04208D0A54A904205D080
:1015E000A44A904202D0A44A904201D1097A0186CD
:1015F0000121818230BD30B5028C22F001020284CB
:10160000028C8388048B22F0020224F073050C887C
:101610002C430D8915434A882A43884DA8420BD094
:101620008C4DA84208D0924DA84205D0914DA842B9
:1016300002D0914DA8420DD122F008054A8923F429
:1016400040732A4322F004058A882A438D891D436A
:10165000CB892B4383800483C9888186028430BD73
:1016600070B5028C22F010020284028C8488038BF5
:101670000D8823F4E6464FF6FF7303EA052535434C
:101680000E8922F0200203EA061616434A8803EA6E
:1016900002123243694EB04202D06E4EB04215D1B2
:1016A00022F080064A8924F4406403EA021232439D
:1016B00022F040068A8803EA021232438E8903EA46
:1016C00086062643CC8903EA840434438480058358
:1016D000C9880187028470BD70B5028C22F48072C3
:1016E0000284028C8488838B0D8823F073031D434E
:1016F00022F400730E894FF6FF7202EA06261E439B
:101700004B8802EA032333434C4EB04202D0514E81
:10171000B04215D123F400664B8924F4405402EA08
:101720000323334323F480668B8802EA0323334385
:101730008E8902EA06162643CC8902EA0414344351
:1017400084808583C9888187038470BD70B5028CCD
:1017500022F480520284048C8288838B0D8823F4C7
:10176000E6464FF6FF7303EA0525354324F4005699
:101770000C8903EA043434434E8803EA06362643D0
:101780002E4CA04202D0334CA04205D122F480441A
:101790008A8903EA8212224382808583C988A0F85D
:1017A0004010068470BD828B22F440628283828B5B
:1017B0004FF6FF7303EA01210A4382837047828B4D
:1017C00022F00C028283828B0A4382837047028B51
:1017D00022F440620283028B4FF6FF7303EA012179
:1017E0000A4302837047F0B5048C24F0100404848B
:1017F000078B048C4FF6FF7527F4734705EA033314
:101800003B4305EA02221A430C4B05EA01169842B3
:101810000ED0104B98420BD0B0F1804F08D0084B3F
:10182000984205D0074B984202D0074B984225D1E9
:1018300024F02001314341F0100124E0002C01404C
:101840000004004000080040000C00400010004070
:101850000014004000340140004C014000500140A1
:101860000054014000180040001C004000200040CF
:1018700000400140004401400048014024F0A00322
:101880000B4343F0100102830184F0BD028B22F070
:101890000C020283028B0A430283704770B5048CEA
:1018A00024F001040484058B048C4FF6FF7606EACD
:1018B0000313134325F0F305F94A2B4390420ED04E
:1018C000F84A90420BD0B0F1804F08D0F64A9042CF
:1018D00005D0F64A904202D0F54A904202D124F057
:1018E000020201E024F00A020A4342F001010383EC
:1018F000018470BD2DE9F05F0D4604460888E84F6D
:10190000DFF8A0C3DFF8A0834988AA882B894FF0AD
:10191000804960B3042832D04FF6FF7E082836D0C5
:10192000208C9B4620F480502084A38B268C70460C
:1019300000EA022223F473431A4300EA0B301043F7
:101940000EEA013EBC420BD0644509D04C4507D09D
:10195000444505D0D54A944202D0D54B9C4245D14E
:1019600026F4005141EA0E0141F4805143E0204643
:10197000FFF794FFE9882046BDE8F05F86E7204640
:10198000FFF731FFE9882046BDE8F05F1FE7208CB4
:1019900020F480702084B4F81CA0208C0EEA03137D
:1019A00013432AF0F30A0EEA012B43EA0A03BC426E
:1019B0000BD0644509D04C4507D0444505D0BB4AFF
:1019C000944202D0BA4A944204D120F4007040EA12
:1019D0000B0002E020F42060084340F48070A383F1
:1019E0002084E9882046BDE8F05FE8E626F402425C
:1019F0000A4342F48051A08320462184E988BDE84F
:101A0000F05FD0E62DE9F0410C46002649880746F4
:101A1000012501B90226A288012A00D102252088C9
:101A200023890028384610D0FFF7DDFEE1883846CC
:101A3000FFF7CDFE23892A4631463846FFF72EFFB1
:101A4000E1883846BDE8F04120E7FFF727FFE1884D
:101A50003846FFF71BFF23892A4631463846FFF7F1
:101A6000C2FEE1883846BDE8F041B0E610B50A880C
:101A70004B88CC881A438B8823431A430B891A431B
:101A80004B8989891A430A43A0F8442010BD4FF6B8
:101A9000FF71818000210180C18041800172704707
:101AA0000021018041808180C1800181418181814B
:101AB000C181704700210180418001228280C18064
:101AC000018170470021018041808180C1800181B6
:101AD0004181818170470029018802D041F00101D4
:101AE00001E021F0010101807047002930F8441F16
:101AF00002D041F4004101E0C1F30E0101807047C2
:101B0000002A828901D00A4300E08A43828170471B
:101B1000818270471143A0F848107047002A8289DB
:101B200001D00A4300E08A4382817047018921F095
:101B3000070101817047028922F070020A43028185
:101B4000704700B50346FFF7F6FF188940F007001D
:101B5000188100BD70B516460D46602904464FF049
:101B6000010231460AD0FFF799FE29462046FFF7C9
:101B7000E2FF208940F00700208170BDFFF733FEAF
:101B8000F3E730B504894FF6FF7505EA03231343E5
:101B9000E4B20B432343038130BD10B50446FFF785
:101BA000F0FF208940F07700208110BD10B5044679
:101BB000FFF7E7FF208940F48040208110BD0185B8
:101BC00082827047028822F070020A4302807047C6
:101BD00070B50589048B068C25F007050D434FF67B
:101BE000FC410C4040F201110C434FF6FF7101EA39
:101BF000031126F022061143314305810483018439
:101C000070BD028B22F070020A4302837047028B80
:101C10004FF6FF7322F4E04203EA012111430183EE
:101C20007047828B22F070020A4382837047828B56
:101C30004FF6FF7322F4E04203EA0121114381834E
:101C400070470029018802D041F0800101E021F0B5
:101C50008001018070470029818802D041F0040191
:101C600001E021F00401818070470029818802D0C1
:101C700041F0080101E021F008018180704700294E
:101C8000818802D041F0010101E021F00101818051
:101C90007047028B22F008020A430283704700005B
:101CA000002C0140003401400004004000080040C6
:101CB000000C0040028B4FF6FF7322F4006203EA2F
:101CC000012111430183E9E7828B22F008020A43D4
:101CD0008283E3E7828B4FF6FF7322F4006203EA0C
:101CE000012111438183D9E7028B22F004020A43C8
:101CF0000283D3E7028B4FF6FF7322F4806203EA7C
:101D0000012111430183C9E7828B22F004020A43B7
:101D10008283C3E7828B4FF6FF7322F4806203EA6B
:101D2000012111438183B9E7028B22F080020A432B
:101D30000283B3E7028B4FF6FF73C2F30E0203EA8E
:101D4000012111430183A9E7828B22F080020A431B
:101D50008283A3E7828B4FF6FF73C2F30E0203EA7E
:101D600001211143818399E7028C22F002020A4388
:101D7000028493E7028C22F008020A4302848DE772
:101D8000028C4FF6FF7322F0200203EA0111114387
:101D9000018483E7028C4FF6FF7322F0800203EA8E
:101DA00001111143018479E7028C4FF6FF7322F48D
:101DB000007203EA0121114301846FE7028C4FF6A0
:101DC000FF7322F4006203EA01211143018465E7F5
:101DD000028C4FF6FF7322F4005203EA01311143E3
:101DE00001845BE710B50123048C8B409C43048481
:101DF000038C8A401343038410BD10B50423048C64
:101E00008B409C430484038C8A401343038410BD9D
:101E100030B50124058C00F118038C40A5430584DE
:101E200089B108290FD0091FC1F34E001844016879
:101E300021F4E041016001684FF6FF7303EA0222DA
:101E40001143016030BD03EB5100016821F07001C6
:101E500001600168F4E70029018802D041F0020125
:101E600001E021F00201018018E70029018802D079
:101E700041F0040101E021F0040101800EE7002996
:101E8000818802D041F0800101E021F08001818051
:101E900004E7028822F00802028002880A430280D6
:101EA000FCE6828822F07002828082880A43828067
:101EB000F4E6028922F00702028102890A430281C4
:101EC000ECE6028922F08002028102890A43028143
:101ED000E4E68184E2E68185E0E68186DEE601874C
:101EE000DCE68187DAE6A0F84010D7E6028822F423
:101EF0004072028002880A430280CFE6808ECDE6DF
:101F0000008FCBE6808FC9E6B0F84000C6E6808C33
:101F1000C4E6008DC2E602460020128A0A4200D0C2
:101F20000120BBE6C9430182B8E602460020138ABD
:101F300092890B4202EA010202D0002A00D001205D
:101F4000ACE6C9430182A9E6C44910B588420AD16A
:101F500001218C032046FFF7B8F92046BDE8104068
:101F60000021FFF7B2B9BE49884202D101214C04D9
:101F700010E0BC49884202D101218C040AE0BA4930
:101F8000884202D10121CC0404E0B84988420AD138
:101F900001210C052046FFF7A1F92046BDE81040BD
:101FA0000021FFF79BB910BD30B50446008A85B00B
:101FB0000D464CF6FF710840E98801432182A18952
:101FC0004EF6F3100140A8882A8910436A890A4313
:101FD0001043A081A08A4FF6FF410840A989014320
:101FE000A1826846FFF716F99C48844201D1039804
:101FF00000E00298A189090400EBC00101EB001088
:10200000296801D5490000E08900B0FBF1F06422A5
:10201000B0FBF2F109010B096FF018056B4300EBFF
:102020008300A3891D044FF0320306D503EBC000E3
:10203000B0FBF2F000F0070005E003EB0010B0FB8E
:10204000F2F000F00F000843208105B030BD4FF4DE
:102050001651016000218180C18001810C224281E2
:102060008181704710B5038A4FF2FF0213400A883E
:102070004C8822438C88C9880C4322431A4302822D
:1020800010BD0021018041808180C18070470029FE
:10209000818902D041F4005101E021F40051818195
:1020A000704710B5C1F3421301F01F040121A14094
:1020B000012B07D0022B07D01430002A026805D06C
:1020C0000A4304E00C30F8E71030F6E78A43026078
:1020D00010BD002A828A01D00A4300E08A4382822E
:1020E0007047028A22F00F020282028A0A430282A9
:1020F0007047828922F40062828182890A43828148
:1021000070470029818902D041F0020101E021F0ED
:10211000020181817047028A22F020020282028A33
:102120000A43028270470029018A02D041F48041AB
:1021300001E021F4804101827047C1F308018180F0
:1021400070478088C0F308007047818941F0010121
:1021500081817047028BD2B20283028B42EA012155
:1021600001837047028B02F47F420283028B0A4391
:10217000028370470029818A02D041F0200101E0EA
:1021800021F02001818270470029818A02D041F02C
:10219000100101E021F01001818270470029818A3D
:1021A00002D041F0080101E021F00801818270476E
:1021B0000029818902D041F4004101E0C1F30E0100
:1021C000818170470029818A02D041F4006101E0D9
:1021D00021F4006181827047828A22F004028282A7
:1021E000828A0A43828270470029818A02D041F0A4
:1021F000020101E021F002018182704702460020C5
:1022000012880A4200D001207047C94301807047FC
:1022100030B501F01F0201240025C1F3421304FA76
:1022200002F2012B0FD0022B0FD0838A4FEA11212B
:102230000088134204FA01F400EA040001D000B15E
:102240000125284630BD8389F0E7038AEEE70A0AB4
:1022500001219140C94301807047000000380140CE
:102260000044004000480040004C00400050004046
:102270004FF4E01000F098F800F060FC4FF47A7032
:1022800000F083FC00F0FBF800F01CF900F0E0F92E
:1022900000F055F900F034F90B22002132A002F0D1
:1022A00043F800F08AFA00F0A6F9384C0120C4F88F
:1022B000B0014FF4FA7004F5D87400F066FC002504
:1022C000256054F8800C324C01284AD0DC20207064
:1022D000304800F078FD3048817A6170C07AA07093
:1022E000E4602B49E01C00F042FD2949012000F088
:1022F000DFFD2749002000F0DBFD2849E460A1F262
:102300000510C0F80C12491CC0F80412D0F80012D5
:102310000831C0F8001200F58471C0F80812204995
:1023200080F81652A1F1790040F8F01F491C416075
:10233000491C8160491CC160491C0161491C416103
:10234000491C8161491CC161491C016201F035F9D8
:102350001448C0F8A05100BF00F067FF01F090F8EA
:10236000FAE7AC20B3E700002020200A0A0A0A0A94
:102370005265737461727420466C61672121207606
:1023800065722025642E25640A0A0A000080214215
:1023900058000020740000206800002095010020F3
:1023A000B10500200000214238B50546002000900C
:1023B000FEF76EFE4FF480342046FEF782FEFEF7F5
:1023C000ADFE0090012800D0FEE71020FEF788FA4D
:1023D0000220FEF775FA0020FEF7D8FE0020FEF777
:1023E000E3FE4FF48060FEF7D8FE29462046FEF754
:1023F000B6FE0120FEF7BBFE3920FEF77AFE00286C
:10240000FAD00220FEF7B6FEFEF7BBFE0828FBD18D
:1024100038BD38B5002204460092FEF739FE01208F
:10242000FEF79AFEFE4A126802F0020000900228AF
:1024300000D0FEE71020FEF753FA0220FEF740FA24
:102440000020FEF7A3FE0020FEF7AEFE4FF48060F2
:10245000FEF7A3FE21460020FEF781FE0120FEF7D5
:1024600086FE3920FEF745FE0028FAD00220FEF74E
:1024700081FE00BFFEF785FE0828FBD138BD10B5F0
:1024800001210846FEF70FFF01210420FEF70BFF94
:1024900001210820FEF707FF01211020FEF703FFAE
:1024A00001218020FEF7FFFE01218803FEF7FBFEDD
:1024B00001214804FEF700FF0121BDE81040880417
:1024C000FEF7FABE38B54FF4E040ADF80000032443
:1024D0008DF802401020D34D8DF803006946284640
:1024E000FEF783FC4FF40040ADF800008DF8024089
:1024F00004208DF8030069462846FEF776FC38BDB7
:1025000008B54FF44070ADF8000003208DF80200CC
:1025100010208DF803006946C248FEF766FC08BD2E
:1025200008B50220ADF8000003208DF8020010204D
:102530008DF803006946BB48FEF757FC08BD08B597
:102540004FF48070ADF8000003208DF802001020D9
:102550008DF803006946B448FEF747FC08BD2DE935
:10256000FF414FF40070ADF800000324DFF8B8829B
:102570008DF8024018268DF8036069464046FEF744
:1025800034FC4FF48067ADF8007004258DF80350DB
:1025900069464046FEF729FC0820ADF80C008DF88E
:1025A0000F5003A94046FEF720FCADF804708DF8EB
:1025B00006408DF807609B4E01A93046FEF715FCDA
:1025C0006802ADF804008DF8075001A93046FEF707
:1025D0000CFC01219548FEF797FC0220ADF808009D
:1025E0008DF80A4010208DF80B0002A93046FEF746
:1025F000FCFBBDE8FF813EB54FF4C060FDF740FE37
:1026000025208DF8000000208DF8010001248DF8B0
:1026100002408DF803406846FDF737FE26208DF80E
:1026200004008DF8054002258DF806508DF807400E
:1026300001A8FDF72AFE1D208DF808008DF809403D
:102640008DF80A508DF80B4002A8FDF71EFE3EBD26
:102650002DE9F0418CB0FFF782FF0024744F4FF456
:10266000E136ADF80440ADF808400C250096ADF811
:102670000640ADF80C40ADF80A5069463846FFF701
:1026800093FC40F22558012241463846FFF709FDE8
:1026900001213846FFF7FBFC40213846FFF7B5FD26
:1026A0004FF49650634F0490ADF81440ADF81840C5
:1026B000ADF81640ADF81C40ADF81A5004A93846E4
:1026C000FFF772FC012241463846FFF7EAFC012180
:1026D0003846FFF7DCFC40213846FFF796FDADF8A1
:1026E0002440ADF82640ADF82840ADF82C40524CBF
:1026F0000896ADF82A5008A92046FFF755FC01229C
:1027000041462046FFF7CDFC01212046FFF7BFFCE4
:1027100040212046FFF779FD0CB0BDE8F08110B5EF
:102720000120FEF76BFCFDF79BFF0120FEF766FD25
:102730006120FEF7DEFC0028FAD04FF40070FEF7AF
:1027400060FD0120FEF762FDFEF754FE49F64040B1
:10275000FEF725FEFEF748FE01210220FEF7F2FDFE
:10276000BDE81040FEF740BE3EB501210846FEF729
:10277000A3FD4FF47A70ADF804004720ADF80000D7
:102780000020ADF80600ADF802004FF08044694625
:102790002046FEF7F7FE01212046FFF7C3FB01228A
:1027A00011462046FFF7ACF901212046FFF793F9C7
:1027B00000210120FEF780FD3EBD3EB50121022033
:1027C000FEF77AFD41F61F40ADF8000063210020BE
:1027D000ADF80410194CADF80200ADF806006946DA
:1027E0002046FEF7CFFE012211462046FFF788F96A
:1027F00001212046FFF76FF93EBD10B504460121C7
:102800000807FEF759FDFEF7EDFB45F25550FEF7C0
:10281000CBFB04EB8400C0F35B04E0B210E00000EB
:1028200000100240000C014000080140000230008E
:1028300000380140004400400048004000040040CF
:10284000FEF7B5FBA0B2FEF7B5FBBDE81040FEF702
:10285000B9BB70B5064D0446C1B22846FFF76DFC02
:1028600040212846FFF7CAFC0028F9D0204670BD59
:1028700000480040704776A001F056FDFEE77AA0C0
:1028800001F052FDFEE77EA001F04EFDFEE781A0C3
:1028900001F04AFDFEE770477047704700F06CB9E1
:1028A000704710B501218C072046FFF73EFB00283A
:1028B00005D02046BDE810400121FFF742BB10BD06
:1028C00010B57A4C01212046FFF72FFB38B10121CA
:1028D0002046FFF736FB76494868401C4860204692
:1028E000BDE810400121FFF72CBB2DE9F041714EEE
:1028F00040F225513046FFF78BFC00286BD06E4C20
:102900000125304684F81552FFF71BFC94F8161287
:10291000605494F8160220B921785A2901D067A092
:1029200009E0401CC0B284F81602012806D961787B
:10293000A52903D063A001F0F7FC1BE005281ED1F8
:10294000E078FF2802D12079FF2841D00322634993
:10295000A01C00F0F7F990B161A001F0E5FC0321A3
:10296000A01C00F0DEF969A001F0DEFC03215B4849
:1029700000F0D7F93046BDE8F04100F08DBE94F884
:10298000161209291AD3207A0A30814216D14A4AEE
:1029900002F1FF00074600F02BFE5FA001F0C4FC2F
:1029A00094F81612384600F0BCF994F8160284F830
:1029B0001702304600F070FE84F8145294F81602A4
:1029C000142805D357A001F0AFFC304600F064FE98
:1029D000002084F81502BDE8F08170B5554C40F236
:1029E00025512046FFF714FC00282AD02046FFF787
:1029F000A8FB514C2E4D94F8161260542888411CA7
:102A0000298002281DD394F8160210B9217855297F
:102A100017D1401CC1B2002684F81612022911D029
:102A200018290ED3444A02F1FF0000F0EDFD94F89E
:102A3000160284F8170284F81662012084F8140242
:102A40002E8070BD60785A28FBD084F8166270BD65
:102A5000486172644661756C745F48616E646C6550
:102A600072210D0A000000004D656D4D616E6167B9
:102A7000655F48616E646C6572210D0A000000009C
:102A80004275734661756C745F48616E646C657203
:102A9000210D0A0055736167654661756C745F4866
:102AA000616E646C6572210D0A0000000004004034
:102AB0002800002000380140900000207468726FE8
:102AC000770D0A002D2D55617274315F49535220E4
:102AD0006461746120657272200D0A005800002044
:102AE00054686973206461746120646F6573206E3B
:102AF0006F742062656C6F6E6720746F206D652E39
:102B0000200D0A7461726765743A20006D79616402
:102B100064723A20000000006D6375526563697647
:102B2000653A200044617461206F7665724C656E71
:102B300074680A0000440040A802002029482A497D
:102B40000068B0FBF1F0B0F1807F0ED220F07F4141
:102B50004FF0E020491E4161244AF02182F8141D03
:102B600000218161072101617047FEE7204908606B
:102B700008680028FCD170471D480168002902D070
:102B80000168491E01607047704742F2283148438E
:102B90004FF0E02148610020886101220A610A6942
:102BA000D30701D0D203FAD508618861704700EBE2
:102BB000C0014FF0E02041610021816101220261EA
:102BC0000269D30701D0D203FAD501618161704750
:102BD000002103E00722521EFDD2491C8142F9D395
:102BE0007047000000000020A08601000FE000E018
:102BF0003000002070B5017D01F0800288490B880B
:102C00009A4203D04B885B1C4B800A80827BC37B3B
:102C1000120402EB0322037C49881A44437D090411
:102C2000807D01EB03210C18104601F0B8F87D4AB5
:102C30007D4B00F0CEFF02460B4600207B4901F0A1
:102C40003AF87B4D00222B4600F0C3FF01F0CDF88F
:102C500042F210714C43B4FBF0F001F0A0F82B46A7
:102C6000BDE87040002201F026B82DE9F0410025B2
:102C700016460F4680462C4608E000BF58F8242030
:102C800078196CA101F060FB641C0835B442F5DBD7
:102C9000002007F83600BDE8F0812DE9F047DFF8A5
:102CA0009C81002406462746C8F88C415C4D0820CC
:102CB0006860FFF77CFFBA464FF001094746F0070E
:102CC00001D0484600E05046C7F88C01A88880B281
:102CD000FFF76DFF641C7608E4B2082CEFD3C7F849
:102CE0008C91A888BDE8F04780B2FFF760BF70B54F
:102CF0000D460646002404E0305DFFF7CEFF641C5D
:102D0000E4B2AC42F8D370BD10B5034600221046C1
:102D100004E09C5C521C2044C0B2D2B28A42F8D378
:102D200010BD70B50D460646002404E0315D44A098
:102D300001F0FAFA641CAC42F8D3BDE8704042A03E
:102D400001F0F2BA70B500236AB940A001F0ECFAC4
:102D5000FF2070BDC45CCD5C03F10103AC4201D027
:102D6000D8B270BDDBB29342F4D3002070BD2DE920
:102D7000F8438846054600F0AFFE0024C10705D0A1
:102D800039A001F0D1FA601EBDE8F88300EBD070E5
:102D90004610002713E000BF15F814008DF800005E
:102DA00005EB4400102240788DF801008DF8027088
:102DB0000021684600F097FE08F80400641CB44245
:102DC000EADB3046E0E73EB505462D4800240168C1
:102DD000001D00910268001D0192036829A0029362
:102DE00001F0A2FA032229466846FFF73EFF294672
:102DF0002AA001F099FA2D496B4600BF53F8240030
:102E0000020E01F8242001EB8402050C5570050A1E
:102E1000641C9570E4B2D070032CEFD33EBD00006B
:102E20003400002014AE47E17A14FE3F2A75B54104
:102E30000088C3402530387800000000008021421F
:102E400025303258200000000A00000068657843F1
:102E50006F6D70616572206572726F723A206C6579
:102E60006E20697320300A00496E76616C696420B7
:102E7000696E707574206C656E6774680A00000076
:102E8000E8F7FF1F436869704964203D25237820D7
:102E9000252378202523780A000000004368697004
:102EA00049645374723A2025730A000068000020B8
:102EB00070B5FC4A0D46A0B101281FD11446114639
:102EC000800200F0D0FCF8A001F02EFA0321284681
:102ED000FFF727FF22462846BDE87040032100F097
:102EE00022BD0321284600F038FDF5A001F01CFAB0
:102EF0002846BDE870400321FFF713BF70BD00B541
:102F000089B00188ADF8001080788DF8020069461C
:102F10000120FFF7CDFF04A90020FFF7C9FF03221E
:102F200004A96846FFF70EFF09B000BD10B5E949D6
:102F30000020FFF7BDFF0322BDE81040E54B0C2148
:102F4000E54800F0C9BB2DE9FF5FE44E83463088B9
:102F500000F020FF6FF00B07394600F02EFE00F066
:102F60005DFFDFF87C934FF0663842464B4600F039
:102F700030FE00F066FF0546708800F00BFF394612
:102F800000F01BFE00F04AFF42464B4600F021FED7
:102F900000F057FF0446B08800F0FCFE394600F010
:102FA0000CFE00F03BFF42464B4600F012FE00F0E4
:102FB00048FFCC4906462846096800F0CCFDCA49BE
:102FC00007463046096800F0C6FD8046384600F0E6
:102FD00025FF81468A46284600F020FFCDE9009A69
:102FE00002460B46C1A001F09FF9204600F016FFF3
:102FF00002460B46C4A001F097F9404600F00EFFD0
:1030000005468946304600F009FFCDE900590246E1
:103010000B46C3A001F088F9BBF1000F2AD0C74EC0
:103020004046314600F097FD00F0C6FE05462046BA
:10303000314600F090FD00F0BFFE044638463146B0
:1030400000F089FD00F0B8FE0146280A8DF808005E
:103050008DF80950200A8DF80A00080A8DF80C0036
:103060008DF80D108DF80B4002AB06220B219A480B
:1030700000F032FBBDE8FF9F2DE9F047A0B082468B
:10308000782102A800F01DFDAD4C0026354684F8DD
:10309000146294F81301400636D594F8010194F8AF
:1030A0000211000440EA012094F8031194F805216C
:1030B000084394F80411090441EA022194F8062116
:1030C0001143B0FBF1F000F06AFE9E4A9E4B00F007
:1030D00080FD00F0B6FE00F0A1FE894607469B4A3F
:1030E0009B4B00F0E8FD9B4A9B4B00F072FD00F00B
:1030F000A8FE064600F092FE8046CDE900813A46E1
:103100004B4696A001F010F994F8130180063BD5C8
:1031100094F8070194F80811000440EA012094F89B
:10312000091194F80B21084394F80A1100EB800070
:10313000090441EA022194F80C2140001143B0FB3C
:10314000F1F0400000F02BFE00228A4B00F0B3FDAE
:1031500000F077FE00F062FE0F4604464FF0333277
:10316000854B00F036FD854A854B00F032FD00F0BE
:1031700068FE054600F052FE8046CDE900812246F9
:103180003B4680A001F0D0F8284600F047FE0446F8
:103190000D46304600F042FE02460B467EA102A8D4
:1031A000CDE9004501F0D0F8BAF1000F04D002AA31
:1031B0006521494800F0C1FA20B0BDE8F0872DE94B
:1031C000F0410E460A460746014678A001F0ACF8E9
:1031D00000257D4C4FF00108012E0CD0022E08D1A5
:1031E000012F1AD079A001F09FF8C4F8A451C4F8B7
:1031F000B851BDE8F081012F07D077A001F094F815
:10320000C4F8A051C4F8B451F3E776A001F08CF8EB
:10321000C4F8A081C4F8B481EBE775A001F084F88C
:10322000C4F8A481C4F8B881E3E73EB5734C94F8C0
:103230001402012818D1002084F81402DD208DF832
:103240000000D4F80C0200780A280ED00B2818D001
:103250000C2824D00D2823D069A001F065F8674818
:10326000FF21FF3000F02DFC3EBD6CA001F05CF8AA
:10327000D4F80802007800F07F01C009FFF79FFF33
:10328000F5E06BA001F050F81248C0680078AC2857
:1032900007D0DC28E3D10120FFF755FEDFE7D5E0BA
:1032A000DAE0CFE000C80008777269746520626FC9
:1032B00061726420616464723A200D0A00000000AB
:1032C0007265616420626F61726420616464723A45
:1032D000200D0A0058000020C00400203C000020FF
:1032E00066660A4048000020440000204348302021
:1032F00025662049322076616C7565203D20256663
:103300002041200D0A000000434831204931207639
:10331000616C7565203D2025662056200D0A000051
:1033200043483220256620562076616C7565203D25
:103330002025662056200D0A000000000000C8422B
:10334000A802002014AE47E17A14FE3FF2D24D628B
:103350001058F23F2855B78778ACEF3F0A6D5F569B
:103360006F6C746167652025662020256620560AEB
:1033700000000000000059403333F73F5817C4FBEA
:103380000266F23F6D5F43757265656E7420256657
:1033900020256620410A000041433A20252E32664E
:1033A00056202F20252E32664100000072656C6188
:1033B000794F70726561742073772025642063688B
:1033C000202564200D0A000000802142434832205D
:1033D0004F46460D0A000000434831204F46460D37
:1033E0000A000000484331204F4E0D0A0000000043
:1033F000434832204F4E0D0A00000000900000208C
:1034000075617274315061636B2E636D6420756EEB
:103410006B6F776E21200D0A000000004341534579
:1034200020504F574552434F4E54524C200D0A00E6
:10343000434153452052455155455354454C45430E
:10344000200D0A000120FFF717FE08E715A000F085
:103450006BFFFFF76BFD02E717A000F065FFD4F8E4
:103460000802FFF74CFD10B1EE208DF80000D4F8F3
:103470000C026B4601220178154800F02DF9EEE6AA
:10348000144B10B518680021841E134A6C2C02D20C
:10349000C2F8B01110BD6E28FCD901201960C2F825
:1034A000B00110BD43415345205245515545535439
:1034B00041444452200D0A00434153452053455492
:1034C000424F41524441444452200D0A0000000042
:1034D000C00400202C0000200080214270B5012192
:1034E00090B00846FDF7D6FE01214802FDF7DBFE4D
:1034F0003B4E3046FDF700F93A4800903A4801A9A2
:103500000024032581E831008020CDE904404000FB
:10351000069080000790202008900002CDE9090461
:1035200069463046FDF755F901213046FDF77BF934
:1035300001208DF830008DF831000B944FF460209D
:10354000CDE90D04274C8DF83C504C3C0BA920468E
:10355000FCF70AFFA803FDF73CFE0523012200212A
:103560002046FCF781FF0523022201212046FCF7BB
:103570007BFF0523032202212046FCF775FF012172
:103580002046FCF723FF01212046FCF715FF2046CB
:10359000FCF72FFF2046FCF731FF0028FAD1204628
:1035A000FCF733FF2046FCF735FF0028FAD1012154
:1035B0002046FCF736FF10B070BD08B5012104208D
:1035C000FDF771FE0720ADF8000000208DF8030024
:1035D00069460648FDF709FCBDE808407EE70000A3
:1035E000080002404C2401403C000020000801403B
:1035F00010B5002303E0D45CC4545B1CDBB28B42E7
:10360000F9D30022425410BD10B5002303E0D45C6E
:10361000C4545B1CDBB28B42F9D30022425410BD70
:103620002DE9F041604F8046012016460D46C7F84F
:10363000A00100240DE000BF15F8011B4046FEF775
:103640007CFD80214046FEF7D9FD0028F9D0641C9E
:10365000E4B2B442F0D30020C7F8A001BDE8F08185
:103660002DE9F04107460D46084600F035FA0646BA
:1036700000240EE0295D4DA000F056FE295D38467D
:10368000FEF75BFD40213846FEF7B8FD0028F9D073
:10369000641CB442EEDBE1E7454A10B500219042DC
:1036A00009D1444880F8151280F81612FF2100F065
:1036B00008FA41A00BE0444A90420CD1434880F8FC
:1036C000151280F81612FF2100F0FBF940A0BDE8AA
:1036D000104000F029BE10BD70B50446A520207032
:1036E0005A20607040481546C2681278A27042782D
:1036F000E2708078207100206071A171E071257204
:103700002A46194604F1090000F0C2F905F1090042
:10371000C1B22046FFF7F8FA6119487233A000F0F1
:1037200003FE05F10A010C463348FFF7FAFAE2B24C
:10373000BDE8704030491E4872E72DE9F04104466B
:10374000EE202070B12060701020A0700025E57080
:103750000120207165711646A171104600F0BCF978
:10376000401C074602463146E01D00F091F9E01981
:10377000FF218571C171FC22027241728172324651
:1037800039461EA000F0D0FD21A000F0CDFD07F1CC
:103790000B010C461848FFF7C4FAE2B2BDE8F0414D
:1037A000154909483CE7000000002142256300005C
:1037B00000380140900000207265736574205553F5
:1037C000415254310D0A000000440040A80200207C
:1037D0007265736574207561727432484D49506129
:1037E000636B0D0A00000000580000206D637562D5
:1037F00075696C64203A2000C004002075706C6507
:103800006E202564203A202573200D0A0000000058
:103810006275696C64203A20000000002DE9F041D7
:103820000D4607460024FDF764F805EB872508E000
:103830002846FDF799F8064604280AD05EA000F055
:1038400073FD3420FDF763FA2046641CE4B2C828F7
:10385000EED3C82C03D331465EA000F065FDBDE871
:10386000F041FDF752B870B50E464FF480618842C2
:1038700000D20846810504D0012101EB90250024E7
:1038800006E0850AFBE7E0B23146FFF7C7FF641C9C
:10389000AC42F8D370BD2DE9F04781460024594869
:1038A00017468846254682422FD2FDF722F834205B
:1038B000FDF72DFA23E000BF39F8141007EB4400A0
:1038C000FDF715F9064616E03420FDF720FA6D1CC9
:1038D000ADB24346224629464BA000F025FD052DFA
:1038E00009D93420FDF713FA314651A000F01CFD30
:1038F000FDF70BF801E0042EE6D1641CA4B24445A8
:10390000DAD3BDE8F047FDF700B8BDE8F08710B5A1
:10391000002305E032F8134020F813405B1C9BB2F3
:103920008B42F7D310BD70B5C0B00C4606461546A5
:103930004FF48071684600F0C4F82246314668466C
:1039400000F0A6F8E00701D0641CA4B261082A4682
:103950006846FFF7A0FF40B070BD30B50546C1B066
:103960000C46C8070CD0601CC0F34E016846FFF738
:10397000CEFF22466946284600F08AF841B030BDA5
:103980006108F3E770B50446006836490840B0F1B5
:10399000005F04D0BDE8704033A000F0C5BC36A085
:1039A00000F0C2FC6068394D28602068FCF7A8FB75
:1039B0002868BDE870400047666C6173685F657297
:1039C0006173655F70616765204661696C64200A98
:1039D00000000000666C6173685F65726173655F0B
:1039E00070616765204661696C64203E203230302A
:1039F00020212121206C6173746572726F3A202539
:103A0000640A000000000108464C4153485F5072B0
:103A10006F6772616D48616C66576F72642065698B
:103A20002025642C2025642F2564200A0000000036
:103A3000464C4153485F50726F6772616D48616CCC
:103A400066576F7264204661696C64203E20323094
:103A50003020212121206C6173746572726F3A20CD
:103A600025640A000000FE2F537461636B204661D9
:103A7000696C6564210D0A00537461636B20537592
:103A80006363657373210D0A000000004C00002081
:103A900040EA01039B0703D009E008C9121F08C0D0
:103AA000042AFAD203E011F8013B00F8013B521E50
:103AB000F9D27047D2B201E000F8012B491EFBD2C7
:103AC00070470022F6E710B513460A460446194629
:103AD000FFF7F0FF204610BD421C10F8011B002923
:103AE000FBD1801A70472DE9F04791460F4680467A
:103AF0000446002614F8015B2DB100F015FA0068A9
:103B0000405DC007F6D12B2D02D02D2D18D0641E9C
:103B10004A463946204600F00BFA27B13968A142DF
:103B200001D1C7F8008071054FF002040BD5404267
:103B3000002803DD00F01CFC0460A007BDE8F0874E
:103B400046F48066E4E70028F8DA00F011FC04602F
:103B50006FF00040F2E780EA010210B502F0004386
:103B6000400022D04A001FD0010E01EB1261C0F3C9
:103B70005600C2F3560240F4000042F40002A0FBDB
:103B8000022000047F39140400D0401C50EA124087
:103B900001D44000491EC2B20C0604EBD010401CF8
:103BA0004008802A02D003E0002010BD20F0010070
:103BB000002900DA0020184310BD420005D0C0F3F0
:103BC000C7525242914201DC0020704700EBC150C5
:103BD00070472DE9FE4F81EA030404F0004421F010
:103BE000004100944FF0000B23F0004350EA010421
:103BF0005ED052EA03045BD0C3F30A54C1F30A5502
:103C00002C44A4F2F3340194A0FB0254C1F3130139
:103C100041F48011C3F3130343F4801301FB024406
:103C200000FB034E840A970A44EA815447EA83570B
:103C3000A4FB076802958D0A05FB07854FEA932CC4
:103C400004FB0C542705029D4FEA065847EA163735
:103C5000B5EB08056EEB070C870E920E47EA81174D
:103C600042EA8312A7FB0201B6EB0B0164EB0004EE
:103C70002B0D43EA0C335E1844EB1C50DA465146D8
:103C8000E7FB0201C5F313044FEA0B3343EA145375
:103C90004FEA0432019C43EA0603A4F10C040294A7
:103CA000009CCDE900B400F0D8F903B0BDE8F08F76
:103CB00000200146F9E72DE9F04D81EA030404F004
:103CC000004B21F0004514464FF0000A23F000415C
:103CD00050EA050220D054EA01021DD0C5F30A576C
:103CE0000246C5F31303C1F31300C1F30A5640F4AF
:103CF000801543F48013A7EB0608101BD64608F284
:103D0000FD3873EB050002D308F1010801E09218B9
:103D10005B41B8F1000F03DA00200146BDE8F08DE9
:103D200000204FF48011064684460EE0171B73EB0B
:103D3000050705D3121B63EB050306434CEA010C90
:103D400049084FEA300092185B4150EA0107EDD173
:103D500052EA030012D082EA040083EA0501084314
:103D600005D0101BAB4106D20122002306E0002241
:103D70004FF0004302E06FF0010253101AEB06000F
:103D80004CEB085110EB0A0041EB0B01BDE8F04D84
:103D900000F054B996230022114600F021B90EB567
:103DA00040F2334102910021CDE900110A460B4651
:103DB00000F053F903B000BD00F0004220F00040D5
:103DC000C10DC0F3160040F400007F2901DA002085
:103DD0007047962903DCC1F19601C84001E096398D
:103DE0008840002AF4D040427047C1F30A5210B50F
:103DF000C1F3130140F2FF3341F480119A4201DA1A
:103E0000002010BD40F233439A42A2F2334203DC59
:103E1000524200F079F810BD904010BD00F0004211
:103E200030F000400AD0C10D01F56071C0F31600FA
:103E300042EA0151C2084007114370470020014681
:103E4000704701F0004330B421F0004150EA010214
:103E500006D00A0DA2F56072C1F31301002A02DC3C
:103E600030BC00207047440F44EAC104C100E01890
:103E700030BC00EBC25000F0AAB830B50B4601468A
:103E800000202022012409E021FA02F59D4205D3F9
:103E900003FA02F5491B04FA02F52844151EA2F1A3
:103EA0000102F1DC30BD2DE9F05F054600209246AD
:103EB0009B4688460646814640241BE028464146EC
:103EC0004746224600F020F853465A46C01A914110
:103ED00010D311461846224600F0F6F92D1A67EB6A
:103EE00001084F4622460120002100F0EDF917EBB2
:103EF00000094E41201EA4F10104DFDC4846314692
:103F00002A464346BDE8F09F202A04DB203A21FAE6
:103F100002F00021704721FA02F3D040C2F12002E2
:103F2000914008431946704700487047B84C000854
:103F30002DE9F05F82460078002715468B460AF18E
:103F40000104B946302801D09DB113E014F8010BEB
:103F50000127782803D0582801D045B10AE00DB1D7
:103F6000102D07D10027102514F8010B02E00825B9
:103F700000E00A250026B0460EE005FB080005FB20
:103F800006F1012701EB10461FFA80F8B6F5803FD5
:103F900000D3B94614F8010B294600F0B6F9002801
:103FA000EBDABBF1000F05D00FB1641E00E0544600
:103FB000CBF80040B9F1000F06D000F0D9F902218A
:103FC0000160C81EBDE8F09F48EA0640FAE70029F4
:103FD000A8BF7047401C490008BF20F0010070478F
:103FE00010B4B0FA80FC00FA0CF050EA010404BFEF
:103FF00010BC704749B1CCF1200421FA04F411FA45
:104000000CF118BF012121430843A3EB0C01CB1D88
:104010004FEA00614FEA102042BF002010BC7047F9
:1040200000EBC35010440029A4BF10BC7047401CD3
:10403000490008BF20F0010010BC704710B5141EE5
:1040400073F1000408DA401C41F1000192185B4151
:104050001A4301D120F0010010BD2DE9F04D924628
:104060009B4611B1B1FA81F202E0B0FA80F220323F
:10407000904600F029F904460F4640EA0A0041EA5A
:104080000B0153465A46084313D0114653EA010028
:1040900019D0C8F140025046FFF736FF05460E46DC
:1040A00050465946424600F00FF9084305D001201A
:1040B00004E020463946BDE8F08D0020054346EA7D
:1040C000E0762C4337430A986305E40AA0EB080026
:1040D0000022FD0A44EA47540A3002D50020014676
:1040E000E9E7010510196941DDE908450019694151
:1040F000BDE8F04DA2E72DE9FE4F804681EA0300BE
:10410000C00F0C46009021F0004123F00045B8EBB1
:104110000200A94105D24046214690461C460B4666
:10412000024623F00040104347D0270DC7F30A0092
:10413000C3F30A510290401A019040286BDAC3F38E
:10414000130040F4801B0098924620B10023D2EB6C
:10415000030A63EB0B0B01985946C0F1400250462D
:1041600000F0B2F806460D4650465946019A00F056
:10417000BAF810EB08006141002487EA115284EA82
:10418000E7731A4340D0009A62B3019A012A4FEABA
:10419000075215DC001B61EB02014FF0004202EAFE
:1041A0000752CDE90042001C41F5801132462B46F2
:1041B000FFF753FF03B0BDE8F08F40462146F9E713
:1041C000001B61EB0201001C41F5801300185B41EC
:1041D0002018A2F5001747EB030140EAD570B61985
:1041E0006D4111E06D084FEA360645EAC0754FEAA9
:1041F0000752001B61EB0201001C41F580114908C8
:104200004FEA30000019514132462B4603B0BDE859
:10421000F04FFFF713BF0098012240000023D0EBBE
:10422000020263EBE073009821464FEAE074B8EBBA
:10423000000061EB0401E9E783F000435BE781F0F4
:10424000004158E7C1F30A52C1F3130140F2FF33B2
:1042500041F480119A4202DA00200146704740F290
:1042600033439A42A2F2334202DC5242FFF74CBE81
:1042700000F02AB830B5041E71F1000404DB4FF0E1
:104280000044404264EB0101141E73F1000405DB9D
:104290001C464FF00043524263EB0403994208BFAF
:1042A000904230BD064C074D06E0E06840F0010347
:1042B00094E8070098471034AC42F6D3FBF71AFF96
:1042C000BC4C0008DC4C0008202A04DB203A00FA31
:1042D00002F1002070479140C2F1200320FA03F35D
:1042E000194390407047202A06DBCB17203A41FA49
:1042F00002F043EAE07306E041FA02F3D040C2F173
:10430000200291400843194670473A2800D23038BD
:1043100020F02002412A01D3A2F13700884201D3C4
:104320004FF0FF30704700000FB4054B10B503A9E4
:10433000044A029800F0E2F810BC5DF814FB00009B
:1043400053280008500000200FB4084B10B504A9F2
:1043500002AA039800F0D2F8044602A9002000F057
:1043600064FC204610BC5DF814FB00002B4C0008D8
:10437000004870475400002002E008C8121F08C11E
:10438000002AFAD170477047002001E001C1121FD6
:10439000002AFBD1704700002DE9FF5FDDE9022014
:1043A000010DDDF838B0024318D044F61050A1F2E8
:1043B000FF3141430D140F98012820D0A5EB0B00CD
:1043C000401C5FEA000A4FF00004474EDFF81C91E2
:1043D000A046504616D5CAF1000728E00F980124E0
:1043E00043A2012808D0002100980F9BC0E90021BA
:1043F000C0E90243BDE8FF9F6FEA0B01F4E7CBF190
:104400000000DEE7074612E0F80707D022463346F1
:1044100040464946FFF7DDFB804689462246334643
:1044200010461946FFF7D5FB04460E467F10002FB5
:10443000EAD1DDE90201BAF1000F42464B4602DA49
:10444000FFF7C7FB01E0FFF736FC04460E460022EB
:10445000284BFFF70FFF03D84FF0FF30014607E06E
:104460000022254B20463146FFF745FEFFF7EAFEC6
:10447000102409E0002C0ADB0A220023FFF713FDB9
:10448000019B30321A55641E50EA0102F2D1641CBD
:10449000019AC4F1110314440F9A012A03D0012296
:1044A00008430DD10AE0084304D000204FF0110B5F
:1044B0000F9080E7A3EB0B056D1E0DE05B4504DD5F
:1044C0004FF0000205F1010504E003DA4FF00002AD
:1044D000A5F10105002AECD000980F99C0E902313E
:1044E000C0E9004586E70000000024400000F03FDE
:1044F000300000000000F0430000E03F2DE9FF4FD6
:1045000095B09B468946064600250FE2252877D1BF
:1045100000242746F84A0121059400E0044316F8D8
:10452000013F203B01FA03F01042F7D130782A28EE
:1045300011D06FF02F033078A0F13002092A16D87D
:10454000059A44F0020402EB820203EB420210449B
:10455000761C0590EFE759F8042B0592002A03DA40
:10456000504244F40054059044F00204761C307824
:104570002E2816D116F8010F44F004042A280DD075
:104580006FF02F023078A0F13003092B09D807EB28
:10459000870302EB4303C718761CF3E759F8047B43
:1045A000761C30786C280FD006DC4C2817D0682891
:1045B0000DD06A2814D104E0742810D07A280FD1C5
:1045C0000DE044F400140AE044F4801401E044F4E3
:1045D00040147278824202D104F58014761C761C55
:1045E000307866280BD013DC582877D009DC0028F7
:1045F00075D04528F6D04628F4D047281AD19DE139
:1046000018E0632835D0642879D0652812D195E167
:10461000702873D008DC6728F1D069286FD06E2825
:104620000DD06F2806D1B5E073282CD0752875D031
:10463000782874D05A46179990476D1C75E1C4F3D9
:104640000250022809D003280DD0D9F80010042800
:104650000DD00D6009F1040967E1D9F80010EA17DF
:10466000C1E90052F6E7D9F800100D80F2E70D70AD
:10467000F0E719F8041B8DF8001000208DF80100F8
:10468000EA46012003E059F804AB4FF0FF30610720
:104690004FF0000102D40DE008F101018846B94253
:1046A0000FDA8045F8DB1AF808100029F4D108E089
:1046B00008F1010188468142FADB1AF80810002946
:1046C000F6D105985B46A0EB080721463846179AB5
:1046D00000F094FA284400EB080507E04DE029E1DA
:1046E0000DE01AF8010B5A4617999047B8F10108E6
:1046F000F7D25B4621463846179A13E142E00A2278
:104700000092C4F302524FF0000A022A08D059F86E
:1047100004CB032A4FEAEC710AD00DE029E02AE02D
:1047200009F1070121F00702F2E802C1914609E010
:104730000FFA8CFC4FEAEC71042A03D14FFA8CFC7F
:104740004FEAEC71002907DA0A460021DCF1000C7F
:1047500061EB02012D2202E0220504D52B228DF807
:104760000420012203E0E20701D02022F7E790466F
:1047700059E00A2102E010220DE010214FF0000A5A
:1047800000910BE010224FF0000A44F004040827C7
:10479000009203E008224FF0000A0092C4F3025294
:1047A000022A05D059F804CB0021032A08D009E0D9
:1047B00009F1070121F00702F2E802C1914605E084
:1047C0001FFA8CFC042A01D10CF0FF0C4FF00008FA
:1047D000220728D5702806D0009B83F0100353EAE7
:1047E0000A0305D00EE040228DF80420012208E0E3
:1047F0005CEA010206D030228DF804208DF8050015
:1048000002229046009B83F0080353EA0A030AD170
:104810005CEA010201D1620705D530228DF804203F
:104820004FF001087F1E582804D034A003900EA832
:1048300002900DE036A0F9E753466046009AFFF774
:1048400032FB84460398825C0298401E02900270FC
:104850005CEA0100F0D1029806A9081A00F1200ACA
:10486000600702D524F4803400E00127574502DDBB
:10487000A7EB0A0000E0002000EB0A010090059879
:104880004144401A0590E00306D45B462146179A3E
:10489000059800F0B3F90544002706E001A85A4640
:1048A000C05D179990476D1C7F1C4745F6DBE00300
:1048B0000CD55B462146179A059800F09FF90544F0
:1048C00004E030205A46179990476D1C0099481E05
:1048D00000900029F5DC08E0029802995A46007819
:1048E000491C0291179990476D1CBAF10001AAF179
:1048F000010AF1DC65E100000928010030313233A2
:10490000343536373839616263646566000000000B
:1049100030313233343536373839414243444546F5
:104920000000000000F058F90544761C307800289B
:104930007FF4ECAD19B02846BDE8F08F620700D4D3
:10494000062709F1070222F0070CFCE80223E146E2
:1049500003F000485FEA080C02D00FF2702C0DE063
:104960005FEA045C02D50FF2682C07E05FEAC47CC2
:1049700002D00FF2602C01E0AFF2700C4FF0FF3864
:1049800023F00043CDF850C065280CD006DC452844
:1049900009D046281DD047283DD13DE0662818D0D3
:1049A00067287ED138E00021112F01DB112000E0C3
:1049B000781CCDE9000106A90EA8FFF7EDFCDDE9A2
:1049C0000F010E9A03910021009207F1010A049150
:1049D0004DE04FF000400097CDE9011006A90EA868
:1049E000FFF7DAFCDDE90F0203920E9B119900221A
:1049F000DDF80CA00093049211B9791C00EB010AB8
:104A0000B7EB0A0004D4C0F1FF3007F1010A0490AB
:104A1000AAEB0700019044E0012F00DA01270021F2
:104A2000112F01DD112000E03846CDE9000106A973
:104A30000EA8FFF7B1FCDDE90F010E9A03910021EA
:104A400004910092BA4621070CD40399514500DA2B
:104A50008A46BAF1010F05DD009AAAF10101515C05
:104A6000302908D0B84202DA10F1040F06DA012129
:104A7000CDE9011015E0AAF10101E9E7002805DC04
:104A8000049901440491AAEB000102E0411C514544
:104A900000DD8A460499401A401C01904FF0004006
:104AA0000290200704D40198504501DBCDF8048022
:104AB00000208DF84F0002980DF14F07B0F1004F24
:104AC00025D02B200E9002984FF0020800280CDA17
:104AD000404202902D200E9007E00A210298FFF735
:104AE000CCF93031029007F8011DB8F10001A8F1AE
:104AF0000108F2DC02980028EFD1791E0E980870A8
:104B0000307800F0200040F0450007F8020D12A8B0
:104B1000C01B00F107081498007800B1012000EBD9
:104B20000A01019801EBE07105984144401A401ECA
:104B30000590E00306D45B462146179A059800F0DD
:104B40005DF805441498007818B15A4617999047B3
:104B50006D1CE00324D55B462146179A059800F0AA
:104B60004DF805441CE00498002807DBDDE903014B
:104B7000884203DD0098405C179901E017993020C6
:104B80005A469047049805F10105401C049001988D
:104B9000401E019004D12E205A46179990476D1C53
:104BA000BAF10001AAF1010ADDDC05E017F8010BFA
:104BB0005A46179990476D1CB8F10001A8F10108F9
:104BC000F4DC5B462146179A0598ABE62D00000001
:104BD0002B000000200000002DE9F04104460025D4
:104BE0001E461746880404D405E039462020B04705
:104BF0006D1C641EF9D52846BDE8F0812DE9F04111
:104C0000044600251E469046C80301D5302700E023
:104C10002027880404D505E041463846B0476D1C7E
:104C2000641EF9D52846BDE8F0810A68531C0B6064
:104C3000107070470040404040404040404041417B
:104C40004141414040404040404040404040404061
:104C500040404040400502020202020202020202FB
:104C600002020202022020202020202020202002F8
:104C70000202020202029090909090901010101088
:104C80001010101010101010101010101010101024
:104C900002020202020288888888888808080808B8
:104CA0000808080808080808080808080808080884
:104CB0000202020240000000354C0008DC4C0008F3
:104CC000000000205800000078430008344D000820
:104CD00058000020F80900008843000800A24A0498
:104CE000000000000000000001020304060708099C
:104CF000020406080000000001020304010203048C
:104D00000607080900000000000000000000000085
:104D10000000000000000000000000000000000093
:104D2000FBFA7A41CA6BA8410000000000000000B5
:044D3000000000007F
:04000005080000ED02
:00000001FF
